{
	"verifier.sol": {
		"Verifier": {
			"abi": [
				{
					"inputs": [
						{
							"components": [
								{
									"components": [
										{
											"internalType": "uint256",
											"name": "X",
											"type": "uint256"
										},
										{
											"internalType": "uint256",
											"name": "Y",
											"type": "uint256"
										}
									],
									"internalType": "struct Pairing.G1Point",
									"name": "a",
									"type": "tuple"
								},
								{
									"components": [
										{
											"internalType": "uint256[2]",
											"name": "X",
											"type": "uint256[2]"
										},
										{
											"internalType": "uint256[2]",
											"name": "Y",
											"type": "uint256[2]"
										}
									],
									"internalType": "struct Pairing.G2Point",
									"name": "b",
									"type": "tuple"
								},
								{
									"components": [
										{
											"internalType": "uint256",
											"name": "X",
											"type": "uint256"
										},
										{
											"internalType": "uint256",
											"name": "Y",
											"type": "uint256"
										}
									],
									"internalType": "struct Pairing.G1Point",
									"name": "c",
									"type": "tuple"
								}
							],
							"internalType": "struct Verifier.Proof",
							"name": "proof",
							"type": "tuple"
						}
					],
					"name": "verifyTx",
					"outputs": [
						{
							"internalType": "bool",
							"name": "r",
							"type": "bool"
						}
					],
					"stateMutability": "view",
					"type": "function"
				}
			],
			"devdoc": {
				"kind": "dev",
				"methods": {},
				"version": 1
			},
			"evm": {
				"assembly": "    /* \"verifier.sol\":6234:9352  contract Verifier {... */\n  mstore(0x40, 0x80)\n  callvalue\n  dup1\n  iszero\n  tag_1\n  jumpi\n  0x00\n  dup1\n  revert\ntag_1:\n  pop\n  dataSize(sub_0)\n  dup1\n  dataOffset(sub_0)\n  0x00\n  codecopy\n  0x00\n  return\nstop\n\nsub_0: assembly {\n        /* \"verifier.sol\":6234:9352  contract Verifier {... */\n      mstore(0x40, 0x80)\n      callvalue\n      dup1\n      iszero\n      tag_1\n      jumpi\n      0x00\n      dup1\n      revert\n    tag_1:\n      pop\n      jumpi(tag_2, lt(calldatasize, 0x04))\n      shr(0xe0, calldataload(0x00))\n      dup1\n      0xf6af0311\n      eq\n      tag_3\n      jumpi\n    tag_2:\n      0x00\n      dup1\n      revert\n        /* \"verifier.sol\":9069:9350  function verifyTx(... */\n    tag_3:\n      tag_4\n      0x04\n      dup1\n      calldatasize\n      sub\n      dup2\n      add\n      swap1\n      tag_5\n      swap2\n      swap1\n      tag_6\n      jump\t// in\n    tag_5:\n      tag_7\n      jump\t// in\n    tag_4:\n      mload(0x40)\n      tag_8\n      swap2\n      swap1\n      tag_9\n      jump\t// in\n    tag_8:\n      mload(0x40)\n      dup1\n      swap2\n      sub\n      swap1\n      return\n    tag_7:\n        /* \"verifier.sol\":9150:9156  bool r */\n      0x00\n        /* \"verifier.sol\":9168:9193  uint[] memory inputValues */\n      dup1\n        /* \"verifier.sol\":9207:9208  0 */\n      0x00\n        /* \"verifier.sol\":9196:9209  new uint[](0) */\n      0xffffffffffffffff\n      dup2\n      gt\n      iszero\n      tag_11\n      jumpi\n      tag_12\n      tag_13\n      jump\t// in\n    tag_12:\n    tag_11:\n      mload(0x40)\n      swap1\n      dup1\n      dup3\n      mstore\n      dup1\n      0x20\n      mul\n      0x20\n      add\n      dup3\n      add\n      0x40\n      mstore\n      dup1\n      iszero\n      tag_14\n      jumpi\n      dup2\n      0x20\n      add\n      0x20\n      dup3\n      mul\n      dup1\n      calldatasize\n      dup4\n      calldatacopy\n      dup1\n      dup3\n      add\n      swap2\n      pop\n      pop\n      swap1\n      pop\n    tag_14:\n      pop\n        /* \"verifier.sol\":9168:9209  uint[] memory inputValues = new uint[](0) */\n      swap1\n      pop\n        /* \"verifier.sol\":9262:9263  0 */\n      0x00\n        /* \"verifier.sol\":9232:9258  verify(inputValues, proof) */\n      tag_15\n        /* \"verifier.sol\":9239:9250  inputValues */\n      dup3\n        /* \"verifier.sol\":9252:9257  proof */\n      dup6\n        /* \"verifier.sol\":9232:9238  verify */\n      tag_16\n        /* \"verifier.sol\":9232:9258  verify(inputValues, proof) */\n      jump\t// in\n    tag_15:\n        /* \"verifier.sol\":9232:9263  verify(inputValues, proof) == 0 */\n      sub\n        /* \"verifier.sol\":9228:9344  if (verify(inputValues, proof) == 0) {... */\n      tag_17\n      jumpi\n        /* \"verifier.sol\":9286:9290  true */\n      0x01\n        /* \"verifier.sol\":9279:9290  return true */\n      swap2\n      pop\n      pop\n      jump(tag_10)\n        /* \"verifier.sol\":9228:9344  if (verify(inputValues, proof) == 0) {... */\n    tag_17:\n        /* \"verifier.sol\":9328:9333  false */\n      0x00\n        /* \"verifier.sol\":9321:9333  return false */\n      swap2\n      pop\n      pop\n        /* \"verifier.sol\":9069:9350  function verifyTx(... */\n    tag_10:\n      swap2\n      swap1\n      pop\n      jump\t// out\n        /* \"verifier.sol\":8143:9064  function verify(uint[] memory input, Proof memory proof) internal view returns (uint) {... */\n    tag_16:\n        /* \"verifier.sol\":8223:8227  uint */\n      0x00\n        /* \"verifier.sol\":8239:8265  uint256 snark_scalar_field */\n      dup1\n        /* \"verifier.sol\":8268:8345  21888242871839275222246405745257275088548364400416034343698204186575808495617 */\n      0x30644e72e131a029b85045b68181585d2833e84879b9709143e1f593f0000001\n        /* \"verifier.sol\":8239:8345  uint256 snark_scalar_field = 21888242871839275222246405745257275088548364400416034343698204186575808495617 */\n      swap1\n      pop\n        /* \"verifier.sol\":8355:8377  VerifyingKey memory vk */\n      0x00\n        /* \"verifier.sol\":8380:8394  verifyingKey() */\n      tag_20\n        /* \"verifier.sol\":8380:8392  verifyingKey */\n      tag_21\n        /* \"verifier.sol\":8380:8394  verifyingKey() */\n      jump\t// in\n    tag_20:\n        /* \"verifier.sol\":8355:8394  VerifyingKey memory vk = verifyingKey() */\n      swap1\n      pop\n        /* \"verifier.sol\":8432:8434  vk */\n      dup1\n        /* \"verifier.sol\":8432:8444  vk.gamma_abc */\n      0x80\n      add\n      mload\n        /* \"verifier.sol\":8432:8451  vk.gamma_abc.length */\n      mload\n        /* \"verifier.sol\":8427:8428  1 */\n      0x01\n        /* \"verifier.sol\":8412:8417  input */\n      dup7\n        /* \"verifier.sol\":8412:8424  input.length */\n      mload\n        /* \"verifier.sol\":8412:8428  input.length + 1 */\n      tag_22\n      swap2\n      swap1\n      tag_23\n      jump\t// in\n    tag_22:\n        /* \"verifier.sol\":8412:8451  input.length + 1 == vk.gamma_abc.length */\n      eq\n        /* \"verifier.sol\":8404:8452  require(input.length + 1 == vk.gamma_abc.length) */\n      tag_24\n      jumpi\n      0x00\n      dup1\n      revert\n    tag_24:\n        /* \"verifier.sol\":8509:8536  Pairing.G1Point memory vk_x */\n      0x00\n        /* \"verifier.sol\":8539:8560  Pairing.G1Point(0, 0) */\n      mload(0x40)\n      dup1\n      0x40\n      add\n      0x40\n      mstore\n      dup1\n        /* \"verifier.sol\":8555:8556  0 */\n      0x00\n        /* \"verifier.sol\":8539:8560  Pairing.G1Point(0, 0) */\n      dup2\n      mstore\n      0x20\n      add\n        /* \"verifier.sol\":8558:8559  0 */\n      0x00\n        /* \"verifier.sol\":8539:8560  Pairing.G1Point(0, 0) */\n      dup2\n      mstore\n      pop\n        /* \"verifier.sol\":8509:8560  Pairing.G1Point memory vk_x = Pairing.G1Point(0, 0) */\n      swap1\n      pop\n        /* \"verifier.sol\":8575:8581  uint i */\n      0x00\n        /* \"verifier.sol\":8570:8767  for (uint i = 0; i < input.length; i++) {... */\n    tag_25:\n        /* \"verifier.sol\":8591:8596  input */\n      dup7\n        /* \"verifier.sol\":8591:8603  input.length */\n      mload\n        /* \"verifier.sol\":8587:8588  i */\n      dup2\n        /* \"verifier.sol\":8587:8603  i < input.length */\n      lt\n        /* \"verifier.sol\":8570:8767  for (uint i = 0; i < input.length; i++) {... */\n      iszero\n      tag_26\n      jumpi\n        /* \"verifier.sol\":8643:8661  snark_scalar_field */\n      dup4\n        /* \"verifier.sol\":8632:8637  input */\n      dup8\n        /* \"verifier.sol\":8638:8639  i */\n      dup3\n        /* \"verifier.sol\":8632:8640  input[i] */\n      dup2\n      mload\n      dup2\n      lt\n      tag_28\n      jumpi\n      tag_29\n      tag_30\n      jump\t// in\n    tag_29:\n    tag_28:\n      0x20\n      mul\n      0x20\n      add\n      add\n      mload\n        /* \"verifier.sol\":8632:8661  input[i] < snark_scalar_field */\n      lt\n        /* \"verifier.sol\":8624:8662  require(input[i] < snark_scalar_field) */\n      tag_31\n      jumpi\n      0x00\n      dup1\n      revert\n    tag_31:\n        /* \"verifier.sol\":8683:8756  Pairing.addition(vk_x, Pairing.scalar_mul(vk.gamma_abc[i + 1], input[i])) */\n      tag_32\n        /* \"verifier.sol\":8700:8704  vk_x */\n      dup3\n        /* \"verifier.sol\":8706:8755  Pairing.scalar_mul(vk.gamma_abc[i + 1], input[i]) */\n      tag_33\n        /* \"verifier.sol\":8725:8727  vk */\n      dup6\n        /* \"verifier.sol\":8725:8737  vk.gamma_abc */\n      0x80\n      add\n      mload\n        /* \"verifier.sol\":8742:8743  1 */\n      0x01\n        /* \"verifier.sol\":8738:8739  i */\n      dup6\n        /* \"verifier.sol\":8738:8743  i + 1 */\n      tag_34\n      swap2\n      swap1\n      tag_23\n      jump\t// in\n    tag_34:\n        /* \"verifier.sol\":8725:8744  vk.gamma_abc[i + 1] */\n      dup2\n      mload\n      dup2\n      lt\n      tag_35\n      jumpi\n      tag_36\n      tag_30\n      jump\t// in\n    tag_36:\n    tag_35:\n      0x20\n      mul\n      0x20\n      add\n      add\n      mload\n        /* \"verifier.sol\":8746:8751  input */\n      dup11\n        /* \"verifier.sol\":8752:8753  i */\n      dup6\n        /* \"verifier.sol\":8746:8754  input[i] */\n      dup2\n      mload\n      dup2\n      lt\n      tag_37\n      jumpi\n      tag_38\n      tag_30\n      jump\t// in\n    tag_38:\n    tag_37:\n      0x20\n      mul\n      0x20\n      add\n      add\n      mload\n        /* \"verifier.sol\":8706:8724  Pairing.scalar_mul */\n      tag_39\n        /* \"verifier.sol\":8706:8755  Pairing.scalar_mul(vk.gamma_abc[i + 1], input[i]) */\n      jump\t// in\n    tag_33:\n        /* \"verifier.sol\":8683:8699  Pairing.addition */\n      tag_40\n        /* \"verifier.sol\":8683:8756  Pairing.addition(vk_x, Pairing.scalar_mul(vk.gamma_abc[i + 1], input[i])) */\n      jump\t// in\n    tag_32:\n        /* \"verifier.sol\":8676:8756  vk_x = Pairing.addition(vk_x, Pairing.scalar_mul(vk.gamma_abc[i + 1], input[i])) */\n      swap2\n      pop\n        /* \"verifier.sol\":8605:8608  i++ */\n      dup1\n      dup1\n      0x01\n      add\n      swap2\n      pop\n      pop\n        /* \"verifier.sol\":8570:8767  for (uint i = 0; i < input.length; i++) {... */\n      jump(tag_25)\n    tag_26:\n      pop\n        /* \"verifier.sol\":8783:8822  Pairing.addition(vk_x, vk.gamma_abc[0]) */\n      tag_41\n        /* \"verifier.sol\":8800:8804  vk_x */\n      dup2\n        /* \"verifier.sol\":8806:8808  vk */\n      dup4\n        /* \"verifier.sol\":8806:8818  vk.gamma_abc */\n      0x80\n      add\n      mload\n        /* \"verifier.sol\":8819:8820  0 */\n      0x00\n        /* \"verifier.sol\":8806:8821  vk.gamma_abc[0] */\n      dup2\n      mload\n      dup2\n      lt\n      tag_42\n      jumpi\n      tag_43\n      tag_30\n      jump\t// in\n    tag_43:\n    tag_42:\n      0x20\n      mul\n      0x20\n      add\n      add\n      mload\n        /* \"verifier.sol\":8783:8799  Pairing.addition */\n      tag_40\n        /* \"verifier.sol\":8783:8822  Pairing.addition(vk_x, vk.gamma_abc[0]) */\n      jump\t// in\n    tag_41:\n        /* \"verifier.sol\":8776:8822  vk_x = Pairing.addition(vk_x, vk.gamma_abc[0]) */\n      swap1\n      pop\n        /* \"verifier.sol\":8836:9029  Pairing.pairingProd4(... */\n      tag_44\n        /* \"verifier.sol\":8871:8876  proof */\n      dup6\n        /* \"verifier.sol\":8871:8878  proof.a */\n      0x00\n      add\n      mload\n        /* \"verifier.sol\":8880:8885  proof */\n      dup7\n        /* \"verifier.sol\":8880:8887  proof.b */\n      0x20\n      add\n      mload\n        /* \"verifier.sol\":8902:8922  Pairing.negate(vk_x) */\n      tag_45\n        /* \"verifier.sol\":8917:8921  vk_x */\n      dup5\n        /* \"verifier.sol\":8902:8916  Pairing.negate */\n      tag_46\n        /* \"verifier.sol\":8902:8922  Pairing.negate(vk_x) */\n      jump\t// in\n    tag_45:\n        /* \"verifier.sol\":8924:8926  vk */\n      dup6\n        /* \"verifier.sol\":8924:8932  vk.gamma */\n      0x40\n      add\n      mload\n        /* \"verifier.sol\":8947:8970  Pairing.negate(proof.c) */\n      tag_47\n        /* \"verifier.sol\":8962:8967  proof */\n      dup11\n        /* \"verifier.sol\":8962:8969  proof.c */\n      0x40\n      add\n      mload\n        /* \"verifier.sol\":8947:8961  Pairing.negate */\n      tag_46\n        /* \"verifier.sol\":8947:8970  Pairing.negate(proof.c) */\n      jump\t// in\n    tag_47:\n        /* \"verifier.sol\":8972:8974  vk */\n      dup8\n        /* \"verifier.sol\":8972:8980  vk.delta */\n      0x60\n      add\n      mload\n        /* \"verifier.sol\":8995:9019  Pairing.negate(vk.alpha) */\n      tag_48\n        /* \"verifier.sol\":9010:9012  vk */\n      dup10\n        /* \"verifier.sol\":9010:9018  vk.alpha */\n      0x00\n      add\n      mload\n        /* \"verifier.sol\":8995:9009  Pairing.negate */\n      tag_46\n        /* \"verifier.sol\":8995:9019  Pairing.negate(vk.alpha) */\n      jump\t// in\n    tag_48:\n        /* \"verifier.sol\":9021:9023  vk */\n      dup10\n        /* \"verifier.sol\":9021:9028  vk.beta */\n      0x20\n      add\n      mload\n        /* \"verifier.sol\":8836:8856  Pairing.pairingProd4 */\n      tag_49\n        /* \"verifier.sol\":8836:9029  Pairing.pairingProd4(... */\n      jump\t// in\n    tag_44:\n        /* \"verifier.sol\":8832:9039  if(!Pairing.pairingProd4(... */\n      tag_50\n      jumpi\n        /* \"verifier.sol\":9038:9039  1 */\n      0x01\n        /* \"verifier.sol\":9031:9039  return 1 */\n      swap4\n      pop\n      pop\n      pop\n      pop\n      jump(tag_19)\n        /* \"verifier.sol\":8832:9039  if(!Pairing.pairingProd4(... */\n    tag_50:\n        /* \"verifier.sol\":9056:9057  0 */\n      0x00\n        /* \"verifier.sol\":9049:9057  return 0 */\n      swap4\n      pop\n      pop\n      pop\n      pop\n        /* \"verifier.sol\":8143:9064  function verify(uint[] memory input, Proof memory proof) internal view returns (uint) {... */\n    tag_19:\n      swap3\n      swap2\n      pop\n      pop\n      jump\t// out\n        /* \"verifier.sol\":6581:8138  function verifyingKey() pure internal returns (VerifyingKey memory vk) {... */\n    tag_21:\n        /* \"verifier.sol\":6628:6650  VerifyingKey memory vk */\n      tag_51\n      tag_52\n      jump\t// in\n    tag_51:\n        /* \"verifier.sol\":6673:6842  Pairing.G1Point(uint256(0x1828c4abd35d3f96cd0537683b0629fa6d301bc070bd9fd1aebddb114597febe), uint256(0x044545c20d86e7d35fc169155c36e2be1038f3118a053838c59535269296df9e)) */\n      mload(0x40)\n      dup1\n      0x40\n      add\n      0x40\n      mstore\n      dup1\n        /* \"verifier.sol\":6697:6763  0x1828c4abd35d3f96cd0537683b0629fa6d301bc070bd9fd1aebddb114597febe */\n      0x1828c4abd35d3f96cd0537683b0629fa6d301bc070bd9fd1aebddb114597febe\n        /* \"verifier.sol\":6673:6842  Pairing.G1Point(uint256(0x1828c4abd35d3f96cd0537683b0629fa6d301bc070bd9fd1aebddb114597febe), uint256(0x044545c20d86e7d35fc169155c36e2be1038f3118a053838c59535269296df9e)) */\n      dup2\n      mstore\n      0x20\n      add\n        /* \"verifier.sol\":6774:6840  0x044545c20d86e7d35fc169155c36e2be1038f3118a053838c59535269296df9e */\n      0x044545c20d86e7d35fc169155c36e2be1038f3118a053838c59535269296df9e\n        /* \"verifier.sol\":6673:6842  Pairing.G1Point(uint256(0x1828c4abd35d3f96cd0537683b0629fa6d301bc070bd9fd1aebddb114597febe), uint256(0x044545c20d86e7d35fc169155c36e2be1038f3118a053838c59535269296df9e)) */\n      dup2\n      mstore\n      pop\n        /* \"verifier.sol\":6662:6664  vk */\n      dup2\n        /* \"verifier.sol\":6662:6670  vk.alpha */\n      0x00\n      add\n        /* \"verifier.sol\":6662:6842  vk.alpha = Pairing.G1Point(uint256(0x1828c4abd35d3f96cd0537683b0629fa6d301bc070bd9fd1aebddb114597febe), uint256(0x044545c20d86e7d35fc169155c36e2be1038f3118a053838c59535269296df9e)) */\n      dup2\n      swap1\n      mstore\n      pop\n        /* \"verifier.sol\":6862:7189  Pairing.G2Point([uint256(0x083eaedf8e6d481e997694b7dbe3384a0d5e99c9f3328120d499857bebec2277), uint256(0x26c8a02e0935fcc925a55df776d399a1043caa4b6dadc14b7d5173136e00278a)], [uint256(0x0f9e7d925b5bba38156e7bdb8b06874797000f9832ad4b10d8687bad170ac877), uint256(0x032e4373acd12e2c4b7a1374e86a5ac035296760cb2e33f4c023d43d2340c22e)]) */\n      mload(0x40)\n      dup1\n      0x40\n      add\n      0x40\n      mstore\n      dup1\n      mload(0x40)\n      dup1\n      0x40\n      add\n      0x40\n      mstore\n      dup1\n        /* \"verifier.sol\":6887:6953  0x083eaedf8e6d481e997694b7dbe3384a0d5e99c9f3328120d499857bebec2277 */\n      0x083eaedf8e6d481e997694b7dbe3384a0d5e99c9f3328120d499857bebec2277\n        /* \"verifier.sol\":6862:7189  Pairing.G2Point([uint256(0x083eaedf8e6d481e997694b7dbe3384a0d5e99c9f3328120d499857bebec2277), uint256(0x26c8a02e0935fcc925a55df776d399a1043caa4b6dadc14b7d5173136e00278a)], [uint256(0x0f9e7d925b5bba38156e7bdb8b06874797000f9832ad4b10d8687bad170ac877), uint256(0x032e4373acd12e2c4b7a1374e86a5ac035296760cb2e33f4c023d43d2340c22e)]) */\n      dup2\n      mstore\n      0x20\n      add\n        /* \"verifier.sol\":6964:7030  0x26c8a02e0935fcc925a55df776d399a1043caa4b6dadc14b7d5173136e00278a */\n      0x26c8a02e0935fcc925a55df776d399a1043caa4b6dadc14b7d5173136e00278a\n        /* \"verifier.sol\":6862:7189  Pairing.G2Point([uint256(0x083eaedf8e6d481e997694b7dbe3384a0d5e99c9f3328120d499857bebec2277), uint256(0x26c8a02e0935fcc925a55df776d399a1043caa4b6dadc14b7d5173136e00278a)], [uint256(0x0f9e7d925b5bba38156e7bdb8b06874797000f9832ad4b10d8687bad170ac877), uint256(0x032e4373acd12e2c4b7a1374e86a5ac035296760cb2e33f4c023d43d2340c22e)]) */\n      dup2\n      mstore\n      pop\n      dup2\n      mstore\n      0x20\n      add\n      mload(0x40)\n      dup1\n      0x40\n      add\n      0x40\n      mstore\n      dup1\n        /* \"verifier.sol\":7043:7109  0x0f9e7d925b5bba38156e7bdb8b06874797000f9832ad4b10d8687bad170ac877 */\n      0x0f9e7d925b5bba38156e7bdb8b06874797000f9832ad4b10d8687bad170ac877\n        /* \"verifier.sol\":6862:7189  Pairing.G2Point([uint256(0x083eaedf8e6d481e997694b7dbe3384a0d5e99c9f3328120d499857bebec2277), uint256(0x26c8a02e0935fcc925a55df776d399a1043caa4b6dadc14b7d5173136e00278a)], [uint256(0x0f9e7d925b5bba38156e7bdb8b06874797000f9832ad4b10d8687bad170ac877), uint256(0x032e4373acd12e2c4b7a1374e86a5ac035296760cb2e33f4c023d43d2340c22e)]) */\n      dup2\n      mstore\n      0x20\n      add\n        /* \"verifier.sol\":7120:7186  0x032e4373acd12e2c4b7a1374e86a5ac035296760cb2e33f4c023d43d2340c22e */\n      0x032e4373acd12e2c4b7a1374e86a5ac035296760cb2e33f4c023d43d2340c22e\n        /* \"verifier.sol\":6862:7189  Pairing.G2Point([uint256(0x083eaedf8e6d481e997694b7dbe3384a0d5e99c9f3328120d499857bebec2277), uint256(0x26c8a02e0935fcc925a55df776d399a1043caa4b6dadc14b7d5173136e00278a)], [uint256(0x0f9e7d925b5bba38156e7bdb8b06874797000f9832ad4b10d8687bad170ac877), uint256(0x032e4373acd12e2c4b7a1374e86a5ac035296760cb2e33f4c023d43d2340c22e)]) */\n      dup2\n      mstore\n      pop\n      dup2\n      mstore\n      pop\n        /* \"verifier.sol\":6852:6854  vk */\n      dup2\n        /* \"verifier.sol\":6852:6859  vk.beta */\n      0x20\n      add\n        /* \"verifier.sol\":6852:7189  vk.beta = Pairing.G2Point([uint256(0x083eaedf8e6d481e997694b7dbe3384a0d5e99c9f3328120d499857bebec2277), uint256(0x26c8a02e0935fcc925a55df776d399a1043caa4b6dadc14b7d5173136e00278a)], [uint256(0x0f9e7d925b5bba38156e7bdb8b06874797000f9832ad4b10d8687bad170ac877), uint256(0x032e4373acd12e2c4b7a1374e86a5ac035296760cb2e33f4c023d43d2340c22e)]) */\n      dup2\n      swap1\n      mstore\n      pop\n        /* \"verifier.sol\":7210:7537  Pairing.G2Point([uint256(0x17a4371a6402f76e106e3288136aa9ff18bbca9a947ab55cb11473b1e23e7be5), uint256(0x0348581dfa54eaadcd6ee3302b7b6240059bf70403f2788dd7f583b847669297)], [uint256(0x2758eaf041db3722e609ed0d5f206c6b76392fb4b286ab8e748aca48560d2960), uint256(0x02885943492de5a413085ef0911dc022b60e703bd9fa7f84539c74711b4e9561)]) */\n      mload(0x40)\n      dup1\n      0x40\n      add\n      0x40\n      mstore\n      dup1\n      mload(0x40)\n      dup1\n      0x40\n      add\n      0x40\n      mstore\n      dup1\n        /* \"verifier.sol\":7235:7301  0x17a4371a6402f76e106e3288136aa9ff18bbca9a947ab55cb11473b1e23e7be5 */\n      0x17a4371a6402f76e106e3288136aa9ff18bbca9a947ab55cb11473b1e23e7be5\n        /* \"verifier.sol\":7210:7537  Pairing.G2Point([uint256(0x17a4371a6402f76e106e3288136aa9ff18bbca9a947ab55cb11473b1e23e7be5), uint256(0x0348581dfa54eaadcd6ee3302b7b6240059bf70403f2788dd7f583b847669297)], [uint256(0x2758eaf041db3722e609ed0d5f206c6b76392fb4b286ab8e748aca48560d2960), uint256(0x02885943492de5a413085ef0911dc022b60e703bd9fa7f84539c74711b4e9561)]) */\n      dup2\n      mstore\n      0x20\n      add\n        /* \"verifier.sol\":7312:7378  0x0348581dfa54eaadcd6ee3302b7b6240059bf70403f2788dd7f583b847669297 */\n      0x0348581dfa54eaadcd6ee3302b7b6240059bf70403f2788dd7f583b847669297\n        /* \"verifier.sol\":7210:7537  Pairing.G2Point([uint256(0x17a4371a6402f76e106e3288136aa9ff18bbca9a947ab55cb11473b1e23e7be5), uint256(0x0348581dfa54eaadcd6ee3302b7b6240059bf70403f2788dd7f583b847669297)], [uint256(0x2758eaf041db3722e609ed0d5f206c6b76392fb4b286ab8e748aca48560d2960), uint256(0x02885943492de5a413085ef0911dc022b60e703bd9fa7f84539c74711b4e9561)]) */\n      dup2\n      mstore\n      pop\n      dup2\n      mstore\n      0x20\n      add\n      mload(0x40)\n      dup1\n      0x40\n      add\n      0x40\n      mstore\n      dup1\n        /* \"verifier.sol\":7391:7457  0x2758eaf041db3722e609ed0d5f206c6b76392fb4b286ab8e748aca48560d2960 */\n      0x2758eaf041db3722e609ed0d5f206c6b76392fb4b286ab8e748aca48560d2960\n        /* \"verifier.sol\":7210:7537  Pairing.G2Point([uint256(0x17a4371a6402f76e106e3288136aa9ff18bbca9a947ab55cb11473b1e23e7be5), uint256(0x0348581dfa54eaadcd6ee3302b7b6240059bf70403f2788dd7f583b847669297)], [uint256(0x2758eaf041db3722e609ed0d5f206c6b76392fb4b286ab8e748aca48560d2960), uint256(0x02885943492de5a413085ef0911dc022b60e703bd9fa7f84539c74711b4e9561)]) */\n      dup2\n      mstore\n      0x20\n      add\n        /* \"verifier.sol\":7468:7534  0x02885943492de5a413085ef0911dc022b60e703bd9fa7f84539c74711b4e9561 */\n      0x02885943492de5a413085ef0911dc022b60e703bd9fa7f84539c74711b4e9561\n        /* \"verifier.sol\":7210:7537  Pairing.G2Point([uint256(0x17a4371a6402f76e106e3288136aa9ff18bbca9a947ab55cb11473b1e23e7be5), uint256(0x0348581dfa54eaadcd6ee3302b7b6240059bf70403f2788dd7f583b847669297)], [uint256(0x2758eaf041db3722e609ed0d5f206c6b76392fb4b286ab8e748aca48560d2960), uint256(0x02885943492de5a413085ef0911dc022b60e703bd9fa7f84539c74711b4e9561)]) */\n      dup2\n      mstore\n      pop\n      dup2\n      mstore\n      pop\n        /* \"verifier.sol\":7199:7201  vk */\n      dup2\n        /* \"verifier.sol\":7199:7207  vk.gamma */\n      0x40\n      add\n        /* \"verifier.sol\":7199:7537  vk.gamma = Pairing.G2Point([uint256(0x17a4371a6402f76e106e3288136aa9ff18bbca9a947ab55cb11473b1e23e7be5), uint256(0x0348581dfa54eaadcd6ee3302b7b6240059bf70403f2788dd7f583b847669297)], [uint256(0x2758eaf041db3722e609ed0d5f206c6b76392fb4b286ab8e748aca48560d2960), uint256(0x02885943492de5a413085ef0911dc022b60e703bd9fa7f84539c74711b4e9561)]) */\n      dup2\n      swap1\n      mstore\n      pop\n        /* \"verifier.sol\":7558:7885  Pairing.G2Point([uint256(0x0b4856eb27168668e5faeca8a602fa44451c81774820f94968c1110aa51d8cbe), uint256(0x09a638afc9a5de54e6ecb1b33a2592fa085f3ec9d53be611ace1c57d8d35f607)], [uint256(0x02d97f958c2f092187c80215d7f1712c3c7be65e5721db23769c30e615b9ae53), uint256(0x2ac1e4471c4ec4a1f5f24c6ed879354d6172547bd4babfb393fd2819a7903ec5)]) */\n      mload(0x40)\n      dup1\n      0x40\n      add\n      0x40\n      mstore\n      dup1\n      mload(0x40)\n      dup1\n      0x40\n      add\n      0x40\n      mstore\n      dup1\n        /* \"verifier.sol\":7583:7649  0x0b4856eb27168668e5faeca8a602fa44451c81774820f94968c1110aa51d8cbe */\n      0x0b4856eb27168668e5faeca8a602fa44451c81774820f94968c1110aa51d8cbe\n        /* \"verifier.sol\":7558:7885  Pairing.G2Point([uint256(0x0b4856eb27168668e5faeca8a602fa44451c81774820f94968c1110aa51d8cbe), uint256(0x09a638afc9a5de54e6ecb1b33a2592fa085f3ec9d53be611ace1c57d8d35f607)], [uint256(0x02d97f958c2f092187c80215d7f1712c3c7be65e5721db23769c30e615b9ae53), uint256(0x2ac1e4471c4ec4a1f5f24c6ed879354d6172547bd4babfb393fd2819a7903ec5)]) */\n      dup2\n      mstore\n      0x20\n      add\n        /* \"verifier.sol\":7660:7726  0x09a638afc9a5de54e6ecb1b33a2592fa085f3ec9d53be611ace1c57d8d35f607 */\n      0x09a638afc9a5de54e6ecb1b33a2592fa085f3ec9d53be611ace1c57d8d35f607\n        /* \"verifier.sol\":7558:7885  Pairing.G2Point([uint256(0x0b4856eb27168668e5faeca8a602fa44451c81774820f94968c1110aa51d8cbe), uint256(0x09a638afc9a5de54e6ecb1b33a2592fa085f3ec9d53be611ace1c57d8d35f607)], [uint256(0x02d97f958c2f092187c80215d7f1712c3c7be65e5721db23769c30e615b9ae53), uint256(0x2ac1e4471c4ec4a1f5f24c6ed879354d6172547bd4babfb393fd2819a7903ec5)]) */\n      dup2\n      mstore\n      pop\n      dup2\n      mstore\n      0x20\n      add\n      mload(0x40)\n      dup1\n      0x40\n      add\n      0x40\n      mstore\n      dup1\n        /* \"verifier.sol\":7739:7805  0x02d97f958c2f092187c80215d7f1712c3c7be65e5721db23769c30e615b9ae53 */\n      0x02d97f958c2f092187c80215d7f1712c3c7be65e5721db23769c30e615b9ae53\n        /* \"verifier.sol\":7558:7885  Pairing.G2Point([uint256(0x0b4856eb27168668e5faeca8a602fa44451c81774820f94968c1110aa51d8cbe), uint256(0x09a638afc9a5de54e6ecb1b33a2592fa085f3ec9d53be611ace1c57d8d35f607)], [uint256(0x02d97f958c2f092187c80215d7f1712c3c7be65e5721db23769c30e615b9ae53), uint256(0x2ac1e4471c4ec4a1f5f24c6ed879354d6172547bd4babfb393fd2819a7903ec5)]) */\n      dup2\n      mstore\n      0x20\n      add\n        /* \"verifier.sol\":7816:7882  0x2ac1e4471c4ec4a1f5f24c6ed879354d6172547bd4babfb393fd2819a7903ec5 */\n      0x2ac1e4471c4ec4a1f5f24c6ed879354d6172547bd4babfb393fd2819a7903ec5\n        /* \"verifier.sol\":7558:7885  Pairing.G2Point([uint256(0x0b4856eb27168668e5faeca8a602fa44451c81774820f94968c1110aa51d8cbe), uint256(0x09a638afc9a5de54e6ecb1b33a2592fa085f3ec9d53be611ace1c57d8d35f607)], [uint256(0x02d97f958c2f092187c80215d7f1712c3c7be65e5721db23769c30e615b9ae53), uint256(0x2ac1e4471c4ec4a1f5f24c6ed879354d6172547bd4babfb393fd2819a7903ec5)]) */\n      dup2\n      mstore\n      pop\n      dup2\n      mstore\n      pop\n        /* \"verifier.sol\":7547:7549  vk */\n      dup2\n        /* \"verifier.sol\":7547:7555  vk.delta */\n      0x60\n      add\n        /* \"verifier.sol\":7547:7885  vk.delta = Pairing.G2Point([uint256(0x0b4856eb27168668e5faeca8a602fa44451c81774820f94968c1110aa51d8cbe), uint256(0x09a638afc9a5de54e6ecb1b33a2592fa085f3ec9d53be611ace1c57d8d35f607)], [uint256(0x02d97f958c2f092187c80215d7f1712c3c7be65e5721db23769c30e615b9ae53), uint256(0x2ac1e4471c4ec4a1f5f24c6ed879354d6172547bd4babfb393fd2819a7903ec5)]) */\n      dup2\n      swap1\n      mstore\n      pop\n        /* \"verifier.sol\":7932:7933  1 */\n      0x01\n        /* \"verifier.sol\":7910:7934  new Pairing.G1Point[](1) */\n      0xffffffffffffffff\n      dup2\n      gt\n      iszero\n      tag_54\n      jumpi\n      tag_55\n      tag_13\n      jump\t// in\n    tag_55:\n    tag_54:\n      mload(0x40)\n      swap1\n      dup1\n      dup3\n      mstore\n      dup1\n      0x20\n      mul\n      0x20\n      add\n      dup3\n      add\n      0x40\n      mstore\n      dup1\n      iszero\n      tag_56\n      jumpi\n      dup2\n      0x20\n      add\n    tag_57:\n      tag_58\n      tag_59\n      jump\t// in\n    tag_58:\n      dup2\n      mstore\n      0x20\n      add\n      swap1\n      0x01\n      swap1\n      sub\n      swap1\n      dup2\n      tag_57\n      jumpi\n      swap1\n      pop\n    tag_56:\n      pop\n        /* \"verifier.sol\":7895:7897  vk */\n      dup2\n        /* \"verifier.sol\":7895:7907  vk.gamma_abc */\n      0x80\n      add\n        /* \"verifier.sol\":7895:7934  vk.gamma_abc = new Pairing.G1Point[](1) */\n      dup2\n      swap1\n      mstore\n      pop\n        /* \"verifier.sol\":7962:8131  Pairing.G1Point(uint256(0x20c0683cba29ef0f25fe0d4e4c5c56d5b8819c5c6e6fb6e5a6a05d9ac7005461), uint256(0x30083df89526eef3eba5173f8d591d13c647256e67b62be5d16141b5f3634be0)) */\n      mload(0x40)\n      dup1\n      0x40\n      add\n      0x40\n      mstore\n      dup1\n        /* \"verifier.sol\":7986:8052  0x20c0683cba29ef0f25fe0d4e4c5c56d5b8819c5c6e6fb6e5a6a05d9ac7005461 */\n      0x20c0683cba29ef0f25fe0d4e4c5c56d5b8819c5c6e6fb6e5a6a05d9ac7005461\n        /* \"verifier.sol\":7962:8131  Pairing.G1Point(uint256(0x20c0683cba29ef0f25fe0d4e4c5c56d5b8819c5c6e6fb6e5a6a05d9ac7005461), uint256(0x30083df89526eef3eba5173f8d591d13c647256e67b62be5d16141b5f3634be0)) */\n      dup2\n      mstore\n      0x20\n      add\n        /* \"verifier.sol\":8063:8129  0x30083df89526eef3eba5173f8d591d13c647256e67b62be5d16141b5f3634be0 */\n      0x30083df89526eef3eba5173f8d591d13c647256e67b62be5d16141b5f3634be0\n        /* \"verifier.sol\":7962:8131  Pairing.G1Point(uint256(0x20c0683cba29ef0f25fe0d4e4c5c56d5b8819c5c6e6fb6e5a6a05d9ac7005461), uint256(0x30083df89526eef3eba5173f8d591d13c647256e67b62be5d16141b5f3634be0)) */\n      dup2\n      mstore\n      pop\n        /* \"verifier.sol\":7944:7946  vk */\n      dup2\n        /* \"verifier.sol\":7944:7956  vk.gamma_abc */\n      0x80\n      add\n      mload\n        /* \"verifier.sol\":7957:7958  0 */\n      0x00\n        /* \"verifier.sol\":7944:7959  vk.gamma_abc[0] */\n      dup2\n      mload\n      dup2\n      lt\n      tag_60\n      jumpi\n      tag_61\n      tag_30\n      jump\t// in\n    tag_61:\n    tag_60:\n      0x20\n      mul\n      0x20\n      add\n      add\n        /* \"verifier.sol\":7944:8131  vk.gamma_abc[0] = Pairing.G1Point(uint256(0x20c0683cba29ef0f25fe0d4e4c5c56d5b8819c5c6e6fb6e5a6a05d9ac7005461), uint256(0x30083df89526eef3eba5173f8d591d13c647256e67b62be5d16141b5f3634be0)) */\n      dup2\n      swap1\n      mstore\n      pop\n        /* \"verifier.sol\":6581:8138  function verifyingKey() pure internal returns (VerifyingKey memory vk) {... */\n      swap1\n      jump\t// out\n        /* \"verifier.sol\":3082:3536  function scalar_mul(G1Point memory p, uint s) internal view returns (G1Point memory r) {... */\n    tag_39:\n        /* \"verifier.sol\":3151:3167  G1Point memory r */\n      tag_62\n      tag_59\n      jump\t// in\n    tag_62:\n        /* \"verifier.sol\":3179:3199  uint[3] memory input */\n      tag_64\n      tag_65\n      jump\t// in\n    tag_64:\n        /* \"verifier.sol\":3220:3221  p */\n      dup4\n        /* \"verifier.sol\":3220:3223  p.X */\n      0x00\n      add\n      mload\n        /* \"verifier.sol\":3209:3214  input */\n      dup2\n        /* \"verifier.sol\":3215:3216  0 */\n      0x00\n        /* \"verifier.sol\":3209:3217  input[0] */\n      0x03\n      dup2\n      lt\n      tag_66\n      jumpi\n      tag_67\n      tag_30\n      jump\t// in\n    tag_67:\n    tag_66:\n      0x20\n      mul\n      add\n        /* \"verifier.sol\":3209:3223  input[0] = p.X */\n      dup2\n      dup2\n      mstore\n      pop\n      pop\n        /* \"verifier.sol\":3244:3245  p */\n      dup4\n        /* \"verifier.sol\":3244:3247  p.Y */\n      0x20\n      add\n      mload\n        /* \"verifier.sol\":3233:3238  input */\n      dup2\n        /* \"verifier.sol\":3239:3240  1 */\n      0x01\n        /* \"verifier.sol\":3233:3241  input[1] */\n      0x03\n      dup2\n      lt\n      tag_68\n      jumpi\n      tag_69\n      tag_30\n      jump\t// in\n    tag_69:\n    tag_68:\n      0x20\n      mul\n      add\n        /* \"verifier.sol\":3233:3247  input[1] = p.Y */\n      dup2\n      dup2\n      mstore\n      pop\n      pop\n        /* \"verifier.sol\":3268:3269  s */\n      dup3\n        /* \"verifier.sol\":3257:3262  input */\n      dup2\n        /* \"verifier.sol\":3263:3264  2 */\n      0x02\n        /* \"verifier.sol\":3257:3265  input[2] */\n      0x03\n      dup2\n      lt\n      tag_70\n      jumpi\n      tag_71\n      tag_30\n      jump\t// in\n    tag_71:\n    tag_70:\n      0x20\n      mul\n      add\n        /* \"verifier.sol\":3257:3269  input[2] = s */\n      dup2\n      dup2\n      mstore\n      pop\n      pop\n        /* \"verifier.sol\":3279:3291  bool success */\n      0x00\n        /* \"verifier.sol\":3383:3387  0x60 */\n      0x60\n        /* \"verifier.sol\":3380:3381  r */\n      dup4\n        /* \"verifier.sol\":3374:3378  0x80 */\n      0x80\n        /* \"verifier.sol\":3367:3372  input */\n      dup5\n        /* \"verifier.sol\":3364:3365  7 */\n      0x07\n        /* \"verifier.sol\":3357:3361  2000 */\n      0x07d0\n        /* \"verifier.sol\":3350:3355  gas() */\n      gas\n        /* \"verifier.sol\":3346:3362  sub(gas(), 2000) */\n      sub\n        /* \"verifier.sol\":3335:3388  staticcall(sub(gas(), 2000), 7, input, 0x80, r, 0x60) */\n      staticcall\n        /* \"verifier.sol\":3324:3388  success := staticcall(sub(gas(), 2000), 7, input, 0x80, r, 0x60) */\n      swap1\n      pop\n        /* \"verifier.sol\":3465:3472  success */\n      dup1\n        /* \"verifier.sol\":3478:3479  0 */\n      0x00\n        /* \"verifier.sol\":3473:3493  case 0 { invalid() } */\n      dup2\n      sub\n        /* \"verifier.sol\":3458:3493  switch success case 0 { invalid() } */\n      tag_72\n        /* \"verifier.sol\":3473:3493  case 0 { invalid() } */\n      jumpi\n        /* \"verifier.sol\":3482:3491  invalid() */\n      invalid\n        /* \"verifier.sol\":3458:3493  switch success case 0 { invalid() } */\n    tag_72:\n      pop\n        /* \"verifier.sol\":3521:3528  success */\n      dup1\n        /* \"verifier.sol\":3512:3529  require (success) */\n      tag_74\n      jumpi\n      0x00\n      dup1\n      revert\n    tag_74:\n        /* \"verifier.sol\":3169:3536  {... */\n      pop\n      pop\n        /* \"verifier.sol\":3082:3536  function scalar_mul(G1Point memory p, uint s) internal view returns (G1Point memory r) {... */\n      swap3\n      swap2\n      pop\n      pop\n      jump\t// out\n        /* \"verifier.sol\":2432:2925  function addition(G1Point memory p1, G1Point memory p2) internal view returns (G1Point memory r) {... */\n    tag_40:\n        /* \"verifier.sol\":2511:2527  G1Point memory r */\n      tag_75\n      tag_59\n      jump\t// in\n    tag_75:\n        /* \"verifier.sol\":2539:2559  uint[4] memory input */\n      tag_77\n      tag_78\n      jump\t// in\n    tag_77:\n        /* \"verifier.sol\":2580:2582  p1 */\n      dup4\n        /* \"verifier.sol\":2580:2584  p1.X */\n      0x00\n      add\n      mload\n        /* \"verifier.sol\":2569:2574  input */\n      dup2\n        /* \"verifier.sol\":2575:2576  0 */\n      0x00\n        /* \"verifier.sol\":2569:2577  input[0] */\n      0x04\n      dup2\n      lt\n      tag_79\n      jumpi\n      tag_80\n      tag_30\n      jump\t// in\n    tag_80:\n    tag_79:\n      0x20\n      mul\n      add\n        /* \"verifier.sol\":2569:2584  input[0] = p1.X */\n      dup2\n      dup2\n      mstore\n      pop\n      pop\n        /* \"verifier.sol\":2605:2607  p1 */\n      dup4\n        /* \"verifier.sol\":2605:2609  p1.Y */\n      0x20\n      add\n      mload\n        /* \"verifier.sol\":2594:2599  input */\n      dup2\n        /* \"verifier.sol\":2600:2601  1 */\n      0x01\n        /* \"verifier.sol\":2594:2602  input[1] */\n      0x04\n      dup2\n      lt\n      tag_81\n      jumpi\n      tag_82\n      tag_30\n      jump\t// in\n    tag_82:\n    tag_81:\n      0x20\n      mul\n      add\n        /* \"verifier.sol\":2594:2609  input[1] = p1.Y */\n      dup2\n      dup2\n      mstore\n      pop\n      pop\n        /* \"verifier.sol\":2630:2632  p2 */\n      dup3\n        /* \"verifier.sol\":2630:2634  p2.X */\n      0x00\n      add\n      mload\n        /* \"verifier.sol\":2619:2624  input */\n      dup2\n        /* \"verifier.sol\":2625:2626  2 */\n      0x02\n        /* \"verifier.sol\":2619:2627  input[2] */\n      0x04\n      dup2\n      lt\n      tag_83\n      jumpi\n      tag_84\n      tag_30\n      jump\t// in\n    tag_84:\n    tag_83:\n      0x20\n      mul\n      add\n        /* \"verifier.sol\":2619:2634  input[2] = p2.X */\n      dup2\n      dup2\n      mstore\n      pop\n      pop\n        /* \"verifier.sol\":2655:2657  p2 */\n      dup3\n        /* \"verifier.sol\":2655:2659  p2.Y */\n      0x20\n      add\n      mload\n        /* \"verifier.sol\":2644:2649  input */\n      dup2\n        /* \"verifier.sol\":2650:2651  3 */\n      0x03\n        /* \"verifier.sol\":2644:2652  input[3] */\n      0x04\n      dup2\n      lt\n      tag_85\n      jumpi\n      tag_86\n      tag_30\n      jump\t// in\n    tag_86:\n    tag_85:\n      0x20\n      mul\n      add\n        /* \"verifier.sol\":2644:2659  input[3] = p2.Y */\n      dup2\n      dup2\n      mstore\n      pop\n      pop\n        /* \"verifier.sol\":2669:2681  bool success */\n      0x00\n        /* \"verifier.sol\":2773:2777  0x60 */\n      0x60\n        /* \"verifier.sol\":2770:2771  r */\n      dup4\n        /* \"verifier.sol\":2764:2768  0xc0 */\n      0xc0\n        /* \"verifier.sol\":2757:2762  input */\n      dup5\n        /* \"verifier.sol\":2754:2755  6 */\n      0x06\n        /* \"verifier.sol\":2747:2751  2000 */\n      0x07d0\n        /* \"verifier.sol\":2740:2745  gas() */\n      gas\n        /* \"verifier.sol\":2736:2752  sub(gas(), 2000) */\n      sub\n        /* \"verifier.sol\":2725:2778  staticcall(sub(gas(), 2000), 6, input, 0xc0, r, 0x60) */\n      staticcall\n        /* \"verifier.sol\":2714:2778  success := staticcall(sub(gas(), 2000), 6, input, 0xc0, r, 0x60) */\n      swap1\n      pop\n        /* \"verifier.sol\":2855:2862  success */\n      dup1\n        /* \"verifier.sol\":2868:2869  0 */\n      0x00\n        /* \"verifier.sol\":2863:2883  case 0 { invalid() } */\n      dup2\n      sub\n        /* \"verifier.sol\":2848:2883  switch success case 0 { invalid() } */\n      tag_87\n        /* \"verifier.sol\":2863:2883  case 0 { invalid() } */\n      jumpi\n        /* \"verifier.sol\":2872:2881  invalid() */\n      invalid\n        /* \"verifier.sol\":2848:2883  switch success case 0 { invalid() } */\n    tag_87:\n      pop\n        /* \"verifier.sol\":2910:2917  success */\n      dup1\n        /* \"verifier.sol\":2902:2918  require(success) */\n      tag_89\n      jumpi\n      0x00\n      dup1\n      revert\n    tag_89:\n        /* \"verifier.sol\":2529:2925  {... */\n      pop\n      pop\n        /* \"verifier.sol\":2432:2925  function addition(G1Point memory p1, G1Point memory p2) internal view returns (G1Point memory r) {... */\n      swap3\n      swap2\n      pop\n      pop\n      jump\t// out\n        /* \"verifier.sol\":2041:2381  function negate(G1Point memory p) pure internal returns (G1Point memory) {... */\n    tag_46:\n        /* \"verifier.sol\":2098:2112  G1Point memory */\n      tag_90\n      tag_59\n      jump\t// in\n    tag_90:\n        /* \"verifier.sol\":2176:2182  uint q */\n      0x00\n        /* \"verifier.sol\":2185:2262  21888242871839275222246405745257275088696311157297823662689037894645226208583 */\n      0x30644e72e131a029b85045b68181585d97816a916871ca8d3c208c16d87cfd47\n        /* \"verifier.sol\":2176:2262  uint q = 21888242871839275222246405745257275088696311157297823662689037894645226208583 */\n      swap1\n      pop\n        /* \"verifier.sol\":2283:2284  0 */\n      0x00\n        /* \"verifier.sol\":2276:2277  p */\n      dup4\n        /* \"verifier.sol\":2276:2279  p.X */\n      0x00\n      add\n      mload\n        /* \"verifier.sol\":2276:2284  p.X == 0 */\n      eq\n        /* \"verifier.sol\":2276:2296  p.X == 0 && p.Y == 0 */\n      dup1\n      iszero\n      tag_92\n      jumpi\n      pop\n        /* \"verifier.sol\":2295:2296  0 */\n      0x00\n        /* \"verifier.sol\":2288:2289  p */\n      dup4\n        /* \"verifier.sol\":2288:2291  p.Y */\n      0x20\n      add\n      mload\n        /* \"verifier.sol\":2288:2296  p.Y == 0 */\n      eq\n        /* \"verifier.sol\":2276:2296  p.X == 0 && p.Y == 0 */\n    tag_92:\n        /* \"verifier.sol\":2272:2330  if (p.X == 0 && p.Y == 0)... */\n      iszero\n      tag_93\n      jumpi\n        /* \"verifier.sol\":2317:2330  G1Point(0, 0) */\n      mload(0x40)\n      dup1\n      0x40\n      add\n      0x40\n      mstore\n      dup1\n        /* \"verifier.sol\":2325:2326  0 */\n      0x00\n        /* \"verifier.sol\":2317:2330  G1Point(0, 0) */\n      dup2\n      mstore\n      0x20\n      add\n        /* \"verifier.sol\":2328:2329  0 */\n      0x00\n        /* \"verifier.sol\":2317:2330  G1Point(0, 0) */\n      dup2\n      mstore\n      pop\n        /* \"verifier.sol\":2310:2330  return G1Point(0, 0) */\n      swap2\n      pop\n      pop\n      jump(tag_91)\n        /* \"verifier.sol\":2272:2330  if (p.X == 0 && p.Y == 0)... */\n    tag_93:\n        /* \"verifier.sol\":2347:2374  G1Point(p.X, q - (p.Y % q)) */\n      mload(0x40)\n      dup1\n      0x40\n      add\n      0x40\n      mstore\n      dup1\n        /* \"verifier.sol\":2355:2356  p */\n      dup5\n        /* \"verifier.sol\":2355:2358  p.X */\n      0x00\n      add\n      mload\n        /* \"verifier.sol\":2347:2374  G1Point(p.X, q - (p.Y % q)) */\n      dup2\n      mstore\n      0x20\n      add\n        /* \"verifier.sol\":2371:2372  q */\n      dup3\n        /* \"verifier.sol\":2365:2366  p */\n      dup6\n        /* \"verifier.sol\":2365:2368  p.Y */\n      0x20\n      add\n      mload\n        /* \"verifier.sol\":2365:2372  p.Y % q */\n      tag_94\n      swap2\n      swap1\n      tag_95\n      jump\t// in\n    tag_94:\n        /* \"verifier.sol\":2360:2361  q */\n      dup4\n        /* \"verifier.sol\":2360:2373  q - (p.Y % q) */\n      tag_96\n      swap2\n      swap1\n      tag_97\n      jump\t// in\n    tag_96:\n        /* \"verifier.sol\":2347:2374  G1Point(p.X, q - (p.Y % q)) */\n      dup2\n      mstore\n      pop\n        /* \"verifier.sol\":2340:2374  return G1Point(p.X, q - (p.Y % q)) */\n      swap2\n      pop\n      pop\n        /* \"verifier.sol\":2041:2381  function negate(G1Point memory p) pure internal returns (G1Point memory) {... */\n    tag_91:\n      swap2\n      swap1\n      pop\n      jump\t// out\n        /* \"verifier.sol\":5678:6230  function pairingProd4(... */\n    tag_49:\n        /* \"verifier.sol\":5929:5933  bool */\n      0x00\n        /* \"verifier.sol\":5945:5964  G1Point[] memory p1 */\n      dup1\n        /* \"verifier.sol\":5981:5982  4 */\n      0x04\n        /* \"verifier.sol\":5967:5983  new G1Point[](4) */\n      0xffffffffffffffff\n      dup2\n      gt\n      iszero\n      tag_99\n      jumpi\n      tag_100\n      tag_13\n      jump\t// in\n    tag_100:\n    tag_99:\n      mload(0x40)\n      swap1\n      dup1\n      dup3\n      mstore\n      dup1\n      0x20\n      mul\n      0x20\n      add\n      dup3\n      add\n      0x40\n      mstore\n      dup1\n      iszero\n      tag_101\n      jumpi\n      dup2\n      0x20\n      add\n    tag_102:\n      tag_103\n      tag_59\n      jump\t// in\n    tag_103:\n      dup2\n      mstore\n      0x20\n      add\n      swap1\n      0x01\n      swap1\n      sub\n      swap1\n      dup2\n      tag_102\n      jumpi\n      swap1\n      pop\n    tag_101:\n      pop\n        /* \"verifier.sol\":5945:5983  G1Point[] memory p1 = new G1Point[](4) */\n      swap1\n      pop\n        /* \"verifier.sol\":5993:6012  G2Point[] memory p2 */\n      0x00\n        /* \"verifier.sol\":6029:6030  4 */\n      0x04\n        /* \"verifier.sol\":6015:6031  new G2Point[](4) */\n      0xffffffffffffffff\n      dup2\n      gt\n      iszero\n      tag_104\n      jumpi\n      tag_105\n      tag_13\n      jump\t// in\n    tag_105:\n    tag_104:\n      mload(0x40)\n      swap1\n      dup1\n      dup3\n      mstore\n      dup1\n      0x20\n      mul\n      0x20\n      add\n      dup3\n      add\n      0x40\n      mstore\n      dup1\n      iszero\n      tag_106\n      jumpi\n      dup2\n      0x20\n      add\n    tag_107:\n      tag_108\n      tag_109\n      jump\t// in\n    tag_108:\n      dup2\n      mstore\n      0x20\n      add\n      swap1\n      0x01\n      swap1\n      sub\n      swap1\n      dup2\n      tag_107\n      jumpi\n      swap1\n      pop\n    tag_106:\n      pop\n        /* \"verifier.sol\":5993:6031  G2Point[] memory p2 = new G2Point[](4) */\n      swap1\n      pop\n        /* \"verifier.sol\":6049:6051  a1 */\n      dup11\n        /* \"verifier.sol\":6041:6043  p1 */\n      dup3\n        /* \"verifier.sol\":6044:6045  0 */\n      0x00\n        /* \"verifier.sol\":6041:6046  p1[0] */\n      dup2\n      mload\n      dup2\n      lt\n      tag_110\n      jumpi\n      tag_111\n      tag_30\n      jump\t// in\n    tag_111:\n    tag_110:\n      0x20\n      mul\n      0x20\n      add\n      add\n        /* \"verifier.sol\":6041:6051  p1[0] = a1 */\n      dup2\n      swap1\n      mstore\n      pop\n        /* \"verifier.sol\":6069:6071  b1 */\n      dup9\n        /* \"verifier.sol\":6061:6063  p1 */\n      dup3\n        /* \"verifier.sol\":6064:6065  1 */\n      0x01\n        /* \"verifier.sol\":6061:6066  p1[1] */\n      dup2\n      mload\n      dup2\n      lt\n      tag_112\n      jumpi\n      tag_113\n      tag_30\n      jump\t// in\n    tag_113:\n    tag_112:\n      0x20\n      mul\n      0x20\n      add\n      add\n        /* \"verifier.sol\":6061:6071  p1[1] = b1 */\n      dup2\n      swap1\n      mstore\n      pop\n        /* \"verifier.sol\":6089:6091  c1 */\n      dup7\n        /* \"verifier.sol\":6081:6083  p1 */\n      dup3\n        /* \"verifier.sol\":6084:6085  2 */\n      0x02\n        /* \"verifier.sol\":6081:6086  p1[2] */\n      dup2\n      mload\n      dup2\n      lt\n      tag_114\n      jumpi\n      tag_115\n      tag_30\n      jump\t// in\n    tag_115:\n    tag_114:\n      0x20\n      mul\n      0x20\n      add\n      add\n        /* \"verifier.sol\":6081:6091  p1[2] = c1 */\n      dup2\n      swap1\n      mstore\n      pop\n        /* \"verifier.sol\":6109:6111  d1 */\n      dup5\n        /* \"verifier.sol\":6101:6103  p1 */\n      dup3\n        /* \"verifier.sol\":6104:6105  3 */\n      0x03\n        /* \"verifier.sol\":6101:6106  p1[3] */\n      dup2\n      mload\n      dup2\n      lt\n      tag_116\n      jumpi\n      tag_117\n      tag_30\n      jump\t// in\n    tag_117:\n    tag_116:\n      0x20\n      mul\n      0x20\n      add\n      add\n        /* \"verifier.sol\":6101:6111  p1[3] = d1 */\n      dup2\n      swap1\n      mstore\n      pop\n        /* \"verifier.sol\":6129:6131  a2 */\n      dup10\n        /* \"verifier.sol\":6121:6123  p2 */\n      dup2\n        /* \"verifier.sol\":6124:6125  0 */\n      0x00\n        /* \"verifier.sol\":6121:6126  p2[0] */\n      dup2\n      mload\n      dup2\n      lt\n      tag_118\n      jumpi\n      tag_119\n      tag_30\n      jump\t// in\n    tag_119:\n    tag_118:\n      0x20\n      mul\n      0x20\n      add\n      add\n        /* \"verifier.sol\":6121:6131  p2[0] = a2 */\n      dup2\n      swap1\n      mstore\n      pop\n        /* \"verifier.sol\":6149:6151  b2 */\n      dup8\n        /* \"verifier.sol\":6141:6143  p2 */\n      dup2\n        /* \"verifier.sol\":6144:6145  1 */\n      0x01\n        /* \"verifier.sol\":6141:6146  p2[1] */\n      dup2\n      mload\n      dup2\n      lt\n      tag_120\n      jumpi\n      tag_121\n      tag_30\n      jump\t// in\n    tag_121:\n    tag_120:\n      0x20\n      mul\n      0x20\n      add\n      add\n        /* \"verifier.sol\":6141:6151  p2[1] = b2 */\n      dup2\n      swap1\n      mstore\n      pop\n        /* \"verifier.sol\":6169:6171  c2 */\n      dup6\n        /* \"verifier.sol\":6161:6163  p2 */\n      dup2\n        /* \"verifier.sol\":6164:6165  2 */\n      0x02\n        /* \"verifier.sol\":6161:6166  p2[2] */\n      dup2\n      mload\n      dup2\n      lt\n      tag_122\n      jumpi\n      tag_123\n      tag_30\n      jump\t// in\n    tag_123:\n    tag_122:\n      0x20\n      mul\n      0x20\n      add\n      add\n        /* \"verifier.sol\":6161:6171  p2[2] = c2 */\n      dup2\n      swap1\n      mstore\n      pop\n        /* \"verifier.sol\":6189:6191  d2 */\n      dup4\n        /* \"verifier.sol\":6181:6183  p2 */\n      dup2\n        /* \"verifier.sol\":6184:6185  3 */\n      0x03\n        /* \"verifier.sol\":6181:6186  p2[3] */\n      dup2\n      mload\n      dup2\n      lt\n      tag_124\n      jumpi\n      tag_125\n      tag_30\n      jump\t// in\n    tag_125:\n    tag_124:\n      0x20\n      mul\n      0x20\n      add\n      add\n        /* \"verifier.sol\":6181:6191  p2[3] = d2 */\n      dup2\n      swap1\n      mstore\n      pop\n        /* \"verifier.sol\":6208:6223  pairing(p1, p2) */\n      tag_126\n        /* \"verifier.sol\":6216:6218  p1 */\n      dup3\n        /* \"verifier.sol\":6220:6222  p2 */\n      dup3\n        /* \"verifier.sol\":6208:6215  pairing */\n      tag_127\n        /* \"verifier.sol\":6208:6223  pairing(p1, p2) */\n      jump\t// in\n    tag_126:\n        /* \"verifier.sol\":6201:6223  return pairing(p1, p2) */\n      swap3\n      pop\n      pop\n      pop\n        /* \"verifier.sol\":5678:6230  function pairingProd4(... */\n      swap9\n      swap8\n      pop\n      pop\n      pop\n      pop\n      pop\n      pop\n      pop\n      pop\n      jump\t// out\n        /* \"verifier.sol\":3747:4670  function pairing(G1Point[] memory p1, G2Point[] memory p2) internal view returns (bool) {... */\n    tag_127:\n        /* \"verifier.sol\":3829:3833  bool */\n      0x00\n        /* \"verifier.sol\":3866:3868  p2 */\n      dup2\n        /* \"verifier.sol\":3866:3875  p2.length */\n      mload\n        /* \"verifier.sol\":3853:3855  p1 */\n      dup4\n        /* \"verifier.sol\":3853:3862  p1.length */\n      mload\n        /* \"verifier.sol\":3853:3875  p1.length == p2.length */\n      eq\n        /* \"verifier.sol\":3845:3876  require(p1.length == p2.length) */\n      tag_129\n      jumpi\n      0x00\n      dup1\n      revert\n    tag_129:\n        /* \"verifier.sol\":3886:3899  uint elements */\n      0x00\n        /* \"verifier.sol\":3902:3904  p1 */\n      dup4\n        /* \"verifier.sol\":3902:3911  p1.length */\n      mload\n        /* \"verifier.sol\":3886:3911  uint elements = p1.length */\n      swap1\n      pop\n        /* \"verifier.sol\":3921:3935  uint inputSize */\n      0x00\n        /* \"verifier.sol\":3949:3950  6 */\n      0x06\n        /* \"verifier.sol\":3938:3946  elements */\n      dup3\n        /* \"verifier.sol\":3938:3950  elements * 6 */\n      tag_130\n      swap2\n      swap1\n      tag_131\n      jump\t// in\n    tag_130:\n        /* \"verifier.sol\":3921:3950  uint inputSize = elements * 6 */\n      swap1\n      pop\n        /* \"verifier.sol\":3960:3979  uint[] memory input */\n      0x00\n        /* \"verifier.sol\":3993:4002  inputSize */\n      dup2\n        /* \"verifier.sol\":3982:4003  new uint[](inputSize) */\n      0xffffffffffffffff\n      dup2\n      gt\n      iszero\n      tag_132\n      jumpi\n      tag_133\n      tag_13\n      jump\t// in\n    tag_133:\n    tag_132:\n      mload(0x40)\n      swap1\n      dup1\n      dup3\n      mstore\n      dup1\n      0x20\n      mul\n      0x20\n      add\n      dup3\n      add\n      0x40\n      mstore\n      dup1\n      iszero\n      tag_134\n      jumpi\n      dup2\n      0x20\n      add\n      0x20\n      dup3\n      mul\n      dup1\n      calldatasize\n      dup4\n      calldatacopy\n      dup1\n      dup3\n      add\n      swap2\n      pop\n      pop\n      swap1\n      pop\n    tag_134:\n      pop\n        /* \"verifier.sol\":3960:4003  uint[] memory input = new uint[](inputSize) */\n      swap1\n      pop\n        /* \"verifier.sol\":4018:4024  uint i */\n      0x00\n        /* \"verifier.sol\":4013:4320  for (uint i = 0; i < elements; i++)... */\n    tag_135:\n        /* \"verifier.sol\":4034:4042  elements */\n      dup4\n        /* \"verifier.sol\":4030:4031  i */\n      dup2\n        /* \"verifier.sol\":4030:4042  i < elements */\n      lt\n        /* \"verifier.sol\":4013:4320  for (uint i = 0; i < elements; i++)... */\n      iszero\n      tag_136\n      jumpi\n        /* \"verifier.sol\":4090:4092  p1 */\n      dup7\n        /* \"verifier.sol\":4093:4094  i */\n      dup2\n        /* \"verifier.sol\":4090:4095  p1[i] */\n      dup2\n      mload\n      dup2\n      lt\n      tag_138\n      jumpi\n      tag_139\n      tag_30\n      jump\t// in\n    tag_139:\n    tag_138:\n      0x20\n      mul\n      0x20\n      add\n      add\n      mload\n        /* \"verifier.sol\":4090:4097  p1[i].X */\n      0x00\n      add\n      mload\n        /* \"verifier.sol\":4071:4076  input */\n      dup3\n        /* \"verifier.sol\":4085:4086  0 */\n      0x00\n        /* \"verifier.sol\":4081:4082  6 */\n      0x06\n        /* \"verifier.sol\":4077:4078  i */\n      dup5\n        /* \"verifier.sol\":4077:4082  i * 6 */\n      tag_140\n      swap2\n      swap1\n      tag_131\n      jump\t// in\n    tag_140:\n        /* \"verifier.sol\":4077:4086  i * 6 + 0 */\n      tag_141\n      swap2\n      swap1\n      tag_23\n      jump\t// in\n    tag_141:\n        /* \"verifier.sol\":4071:4087  input[i * 6 + 0] */\n      dup2\n      mload\n      dup2\n      lt\n      tag_142\n      jumpi\n      tag_143\n      tag_30\n      jump\t// in\n    tag_143:\n    tag_142:\n      0x20\n      mul\n      0x20\n      add\n      add\n        /* \"verifier.sol\":4071:4097  input[i * 6 + 0] = p1[i].X */\n      dup2\n      dup2\n      mstore\n      pop\n      pop\n        /* \"verifier.sol\":4130:4132  p1 */\n      dup7\n        /* \"verifier.sol\":4133:4134  i */\n      dup2\n        /* \"verifier.sol\":4130:4135  p1[i] */\n      dup2\n      mload\n      dup2\n      lt\n      tag_144\n      jumpi\n      tag_145\n      tag_30\n      jump\t// in\n    tag_145:\n    tag_144:\n      0x20\n      mul\n      0x20\n      add\n      add\n      mload\n        /* \"verifier.sol\":4130:4137  p1[i].Y */\n      0x20\n      add\n      mload\n        /* \"verifier.sol\":4111:4116  input */\n      dup3\n        /* \"verifier.sol\":4125:4126  1 */\n      0x01\n        /* \"verifier.sol\":4121:4122  6 */\n      0x06\n        /* \"verifier.sol\":4117:4118  i */\n      dup5\n        /* \"verifier.sol\":4117:4122  i * 6 */\n      tag_146\n      swap2\n      swap1\n      tag_131\n      jump\t// in\n    tag_146:\n        /* \"verifier.sol\":4117:4126  i * 6 + 1 */\n      tag_147\n      swap2\n      swap1\n      tag_23\n      jump\t// in\n    tag_147:\n        /* \"verifier.sol\":4111:4127  input[i * 6 + 1] */\n      dup2\n      mload\n      dup2\n      lt\n      tag_148\n      jumpi\n      tag_149\n      tag_30\n      jump\t// in\n    tag_149:\n    tag_148:\n      0x20\n      mul\n      0x20\n      add\n      add\n        /* \"verifier.sol\":4111:4137  input[i * 6 + 1] = p1[i].Y */\n      dup2\n      dup2\n      mstore\n      pop\n      pop\n        /* \"verifier.sol\":4170:4172  p2 */\n      dup6\n        /* \"verifier.sol\":4173:4174  i */\n      dup2\n        /* \"verifier.sol\":4170:4175  p2[i] */\n      dup2\n      mload\n      dup2\n      lt\n      tag_150\n      jumpi\n      tag_151\n      tag_30\n      jump\t// in\n    tag_151:\n    tag_150:\n      0x20\n      mul\n      0x20\n      add\n      add\n      mload\n        /* \"verifier.sol\":4170:4177  p2[i].X */\n      0x00\n      add\n      mload\n        /* \"verifier.sol\":4178:4179  1 */\n      0x01\n        /* \"verifier.sol\":4170:4180  p2[i].X[1] */\n      0x02\n      dup2\n      lt\n      tag_152\n      jumpi\n      tag_153\n      tag_30\n      jump\t// in\n    tag_153:\n    tag_152:\n      0x20\n      mul\n      add\n      mload\n        /* \"verifier.sol\":4151:4156  input */\n      dup3\n        /* \"verifier.sol\":4165:4166  2 */\n      0x02\n        /* \"verifier.sol\":4161:4162  6 */\n      0x06\n        /* \"verifier.sol\":4157:4158  i */\n      dup5\n        /* \"verifier.sol\":4157:4162  i * 6 */\n      tag_154\n      swap2\n      swap1\n      tag_131\n      jump\t// in\n    tag_154:\n        /* \"verifier.sol\":4157:4166  i * 6 + 2 */\n      tag_155\n      swap2\n      swap1\n      tag_23\n      jump\t// in\n    tag_155:\n        /* \"verifier.sol\":4151:4167  input[i * 6 + 2] */\n      dup2\n      mload\n      dup2\n      lt\n      tag_156\n      jumpi\n      tag_157\n      tag_30\n      jump\t// in\n    tag_157:\n    tag_156:\n      0x20\n      mul\n      0x20\n      add\n      add\n        /* \"verifier.sol\":4151:4180  input[i * 6 + 2] = p2[i].X[1] */\n      dup2\n      dup2\n      mstore\n      pop\n      pop\n        /* \"verifier.sol\":4213:4215  p2 */\n      dup6\n        /* \"verifier.sol\":4216:4217  i */\n      dup2\n        /* \"verifier.sol\":4213:4218  p2[i] */\n      dup2\n      mload\n      dup2\n      lt\n      tag_158\n      jumpi\n      tag_159\n      tag_30\n      jump\t// in\n    tag_159:\n    tag_158:\n      0x20\n      mul\n      0x20\n      add\n      add\n      mload\n        /* \"verifier.sol\":4213:4220  p2[i].X */\n      0x00\n      add\n      mload\n        /* \"verifier.sol\":4221:4222  0 */\n      0x00\n        /* \"verifier.sol\":4213:4223  p2[i].X[0] */\n      0x02\n      dup2\n      lt\n      tag_160\n      jumpi\n      tag_161\n      tag_30\n      jump\t// in\n    tag_161:\n    tag_160:\n      0x20\n      mul\n      add\n      mload\n        /* \"verifier.sol\":4194:4199  input */\n      dup3\n        /* \"verifier.sol\":4208:4209  3 */\n      0x03\n        /* \"verifier.sol\":4204:4205  6 */\n      0x06\n        /* \"verifier.sol\":4200:4201  i */\n      dup5\n        /* \"verifier.sol\":4200:4205  i * 6 */\n      tag_162\n      swap2\n      swap1\n      tag_131\n      jump\t// in\n    tag_162:\n        /* \"verifier.sol\":4200:4209  i * 6 + 3 */\n      tag_163\n      swap2\n      swap1\n      tag_23\n      jump\t// in\n    tag_163:\n        /* \"verifier.sol\":4194:4210  input[i * 6 + 3] */\n      dup2\n      mload\n      dup2\n      lt\n      tag_164\n      jumpi\n      tag_165\n      tag_30\n      jump\t// in\n    tag_165:\n    tag_164:\n      0x20\n      mul\n      0x20\n      add\n      add\n        /* \"verifier.sol\":4194:4223  input[i * 6 + 3] = p2[i].X[0] */\n      dup2\n      dup2\n      mstore\n      pop\n      pop\n        /* \"verifier.sol\":4256:4258  p2 */\n      dup6\n        /* \"verifier.sol\":4259:4260  i */\n      dup2\n        /* \"verifier.sol\":4256:4261  p2[i] */\n      dup2\n      mload\n      dup2\n      lt\n      tag_166\n      jumpi\n      tag_167\n      tag_30\n      jump\t// in\n    tag_167:\n    tag_166:\n      0x20\n      mul\n      0x20\n      add\n      add\n      mload\n        /* \"verifier.sol\":4256:4263  p2[i].Y */\n      0x20\n      add\n      mload\n        /* \"verifier.sol\":4264:4265  1 */\n      0x01\n        /* \"verifier.sol\":4256:4266  p2[i].Y[1] */\n      0x02\n      dup2\n      lt\n      tag_168\n      jumpi\n      tag_169\n      tag_30\n      jump\t// in\n    tag_169:\n    tag_168:\n      0x20\n      mul\n      add\n      mload\n        /* \"verifier.sol\":4237:4242  input */\n      dup3\n        /* \"verifier.sol\":4251:4252  4 */\n      0x04\n        /* \"verifier.sol\":4247:4248  6 */\n      0x06\n        /* \"verifier.sol\":4243:4244  i */\n      dup5\n        /* \"verifier.sol\":4243:4248  i * 6 */\n      tag_170\n      swap2\n      swap1\n      tag_131\n      jump\t// in\n    tag_170:\n        /* \"verifier.sol\":4243:4252  i * 6 + 4 */\n      tag_171\n      swap2\n      swap1\n      tag_23\n      jump\t// in\n    tag_171:\n        /* \"verifier.sol\":4237:4253  input[i * 6 + 4] */\n      dup2\n      mload\n      dup2\n      lt\n      tag_172\n      jumpi\n      tag_173\n      tag_30\n      jump\t// in\n    tag_173:\n    tag_172:\n      0x20\n      mul\n      0x20\n      add\n      add\n        /* \"verifier.sol\":4237:4266  input[i * 6 + 4] = p2[i].Y[1] */\n      dup2\n      dup2\n      mstore\n      pop\n      pop\n        /* \"verifier.sol\":4299:4301  p2 */\n      dup6\n        /* \"verifier.sol\":4302:4303  i */\n      dup2\n        /* \"verifier.sol\":4299:4304  p2[i] */\n      dup2\n      mload\n      dup2\n      lt\n      tag_174\n      jumpi\n      tag_175\n      tag_30\n      jump\t// in\n    tag_175:\n    tag_174:\n      0x20\n      mul\n      0x20\n      add\n      add\n      mload\n        /* \"verifier.sol\":4299:4306  p2[i].Y */\n      0x20\n      add\n      mload\n        /* \"verifier.sol\":4307:4308  0 */\n      0x00\n        /* \"verifier.sol\":4299:4309  p2[i].Y[0] */\n      0x02\n      dup2\n      lt\n      tag_176\n      jumpi\n      tag_177\n      tag_30\n      jump\t// in\n    tag_177:\n    tag_176:\n      0x20\n      mul\n      add\n      mload\n        /* \"verifier.sol\":4280:4285  input */\n      dup3\n        /* \"verifier.sol\":4294:4295  5 */\n      0x05\n        /* \"verifier.sol\":4290:4291  6 */\n      0x06\n        /* \"verifier.sol\":4286:4287  i */\n      dup5\n        /* \"verifier.sol\":4286:4291  i * 6 */\n      tag_178\n      swap2\n      swap1\n      tag_131\n      jump\t// in\n    tag_178:\n        /* \"verifier.sol\":4286:4295  i * 6 + 5 */\n      tag_179\n      swap2\n      swap1\n      tag_23\n      jump\t// in\n    tag_179:\n        /* \"verifier.sol\":4280:4296  input[i * 6 + 5] */\n      dup2\n      mload\n      dup2\n      lt\n      tag_180\n      jumpi\n      tag_181\n      tag_30\n      jump\t// in\n    tag_181:\n    tag_180:\n      0x20\n      mul\n      0x20\n      add\n      add\n        /* \"verifier.sol\":4280:4309  input[i * 6 + 5] = p2[i].Y[0] */\n      dup2\n      dup2\n      mstore\n      pop\n      pop\n        /* \"verifier.sol\":4044:4047  i++ */\n      dup1\n      dup1\n      0x01\n      add\n      swap2\n      pop\n      pop\n        /* \"verifier.sol\":4013:4320  for (uint i = 0; i < elements; i++)... */\n      jump(tag_135)\n    tag_136:\n      pop\n        /* \"verifier.sol\":4329:4347  uint[1] memory out */\n      tag_182\n      tag_183\n      jump\t// in\n    tag_182:\n        /* \"verifier.sol\":4357:4369  bool success */\n      0x00\n        /* \"verifier.sol\":4490:4494  0x20 */\n      0x20\n        /* \"verifier.sol\":4485:4488  out */\n      dup3\n        /* \"verifier.sol\":4478:4482  0x20 */\n      0x20\n        /* \"verifier.sol\":4467:4476  inputSize */\n      dup7\n        /* \"verifier.sol\":4463:4483  mul(inputSize, 0x20) */\n      mul\n        /* \"verifier.sol\":4456:4460  0x20 */\n      0x20\n        /* \"verifier.sol\":4449:4454  input */\n      dup7\n        /* \"verifier.sol\":4445:4461  add(input, 0x20) */\n      add\n        /* \"verifier.sol\":4442:4443  8 */\n      0x08\n        /* \"verifier.sol\":4435:4439  2000 */\n      0x07d0\n        /* \"verifier.sol\":4428:4433  gas() */\n      gas\n        /* \"verifier.sol\":4424:4440  sub(gas(), 2000) */\n      sub\n        /* \"verifier.sol\":4413:4495  staticcall(sub(gas(), 2000), 8, add(input, 0x20), mul(inputSize, 0x20), out, 0x20) */\n      staticcall\n        /* \"verifier.sol\":4402:4495  success := staticcall(sub(gas(), 2000), 8, add(input, 0x20), mul(inputSize, 0x20), out, 0x20) */\n      swap1\n      pop\n        /* \"verifier.sol\":4572:4579  success */\n      dup1\n        /* \"verifier.sol\":4585:4586  0 */\n      0x00\n        /* \"verifier.sol\":4580:4600  case 0 { invalid() } */\n      dup2\n      sub\n        /* \"verifier.sol\":4565:4600  switch success case 0 { invalid() } */\n      tag_184\n        /* \"verifier.sol\":4580:4600  case 0 { invalid() } */\n      jumpi\n        /* \"verifier.sol\":4589:4598  invalid() */\n      invalid\n        /* \"verifier.sol\":4565:4600  switch success case 0 { invalid() } */\n    tag_184:\n      pop\n        /* \"verifier.sol\":4627:4634  success */\n      dup1\n        /* \"verifier.sol\":4619:4635  require(success) */\n      tag_186\n      jumpi\n      0x00\n      dup1\n      revert\n    tag_186:\n        /* \"verifier.sol\":4662:4663  0 */\n      0x00\n        /* \"verifier.sol\":4652:4655  out */\n      dup3\n        /* \"verifier.sol\":4656:4657  0 */\n      0x00\n        /* \"verifier.sol\":4652:4658  out[0] */\n      0x01\n      dup2\n      lt\n      tag_187\n      jumpi\n      tag_188\n      tag_30\n      jump\t// in\n    tag_188:\n    tag_187:\n      0x20\n      mul\n      add\n      mload\n        /* \"verifier.sol\":4652:4663  out[0] != 0 */\n      eq\n      iszero\n        /* \"verifier.sol\":4645:4663  return out[0] != 0 */\n      swap6\n      pop\n      pop\n      pop\n      pop\n      pop\n      pop\n        /* \"verifier.sol\":3747:4670  function pairing(G1Point[] memory p1, G2Point[] memory p2) internal view returns (bool) {... */\n      swap3\n      swap2\n      pop\n      pop\n      jump\t// out\n    tag_52:\n      mload(0x40)\n      dup1\n      0xa0\n      add\n      0x40\n      mstore\n      dup1\n      tag_189\n      tag_59\n      jump\t// in\n    tag_189:\n      dup2\n      mstore\n      0x20\n      add\n      tag_190\n      tag_109\n      jump\t// in\n    tag_190:\n      dup2\n      mstore\n      0x20\n      add\n      tag_191\n      tag_109\n      jump\t// in\n    tag_191:\n      dup2\n      mstore\n      0x20\n      add\n      tag_192\n      tag_109\n      jump\t// in\n    tag_192:\n      dup2\n      mstore\n      0x20\n      add\n      0x60\n      dup2\n      mstore\n      pop\n      swap1\n      jump\t// out\n    tag_59:\n      mload(0x40)\n      dup1\n      0x40\n      add\n      0x40\n      mstore\n      dup1\n      0x00\n      dup2\n      mstore\n      0x20\n      add\n      0x00\n      dup2\n      mstore\n      pop\n      swap1\n      jump\t// out\n    tag_65:\n      mload(0x40)\n      dup1\n      0x60\n      add\n      0x40\n      mstore\n      dup1\n      0x03\n      swap1\n      0x20\n      dup3\n      mul\n      dup1\n      calldatasize\n      dup4\n      calldatacopy\n      dup1\n      dup3\n      add\n      swap2\n      pop\n      pop\n      swap1\n      pop\n      pop\n      swap1\n      jump\t// out\n    tag_78:\n      mload(0x40)\n      dup1\n      0x80\n      add\n      0x40\n      mstore\n      dup1\n      0x04\n      swap1\n      0x20\n      dup3\n      mul\n      dup1\n      calldatasize\n      dup4\n      calldatacopy\n      dup1\n      dup3\n      add\n      swap2\n      pop\n      pop\n      swap1\n      pop\n      pop\n      swap1\n      jump\t// out\n    tag_109:\n      mload(0x40)\n      dup1\n      0x40\n      add\n      0x40\n      mstore\n      dup1\n      tag_193\n      tag_194\n      jump\t// in\n    tag_193:\n      dup2\n      mstore\n      0x20\n      add\n      tag_195\n      tag_194\n      jump\t// in\n    tag_195:\n      dup2\n      mstore\n      pop\n      swap1\n      jump\t// out\n    tag_183:\n      mload(0x40)\n      dup1\n      0x20\n      add\n      0x40\n      mstore\n      dup1\n      0x01\n      swap1\n      0x20\n      dup3\n      mul\n      dup1\n      calldatasize\n      dup4\n      calldatacopy\n      dup1\n      dup3\n      add\n      swap2\n      pop\n      pop\n      swap1\n      pop\n      pop\n      swap1\n      jump\t// out\n    tag_194:\n      mload(0x40)\n      dup1\n      0x40\n      add\n      0x40\n      mstore\n      dup1\n      0x02\n      swap1\n      0x20\n      dup3\n      mul\n      dup1\n      calldatasize\n      dup4\n      calldatacopy\n      dup1\n      dup3\n      add\n      swap2\n      pop\n      pop\n      swap1\n      pop\n      pop\n      swap1\n      jump\t// out\n        /* \"#utility.yul\":7:82   */\n    tag_196:\n        /* \"#utility.yul\":40:46   */\n      0x00\n        /* \"#utility.yul\":73:75   */\n      0x40\n        /* \"#utility.yul\":67:76   */\n      mload\n        /* \"#utility.yul\":57:76   */\n      swap1\n      pop\n        /* \"#utility.yul\":7:82   */\n      swap1\n      jump\t// out\n        /* \"#utility.yul\":88:205   */\n    tag_197:\n        /* \"#utility.yul\":197:198   */\n      0x00\n        /* \"#utility.yul\":194:195   */\n      dup1\n        /* \"#utility.yul\":187:199   */\n      revert\n        /* \"#utility.yul\":334:451   */\n    tag_199:\n        /* \"#utility.yul\":443:444   */\n      0x00\n        /* \"#utility.yul\":440:441   */\n      dup1\n        /* \"#utility.yul\":433:445   */\n      revert\n        /* \"#utility.yul\":457:559   */\n    tag_200:\n        /* \"#utility.yul\":498:504   */\n      0x00\n        /* \"#utility.yul\":549:551   */\n      0x1f\n        /* \"#utility.yul\":545:552   */\n      not\n        /* \"#utility.yul\":540:542   */\n      0x1f\n        /* \"#utility.yul\":533:538   */\n      dup4\n        /* \"#utility.yul\":529:543   */\n      add\n        /* \"#utility.yul\":525:553   */\n      and\n        /* \"#utility.yul\":515:553   */\n      swap1\n      pop\n        /* \"#utility.yul\":457:559   */\n      swap2\n      swap1\n      pop\n      jump\t// out\n        /* \"#utility.yul\":565:745   */\n    tag_13:\n        /* \"#utility.yul\":613:690   */\n      0x4e487b7100000000000000000000000000000000000000000000000000000000\n        /* \"#utility.yul\":610:611   */\n      0x00\n        /* \"#utility.yul\":603:691   */\n      mstore\n        /* \"#utility.yul\":710:714   */\n      0x41\n        /* \"#utility.yul\":707:708   */\n      0x04\n        /* \"#utility.yul\":700:715   */\n      mstore\n        /* \"#utility.yul\":734:738   */\n      0x24\n        /* \"#utility.yul\":731:732   */\n      0x00\n        /* \"#utility.yul\":724:739   */\n      revert\n        /* \"#utility.yul\":751:1032   */\n    tag_201:\n        /* \"#utility.yul\":834:861   */\n      tag_227\n        /* \"#utility.yul\":856:860   */\n      dup3\n        /* \"#utility.yul\":834:861   */\n      tag_200\n      jump\t// in\n    tag_227:\n        /* \"#utility.yul\":826:832   */\n      dup2\n        /* \"#utility.yul\":822:862   */\n      add\n        /* \"#utility.yul\":964:970   */\n      dup2\n        /* \"#utility.yul\":952:962   */\n      dup2\n        /* \"#utility.yul\":949:971   */\n      lt\n        /* \"#utility.yul\":928:946   */\n      0xffffffffffffffff\n        /* \"#utility.yul\":916:926   */\n      dup3\n        /* \"#utility.yul\":913:947   */\n      gt\n        /* \"#utility.yul\":910:972   */\n      or\n        /* \"#utility.yul\":907:995   */\n      iszero\n      tag_228\n      jumpi\n        /* \"#utility.yul\":975:993   */\n      tag_229\n      tag_13\n      jump\t// in\n    tag_229:\n        /* \"#utility.yul\":907:995   */\n    tag_228:\n        /* \"#utility.yul\":1015:1025   */\n      dup1\n        /* \"#utility.yul\":1011:1013   */\n      0x40\n        /* \"#utility.yul\":1004:1026   */\n      mstore\n        /* \"#utility.yul\":794:1032   */\n      pop\n        /* \"#utility.yul\":751:1032   */\n      pop\n      pop\n      jump\t// out\n        /* \"#utility.yul\":1038:1167   */\n    tag_202:\n        /* \"#utility.yul\":1072:1078   */\n      0x00\n        /* \"#utility.yul\":1099:1119   */\n      tag_231\n      tag_196\n      jump\t// in\n    tag_231:\n        /* \"#utility.yul\":1089:1119   */\n      swap1\n      pop\n        /* \"#utility.yul\":1128:1161   */\n      tag_232\n        /* \"#utility.yul\":1156:1160   */\n      dup3\n        /* \"#utility.yul\":1148:1154   */\n      dup3\n        /* \"#utility.yul\":1128:1161   */\n      tag_201\n      jump\t// in\n    tag_232:\n        /* \"#utility.yul\":1038:1167   */\n      swap2\n      swap1\n      pop\n      jump\t// out\n        /* \"#utility.yul\":1296:1373   */\n    tag_204:\n        /* \"#utility.yul\":1333:1340   */\n      0x00\n        /* \"#utility.yul\":1362:1367   */\n      dup2\n        /* \"#utility.yul\":1351:1367   */\n      swap1\n      pop\n        /* \"#utility.yul\":1296:1373   */\n      swap2\n      swap1\n      pop\n      jump\t// out\n        /* \"#utility.yul\":1379:1501   */\n    tag_205:\n        /* \"#utility.yul\":1452:1476   */\n      tag_236\n        /* \"#utility.yul\":1470:1475   */\n      dup2\n        /* \"#utility.yul\":1452:1476   */\n      tag_204\n      jump\t// in\n    tag_236:\n        /* \"#utility.yul\":1445:1450   */\n      dup2\n        /* \"#utility.yul\":1442:1477   */\n      eq\n        /* \"#utility.yul\":1432:1495   */\n      tag_237\n      jumpi\n        /* \"#utility.yul\":1491:1492   */\n      0x00\n        /* \"#utility.yul\":1488:1489   */\n      dup1\n        /* \"#utility.yul\":1481:1493   */\n      revert\n        /* \"#utility.yul\":1432:1495   */\n    tag_237:\n        /* \"#utility.yul\":1379:1501   */\n      pop\n      jump\t// out\n        /* \"#utility.yul\":1507:1646   */\n    tag_206:\n        /* \"#utility.yul\":1553:1558   */\n      0x00\n        /* \"#utility.yul\":1591:1597   */\n      dup2\n        /* \"#utility.yul\":1578:1598   */\n      calldataload\n        /* \"#utility.yul\":1569:1598   */\n      swap1\n      pop\n        /* \"#utility.yul\":1607:1640   */\n      tag_239\n        /* \"#utility.yul\":1634:1639   */\n      dup2\n        /* \"#utility.yul\":1607:1640   */\n      tag_205\n      jump\t// in\n    tag_239:\n        /* \"#utility.yul\":1507:1646   */\n      swap3\n      swap2\n      pop\n      pop\n      jump\t// out\n        /* \"#utility.yul\":1682:2247   */\n    tag_207:\n        /* \"#utility.yul\":1753:1758   */\n      0x00\n        /* \"#utility.yul\":1797:1801   */\n      0x40\n        /* \"#utility.yul\":1785:1794   */\n      dup3\n        /* \"#utility.yul\":1780:1783   */\n      dup5\n        /* \"#utility.yul\":1776:1795   */\n      sub\n        /* \"#utility.yul\":1772:1802   */\n      slt\n        /* \"#utility.yul\":1769:1886   */\n      iszero\n      tag_241\n      jumpi\n        /* \"#utility.yul\":1805:1884   */\n      tag_242\n      tag_199\n      jump\t// in\n    tag_242:\n        /* \"#utility.yul\":1769:1886   */\n    tag_241:\n        /* \"#utility.yul\":1904:1925   */\n      tag_243\n        /* \"#utility.yul\":1920:1924   */\n      0x40\n        /* \"#utility.yul\":1904:1925   */\n      tag_202\n      jump\t// in\n    tag_243:\n        /* \"#utility.yul\":1895:1925   */\n      swap1\n      pop\n        /* \"#utility.yul\":1981:1982   */\n      0x00\n        /* \"#utility.yul\":2021:2070   */\n      tag_244\n        /* \"#utility.yul\":2066:2069   */\n      dup5\n        /* \"#utility.yul\":2057:2063   */\n      dup3\n        /* \"#utility.yul\":2046:2055   */\n      dup6\n        /* \"#utility.yul\":2042:2064   */\n      add\n        /* \"#utility.yul\":2021:2070   */\n      tag_206\n      jump\t// in\n    tag_244:\n        /* \"#utility.yul\":2014:2018   */\n      0x00\n        /* \"#utility.yul\":2007:2012   */\n      dup4\n        /* \"#utility.yul\":2003:2019   */\n      add\n        /* \"#utility.yul\":1996:2071   */\n      mstore\n        /* \"#utility.yul\":1935:2082   */\n      pop\n        /* \"#utility.yul\":2138:2140   */\n      0x20\n        /* \"#utility.yul\":2179:2228   */\n      tag_245\n        /* \"#utility.yul\":2224:2227   */\n      dup5\n        /* \"#utility.yul\":2215:2221   */\n      dup3\n        /* \"#utility.yul\":2204:2213   */\n      dup6\n        /* \"#utility.yul\":2200:2222   */\n      add\n        /* \"#utility.yul\":2179:2228   */\n      tag_206\n      jump\t// in\n    tag_245:\n        /* \"#utility.yul\":2172:2176   */\n      0x20\n        /* \"#utility.yul\":2165:2170   */\n      dup4\n        /* \"#utility.yul\":2161:2177   */\n      add\n        /* \"#utility.yul\":2154:2229   */\n      mstore\n        /* \"#utility.yul\":2092:2240   */\n      pop\n        /* \"#utility.yul\":1682:2247   */\n      swap3\n      swap2\n      pop\n      pop\n      jump\t// out\n        /* \"#utility.yul\":2253:2370   */\n    tag_208:\n        /* \"#utility.yul\":2362:2363   */\n      0x00\n        /* \"#utility.yul\":2359:2360   */\n      dup1\n        /* \"#utility.yul\":2352:2364   */\n      revert\n        /* \"#utility.yul\":2376:2625   */\n    tag_209:\n        /* \"#utility.yul\":2451:2455   */\n      0x00\n        /* \"#utility.yul\":2541:2559   */\n      0xffffffffffffffff\n        /* \"#utility.yul\":2533:2539   */\n      dup3\n        /* \"#utility.yul\":2530:2560   */\n      gt\n        /* \"#utility.yul\":2527:2583   */\n      iszero\n      tag_248\n      jumpi\n        /* \"#utility.yul\":2563:2581   */\n      tag_249\n      tag_13\n      jump\t// in\n    tag_249:\n        /* \"#utility.yul\":2527:2583   */\n    tag_248:\n        /* \"#utility.yul\":2613:2617   */\n      0x20\n        /* \"#utility.yul\":2605:2611   */\n      dup3\n        /* \"#utility.yul\":2601:2618   */\n      mul\n        /* \"#utility.yul\":2593:2618   */\n      swap1\n      pop\n        /* \"#utility.yul\":2376:2625   */\n      swap2\n      swap1\n      pop\n      jump\t// out\n        /* \"#utility.yul\":2631:2748   */\n    tag_210:\n        /* \"#utility.yul\":2740:2741   */\n      0x00\n        /* \"#utility.yul\":2737:2738   */\n      dup1\n        /* \"#utility.yul\":2730:2742   */\n      revert\n        /* \"#utility.yul\":2772:3415   */\n    tag_211:\n        /* \"#utility.yul\":2866:2871   */\n      0x00\n        /* \"#utility.yul\":2891:2970   */\n      tag_252\n        /* \"#utility.yul\":2907:2969   */\n      tag_253\n        /* \"#utility.yul\":2962:2968   */\n      dup5\n        /* \"#utility.yul\":2907:2969   */\n      tag_209\n      jump\t// in\n    tag_253:\n        /* \"#utility.yul\":2891:2970   */\n      tag_202\n      jump\t// in\n    tag_252:\n        /* \"#utility.yul\":2882:2970   */\n      swap1\n      pop\n        /* \"#utility.yul\":2990:2995   */\n      dup1\n        /* \"#utility.yul\":3043:3047   */\n      0x20\n        /* \"#utility.yul\":3035:3041   */\n      dup5\n        /* \"#utility.yul\":3031:3048   */\n      mul\n        /* \"#utility.yul\":3023:3029   */\n      dup4\n        /* \"#utility.yul\":3019:3049   */\n      add\n        /* \"#utility.yul\":3072:3075   */\n      dup6\n        /* \"#utility.yul\":3064:3070   */\n      dup2\n        /* \"#utility.yul\":3061:3076   */\n      gt\n        /* \"#utility.yul\":3058:3180   */\n      iszero\n      tag_254\n      jumpi\n        /* \"#utility.yul\":3091:3170   */\n      tag_255\n      tag_210\n      jump\t// in\n    tag_255:\n        /* \"#utility.yul\":3058:3180   */\n    tag_254:\n        /* \"#utility.yul\":3206:3212   */\n      dup4\n        /* \"#utility.yul\":3189:3409   */\n    tag_256:\n        /* \"#utility.yul\":3223:3229   */\n      dup2\n        /* \"#utility.yul\":3218:3221   */\n      dup2\n        /* \"#utility.yul\":3215:3230   */\n      lt\n        /* \"#utility.yul\":3189:3409   */\n      iszero\n      tag_258\n      jumpi\n        /* \"#utility.yul\":3298:3301   */\n      dup1\n        /* \"#utility.yul\":3327:3364   */\n      tag_259\n        /* \"#utility.yul\":3360:3363   */\n      dup9\n        /* \"#utility.yul\":3348:3358   */\n      dup3\n        /* \"#utility.yul\":3327:3364   */\n      tag_206\n      jump\t// in\n    tag_259:\n        /* \"#utility.yul\":3322:3325   */\n      dup5\n        /* \"#utility.yul\":3315:3365   */\n      mstore\n        /* \"#utility.yul\":3394:3398   */\n      0x20\n        /* \"#utility.yul\":3389:3392   */\n      dup5\n        /* \"#utility.yul\":3385:3399   */\n      add\n        /* \"#utility.yul\":3378:3399   */\n      swap4\n      pop\n        /* \"#utility.yul\":3265:3409   */\n      pop\n        /* \"#utility.yul\":3249:3253   */\n      0x20\n        /* \"#utility.yul\":3244:3247   */\n      dup2\n        /* \"#utility.yul\":3240:3254   */\n      add\n        /* \"#utility.yul\":3233:3254   */\n      swap1\n      pop\n        /* \"#utility.yul\":3189:3409   */\n      jump(tag_256)\n    tag_258:\n        /* \"#utility.yul\":3193:3214   */\n      pop\n        /* \"#utility.yul\":2872:3415   */\n      pop\n      pop\n        /* \"#utility.yul\":2772:3415   */\n      swap4\n      swap3\n      pop\n      pop\n      pop\n      jump\t// out\n        /* \"#utility.yul\":3439:3778   */\n    tag_212:\n        /* \"#utility.yul\":3508:3513   */\n      0x00\n        /* \"#utility.yul\":3557:3560   */\n      dup3\n        /* \"#utility.yul\":3550:3554   */\n      0x1f\n        /* \"#utility.yul\":3542:3548   */\n      dup4\n        /* \"#utility.yul\":3538:3555   */\n      add\n        /* \"#utility.yul\":3534:3561   */\n      slt\n        /* \"#utility.yul\":3524:3646   */\n      tag_261\n      jumpi\n        /* \"#utility.yul\":3565:3644   */\n      tag_262\n      tag_208\n      jump\t// in\n    tag_262:\n        /* \"#utility.yul\":3524:3646   */\n    tag_261:\n        /* \"#utility.yul\":3669:3673   */\n      0x02\n        /* \"#utility.yul\":3691:3772   */\n      tag_263\n        /* \"#utility.yul\":3768:3771   */\n      dup5\n        /* \"#utility.yul\":3760:3766   */\n      dup3\n        /* \"#utility.yul\":3752:3758   */\n      dup6\n        /* \"#utility.yul\":3691:3772   */\n      tag_211\n      jump\t// in\n    tag_263:\n        /* \"#utility.yul\":3682:3772   */\n      swap2\n      pop\n        /* \"#utility.yul\":3514:3778   */\n      pop\n        /* \"#utility.yul\":3439:3778   */\n      swap3\n      swap2\n      pop\n      pop\n      jump\t// out\n        /* \"#utility.yul\":3814:4426   */\n    tag_213:\n        /* \"#utility.yul\":3886:3891   */\n      0x00\n        /* \"#utility.yul\":3930:3934   */\n      0x80\n        /* \"#utility.yul\":3918:3927   */\n      dup3\n        /* \"#utility.yul\":3913:3916   */\n      dup5\n        /* \"#utility.yul\":3909:3928   */\n      sub\n        /* \"#utility.yul\":3905:3935   */\n      slt\n        /* \"#utility.yul\":3902:4019   */\n      iszero\n      tag_265\n      jumpi\n        /* \"#utility.yul\":3938:4017   */\n      tag_266\n      tag_199\n      jump\t// in\n    tag_266:\n        /* \"#utility.yul\":3902:4019   */\n    tag_265:\n        /* \"#utility.yul\":4037:4058   */\n      tag_267\n        /* \"#utility.yul\":4053:4057   */\n      0x40\n        /* \"#utility.yul\":4037:4058   */\n      tag_202\n      jump\t// in\n    tag_267:\n        /* \"#utility.yul\":4028:4058   */\n      swap1\n      pop\n        /* \"#utility.yul\":4114:4115   */\n      0x00\n        /* \"#utility.yul\":4154:4226   */\n      tag_268\n        /* \"#utility.yul\":4222:4225   */\n      dup5\n        /* \"#utility.yul\":4213:4219   */\n      dup3\n        /* \"#utility.yul\":4202:4211   */\n      dup6\n        /* \"#utility.yul\":4198:4220   */\n      add\n        /* \"#utility.yul\":4154:4226   */\n      tag_212\n      jump\t// in\n    tag_268:\n        /* \"#utility.yul\":4147:4151   */\n      0x00\n        /* \"#utility.yul\":4140:4145   */\n      dup4\n        /* \"#utility.yul\":4136:4152   */\n      add\n        /* \"#utility.yul\":4129:4227   */\n      mstore\n        /* \"#utility.yul\":4068:4238   */\n      pop\n        /* \"#utility.yul\":4294:4296   */\n      0x40\n        /* \"#utility.yul\":4335:4407   */\n      tag_269\n        /* \"#utility.yul\":4403:4406   */\n      dup5\n        /* \"#utility.yul\":4394:4400   */\n      dup3\n        /* \"#utility.yul\":4383:4392   */\n      dup6\n        /* \"#utility.yul\":4379:4401   */\n      add\n        /* \"#utility.yul\":4335:4407   */\n      tag_212\n      jump\t// in\n    tag_269:\n        /* \"#utility.yul\":4328:4332   */\n      0x20\n        /* \"#utility.yul\":4321:4326   */\n      dup4\n        /* \"#utility.yul\":4317:4333   */\n      add\n        /* \"#utility.yul\":4310:4408   */\n      mstore\n        /* \"#utility.yul\":4248:4419   */\n      pop\n        /* \"#utility.yul\":3814:4426   */\n      swap3\n      swap2\n      pop\n      pop\n      jump\t// out\n        /* \"#utility.yul\":4461:5254   */\n    tag_214:\n        /* \"#utility.yul\":4532:4537   */\n      0x00\n        /* \"#utility.yul\":4576:4582   */\n      0x0100\n        /* \"#utility.yul\":4564:4573   */\n      dup3\n        /* \"#utility.yul\":4559:4562   */\n      dup5\n        /* \"#utility.yul\":4555:4574   */\n      sub\n        /* \"#utility.yul\":4551:4583   */\n      slt\n        /* \"#utility.yul\":4548:4667   */\n      iszero\n      tag_271\n      jumpi\n        /* \"#utility.yul\":4586:4665   */\n      tag_272\n      tag_199\n      jump\t// in\n    tag_272:\n        /* \"#utility.yul\":4548:4667   */\n    tag_271:\n        /* \"#utility.yul\":4685:4706   */\n      tag_273\n        /* \"#utility.yul\":4701:4705   */\n      0x60\n        /* \"#utility.yul\":4685:4706   */\n      tag_202\n      jump\t// in\n    tag_273:\n        /* \"#utility.yul\":4676:4706   */\n      swap1\n      pop\n        /* \"#utility.yul\":4762:4763   */\n      0x00\n        /* \"#utility.yul\":4802:4873   */\n      tag_274\n        /* \"#utility.yul\":4869:4872   */\n      dup5\n        /* \"#utility.yul\":4860:4866   */\n      dup3\n        /* \"#utility.yul\":4849:4858   */\n      dup6\n        /* \"#utility.yul\":4845:4867   */\n      add\n        /* \"#utility.yul\":4802:4873   */\n      tag_207\n      jump\t// in\n    tag_274:\n        /* \"#utility.yul\":4795:4799   */\n      0x00\n        /* \"#utility.yul\":4788:4793   */\n      dup4\n        /* \"#utility.yul\":4784:4800   */\n      add\n        /* \"#utility.yul\":4777:4874   */\n      mstore\n        /* \"#utility.yul\":4716:4885   */\n      pop\n        /* \"#utility.yul\":4941:4943   */\n      0x40\n        /* \"#utility.yul\":4982:5054   */\n      tag_275\n        /* \"#utility.yul\":5050:5053   */\n      dup5\n        /* \"#utility.yul\":5041:5047   */\n      dup3\n        /* \"#utility.yul\":5030:5039   */\n      dup6\n        /* \"#utility.yul\":5026:5048   */\n      add\n        /* \"#utility.yul\":4982:5054   */\n      tag_213\n      jump\t// in\n    tag_275:\n        /* \"#utility.yul\":4975:4979   */\n      0x20\n        /* \"#utility.yul\":4968:4973   */\n      dup4\n        /* \"#utility.yul\":4964:4980   */\n      add\n        /* \"#utility.yul\":4957:5055   */\n      mstore\n        /* \"#utility.yul\":4895:5066   */\n      pop\n        /* \"#utility.yul\":5122:5125   */\n      0xc0\n        /* \"#utility.yul\":5164:5235   */\n      tag_276\n        /* \"#utility.yul\":5231:5234   */\n      dup5\n        /* \"#utility.yul\":5222:5228   */\n      dup3\n        /* \"#utility.yul\":5211:5220   */\n      dup6\n        /* \"#utility.yul\":5207:5229   */\n      add\n        /* \"#utility.yul\":5164:5235   */\n      tag_207\n      jump\t// in\n    tag_276:\n        /* \"#utility.yul\":5157:5161   */\n      0x40\n        /* \"#utility.yul\":5150:5155   */\n      dup4\n        /* \"#utility.yul\":5146:5162   */\n      add\n        /* \"#utility.yul\":5139:5236   */\n      mstore\n        /* \"#utility.yul\":5076:5247   */\n      pop\n        /* \"#utility.yul\":4461:5254   */\n      swap3\n      swap2\n      pop\n      pop\n      jump\t// out\n        /* \"#utility.yul\":5260:5634   */\n    tag_6:\n        /* \"#utility.yul\":5341:5347   */\n      0x00\n        /* \"#utility.yul\":5390:5393   */\n      0x0100\n        /* \"#utility.yul\":5378:5387   */\n      dup3\n        /* \"#utility.yul\":5369:5376   */\n      dup5\n        /* \"#utility.yul\":5365:5388   */\n      sub\n        /* \"#utility.yul\":5361:5394   */\n      slt\n        /* \"#utility.yul\":5358:5478   */\n      iszero\n      tag_278\n      jumpi\n        /* \"#utility.yul\":5397:5476   */\n      tag_279\n      tag_197\n      jump\t// in\n    tag_279:\n        /* \"#utility.yul\":5358:5478   */\n    tag_278:\n        /* \"#utility.yul\":5517:5518   */\n      0x00\n        /* \"#utility.yul\":5542:5617   */\n      tag_280\n        /* \"#utility.yul\":5609:5616   */\n      dup5\n        /* \"#utility.yul\":5600:5606   */\n      dup3\n        /* \"#utility.yul\":5589:5598   */\n      dup6\n        /* \"#utility.yul\":5585:5607   */\n      add\n        /* \"#utility.yul\":5542:5617   */\n      tag_214\n      jump\t// in\n    tag_280:\n        /* \"#utility.yul\":5532:5617   */\n      swap2\n      pop\n        /* \"#utility.yul\":5488:5627   */\n      pop\n        /* \"#utility.yul\":5260:5634   */\n      swap3\n      swap2\n      pop\n      pop\n      jump\t// out\n        /* \"#utility.yul\":5640:5730   */\n    tag_215:\n        /* \"#utility.yul\":5674:5681   */\n      0x00\n        /* \"#utility.yul\":5717:5722   */\n      dup2\n        /* \"#utility.yul\":5710:5723   */\n      iszero\n        /* \"#utility.yul\":5703:5724   */\n      iszero\n        /* \"#utility.yul\":5692:5724   */\n      swap1\n      pop\n        /* \"#utility.yul\":5640:5730   */\n      swap2\n      swap1\n      pop\n      jump\t// out\n        /* \"#utility.yul\":5736:5845   */\n    tag_216:\n        /* \"#utility.yul\":5817:5838   */\n      tag_283\n        /* \"#utility.yul\":5832:5837   */\n      dup2\n        /* \"#utility.yul\":5817:5838   */\n      tag_215\n      jump\t// in\n    tag_283:\n        /* \"#utility.yul\":5812:5815   */\n      dup3\n        /* \"#utility.yul\":5805:5839   */\n      mstore\n        /* \"#utility.yul\":5736:5845   */\n      pop\n      pop\n      jump\t// out\n        /* \"#utility.yul\":5851:6061   */\n    tag_9:\n        /* \"#utility.yul\":5938:5942   */\n      0x00\n        /* \"#utility.yul\":5976:5978   */\n      0x20\n        /* \"#utility.yul\":5965:5974   */\n      dup3\n        /* \"#utility.yul\":5961:5979   */\n      add\n        /* \"#utility.yul\":5953:5979   */\n      swap1\n      pop\n        /* \"#utility.yul\":5989:6054   */\n      tag_285\n        /* \"#utility.yul\":6051:6052   */\n      0x00\n        /* \"#utility.yul\":6040:6049   */\n      dup4\n        /* \"#utility.yul\":6036:6053   */\n      add\n        /* \"#utility.yul\":6027:6033   */\n      dup5\n        /* \"#utility.yul\":5989:6054   */\n      tag_216\n      jump\t// in\n    tag_285:\n        /* \"#utility.yul\":5851:6061   */\n      swap3\n      swap2\n      pop\n      pop\n      jump\t// out\n        /* \"#utility.yul\":6067:6247   */\n    tag_217:\n        /* \"#utility.yul\":6115:6192   */\n      0x4e487b7100000000000000000000000000000000000000000000000000000000\n        /* \"#utility.yul\":6112:6113   */\n      0x00\n        /* \"#utility.yul\":6105:6193   */\n      mstore\n        /* \"#utility.yul\":6212:6216   */\n      0x11\n        /* \"#utility.yul\":6209:6210   */\n      0x04\n        /* \"#utility.yul\":6202:6217   */\n      mstore\n        /* \"#utility.yul\":6236:6240   */\n      0x24\n        /* \"#utility.yul\":6233:6234   */\n      0x00\n        /* \"#utility.yul\":6226:6241   */\n      revert\n        /* \"#utility.yul\":6253:6444   */\n    tag_23:\n        /* \"#utility.yul\":6293:6296   */\n      0x00\n        /* \"#utility.yul\":6312:6332   */\n      tag_288\n        /* \"#utility.yul\":6330:6331   */\n      dup3\n        /* \"#utility.yul\":6312:6332   */\n      tag_204\n      jump\t// in\n    tag_288:\n        /* \"#utility.yul\":6307:6332   */\n      swap2\n      pop\n        /* \"#utility.yul\":6346:6366   */\n      tag_289\n        /* \"#utility.yul\":6364:6365   */\n      dup4\n        /* \"#utility.yul\":6346:6366   */\n      tag_204\n      jump\t// in\n    tag_289:\n        /* \"#utility.yul\":6341:6366   */\n      swap3\n      pop\n        /* \"#utility.yul\":6389:6390   */\n      dup3\n        /* \"#utility.yul\":6386:6387   */\n      dup3\n        /* \"#utility.yul\":6382:6391   */\n      add\n        /* \"#utility.yul\":6375:6391   */\n      swap1\n      pop\n        /* \"#utility.yul\":6410:6413   */\n      dup1\n        /* \"#utility.yul\":6407:6408   */\n      dup3\n        /* \"#utility.yul\":6404:6414   */\n      gt\n        /* \"#utility.yul\":6401:6437   */\n      iszero\n      tag_290\n      jumpi\n        /* \"#utility.yul\":6417:6435   */\n      tag_291\n      tag_217\n      jump\t// in\n    tag_291:\n        /* \"#utility.yul\":6401:6437   */\n    tag_290:\n        /* \"#utility.yul\":6253:6444   */\n      swap3\n      swap2\n      pop\n      pop\n      jump\t// out\n        /* \"#utility.yul\":6450:6630   */\n    tag_30:\n        /* \"#utility.yul\":6498:6575   */\n      0x4e487b7100000000000000000000000000000000000000000000000000000000\n        /* \"#utility.yul\":6495:6496   */\n      0x00\n        /* \"#utility.yul\":6488:6576   */\n      mstore\n        /* \"#utility.yul\":6595:6599   */\n      0x32\n        /* \"#utility.yul\":6592:6593   */\n      0x04\n        /* \"#utility.yul\":6585:6600   */\n      mstore\n        /* \"#utility.yul\":6619:6623   */\n      0x24\n        /* \"#utility.yul\":6616:6617   */\n      0x00\n        /* \"#utility.yul\":6609:6624   */\n      revert\n        /* \"#utility.yul\":6636:6816   */\n    tag_218:\n        /* \"#utility.yul\":6684:6761   */\n      0x4e487b7100000000000000000000000000000000000000000000000000000000\n        /* \"#utility.yul\":6681:6682   */\n      0x00\n        /* \"#utility.yul\":6674:6762   */\n      mstore\n        /* \"#utility.yul\":6781:6785   */\n      0x12\n        /* \"#utility.yul\":6778:6779   */\n      0x04\n        /* \"#utility.yul\":6771:6786   */\n      mstore\n        /* \"#utility.yul\":6805:6809   */\n      0x24\n        /* \"#utility.yul\":6802:6803   */\n      0x00\n        /* \"#utility.yul\":6795:6810   */\n      revert\n        /* \"#utility.yul\":6822:6998   */\n    tag_95:\n        /* \"#utility.yul\":6854:6855   */\n      0x00\n        /* \"#utility.yul\":6871:6891   */\n      tag_295\n        /* \"#utility.yul\":6889:6890   */\n      dup3\n        /* \"#utility.yul\":6871:6891   */\n      tag_204\n      jump\t// in\n    tag_295:\n        /* \"#utility.yul\":6866:6891   */\n      swap2\n      pop\n        /* \"#utility.yul\":6905:6925   */\n      tag_296\n        /* \"#utility.yul\":6923:6924   */\n      dup4\n        /* \"#utility.yul\":6905:6925   */\n      tag_204\n      jump\t// in\n    tag_296:\n        /* \"#utility.yul\":6900:6925   */\n      swap3\n      pop\n        /* \"#utility.yul\":6944:6945   */\n      dup3\n        /* \"#utility.yul\":6934:6969   */\n      tag_297\n      jumpi\n        /* \"#utility.yul\":6949:6967   */\n      tag_298\n      tag_218\n      jump\t// in\n    tag_298:\n        /* \"#utility.yul\":6934:6969   */\n    tag_297:\n        /* \"#utility.yul\":6990:6991   */\n      dup3\n        /* \"#utility.yul\":6987:6988   */\n      dup3\n        /* \"#utility.yul\":6983:6992   */\n      mod\n        /* \"#utility.yul\":6978:6992   */\n      swap1\n      pop\n        /* \"#utility.yul\":6822:6998   */\n      swap3\n      swap2\n      pop\n      pop\n      jump\t// out\n        /* \"#utility.yul\":7004:7198   */\n    tag_97:\n        /* \"#utility.yul\":7044:7048   */\n      0x00\n        /* \"#utility.yul\":7064:7084   */\n      tag_300\n        /* \"#utility.yul\":7082:7083   */\n      dup3\n        /* \"#utility.yul\":7064:7084   */\n      tag_204\n      jump\t// in\n    tag_300:\n        /* \"#utility.yul\":7059:7084   */\n      swap2\n      pop\n        /* \"#utility.yul\":7098:7118   */\n      tag_301\n        /* \"#utility.yul\":7116:7117   */\n      dup4\n        /* \"#utility.yul\":7098:7118   */\n      tag_204\n      jump\t// in\n    tag_301:\n        /* \"#utility.yul\":7093:7118   */\n      swap3\n      pop\n        /* \"#utility.yul\":7142:7143   */\n      dup3\n        /* \"#utility.yul\":7139:7140   */\n      dup3\n        /* \"#utility.yul\":7135:7144   */\n      sub\n        /* \"#utility.yul\":7127:7144   */\n      swap1\n      pop\n        /* \"#utility.yul\":7166:7167   */\n      dup2\n        /* \"#utility.yul\":7160:7164   */\n      dup2\n        /* \"#utility.yul\":7157:7168   */\n      gt\n        /* \"#utility.yul\":7154:7191   */\n      iszero\n      tag_302\n      jumpi\n        /* \"#utility.yul\":7171:7189   */\n      tag_303\n      tag_217\n      jump\t// in\n    tag_303:\n        /* \"#utility.yul\":7154:7191   */\n    tag_302:\n        /* \"#utility.yul\":7004:7198   */\n      swap3\n      swap2\n      pop\n      pop\n      jump\t// out\n        /* \"#utility.yul\":7204:7614   */\n    tag_131:\n        /* \"#utility.yul\":7244:7251   */\n      0x00\n        /* \"#utility.yul\":7267:7287   */\n      tag_305\n        /* \"#utility.yul\":7285:7286   */\n      dup3\n        /* \"#utility.yul\":7267:7287   */\n      tag_204\n      jump\t// in\n    tag_305:\n        /* \"#utility.yul\":7262:7287   */\n      swap2\n      pop\n        /* \"#utility.yul\":7301:7321   */\n      tag_306\n        /* \"#utility.yul\":7319:7320   */\n      dup4\n        /* \"#utility.yul\":7301:7321   */\n      tag_204\n      jump\t// in\n    tag_306:\n        /* \"#utility.yul\":7296:7321   */\n      swap3\n      pop\n        /* \"#utility.yul\":7356:7357   */\n      dup3\n        /* \"#utility.yul\":7353:7354   */\n      dup3\n        /* \"#utility.yul\":7349:7358   */\n      mul\n        /* \"#utility.yul\":7378:7408   */\n      tag_307\n        /* \"#utility.yul\":7396:7407   */\n      dup2\n        /* \"#utility.yul\":7378:7408   */\n      tag_204\n      jump\t// in\n    tag_307:\n        /* \"#utility.yul\":7367:7408   */\n      swap2\n      pop\n        /* \"#utility.yul\":7557:7558   */\n      dup3\n        /* \"#utility.yul\":7548:7555   */\n      dup3\n        /* \"#utility.yul\":7544:7559   */\n      div\n        /* \"#utility.yul\":7541:7542   */\n      dup5\n        /* \"#utility.yul\":7538:7560   */\n      eq\n        /* \"#utility.yul\":7518:7519   */\n      dup4\n        /* \"#utility.yul\":7511:7520   */\n      iszero\n        /* \"#utility.yul\":7491:7574   */\n      or\n        /* \"#utility.yul\":7468:7607   */\n      tag_308\n      jumpi\n        /* \"#utility.yul\":7587:7605   */\n      tag_309\n      tag_217\n      jump\t// in\n    tag_309:\n        /* \"#utility.yul\":7468:7607   */\n    tag_308:\n        /* \"#utility.yul\":7252:7614   */\n      pop\n        /* \"#utility.yul\":7204:7614   */\n      swap3\n      swap2\n      pop\n      pop\n      jump\t// out\n\n    auxdata: 0xa2646970667358221220968a98edfcc6c44c1f628753a08ed78aa9db0d9145e57c7acce8063df98d75cf64736f6c63430008190033\n}\n",
				"bytecode": {
					"linkReferences": {},
					"object": "6080604052348015600e575f80fd5b506112608061001c5f395ff3fe608060405234801561000f575f80fd5b5060043610610029575f3560e01c8063f6af03111461002d575b5f80fd5b6100476004803603810190610042919061106d565b61005d565b60405161005491906110b3565b60405180910390f35b5f805f67ffffffffffffffff81111561007957610078610e10565b5b6040519080825280602002602001820160405280156100a75781602001602082028036833780820191505090505b5090505f6100b582856100ce565b036100c45760019150506100c9565b5f9150505b919050565b5f807f30644e72e131a029b85045b68181585d2833e84879b9709143e1f593f000000190505f6100fc610253565b90508060800151516001865161011291906110f9565b1461011b575f80fd5b5f60405180604001604052805f81526020015f81525090505f5b86518110156101c957838782815181106101525761015161112c565b5b602002602001015110610163575f80fd5b6101ba826101b5856080015160018561017c91906110f9565b8151811061018d5761018c61112c565b5b60200260200101518a85815181106101a8576101a761112c565b5b60200260200101516105dd565b61067a565b91508080600101915050610135565b506101f28183608001515f815181106101e5576101e461112c565b5b602002602001015161067a565b9050610236855f015186602001516102098461073c565b856040015161021b8a6040015161073c565b876060015161022c895f015161073c565b89602001516107da565b610246576001935050505061024d565b5f93505050505b92915050565b61025b610ce2565b60405180604001604052807f1828c4abd35d3f96cd0537683b0629fa6d301bc070bd9fd1aebddb114597febe81526020017f044545c20d86e7d35fc169155c36e2be1038f3118a053838c59535269296df9e815250815f0181905250604051806040016040528060405180604001604052807f083eaedf8e6d481e997694b7dbe3384a0d5e99c9f3328120d499857bebec227781526020017f26c8a02e0935fcc925a55df776d399a1043caa4b6dadc14b7d5173136e00278a815250815260200160405180604001604052807f0f9e7d925b5bba38156e7bdb8b06874797000f9832ad4b10d8687bad170ac87781526020017f032e4373acd12e2c4b7a1374e86a5ac035296760cb2e33f4c023d43d2340c22e8152508152508160200181905250604051806040016040528060405180604001604052807f17a4371a6402f76e106e3288136aa9ff18bbca9a947ab55cb11473b1e23e7be581526020017f0348581dfa54eaadcd6ee3302b7b6240059bf70403f2788dd7f583b847669297815250815260200160405180604001604052807f2758eaf041db3722e609ed0d5f206c6b76392fb4b286ab8e748aca48560d296081526020017f02885943492de5a413085ef0911dc022b60e703bd9fa7f84539c74711b4e95618152508152508160400181905250604051806040016040528060405180604001604052807f0b4856eb27168668e5faeca8a602fa44451c81774820f94968c1110aa51d8cbe81526020017f09a638afc9a5de54e6ecb1b33a2592fa085f3ec9d53be611ace1c57d8d35f607815250815260200160405180604001604052807f02d97f958c2f092187c80215d7f1712c3c7be65e5721db23769c30e615b9ae5381526020017f2ac1e4471c4ec4a1f5f24c6ed879354d6172547bd4babfb393fd2819a7903ec58152508152508160600181905250600167ffffffffffffffff81111561052157610520610e10565b5b60405190808252806020026020018201604052801561055a57816020015b610547610d29565b81526020019060019003908161053f5790505b50816080018190525060405180604001604052807f20c0683cba29ef0f25fe0d4e4c5c56d5b8819c5c6e6fb6e5a6a05d9ac700546181526020017f30083df89526eef3eba5173f8d591d13c647256e67b62be5d16141b5f3634be081525081608001515f815181106105cf576105ce61112c565b5b602002602001018190525090565b6105e5610d29565b6105ed610d41565b835f0151815f600381106106045761060361112c565b5b6020020181815250508360200151816001600381106106265761062561112c565b5b60200201818152505082816002600381106106445761064361112c565b5b6020020181815250505f60608360808460076107d05a03fa9050805f810361066857fe5b5080610672575f80fd5b505092915050565b610682610d29565b61068a610d63565b835f0151815f600481106106a1576106a061112c565b5b6020020181815250508360200151816001600481106106c3576106c261112c565b5b602002018181525050825f0151816002600481106106e4576106e361112c565b5b6020020181815250508260200151816003600481106107065761070561112c565b5b6020020181815250505f60608360c08460066107d05a03fa9050805f810361072a57fe5b5080610734575f80fd5b505092915050565b610744610d29565b5f7f30644e72e131a029b85045b68181585d97816a916871ca8d3c208c16d87cfd4790505f835f015114801561077d57505f8360200151145b1561079f5760405180604001604052805f81526020015f8152509150506107d5565b6040518060400160405280845f015181526020018285602001516107c39190611186565b836107ce91906111b6565b8152509150505b919050565b5f80600467ffffffffffffffff8111156107f7576107f6610e10565b5b60405190808252806020026020018201604052801561083057816020015b61081d610d29565b8152602001906001900390816108155790505b5090505f600467ffffffffffffffff81111561084f5761084e610e10565b5b60405190808252806020026020018201604052801561088857816020015b610875610d85565b81526020019060019003908161086d5790505b5090508a825f8151811061089f5761089e61112c565b5b602002602001018190525088826001815181106108bf576108be61112c565b5b602002602001018190525086826002815181106108df576108de61112c565b5b602002602001018190525084826003815181106108ff576108fe61112c565b5b602002602001018190525089815f8151811061091e5761091d61112c565b5b6020026020010181905250878160018151811061093e5761093d61112c565b5b6020026020010181905250858160028151811061095e5761095d61112c565b5b6020026020010181905250838160038151811061097e5761097d61112c565b5b602002602001018190525061099382826109a3565b9250505098975050505050505050565b5f81518351146109b1575f80fd5b5f835190505f6006826109c491906111e9565b90505f8167ffffffffffffffff8111156109e1576109e0610e10565b5b604051908082528060200260200182016040528015610a0f5781602001602082028036833780820191505090505b5090505f5b83811015610c8757868181518110610a2f57610a2e61112c565b5b60200260200101515f0151825f600684610a4991906111e9565b610a5391906110f9565b81518110610a6457610a6361112c565b5b602002602001018181525050868181518110610a8357610a8261112c565b5b602002602001015160200151826001600684610a9f91906111e9565b610aa991906110f9565b81518110610aba57610ab961112c565b5b602002602001018181525050858181518110610ad957610ad861112c565b5b60200260200101515f0151600160028110610af757610af661112c565b5b6020020151826002600684610b0c91906111e9565b610b1691906110f9565b81518110610b2757610b2661112c565b5b602002602001018181525050858181518110610b4657610b4561112c565b5b60200260200101515f01515f60028110610b6357610b6261112c565b5b6020020151826003600684610b7891906111e9565b610b8291906110f9565b81518110610b9357610b9261112c565b5b602002602001018181525050858181518110610bb257610bb161112c565b5b602002602001015160200151600160028110610bd157610bd061112c565b5b6020020151826004600684610be691906111e9565b610bf091906110f9565b81518110610c0157610c0061112c565b5b602002602001018181525050858181518110610c2057610c1f61112c565b5b6020026020010151602001515f60028110610c3e57610c3d61112c565b5b6020020151826005600684610c5391906111e9565b610c5d91906110f9565b81518110610c6e57610c6d61112c565b5b6020026020010181815250508080600101915050610a14565b50610c90610dab565b5f602082602086026020860160086107d05a03fa9050805f8103610cb057fe5b5080610cba575f80fd5b5f825f60018110610cce57610ccd61112c565b5b602002015114159550505050505092915050565b6040518060a00160405280610cf5610d29565b8152602001610d02610d85565b8152602001610d0f610d85565b8152602001610d1c610d85565b8152602001606081525090565b60405180604001604052805f81526020015f81525090565b6040518060600160405280600390602082028036833780820191505090505090565b6040518060800160405280600490602082028036833780820191505090505090565b6040518060400160405280610d98610dcd565b8152602001610da5610dcd565b81525090565b6040518060200160405280600190602082028036833780820191505090505090565b6040518060400160405280600290602082028036833780820191505090505090565b5f604051905090565b5f80fd5b5f80fd5b5f601f19601f8301169050919050565b7f4e487b71000000000000000000000000000000000000000000000000000000005f52604160045260245ffd5b610e4682610e00565b810181811067ffffffffffffffff82111715610e6557610e64610e10565b5b80604052505050565b5f610e77610def565b9050610e838282610e3d565b919050565b5f819050919050565b610e9a81610e88565b8114610ea4575f80fd5b50565b5f81359050610eb581610e91565b92915050565b5f60408284031215610ed057610ecf610dfc565b5b610eda6040610e6e565b90505f610ee984828501610ea7565b5f830152506020610efc84828501610ea7565b60208301525092915050565b5f80fd5b5f67ffffffffffffffff821115610f2657610f25610e10565b5b602082029050919050565b5f80fd5b5f610f47610f4284610f0c565b610e6e565b90508060208402830185811115610f6157610f60610f31565b5b835b81811015610f8a5780610f768882610ea7565b845260208401935050602081019050610f63565b5050509392505050565b5f82601f830112610fa857610fa7610f08565b5b6002610fb5848285610f35565b91505092915050565b5f60808284031215610fd357610fd2610dfc565b5b610fdd6040610e6e565b90505f610fec84828501610f94565b5f830152506040610fff84828501610f94565b60208301525092915050565b5f610100828403121561102157611020610dfc565b5b61102b6060610e6e565b90505f61103a84828501610ebb565b5f83015250604061104d84828501610fbe565b60208301525060c061106184828501610ebb565b60408301525092915050565b5f610100828403121561108357611082610df8565b5b5f6110908482850161100b565b91505092915050565b5f8115159050919050565b6110ad81611099565b82525050565b5f6020820190506110c65f8301846110a4565b92915050565b7f4e487b71000000000000000000000000000000000000000000000000000000005f52601160045260245ffd5b5f61110382610e88565b915061110e83610e88565b9250828201905080821115611126576111256110cc565b5b92915050565b7f4e487b71000000000000000000000000000000000000000000000000000000005f52603260045260245ffd5b7f4e487b71000000000000000000000000000000000000000000000000000000005f52601260045260245ffd5b5f61119082610e88565b915061119b83610e88565b9250826111ab576111aa611159565b5b828206905092915050565b5f6111c082610e88565b91506111cb83610e88565b92508282039050818111156111e3576111e26110cc565b5b92915050565b5f6111f382610e88565b91506111fe83610e88565b925082820261120c81610e88565b91508282048414831517611223576112226110cc565b5b509291505056fea2646970667358221220968a98edfcc6c44c1f628753a08ed78aa9db0d9145e57c7acce8063df98d75cf64736f6c63430008190033",
					"opcodes": "PUSH1 0x80 PUSH1 0x40 MSTORE CALLVALUE DUP1 ISZERO PUSH1 0xE JUMPI PUSH0 DUP1 REVERT JUMPDEST POP PUSH2 0x1260 DUP1 PUSH2 0x1C PUSH0 CODECOPY PUSH0 RETURN INVALID PUSH1 0x80 PUSH1 0x40 MSTORE CALLVALUE DUP1 ISZERO PUSH2 0xF JUMPI PUSH0 DUP1 REVERT JUMPDEST POP PUSH1 0x4 CALLDATASIZE LT PUSH2 0x29 JUMPI PUSH0 CALLDATALOAD PUSH1 0xE0 SHR DUP1 PUSH4 0xF6AF0311 EQ PUSH2 0x2D JUMPI JUMPDEST PUSH0 DUP1 REVERT JUMPDEST PUSH2 0x47 PUSH1 0x4 DUP1 CALLDATASIZE SUB DUP2 ADD SWAP1 PUSH2 0x42 SWAP2 SWAP1 PUSH2 0x106D JUMP JUMPDEST PUSH2 0x5D JUMP JUMPDEST PUSH1 0x40 MLOAD PUSH2 0x54 SWAP2 SWAP1 PUSH2 0x10B3 JUMP JUMPDEST PUSH1 0x40 MLOAD DUP1 SWAP2 SUB SWAP1 RETURN JUMPDEST PUSH0 DUP1 PUSH0 PUSH8 0xFFFFFFFFFFFFFFFF DUP2 GT ISZERO PUSH2 0x79 JUMPI PUSH2 0x78 PUSH2 0xE10 JUMP JUMPDEST JUMPDEST PUSH1 0x40 MLOAD SWAP1 DUP1 DUP3 MSTORE DUP1 PUSH1 0x20 MUL PUSH1 0x20 ADD DUP3 ADD PUSH1 0x40 MSTORE DUP1 ISZERO PUSH2 0xA7 JUMPI DUP2 PUSH1 0x20 ADD PUSH1 0x20 DUP3 MUL DUP1 CALLDATASIZE DUP4 CALLDATACOPY DUP1 DUP3 ADD SWAP2 POP POP SWAP1 POP JUMPDEST POP SWAP1 POP PUSH0 PUSH2 0xB5 DUP3 DUP6 PUSH2 0xCE JUMP JUMPDEST SUB PUSH2 0xC4 JUMPI PUSH1 0x1 SWAP2 POP POP PUSH2 0xC9 JUMP JUMPDEST PUSH0 SWAP2 POP POP JUMPDEST SWAP2 SWAP1 POP JUMP JUMPDEST PUSH0 DUP1 PUSH32 0x30644E72E131A029B85045B68181585D2833E84879B9709143E1F593F0000001 SWAP1 POP PUSH0 PUSH2 0xFC PUSH2 0x253 JUMP JUMPDEST SWAP1 POP DUP1 PUSH1 0x80 ADD MLOAD MLOAD PUSH1 0x1 DUP7 MLOAD PUSH2 0x112 SWAP2 SWAP1 PUSH2 0x10F9 JUMP JUMPDEST EQ PUSH2 0x11B JUMPI PUSH0 DUP1 REVERT JUMPDEST PUSH0 PUSH1 0x40 MLOAD DUP1 PUSH1 0x40 ADD PUSH1 0x40 MSTORE DUP1 PUSH0 DUP2 MSTORE PUSH1 0x20 ADD PUSH0 DUP2 MSTORE POP SWAP1 POP PUSH0 JUMPDEST DUP7 MLOAD DUP2 LT ISZERO PUSH2 0x1C9 JUMPI DUP4 DUP8 DUP3 DUP2 MLOAD DUP2 LT PUSH2 0x152 JUMPI PUSH2 0x151 PUSH2 0x112C JUMP JUMPDEST JUMPDEST PUSH1 0x20 MUL PUSH1 0x20 ADD ADD MLOAD LT PUSH2 0x163 JUMPI PUSH0 DUP1 REVERT JUMPDEST PUSH2 0x1BA DUP3 PUSH2 0x1B5 DUP6 PUSH1 0x80 ADD MLOAD PUSH1 0x1 DUP6 PUSH2 0x17C SWAP2 SWAP1 PUSH2 0x10F9 JUMP JUMPDEST DUP2 MLOAD DUP2 LT PUSH2 0x18D JUMPI PUSH2 0x18C PUSH2 0x112C JUMP JUMPDEST JUMPDEST PUSH1 0x20 MUL PUSH1 0x20 ADD ADD MLOAD DUP11 DUP6 DUP2 MLOAD DUP2 LT PUSH2 0x1A8 JUMPI PUSH2 0x1A7 PUSH2 0x112C JUMP JUMPDEST JUMPDEST PUSH1 0x20 MUL PUSH1 0x20 ADD ADD MLOAD PUSH2 0x5DD JUMP JUMPDEST PUSH2 0x67A JUMP JUMPDEST SWAP2 POP DUP1 DUP1 PUSH1 0x1 ADD SWAP2 POP POP PUSH2 0x135 JUMP JUMPDEST POP PUSH2 0x1F2 DUP2 DUP4 PUSH1 0x80 ADD MLOAD PUSH0 DUP2 MLOAD DUP2 LT PUSH2 0x1E5 JUMPI PUSH2 0x1E4 PUSH2 0x112C JUMP JUMPDEST JUMPDEST PUSH1 0x20 MUL PUSH1 0x20 ADD ADD MLOAD PUSH2 0x67A JUMP JUMPDEST SWAP1 POP PUSH2 0x236 DUP6 PUSH0 ADD MLOAD DUP7 PUSH1 0x20 ADD MLOAD PUSH2 0x209 DUP5 PUSH2 0x73C JUMP JUMPDEST DUP6 PUSH1 0x40 ADD MLOAD PUSH2 0x21B DUP11 PUSH1 0x40 ADD MLOAD PUSH2 0x73C JUMP JUMPDEST DUP8 PUSH1 0x60 ADD MLOAD PUSH2 0x22C DUP10 PUSH0 ADD MLOAD PUSH2 0x73C JUMP JUMPDEST DUP10 PUSH1 0x20 ADD MLOAD PUSH2 0x7DA JUMP JUMPDEST PUSH2 0x246 JUMPI PUSH1 0x1 SWAP4 POP POP POP POP PUSH2 0x24D JUMP JUMPDEST PUSH0 SWAP4 POP POP POP POP JUMPDEST SWAP3 SWAP2 POP POP JUMP JUMPDEST PUSH2 0x25B PUSH2 0xCE2 JUMP JUMPDEST PUSH1 0x40 MLOAD DUP1 PUSH1 0x40 ADD PUSH1 0x40 MSTORE DUP1 PUSH32 0x1828C4ABD35D3F96CD0537683B0629FA6D301BC070BD9FD1AEBDDB114597FEBE DUP2 MSTORE PUSH1 0x20 ADD PUSH32 0x44545C20D86E7D35FC169155C36E2BE1038F3118A053838C59535269296DF9E DUP2 MSTORE POP DUP2 PUSH0 ADD DUP2 SWAP1 MSTORE POP PUSH1 0x40 MLOAD DUP1 PUSH1 0x40 ADD PUSH1 0x40 MSTORE DUP1 PUSH1 0x40 MLOAD DUP1 PUSH1 0x40 ADD PUSH1 0x40 MSTORE DUP1 PUSH32 0x83EAEDF8E6D481E997694B7DBE3384A0D5E99C9F3328120D499857BEBEC2277 DUP2 MSTORE PUSH1 0x20 ADD PUSH32 0x26C8A02E0935FCC925A55DF776D399A1043CAA4B6DADC14B7D5173136E00278A DUP2 MSTORE POP DUP2 MSTORE PUSH1 0x20 ADD PUSH1 0x40 MLOAD DUP1 PUSH1 0x40 ADD PUSH1 0x40 MSTORE DUP1 PUSH32 0xF9E7D925B5BBA38156E7BDB8B06874797000F9832AD4B10D8687BAD170AC877 DUP2 MSTORE PUSH1 0x20 ADD PUSH32 0x32E4373ACD12E2C4B7A1374E86A5AC035296760CB2E33F4C023D43D2340C22E DUP2 MSTORE POP DUP2 MSTORE POP DUP2 PUSH1 0x20 ADD DUP2 SWAP1 MSTORE POP PUSH1 0x40 MLOAD DUP1 PUSH1 0x40 ADD PUSH1 0x40 MSTORE DUP1 PUSH1 0x40 MLOAD DUP1 PUSH1 0x40 ADD PUSH1 0x40 MSTORE DUP1 PUSH32 0x17A4371A6402F76E106E3288136AA9FF18BBCA9A947AB55CB11473B1E23E7BE5 DUP2 MSTORE PUSH1 0x20 ADD PUSH32 0x348581DFA54EAADCD6EE3302B7B6240059BF70403F2788DD7F583B847669297 DUP2 MSTORE POP DUP2 MSTORE PUSH1 0x20 ADD PUSH1 0x40 MLOAD DUP1 PUSH1 0x40 ADD PUSH1 0x40 MSTORE DUP1 PUSH32 0x2758EAF041DB3722E609ED0D5F206C6B76392FB4B286AB8E748ACA48560D2960 DUP2 MSTORE PUSH1 0x20 ADD PUSH32 0x2885943492DE5A413085EF0911DC022B60E703BD9FA7F84539C74711B4E9561 DUP2 MSTORE POP DUP2 MSTORE POP DUP2 PUSH1 0x40 ADD DUP2 SWAP1 MSTORE POP PUSH1 0x40 MLOAD DUP1 PUSH1 0x40 ADD PUSH1 0x40 MSTORE DUP1 PUSH1 0x40 MLOAD DUP1 PUSH1 0x40 ADD PUSH1 0x40 MSTORE DUP1 PUSH32 0xB4856EB27168668E5FAECA8A602FA44451C81774820F94968C1110AA51D8CBE DUP2 MSTORE PUSH1 0x20 ADD PUSH32 0x9A638AFC9A5DE54E6ECB1B33A2592FA085F3EC9D53BE611ACE1C57D8D35F607 DUP2 MSTORE POP DUP2 MSTORE PUSH1 0x20 ADD PUSH1 0x40 MLOAD DUP1 PUSH1 0x40 ADD PUSH1 0x40 MSTORE DUP1 PUSH32 0x2D97F958C2F092187C80215D7F1712C3C7BE65E5721DB23769C30E615B9AE53 DUP2 MSTORE PUSH1 0x20 ADD PUSH32 0x2AC1E4471C4EC4A1F5F24C6ED879354D6172547BD4BABFB393FD2819A7903EC5 DUP2 MSTORE POP DUP2 MSTORE POP DUP2 PUSH1 0x60 ADD DUP2 SWAP1 MSTORE POP PUSH1 0x1 PUSH8 0xFFFFFFFFFFFFFFFF DUP2 GT ISZERO PUSH2 0x521 JUMPI PUSH2 0x520 PUSH2 0xE10 JUMP JUMPDEST JUMPDEST PUSH1 0x40 MLOAD SWAP1 DUP1 DUP3 MSTORE DUP1 PUSH1 0x20 MUL PUSH1 0x20 ADD DUP3 ADD PUSH1 0x40 MSTORE DUP1 ISZERO PUSH2 0x55A JUMPI DUP2 PUSH1 0x20 ADD JUMPDEST PUSH2 0x547 PUSH2 0xD29 JUMP JUMPDEST DUP2 MSTORE PUSH1 0x20 ADD SWAP1 PUSH1 0x1 SWAP1 SUB SWAP1 DUP2 PUSH2 0x53F JUMPI SWAP1 POP JUMPDEST POP DUP2 PUSH1 0x80 ADD DUP2 SWAP1 MSTORE POP PUSH1 0x40 MLOAD DUP1 PUSH1 0x40 ADD PUSH1 0x40 MSTORE DUP1 PUSH32 0x20C0683CBA29EF0F25FE0D4E4C5C56D5B8819C5C6E6FB6E5A6A05D9AC7005461 DUP2 MSTORE PUSH1 0x20 ADD PUSH32 0x30083DF89526EEF3EBA5173F8D591D13C647256E67B62BE5D16141B5F3634BE0 DUP2 MSTORE POP DUP2 PUSH1 0x80 ADD MLOAD PUSH0 DUP2 MLOAD DUP2 LT PUSH2 0x5CF JUMPI PUSH2 0x5CE PUSH2 0x112C JUMP JUMPDEST JUMPDEST PUSH1 0x20 MUL PUSH1 0x20 ADD ADD DUP2 SWAP1 MSTORE POP SWAP1 JUMP JUMPDEST PUSH2 0x5E5 PUSH2 0xD29 JUMP JUMPDEST PUSH2 0x5ED PUSH2 0xD41 JUMP JUMPDEST DUP4 PUSH0 ADD MLOAD DUP2 PUSH0 PUSH1 0x3 DUP2 LT PUSH2 0x604 JUMPI PUSH2 0x603 PUSH2 0x112C JUMP JUMPDEST JUMPDEST PUSH1 0x20 MUL ADD DUP2 DUP2 MSTORE POP POP DUP4 PUSH1 0x20 ADD MLOAD DUP2 PUSH1 0x1 PUSH1 0x3 DUP2 LT PUSH2 0x626 JUMPI PUSH2 0x625 PUSH2 0x112C JUMP JUMPDEST JUMPDEST PUSH1 0x20 MUL ADD DUP2 DUP2 MSTORE POP POP DUP3 DUP2 PUSH1 0x2 PUSH1 0x3 DUP2 LT PUSH2 0x644 JUMPI PUSH2 0x643 PUSH2 0x112C JUMP JUMPDEST JUMPDEST PUSH1 0x20 MUL ADD DUP2 DUP2 MSTORE POP POP PUSH0 PUSH1 0x60 DUP4 PUSH1 0x80 DUP5 PUSH1 0x7 PUSH2 0x7D0 GAS SUB STATICCALL SWAP1 POP DUP1 PUSH0 DUP2 SUB PUSH2 0x668 JUMPI INVALID JUMPDEST POP DUP1 PUSH2 0x672 JUMPI PUSH0 DUP1 REVERT JUMPDEST POP POP SWAP3 SWAP2 POP POP JUMP JUMPDEST PUSH2 0x682 PUSH2 0xD29 JUMP JUMPDEST PUSH2 0x68A PUSH2 0xD63 JUMP JUMPDEST DUP4 PUSH0 ADD MLOAD DUP2 PUSH0 PUSH1 0x4 DUP2 LT PUSH2 0x6A1 JUMPI PUSH2 0x6A0 PUSH2 0x112C JUMP JUMPDEST JUMPDEST PUSH1 0x20 MUL ADD DUP2 DUP2 MSTORE POP POP DUP4 PUSH1 0x20 ADD MLOAD DUP2 PUSH1 0x1 PUSH1 0x4 DUP2 LT PUSH2 0x6C3 JUMPI PUSH2 0x6C2 PUSH2 0x112C JUMP JUMPDEST JUMPDEST PUSH1 0x20 MUL ADD DUP2 DUP2 MSTORE POP POP DUP3 PUSH0 ADD MLOAD DUP2 PUSH1 0x2 PUSH1 0x4 DUP2 LT PUSH2 0x6E4 JUMPI PUSH2 0x6E3 PUSH2 0x112C JUMP JUMPDEST JUMPDEST PUSH1 0x20 MUL ADD DUP2 DUP2 MSTORE POP POP DUP3 PUSH1 0x20 ADD MLOAD DUP2 PUSH1 0x3 PUSH1 0x4 DUP2 LT PUSH2 0x706 JUMPI PUSH2 0x705 PUSH2 0x112C JUMP JUMPDEST JUMPDEST PUSH1 0x20 MUL ADD DUP2 DUP2 MSTORE POP POP PUSH0 PUSH1 0x60 DUP4 PUSH1 0xC0 DUP5 PUSH1 0x6 PUSH2 0x7D0 GAS SUB STATICCALL SWAP1 POP DUP1 PUSH0 DUP2 SUB PUSH2 0x72A JUMPI INVALID JUMPDEST POP DUP1 PUSH2 0x734 JUMPI PUSH0 DUP1 REVERT JUMPDEST POP POP SWAP3 SWAP2 POP POP JUMP JUMPDEST PUSH2 0x744 PUSH2 0xD29 JUMP JUMPDEST PUSH0 PUSH32 0x30644E72E131A029B85045B68181585D97816A916871CA8D3C208C16D87CFD47 SWAP1 POP PUSH0 DUP4 PUSH0 ADD MLOAD EQ DUP1 ISZERO PUSH2 0x77D JUMPI POP PUSH0 DUP4 PUSH1 0x20 ADD MLOAD EQ JUMPDEST ISZERO PUSH2 0x79F JUMPI PUSH1 0x40 MLOAD DUP1 PUSH1 0x40 ADD PUSH1 0x40 MSTORE DUP1 PUSH0 DUP2 MSTORE PUSH1 0x20 ADD PUSH0 DUP2 MSTORE POP SWAP2 POP POP PUSH2 0x7D5 JUMP JUMPDEST PUSH1 0x40 MLOAD DUP1 PUSH1 0x40 ADD PUSH1 0x40 MSTORE DUP1 DUP5 PUSH0 ADD MLOAD DUP2 MSTORE PUSH1 0x20 ADD DUP3 DUP6 PUSH1 0x20 ADD MLOAD PUSH2 0x7C3 SWAP2 SWAP1 PUSH2 0x1186 JUMP JUMPDEST DUP4 PUSH2 0x7CE SWAP2 SWAP1 PUSH2 0x11B6 JUMP JUMPDEST DUP2 MSTORE POP SWAP2 POP POP JUMPDEST SWAP2 SWAP1 POP JUMP JUMPDEST PUSH0 DUP1 PUSH1 0x4 PUSH8 0xFFFFFFFFFFFFFFFF DUP2 GT ISZERO PUSH2 0x7F7 JUMPI PUSH2 0x7F6 PUSH2 0xE10 JUMP JUMPDEST JUMPDEST PUSH1 0x40 MLOAD SWAP1 DUP1 DUP3 MSTORE DUP1 PUSH1 0x20 MUL PUSH1 0x20 ADD DUP3 ADD PUSH1 0x40 MSTORE DUP1 ISZERO PUSH2 0x830 JUMPI DUP2 PUSH1 0x20 ADD JUMPDEST PUSH2 0x81D PUSH2 0xD29 JUMP JUMPDEST DUP2 MSTORE PUSH1 0x20 ADD SWAP1 PUSH1 0x1 SWAP1 SUB SWAP1 DUP2 PUSH2 0x815 JUMPI SWAP1 POP JUMPDEST POP SWAP1 POP PUSH0 PUSH1 0x4 PUSH8 0xFFFFFFFFFFFFFFFF DUP2 GT ISZERO PUSH2 0x84F JUMPI PUSH2 0x84E PUSH2 0xE10 JUMP JUMPDEST JUMPDEST PUSH1 0x40 MLOAD SWAP1 DUP1 DUP3 MSTORE DUP1 PUSH1 0x20 MUL PUSH1 0x20 ADD DUP3 ADD PUSH1 0x40 MSTORE DUP1 ISZERO PUSH2 0x888 JUMPI DUP2 PUSH1 0x20 ADD JUMPDEST PUSH2 0x875 PUSH2 0xD85 JUMP JUMPDEST DUP2 MSTORE PUSH1 0x20 ADD SWAP1 PUSH1 0x1 SWAP1 SUB SWAP1 DUP2 PUSH2 0x86D JUMPI SWAP1 POP JUMPDEST POP SWAP1 POP DUP11 DUP3 PUSH0 DUP2 MLOAD DUP2 LT PUSH2 0x89F JUMPI PUSH2 0x89E PUSH2 0x112C JUMP JUMPDEST JUMPDEST PUSH1 0x20 MUL PUSH1 0x20 ADD ADD DUP2 SWAP1 MSTORE POP DUP9 DUP3 PUSH1 0x1 DUP2 MLOAD DUP2 LT PUSH2 0x8BF JUMPI PUSH2 0x8BE PUSH2 0x112C JUMP JUMPDEST JUMPDEST PUSH1 0x20 MUL PUSH1 0x20 ADD ADD DUP2 SWAP1 MSTORE POP DUP7 DUP3 PUSH1 0x2 DUP2 MLOAD DUP2 LT PUSH2 0x8DF JUMPI PUSH2 0x8DE PUSH2 0x112C JUMP JUMPDEST JUMPDEST PUSH1 0x20 MUL PUSH1 0x20 ADD ADD DUP2 SWAP1 MSTORE POP DUP5 DUP3 PUSH1 0x3 DUP2 MLOAD DUP2 LT PUSH2 0x8FF JUMPI PUSH2 0x8FE PUSH2 0x112C JUMP JUMPDEST JUMPDEST PUSH1 0x20 MUL PUSH1 0x20 ADD ADD DUP2 SWAP1 MSTORE POP DUP10 DUP2 PUSH0 DUP2 MLOAD DUP2 LT PUSH2 0x91E JUMPI PUSH2 0x91D PUSH2 0x112C JUMP JUMPDEST JUMPDEST PUSH1 0x20 MUL PUSH1 0x20 ADD ADD DUP2 SWAP1 MSTORE POP DUP8 DUP2 PUSH1 0x1 DUP2 MLOAD DUP2 LT PUSH2 0x93E JUMPI PUSH2 0x93D PUSH2 0x112C JUMP JUMPDEST JUMPDEST PUSH1 0x20 MUL PUSH1 0x20 ADD ADD DUP2 SWAP1 MSTORE POP DUP6 DUP2 PUSH1 0x2 DUP2 MLOAD DUP2 LT PUSH2 0x95E JUMPI PUSH2 0x95D PUSH2 0x112C JUMP JUMPDEST JUMPDEST PUSH1 0x20 MUL PUSH1 0x20 ADD ADD DUP2 SWAP1 MSTORE POP DUP4 DUP2 PUSH1 0x3 DUP2 MLOAD DUP2 LT PUSH2 0x97E JUMPI PUSH2 0x97D PUSH2 0x112C JUMP JUMPDEST JUMPDEST PUSH1 0x20 MUL PUSH1 0x20 ADD ADD DUP2 SWAP1 MSTORE POP PUSH2 0x993 DUP3 DUP3 PUSH2 0x9A3 JUMP JUMPDEST SWAP3 POP POP POP SWAP9 SWAP8 POP POP POP POP POP POP POP POP JUMP JUMPDEST PUSH0 DUP2 MLOAD DUP4 MLOAD EQ PUSH2 0x9B1 JUMPI PUSH0 DUP1 REVERT JUMPDEST PUSH0 DUP4 MLOAD SWAP1 POP PUSH0 PUSH1 0x6 DUP3 PUSH2 0x9C4 SWAP2 SWAP1 PUSH2 0x11E9 JUMP JUMPDEST SWAP1 POP PUSH0 DUP2 PUSH8 0xFFFFFFFFFFFFFFFF DUP2 GT ISZERO PUSH2 0x9E1 JUMPI PUSH2 0x9E0 PUSH2 0xE10 JUMP JUMPDEST JUMPDEST PUSH1 0x40 MLOAD SWAP1 DUP1 DUP3 MSTORE DUP1 PUSH1 0x20 MUL PUSH1 0x20 ADD DUP3 ADD PUSH1 0x40 MSTORE DUP1 ISZERO PUSH2 0xA0F JUMPI DUP2 PUSH1 0x20 ADD PUSH1 0x20 DUP3 MUL DUP1 CALLDATASIZE DUP4 CALLDATACOPY DUP1 DUP3 ADD SWAP2 POP POP SWAP1 POP JUMPDEST POP SWAP1 POP PUSH0 JUMPDEST DUP4 DUP2 LT ISZERO PUSH2 0xC87 JUMPI DUP7 DUP2 DUP2 MLOAD DUP2 LT PUSH2 0xA2F JUMPI PUSH2 0xA2E PUSH2 0x112C JUMP JUMPDEST JUMPDEST PUSH1 0x20 MUL PUSH1 0x20 ADD ADD MLOAD PUSH0 ADD MLOAD DUP3 PUSH0 PUSH1 0x6 DUP5 PUSH2 0xA49 SWAP2 SWAP1 PUSH2 0x11E9 JUMP JUMPDEST PUSH2 0xA53 SWAP2 SWAP1 PUSH2 0x10F9 JUMP JUMPDEST DUP2 MLOAD DUP2 LT PUSH2 0xA64 JUMPI PUSH2 0xA63 PUSH2 0x112C JUMP JUMPDEST JUMPDEST PUSH1 0x20 MUL PUSH1 0x20 ADD ADD DUP2 DUP2 MSTORE POP POP DUP7 DUP2 DUP2 MLOAD DUP2 LT PUSH2 0xA83 JUMPI PUSH2 0xA82 PUSH2 0x112C JUMP JUMPDEST JUMPDEST PUSH1 0x20 MUL PUSH1 0x20 ADD ADD MLOAD PUSH1 0x20 ADD MLOAD DUP3 PUSH1 0x1 PUSH1 0x6 DUP5 PUSH2 0xA9F SWAP2 SWAP1 PUSH2 0x11E9 JUMP JUMPDEST PUSH2 0xAA9 SWAP2 SWAP1 PUSH2 0x10F9 JUMP JUMPDEST DUP2 MLOAD DUP2 LT PUSH2 0xABA JUMPI PUSH2 0xAB9 PUSH2 0x112C JUMP JUMPDEST JUMPDEST PUSH1 0x20 MUL PUSH1 0x20 ADD ADD DUP2 DUP2 MSTORE POP POP DUP6 DUP2 DUP2 MLOAD DUP2 LT PUSH2 0xAD9 JUMPI PUSH2 0xAD8 PUSH2 0x112C JUMP JUMPDEST JUMPDEST PUSH1 0x20 MUL PUSH1 0x20 ADD ADD MLOAD PUSH0 ADD MLOAD PUSH1 0x1 PUSH1 0x2 DUP2 LT PUSH2 0xAF7 JUMPI PUSH2 0xAF6 PUSH2 0x112C JUMP JUMPDEST JUMPDEST PUSH1 0x20 MUL ADD MLOAD DUP3 PUSH1 0x2 PUSH1 0x6 DUP5 PUSH2 0xB0C SWAP2 SWAP1 PUSH2 0x11E9 JUMP JUMPDEST PUSH2 0xB16 SWAP2 SWAP1 PUSH2 0x10F9 JUMP JUMPDEST DUP2 MLOAD DUP2 LT PUSH2 0xB27 JUMPI PUSH2 0xB26 PUSH2 0x112C JUMP JUMPDEST JUMPDEST PUSH1 0x20 MUL PUSH1 0x20 ADD ADD DUP2 DUP2 MSTORE POP POP DUP6 DUP2 DUP2 MLOAD DUP2 LT PUSH2 0xB46 JUMPI PUSH2 0xB45 PUSH2 0x112C JUMP JUMPDEST JUMPDEST PUSH1 0x20 MUL PUSH1 0x20 ADD ADD MLOAD PUSH0 ADD MLOAD PUSH0 PUSH1 0x2 DUP2 LT PUSH2 0xB63 JUMPI PUSH2 0xB62 PUSH2 0x112C JUMP JUMPDEST JUMPDEST PUSH1 0x20 MUL ADD MLOAD DUP3 PUSH1 0x3 PUSH1 0x6 DUP5 PUSH2 0xB78 SWAP2 SWAP1 PUSH2 0x11E9 JUMP JUMPDEST PUSH2 0xB82 SWAP2 SWAP1 PUSH2 0x10F9 JUMP JUMPDEST DUP2 MLOAD DUP2 LT PUSH2 0xB93 JUMPI PUSH2 0xB92 PUSH2 0x112C JUMP JUMPDEST JUMPDEST PUSH1 0x20 MUL PUSH1 0x20 ADD ADD DUP2 DUP2 MSTORE POP POP DUP6 DUP2 DUP2 MLOAD DUP2 LT PUSH2 0xBB2 JUMPI PUSH2 0xBB1 PUSH2 0x112C JUMP JUMPDEST JUMPDEST PUSH1 0x20 MUL PUSH1 0x20 ADD ADD MLOAD PUSH1 0x20 ADD MLOAD PUSH1 0x1 PUSH1 0x2 DUP2 LT PUSH2 0xBD1 JUMPI PUSH2 0xBD0 PUSH2 0x112C JUMP JUMPDEST JUMPDEST PUSH1 0x20 MUL ADD MLOAD DUP3 PUSH1 0x4 PUSH1 0x6 DUP5 PUSH2 0xBE6 SWAP2 SWAP1 PUSH2 0x11E9 JUMP JUMPDEST PUSH2 0xBF0 SWAP2 SWAP1 PUSH2 0x10F9 JUMP JUMPDEST DUP2 MLOAD DUP2 LT PUSH2 0xC01 JUMPI PUSH2 0xC00 PUSH2 0x112C JUMP JUMPDEST JUMPDEST PUSH1 0x20 MUL PUSH1 0x20 ADD ADD DUP2 DUP2 MSTORE POP POP DUP6 DUP2 DUP2 MLOAD DUP2 LT PUSH2 0xC20 JUMPI PUSH2 0xC1F PUSH2 0x112C JUMP JUMPDEST JUMPDEST PUSH1 0x20 MUL PUSH1 0x20 ADD ADD MLOAD PUSH1 0x20 ADD MLOAD PUSH0 PUSH1 0x2 DUP2 LT PUSH2 0xC3E JUMPI PUSH2 0xC3D PUSH2 0x112C JUMP JUMPDEST JUMPDEST PUSH1 0x20 MUL ADD MLOAD DUP3 PUSH1 0x5 PUSH1 0x6 DUP5 PUSH2 0xC53 SWAP2 SWAP1 PUSH2 0x11E9 JUMP JUMPDEST PUSH2 0xC5D SWAP2 SWAP1 PUSH2 0x10F9 JUMP JUMPDEST DUP2 MLOAD DUP2 LT PUSH2 0xC6E JUMPI PUSH2 0xC6D PUSH2 0x112C JUMP JUMPDEST JUMPDEST PUSH1 0x20 MUL PUSH1 0x20 ADD ADD DUP2 DUP2 MSTORE POP POP DUP1 DUP1 PUSH1 0x1 ADD SWAP2 POP POP PUSH2 0xA14 JUMP JUMPDEST POP PUSH2 0xC90 PUSH2 0xDAB JUMP JUMPDEST PUSH0 PUSH1 0x20 DUP3 PUSH1 0x20 DUP7 MUL PUSH1 0x20 DUP7 ADD PUSH1 0x8 PUSH2 0x7D0 GAS SUB STATICCALL SWAP1 POP DUP1 PUSH0 DUP2 SUB PUSH2 0xCB0 JUMPI INVALID JUMPDEST POP DUP1 PUSH2 0xCBA JUMPI PUSH0 DUP1 REVERT JUMPDEST PUSH0 DUP3 PUSH0 PUSH1 0x1 DUP2 LT PUSH2 0xCCE JUMPI PUSH2 0xCCD PUSH2 0x112C JUMP JUMPDEST JUMPDEST PUSH1 0x20 MUL ADD MLOAD EQ ISZERO SWAP6 POP POP POP POP POP POP SWAP3 SWAP2 POP POP JUMP JUMPDEST PUSH1 0x40 MLOAD DUP1 PUSH1 0xA0 ADD PUSH1 0x40 MSTORE DUP1 PUSH2 0xCF5 PUSH2 0xD29 JUMP JUMPDEST DUP2 MSTORE PUSH1 0x20 ADD PUSH2 0xD02 PUSH2 0xD85 JUMP JUMPDEST DUP2 MSTORE PUSH1 0x20 ADD PUSH2 0xD0F PUSH2 0xD85 JUMP JUMPDEST DUP2 MSTORE PUSH1 0x20 ADD PUSH2 0xD1C PUSH2 0xD85 JUMP JUMPDEST DUP2 MSTORE PUSH1 0x20 ADD PUSH1 0x60 DUP2 MSTORE POP SWAP1 JUMP JUMPDEST PUSH1 0x40 MLOAD DUP1 PUSH1 0x40 ADD PUSH1 0x40 MSTORE DUP1 PUSH0 DUP2 MSTORE PUSH1 0x20 ADD PUSH0 DUP2 MSTORE POP SWAP1 JUMP JUMPDEST PUSH1 0x40 MLOAD DUP1 PUSH1 0x60 ADD PUSH1 0x40 MSTORE DUP1 PUSH1 0x3 SWAP1 PUSH1 0x20 DUP3 MUL DUP1 CALLDATASIZE DUP4 CALLDATACOPY DUP1 DUP3 ADD SWAP2 POP POP SWAP1 POP POP SWAP1 JUMP JUMPDEST PUSH1 0x40 MLOAD DUP1 PUSH1 0x80 ADD PUSH1 0x40 MSTORE DUP1 PUSH1 0x4 SWAP1 PUSH1 0x20 DUP3 MUL DUP1 CALLDATASIZE DUP4 CALLDATACOPY DUP1 DUP3 ADD SWAP2 POP POP SWAP1 POP POP SWAP1 JUMP JUMPDEST PUSH1 0x40 MLOAD DUP1 PUSH1 0x40 ADD PUSH1 0x40 MSTORE DUP1 PUSH2 0xD98 PUSH2 0xDCD JUMP JUMPDEST DUP2 MSTORE PUSH1 0x20 ADD PUSH2 0xDA5 PUSH2 0xDCD JUMP JUMPDEST DUP2 MSTORE POP SWAP1 JUMP JUMPDEST PUSH1 0x40 MLOAD DUP1 PUSH1 0x20 ADD PUSH1 0x40 MSTORE DUP1 PUSH1 0x1 SWAP1 PUSH1 0x20 DUP3 MUL DUP1 CALLDATASIZE DUP4 CALLDATACOPY DUP1 DUP3 ADD SWAP2 POP POP SWAP1 POP POP SWAP1 JUMP JUMPDEST PUSH1 0x40 MLOAD DUP1 PUSH1 0x40 ADD PUSH1 0x40 MSTORE DUP1 PUSH1 0x2 SWAP1 PUSH1 0x20 DUP3 MUL DUP1 CALLDATASIZE DUP4 CALLDATACOPY DUP1 DUP3 ADD SWAP2 POP POP SWAP1 POP POP SWAP1 JUMP JUMPDEST PUSH0 PUSH1 0x40 MLOAD SWAP1 POP SWAP1 JUMP JUMPDEST PUSH0 DUP1 REVERT JUMPDEST PUSH0 DUP1 REVERT JUMPDEST PUSH0 PUSH1 0x1F NOT PUSH1 0x1F DUP4 ADD AND SWAP1 POP SWAP2 SWAP1 POP JUMP JUMPDEST PUSH32 0x4E487B7100000000000000000000000000000000000000000000000000000000 PUSH0 MSTORE PUSH1 0x41 PUSH1 0x4 MSTORE PUSH1 0x24 PUSH0 REVERT JUMPDEST PUSH2 0xE46 DUP3 PUSH2 0xE00 JUMP JUMPDEST DUP2 ADD DUP2 DUP2 LT PUSH8 0xFFFFFFFFFFFFFFFF DUP3 GT OR ISZERO PUSH2 0xE65 JUMPI PUSH2 0xE64 PUSH2 0xE10 JUMP JUMPDEST JUMPDEST DUP1 PUSH1 0x40 MSTORE POP POP POP JUMP JUMPDEST PUSH0 PUSH2 0xE77 PUSH2 0xDEF JUMP JUMPDEST SWAP1 POP PUSH2 0xE83 DUP3 DUP3 PUSH2 0xE3D JUMP JUMPDEST SWAP2 SWAP1 POP JUMP JUMPDEST PUSH0 DUP2 SWAP1 POP SWAP2 SWAP1 POP JUMP JUMPDEST PUSH2 0xE9A DUP2 PUSH2 0xE88 JUMP JUMPDEST DUP2 EQ PUSH2 0xEA4 JUMPI PUSH0 DUP1 REVERT JUMPDEST POP JUMP JUMPDEST PUSH0 DUP2 CALLDATALOAD SWAP1 POP PUSH2 0xEB5 DUP2 PUSH2 0xE91 JUMP JUMPDEST SWAP3 SWAP2 POP POP JUMP JUMPDEST PUSH0 PUSH1 0x40 DUP3 DUP5 SUB SLT ISZERO PUSH2 0xED0 JUMPI PUSH2 0xECF PUSH2 0xDFC JUMP JUMPDEST JUMPDEST PUSH2 0xEDA PUSH1 0x40 PUSH2 0xE6E JUMP JUMPDEST SWAP1 POP PUSH0 PUSH2 0xEE9 DUP5 DUP3 DUP6 ADD PUSH2 0xEA7 JUMP JUMPDEST PUSH0 DUP4 ADD MSTORE POP PUSH1 0x20 PUSH2 0xEFC DUP5 DUP3 DUP6 ADD PUSH2 0xEA7 JUMP JUMPDEST PUSH1 0x20 DUP4 ADD MSTORE POP SWAP3 SWAP2 POP POP JUMP JUMPDEST PUSH0 DUP1 REVERT JUMPDEST PUSH0 PUSH8 0xFFFFFFFFFFFFFFFF DUP3 GT ISZERO PUSH2 0xF26 JUMPI PUSH2 0xF25 PUSH2 0xE10 JUMP JUMPDEST JUMPDEST PUSH1 0x20 DUP3 MUL SWAP1 POP SWAP2 SWAP1 POP JUMP JUMPDEST PUSH0 DUP1 REVERT JUMPDEST PUSH0 PUSH2 0xF47 PUSH2 0xF42 DUP5 PUSH2 0xF0C JUMP JUMPDEST PUSH2 0xE6E JUMP JUMPDEST SWAP1 POP DUP1 PUSH1 0x20 DUP5 MUL DUP4 ADD DUP6 DUP2 GT ISZERO PUSH2 0xF61 JUMPI PUSH2 0xF60 PUSH2 0xF31 JUMP JUMPDEST JUMPDEST DUP4 JUMPDEST DUP2 DUP2 LT ISZERO PUSH2 0xF8A JUMPI DUP1 PUSH2 0xF76 DUP9 DUP3 PUSH2 0xEA7 JUMP JUMPDEST DUP5 MSTORE PUSH1 0x20 DUP5 ADD SWAP4 POP POP PUSH1 0x20 DUP2 ADD SWAP1 POP PUSH2 0xF63 JUMP JUMPDEST POP POP POP SWAP4 SWAP3 POP POP POP JUMP JUMPDEST PUSH0 DUP3 PUSH1 0x1F DUP4 ADD SLT PUSH2 0xFA8 JUMPI PUSH2 0xFA7 PUSH2 0xF08 JUMP JUMPDEST JUMPDEST PUSH1 0x2 PUSH2 0xFB5 DUP5 DUP3 DUP6 PUSH2 0xF35 JUMP JUMPDEST SWAP2 POP POP SWAP3 SWAP2 POP POP JUMP JUMPDEST PUSH0 PUSH1 0x80 DUP3 DUP5 SUB SLT ISZERO PUSH2 0xFD3 JUMPI PUSH2 0xFD2 PUSH2 0xDFC JUMP JUMPDEST JUMPDEST PUSH2 0xFDD PUSH1 0x40 PUSH2 0xE6E JUMP JUMPDEST SWAP1 POP PUSH0 PUSH2 0xFEC DUP5 DUP3 DUP6 ADD PUSH2 0xF94 JUMP JUMPDEST PUSH0 DUP4 ADD MSTORE POP PUSH1 0x40 PUSH2 0xFFF DUP5 DUP3 DUP6 ADD PUSH2 0xF94 JUMP JUMPDEST PUSH1 0x20 DUP4 ADD MSTORE POP SWAP3 SWAP2 POP POP JUMP JUMPDEST PUSH0 PUSH2 0x100 DUP3 DUP5 SUB SLT ISZERO PUSH2 0x1021 JUMPI PUSH2 0x1020 PUSH2 0xDFC JUMP JUMPDEST JUMPDEST PUSH2 0x102B PUSH1 0x60 PUSH2 0xE6E JUMP JUMPDEST SWAP1 POP PUSH0 PUSH2 0x103A DUP5 DUP3 DUP6 ADD PUSH2 0xEBB JUMP JUMPDEST PUSH0 DUP4 ADD MSTORE POP PUSH1 0x40 PUSH2 0x104D DUP5 DUP3 DUP6 ADD PUSH2 0xFBE JUMP JUMPDEST PUSH1 0x20 DUP4 ADD MSTORE POP PUSH1 0xC0 PUSH2 0x1061 DUP5 DUP3 DUP6 ADD PUSH2 0xEBB JUMP JUMPDEST PUSH1 0x40 DUP4 ADD MSTORE POP SWAP3 SWAP2 POP POP JUMP JUMPDEST PUSH0 PUSH2 0x100 DUP3 DUP5 SUB SLT ISZERO PUSH2 0x1083 JUMPI PUSH2 0x1082 PUSH2 0xDF8 JUMP JUMPDEST JUMPDEST PUSH0 PUSH2 0x1090 DUP5 DUP3 DUP6 ADD PUSH2 0x100B JUMP JUMPDEST SWAP2 POP POP SWAP3 SWAP2 POP POP JUMP JUMPDEST PUSH0 DUP2 ISZERO ISZERO SWAP1 POP SWAP2 SWAP1 POP JUMP JUMPDEST PUSH2 0x10AD DUP2 PUSH2 0x1099 JUMP JUMPDEST DUP3 MSTORE POP POP JUMP JUMPDEST PUSH0 PUSH1 0x20 DUP3 ADD SWAP1 POP PUSH2 0x10C6 PUSH0 DUP4 ADD DUP5 PUSH2 0x10A4 JUMP JUMPDEST SWAP3 SWAP2 POP POP JUMP JUMPDEST PUSH32 0x4E487B7100000000000000000000000000000000000000000000000000000000 PUSH0 MSTORE PUSH1 0x11 PUSH1 0x4 MSTORE PUSH1 0x24 PUSH0 REVERT JUMPDEST PUSH0 PUSH2 0x1103 DUP3 PUSH2 0xE88 JUMP JUMPDEST SWAP2 POP PUSH2 0x110E DUP4 PUSH2 0xE88 JUMP JUMPDEST SWAP3 POP DUP3 DUP3 ADD SWAP1 POP DUP1 DUP3 GT ISZERO PUSH2 0x1126 JUMPI PUSH2 0x1125 PUSH2 0x10CC JUMP JUMPDEST JUMPDEST SWAP3 SWAP2 POP POP JUMP JUMPDEST PUSH32 0x4E487B7100000000000000000000000000000000000000000000000000000000 PUSH0 MSTORE PUSH1 0x32 PUSH1 0x4 MSTORE PUSH1 0x24 PUSH0 REVERT JUMPDEST PUSH32 0x4E487B7100000000000000000000000000000000000000000000000000000000 PUSH0 MSTORE PUSH1 0x12 PUSH1 0x4 MSTORE PUSH1 0x24 PUSH0 REVERT JUMPDEST PUSH0 PUSH2 0x1190 DUP3 PUSH2 0xE88 JUMP JUMPDEST SWAP2 POP PUSH2 0x119B DUP4 PUSH2 0xE88 JUMP JUMPDEST SWAP3 POP DUP3 PUSH2 0x11AB JUMPI PUSH2 0x11AA PUSH2 0x1159 JUMP JUMPDEST JUMPDEST DUP3 DUP3 MOD SWAP1 POP SWAP3 SWAP2 POP POP JUMP JUMPDEST PUSH0 PUSH2 0x11C0 DUP3 PUSH2 0xE88 JUMP JUMPDEST SWAP2 POP PUSH2 0x11CB DUP4 PUSH2 0xE88 JUMP JUMPDEST SWAP3 POP DUP3 DUP3 SUB SWAP1 POP DUP2 DUP2 GT ISZERO PUSH2 0x11E3 JUMPI PUSH2 0x11E2 PUSH2 0x10CC JUMP JUMPDEST JUMPDEST SWAP3 SWAP2 POP POP JUMP JUMPDEST PUSH0 PUSH2 0x11F3 DUP3 PUSH2 0xE88 JUMP JUMPDEST SWAP2 POP PUSH2 0x11FE DUP4 PUSH2 0xE88 JUMP JUMPDEST SWAP3 POP DUP3 DUP3 MUL PUSH2 0x120C DUP2 PUSH2 0xE88 JUMP JUMPDEST SWAP2 POP DUP3 DUP3 DIV DUP5 EQ DUP4 ISZERO OR PUSH2 0x1223 JUMPI PUSH2 0x1222 PUSH2 0x10CC JUMP JUMPDEST JUMPDEST POP SWAP3 SWAP2 POP POP JUMP INVALID LOG2 PUSH5 0x6970667358 0x22 SLT KECCAK256 SWAP7 DUP11 SWAP9 0xED 0xFC 0xC6 0xC4 0x4C 0x1F PUSH3 0x8753A0 DUP15 0xD7 DUP11 0xA9 0xDB 0xD SWAP2 GASLIMIT 0xE5 PUSH29 0x7ACCE8063DF98D75CF64736F6C63430008190033000000000000000000 "
				},
				"gasEstimates": {
					"creation": {
						"codeDepositCost": "940800",
						"executionCost": "973",
						"totalCost": "941773"
					},
					"external": {
						"verifyTx(((uint256,uint256),(uint256[2],uint256[2]),(uint256,uint256)))": "infinite"
					},
					"internal": {
						"verify(uint256[] memory,struct Verifier.Proof memory)": "infinite",
						"verifyingKey()": "infinite"
					}
				},
				"methodIdentifiers": {
					"verifyTx(((uint256,uint256),(uint256[2],uint256[2]),(uint256,uint256)))": "f6af0311"
				}
			},
			"storageLayout": {
				"storage": [],
				"types": null
			},
			"userdoc": {
				"kind": "user",
				"methods": {},
				"version": 1
			}
		}
	}
}