{
	"contracts/zkp_sql.sol": {
		"zkp_proof_sql_contract": {
			"abi": [
				{
					"inputs": [
						{
							"internalType": "address",
							"name": "insert_verifier_",
							"type": "address"
						},
						{
							"internalType": "address",
							"name": "update_verifier_",
							"type": "address"
						},
						{
							"internalType": "address",
							"name": "select_verifier_",
							"type": "address"
						},
						{
							"internalType": "address",
							"name": "delete_verifier_",
							"type": "address"
						}
					],
					"stateMutability": "nonpayable",
					"type": "constructor"
				},
				{
					"anonymous": false,
					"inputs": [
						{
							"indexed": false,
							"internalType": "address",
							"name": "issuer",
							"type": "address"
						},
						{
							"indexed": false,
							"internalType": "uint256",
							"name": "commitment",
							"type": "uint256"
						}
					],
					"name": "RequestPosted",
					"type": "event"
				},
				{
					"anonymous": false,
					"inputs": [
						{
							"indexed": false,
							"internalType": "string",
							"name": "table",
							"type": "string"
						},
						{
							"indexed": false,
							"internalType": "uint256",
							"name": "commitment",
							"type": "uint256"
						}
					],
					"name": "TableCreated",
					"type": "event"
				},
				{
					"anonymous": false,
					"inputs": [
						{
							"indexed": false,
							"internalType": "string",
							"name": "table",
							"type": "string"
						},
						{
							"indexed": false,
							"internalType": "uint256",
							"name": "commitment",
							"type": "uint256"
						}
					],
					"name": "TableUpdated",
					"type": "event"
				},
				{
					"inputs": [
						{
							"internalType": "string",
							"name": "tableName",
							"type": "string"
						},
						{
							"internalType": "uint256",
							"name": "commitment",
							"type": "uint256"
						}
					],
					"name": "createTable",
					"outputs": [],
					"stateMutability": "nonpayable",
					"type": "function"
				},
				{
					"inputs": [],
					"name": "delete_verifier",
					"outputs": [
						{
							"internalType": "address",
							"name": "",
							"type": "address"
						}
					],
					"stateMutability": "view",
					"type": "function"
				},
				{
					"inputs": [
						{
							"internalType": "enum zkp_proof_sql_contract.sql_operation",
							"name": "opcode",
							"type": "uint8"
						},
						{
							"internalType": "uint256",
							"name": "argsCommitment",
							"type": "uint256"
						},
						{
							"internalType": "uint256",
							"name": "newCommitment",
							"type": "uint256"
						},
						{
							"internalType": "bytes",
							"name": "proof",
							"type": "bytes"
						}
					],
					"name": "execRequest",
					"outputs": [
						{
							"internalType": "bool",
							"name": "",
							"type": "bool"
						}
					],
					"stateMutability": "nonpayable",
					"type": "function"
				},
				{
					"inputs": [],
					"name": "insert_verifier",
					"outputs": [
						{
							"internalType": "address",
							"name": "",
							"type": "address"
						}
					],
					"stateMutability": "view",
					"type": "function"
				},
				{
					"inputs": [
						{
							"internalType": "string",
							"name": "table",
							"type": "string"
						},
						{
							"internalType": "uint256",
							"name": "argsCommitment",
							"type": "uint256"
						}
					],
					"name": "request",
					"outputs": [],
					"stateMutability": "nonpayable",
					"type": "function"
				},
				{
					"inputs": [],
					"name": "select_verifier",
					"outputs": [
						{
							"internalType": "address",
							"name": "",
							"type": "address"
						}
					],
					"stateMutability": "view",
					"type": "function"
				},
				{
					"inputs": [],
					"name": "update_verifier",
					"outputs": [
						{
							"internalType": "address",
							"name": "",
							"type": "address"
						}
					],
					"stateMutability": "view",
					"type": "function"
				}
			],
			"devdoc": {
				"kind": "dev",
				"methods": {},
				"version": 1
			},
			"evm": {
				"assembly": "    /* \"contracts/zkp_sql.sol\":207:3358  contract zkp_proof_sql_contract{... */\n  mstore(0x40, 0x80)\n    /* \"contracts/zkp_sql.sol\":1090:1598  constructor(address insert_verifier_, address update_verifier_, address select_verifier_, address delete_verifier_) {... */\n  callvalue\n  dup1\n  iszero\n  tag_1\n  jumpi\n  0x00\n  dup1\n  revert\ntag_1:\n  pop\n  mload(0x40)\n  sub(codesize, bytecodeSize)\n  dup1\n  bytecodeSize\n  dup4\n  codecopy\n  dup2\n  dup2\n  add\n  0x40\n  mstore\n  dup2\n  add\n  swap1\n  tag_2\n  swap2\n  swap1\n  tag_3\n  jump\t// in\ntag_2:\n    /* \"contracts/zkp_sql.sol\":1256:1257  0 */\n  0x00\n    /* \"contracts/zkp_sql.sol\":1224:1240  insert_verifier_ */\n  dup5\n    /* \"contracts/zkp_sql.sol\":1224:1252  insert_verifier_.code.length */\n  0xffffffffffffffffffffffffffffffffffffffff\n  and\n  extcodesize\n    /* \"contracts/zkp_sql.sol\":1224:1257  insert_verifier_.code.length == 0 */\n  eq\n    /* \"contracts/zkp_sql.sol\":1217:1258  assert(insert_verifier_.code.length == 0) */\n  tag_6\n  jumpi\n  tag_7\n  tag_8\n  jump\t// in\ntag_7:\ntag_6:\n    /* \"contracts/zkp_sql.sol\":1307:1308  0 */\n  0x00\n    /* \"contracts/zkp_sql.sol\":1276:1292  update_verifier_ */\n  dup4\n    /* \"contracts/zkp_sql.sol\":1276:1304  update_verifier_.code.length */\n  0xffffffffffffffffffffffffffffffffffffffff\n  and\n  extcodesize\n    /* \"contracts/zkp_sql.sol\":1276:1308  update_verifier_.code.length ==0 */\n  eq\n    /* \"contracts/zkp_sql.sol\":1269:1309  assert(update_verifier_.code.length ==0) */\n  tag_9\n  jumpi\n  tag_10\n  tag_8\n  jump\t// in\ntag_10:\ntag_9:\n    /* \"contracts/zkp_sql.sol\":1358:1359  0 */\n  0x00\n    /* \"contracts/zkp_sql.sol\":1327:1343  select_verifier_ */\n  dup3\n    /* \"contracts/zkp_sql.sol\":1327:1355  select_verifier_.code.length */\n  0xffffffffffffffffffffffffffffffffffffffff\n  and\n  extcodesize\n    /* \"contracts/zkp_sql.sol\":1327:1359  select_verifier_.code.length ==0 */\n  eq\n    /* \"contracts/zkp_sql.sol\":1320:1360  assert(select_verifier_.code.length ==0) */\n  tag_11\n  jumpi\n  tag_12\n  tag_8\n  jump\t// in\ntag_12:\ntag_11:\n    /* \"contracts/zkp_sql.sol\":1408:1409  0 */\n  0x00\n    /* \"contracts/zkp_sql.sol\":1378:1394  delete_verifier_ */\n  dup2\n    /* \"contracts/zkp_sql.sol\":1378:1406  delete_verifier_.code.length */\n  0xffffffffffffffffffffffffffffffffffffffff\n  and\n  extcodesize\n    /* \"contracts/zkp_sql.sol\":1378:1409  delete_verifier_.code.length==0 */\n  eq\n    /* \"contracts/zkp_sql.sol\":1371:1410  assert(delete_verifier_.code.length==0) */\n  tag_13\n  jumpi\n  tag_14\n  tag_8\n  jump\t// in\ntag_14:\ntag_13:\n    /* \"contracts/zkp_sql.sol\":1439:1455  insert_verifier_ */\n  dup4\n    /* \"contracts/zkp_sql.sol\":1421:1436  insert_verifier */\n  0x00\n  dup1\n    /* \"contracts/zkp_sql.sol\":1421:1455  insert_verifier = insert_verifier_ */\n  0x0100\n  exp\n  dup2\n  sload\n  dup2\n  0xffffffffffffffffffffffffffffffffffffffff\n  mul\n  not\n  and\n  swap1\n  dup4\n  0xffffffffffffffffffffffffffffffffffffffff\n  and\n  mul\n  or\n  swap1\n  sstore\n  pop\n    /* \"contracts/zkp_sql.sol\":1484:1500  update_verifier_ */\n  dup3\n    /* \"contracts/zkp_sql.sol\":1466:1481  update_verifier */\n  0x03\n  0x00\n    /* \"contracts/zkp_sql.sol\":1466:1500  update_verifier = update_verifier_ */\n  0x0100\n  exp\n  dup2\n  sload\n  dup2\n  0xffffffffffffffffffffffffffffffffffffffff\n  mul\n  not\n  and\n  swap1\n  dup4\n  0xffffffffffffffffffffffffffffffffffffffff\n  and\n  mul\n  or\n  swap1\n  sstore\n  pop\n    /* \"contracts/zkp_sql.sol\":1529:1545  select_verifier_ */\n  dup2\n    /* \"contracts/zkp_sql.sol\":1511:1526  select_verifier */\n  0x01\n  0x00\n    /* \"contracts/zkp_sql.sol\":1511:1545  select_verifier = select_verifier_ */\n  0x0100\n  exp\n  dup2\n  sload\n  dup2\n  0xffffffffffffffffffffffffffffffffffffffff\n  mul\n  not\n  and\n  swap1\n  dup4\n  0xffffffffffffffffffffffffffffffffffffffff\n  and\n  mul\n  or\n  swap1\n  sstore\n  pop\n    /* \"contracts/zkp_sql.sol\":1574:1590  delete_verifier_ */\n  dup1\n    /* \"contracts/zkp_sql.sol\":1556:1571  delete_verifier */\n  0x02\n  0x00\n    /* \"contracts/zkp_sql.sol\":1556:1590  delete_verifier = delete_verifier_ */\n  0x0100\n  exp\n  dup2\n  sload\n  dup2\n  0xffffffffffffffffffffffffffffffffffffffff\n  mul\n  not\n  and\n  swap1\n  dup4\n  0xffffffffffffffffffffffffffffffffffffffff\n  and\n  mul\n  or\n  swap1\n  sstore\n  pop\n    /* \"contracts/zkp_sql.sol\":1090:1598  constructor(address insert_verifier_, address update_verifier_, address select_verifier_, address delete_verifier_) {... */\n  pop\n  pop\n  pop\n  pop\n    /* \"contracts/zkp_sql.sol\":207:3358  contract zkp_proof_sql_contract{... */\n  jump(tag_15)\n    /* \"#utility.yul\":88:205   */\ntag_17:\n    /* \"#utility.yul\":197:198   */\n  0x00\n    /* \"#utility.yul\":194:195   */\n  dup1\n    /* \"#utility.yul\":187:199   */\n  revert\n    /* \"#utility.yul\":334:460   */\ntag_19:\n    /* \"#utility.yul\":371:378   */\n  0x00\n    /* \"#utility.yul\":411:453   */\n  0xffffffffffffffffffffffffffffffffffffffff\n    /* \"#utility.yul\":404:409   */\n  dup3\n    /* \"#utility.yul\":400:454   */\n  and\n    /* \"#utility.yul\":389:454   */\n  swap1\n  pop\n    /* \"#utility.yul\":334:460   */\n  swap2\n  swap1\n  pop\n  jump\t// out\n    /* \"#utility.yul\":466:562   */\ntag_20:\n    /* \"#utility.yul\":503:510   */\n  0x00\n    /* \"#utility.yul\":532:556   */\n  tag_29\n    /* \"#utility.yul\":550:555   */\n  dup3\n    /* \"#utility.yul\":532:556   */\n  tag_19\n  jump\t// in\ntag_29:\n    /* \"#utility.yul\":521:556   */\n  swap1\n  pop\n    /* \"#utility.yul\":466:562   */\n  swap2\n  swap1\n  pop\n  jump\t// out\n    /* \"#utility.yul\":568:690   */\ntag_21:\n    /* \"#utility.yul\":641:665   */\n  tag_31\n    /* \"#utility.yul\":659:664   */\n  dup2\n    /* \"#utility.yul\":641:665   */\n  tag_20\n  jump\t// in\ntag_31:\n    /* \"#utility.yul\":634:639   */\n  dup2\n    /* \"#utility.yul\":631:666   */\n  eq\n    /* \"#utility.yul\":621:684   */\n  tag_32\n  jumpi\n    /* \"#utility.yul\":680:681   */\n  0x00\n    /* \"#utility.yul\":677:678   */\n  dup1\n    /* \"#utility.yul\":670:682   */\n  revert\n    /* \"#utility.yul\":621:684   */\ntag_32:\n    /* \"#utility.yul\":568:690   */\n  pop\n  jump\t// out\n    /* \"#utility.yul\":696:839   */\ntag_22:\n    /* \"#utility.yul\":753:758   */\n  0x00\n    /* \"#utility.yul\":784:790   */\n  dup2\n    /* \"#utility.yul\":778:791   */\n  mload\n    /* \"#utility.yul\":769:791   */\n  swap1\n  pop\n    /* \"#utility.yul\":800:833   */\n  tag_34\n    /* \"#utility.yul\":827:832   */\n  dup2\n    /* \"#utility.yul\":800:833   */\n  tag_21\n  jump\t// in\ntag_34:\n    /* \"#utility.yul\":696:839   */\n  swap3\n  swap2\n  pop\n  pop\n  jump\t// out\n    /* \"#utility.yul\":845:1665   */\ntag_3:\n    /* \"#utility.yul\":942:948   */\n  0x00\n    /* \"#utility.yul\":950:956   */\n  dup1\n    /* \"#utility.yul\":958:964   */\n  0x00\n    /* \"#utility.yul\":966:972   */\n  dup1\n    /* \"#utility.yul\":1015:1018   */\n  0x80\n    /* \"#utility.yul\":1003:1012   */\n  dup6\n    /* \"#utility.yul\":994:1001   */\n  dup8\n    /* \"#utility.yul\":990:1013   */\n  sub\n    /* \"#utility.yul\":986:1019   */\n  slt\n    /* \"#utility.yul\":983:1103   */\n  iszero\n  tag_36\n  jumpi\n    /* \"#utility.yul\":1022:1101   */\n  tag_37\n  tag_17\n  jump\t// in\ntag_37:\n    /* \"#utility.yul\":983:1103   */\ntag_36:\n    /* \"#utility.yul\":1142:1143   */\n  0x00\n    /* \"#utility.yul\":1167:1231   */\n  tag_38\n    /* \"#utility.yul\":1223:1230   */\n  dup8\n    /* \"#utility.yul\":1214:1220   */\n  dup3\n    /* \"#utility.yul\":1203:1212   */\n  dup9\n    /* \"#utility.yul\":1199:1221   */\n  add\n    /* \"#utility.yul\":1167:1231   */\n  tag_22\n  jump\t// in\ntag_38:\n    /* \"#utility.yul\":1157:1231   */\n  swap5\n  pop\n    /* \"#utility.yul\":1113:1241   */\n  pop\n    /* \"#utility.yul\":1280:1282   */\n  0x20\n    /* \"#utility.yul\":1306:1370   */\n  tag_39\n    /* \"#utility.yul\":1362:1369   */\n  dup8\n    /* \"#utility.yul\":1353:1359   */\n  dup3\n    /* \"#utility.yul\":1342:1351   */\n  dup9\n    /* \"#utility.yul\":1338:1360   */\n  add\n    /* \"#utility.yul\":1306:1370   */\n  tag_22\n  jump\t// in\ntag_39:\n    /* \"#utility.yul\":1296:1370   */\n  swap4\n  pop\n    /* \"#utility.yul\":1251:1380   */\n  pop\n    /* \"#utility.yul\":1419:1421   */\n  0x40\n    /* \"#utility.yul\":1445:1509   */\n  tag_40\n    /* \"#utility.yul\":1501:1508   */\n  dup8\n    /* \"#utility.yul\":1492:1498   */\n  dup3\n    /* \"#utility.yul\":1481:1490   */\n  dup9\n    /* \"#utility.yul\":1477:1499   */\n  add\n    /* \"#utility.yul\":1445:1509   */\n  tag_22\n  jump\t// in\ntag_40:\n    /* \"#utility.yul\":1435:1509   */\n  swap3\n  pop\n    /* \"#utility.yul\":1390:1519   */\n  pop\n    /* \"#utility.yul\":1558:1560   */\n  0x60\n    /* \"#utility.yul\":1584:1648   */\n  tag_41\n    /* \"#utility.yul\":1640:1647   */\n  dup8\n    /* \"#utility.yul\":1631:1637   */\n  dup3\n    /* \"#utility.yul\":1620:1629   */\n  dup9\n    /* \"#utility.yul\":1616:1638   */\n  add\n    /* \"#utility.yul\":1584:1648   */\n  tag_22\n  jump\t// in\ntag_41:\n    /* \"#utility.yul\":1574:1648   */\n  swap2\n  pop\n    /* \"#utility.yul\":1529:1658   */\n  pop\n    /* \"#utility.yul\":845:1665   */\n  swap3\n  swap6\n  swap2\n  swap5\n  pop\n  swap3\n  pop\n  jump\t// out\n    /* \"#utility.yul\":1671:1851   */\ntag_8:\n    /* \"#utility.yul\":1719:1796   */\n  0x4e487b7100000000000000000000000000000000000000000000000000000000\n    /* \"#utility.yul\":1716:1717   */\n  0x00\n    /* \"#utility.yul\":1709:1797   */\n  mstore\n    /* \"#utility.yul\":1816:1820   */\n  0x01\n    /* \"#utility.yul\":1813:1814   */\n  0x04\n    /* \"#utility.yul\":1806:1821   */\n  mstore\n    /* \"#utility.yul\":1840:1844   */\n  0x24\n    /* \"#utility.yul\":1837:1838   */\n  0x00\n    /* \"#utility.yul\":1830:1845   */\n  revert\n    /* \"contracts/zkp_sql.sol\":207:3358  contract zkp_proof_sql_contract{... */\ntag_15:\n  dataSize(sub_0)\n  dup1\n  dataOffset(sub_0)\n  0x00\n  codecopy\n  0x00\n  return\nstop\n\nsub_0: assembly {\n        /* \"contracts/zkp_sql.sol\":207:3358  contract zkp_proof_sql_contract{... */\n      mstore(0x40, 0x80)\n      callvalue\n      dup1\n      iszero\n      tag_1\n      jumpi\n      0x00\n      dup1\n      revert\n    tag_1:\n      pop\n      jumpi(tag_2, lt(calldatasize, 0x04))\n      shr(0xe0, calldataload(0x00))\n      dup1\n      0x6543e213\n      gt\n      tag_10\n      jumpi\n      dup1\n      0x6543e213\n      eq\n      tag_6\n      jumpi\n      dup1\n      0x9251dba3\n      eq\n      tag_7\n      jumpi\n      dup1\n      0xdc6ad19e\n      eq\n      tag_8\n      jumpi\n      dup1\n      0xeb96ffd6\n      eq\n      tag_9\n      jumpi\n      jump(tag_2)\n    tag_10:\n      dup1\n      0x031e0f21\n      eq\n      tag_3\n      jumpi\n      dup1\n      0x093892be\n      eq\n      tag_4\n      jumpi\n      dup1\n      0x57a9321b\n      eq\n      tag_5\n      jumpi\n    tag_2:\n      0x00\n      dup1\n      revert\n        /* \"contracts/zkp_sql.sol\":716:746  address public insert_verifier */\n    tag_3:\n      tag_11\n      tag_12\n      jump\t// in\n    tag_11:\n      mload(0x40)\n      tag_13\n      swap2\n      swap1\n      tag_14\n      jump\t// in\n    tag_13:\n      mload(0x40)\n      dup1\n      swap2\n      sub\n      swap1\n      return\n        /* \"contracts/zkp_sql.sol\":2069:2828  function execRequest(sql_operation opcode, uint256 argsCommitment, uint newCommitment, bytes memory proof) public returns (bool){... */\n    tag_4:\n      tag_15\n      0x04\n      dup1\n      calldatasize\n      sub\n      dup2\n      add\n      swap1\n      tag_16\n      swap2\n      swap1\n      tag_17\n      jump\t// in\n    tag_16:\n      tag_18\n      jump\t// in\n    tag_15:\n      mload(0x40)\n      tag_19\n      swap2\n      swap1\n      tag_20\n      jump\t// in\n    tag_19:\n      mload(0x40)\n      dup1\n      swap2\n      sub\n      swap1\n      return\n        /* \"contracts/zkp_sql.sol\":753:783  address public select_verifier */\n    tag_5:\n      tag_21\n      tag_22\n      jump\t// in\n    tag_21:\n      mload(0x40)\n      tag_23\n      swap2\n      swap1\n      tag_14\n      jump\t// in\n    tag_23:\n      mload(0x40)\n      dup1\n      swap2\n      sub\n      swap1\n      return\n        /* \"contracts/zkp_sql.sol\":1608:1864  function createTable(string memory tableName , uint commitment)public{... */\n    tag_6:\n      tag_24\n      0x04\n      dup1\n      calldatasize\n      sub\n      dup2\n      add\n      swap1\n      tag_25\n      swap2\n      swap1\n      tag_26\n      jump\t// in\n    tag_25:\n      tag_27\n      jump\t// in\n    tag_24:\n      stop\n        /* \"contracts/zkp_sql.sol\":827:857  address public update_verifier */\n    tag_7:\n      tag_28\n      tag_29\n      jump\t// in\n    tag_28:\n      mload(0x40)\n      tag_30\n      swap2\n      swap1\n      tag_14\n      jump\t// in\n    tag_30:\n      mload(0x40)\n      dup1\n      swap2\n      sub\n      swap1\n      return\n        /* \"contracts/zkp_sql.sol\":1872:2061  function request(string memory table, uint256 argsCommitment) public {... */\n    tag_8:\n      tag_31\n      0x04\n      dup1\n      calldatasize\n      sub\n      dup2\n      add\n      swap1\n      tag_32\n      swap2\n      swap1\n      tag_26\n      jump\t// in\n    tag_32:\n      tag_33\n      jump\t// in\n    tag_31:\n      stop\n        /* \"contracts/zkp_sql.sol\":790:820  address public delete_verifier */\n    tag_9:\n      tag_34\n      tag_35\n      jump\t// in\n    tag_34:\n      mload(0x40)\n      tag_36\n      swap2\n      swap1\n      tag_14\n      jump\t// in\n    tag_36:\n      mload(0x40)\n      dup1\n      swap2\n      sub\n      swap1\n      return\n        /* \"contracts/zkp_sql.sol\":716:746  address public insert_verifier */\n    tag_12:\n      0x00\n      dup1\n      sload\n      swap1\n      0x0100\n      exp\n      swap1\n      div\n      0xffffffffffffffffffffffffffffffffffffffff\n      and\n      dup2\n      jump\t// out\n        /* \"contracts/zkp_sql.sol\":2069:2828  function execRequest(sql_operation opcode, uint256 argsCommitment, uint newCommitment, bytes memory proof) public returns (bool){... */\n    tag_18:\n        /* \"contracts/zkp_sql.sol\":2192:2196  bool */\n      0x00\n        /* \"contracts/zkp_sql.sol\":2208:2224  address verifier */\n      dup1\n        /* \"contracts/zkp_sql.sol\":2227:2255  verifierForOperation(opcode) */\n      tag_38\n        /* \"contracts/zkp_sql.sol\":2248:2254  opcode */\n      dup7\n        /* \"contracts/zkp_sql.sol\":2227:2247  verifierForOperation */\n      tag_39\n        /* \"contracts/zkp_sql.sol\":2227:2255  verifierForOperation(opcode) */\n      jump\t// in\n    tag_38:\n        /* \"contracts/zkp_sql.sol\":2208:2255  address verifier = verifierForOperation(opcode) */\n      swap1\n      pop\n        /* \"contracts/zkp_sql.sol\":2266:2285  string memory table */\n      0x00\n        /* \"contracts/zkp_sql.sol\":2288:2308  requests_commitments */\n      0x06\n        /* \"contracts/zkp_sql.sol\":2288:2324  requests_commitments[argsCommitment] */\n      0x00\n        /* \"contracts/zkp_sql.sol\":2309:2323  argsCommitment */\n      dup8\n        /* \"contracts/zkp_sql.sol\":2288:2324  requests_commitments[argsCommitment] */\n      dup2\n      mstore\n      0x20\n      add\n      swap1\n      dup2\n      mstore\n      0x20\n      add\n      0x00\n      keccak256\n        /* \"contracts/zkp_sql.sol\":2266:2324  string memory table = requests_commitments[argsCommitment] */\n      dup1\n      sload\n      tag_40\n      swap1\n      tag_41\n      jump\t// in\n    tag_40:\n      dup1\n      0x1f\n      add\n      0x20\n      dup1\n      swap2\n      div\n      mul\n      0x20\n      add\n      mload(0x40)\n      swap1\n      dup2\n      add\n      0x40\n      mstore\n      dup1\n      swap3\n      swap2\n      swap1\n      dup2\n      dup2\n      mstore\n      0x20\n      add\n      dup3\n      dup1\n      sload\n      tag_42\n      swap1\n      tag_41\n      jump\t// in\n    tag_42:\n      dup1\n      iszero\n      tag_43\n      jumpi\n      dup1\n      0x1f\n      lt\n      tag_44\n      jumpi\n      0x0100\n      dup1\n      dup4\n      sload\n      div\n      mul\n      dup4\n      mstore\n      swap2\n      0x20\n      add\n      swap2\n      jump(tag_43)\n    tag_44:\n      dup3\n      add\n      swap2\n      swap1\n      0x00\n      mstore\n      keccak256(0x00, 0x20)\n      swap1\n    tag_45:\n      dup2\n      sload\n      dup2\n      mstore\n      swap1\n      0x01\n      add\n      swap1\n      0x20\n      add\n      dup1\n      dup4\n      gt\n      tag_45\n      jumpi\n      dup3\n      swap1\n      sub\n      0x1f\n      and\n      dup3\n      add\n      swap2\n    tag_43:\n      pop\n      pop\n      pop\n      pop\n      pop\n      swap1\n      pop\n        /* \"contracts/zkp_sql.sol\":2366:2367  0 */\n      0x00\n        /* \"contracts/zkp_sql.sol\":2349:2354  table */\n      dup2\n        /* \"contracts/zkp_sql.sol\":2343:2362  bytes(table).length */\n      mload\n        /* \"contracts/zkp_sql.sol\":2343:2367  bytes(table).length != 0 */\n      sub\n        /* \"contracts/zkp_sql.sol\":2335:2387  require(bytes(table).length != 0, \"Request unknown\") */\n      tag_46\n      jumpi\n      mload(0x40)\n      0x08c379a000000000000000000000000000000000000000000000000000000000\n      dup2\n      mstore\n      0x04\n      add\n      tag_47\n      swap1\n      tag_48\n      jump\t// in\n    tag_47:\n      mload(0x40)\n      dup1\n      swap2\n      sub\n      swap1\n      revert\n    tag_46:\n        /* \"contracts/zkp_sql.sol\":2400:2429  uint256[] memory publicInputs */\n      0x00\n        /* \"contracts/zkp_sql.sol\":2446:2447  3 */\n      0x03\n        /* \"contracts/zkp_sql.sol\":2432:2448  new uint256[](3) */\n      0xffffffffffffffff\n      dup2\n      gt\n      iszero\n      tag_49\n      jumpi\n      tag_50\n      tag_51\n      jump\t// in\n    tag_50:\n    tag_49:\n      mload(0x40)\n      swap1\n      dup1\n      dup3\n      mstore\n      dup1\n      0x20\n      mul\n      0x20\n      add\n      dup3\n      add\n      0x40\n      mstore\n      dup1\n      iszero\n      tag_52\n      jumpi\n      dup2\n      0x20\n      add\n      0x20\n      dup3\n      mul\n      dup1\n      calldatasize\n      dup4\n      calldatacopy\n      dup1\n      dup3\n      add\n      swap2\n      pop\n      pop\n      swap1\n      pop\n    tag_52:\n      pop\n        /* \"contracts/zkp_sql.sol\":2400:2448  uint256[] memory publicInputs = new uint256[](3) */\n      swap1\n      pop\n        /* \"contracts/zkp_sql.sol\":2477:2490  newCommitment */\n      dup6\n        /* \"contracts/zkp_sql.sol\":2459:2471  publicInputs */\n      dup2\n        /* \"contracts/zkp_sql.sol\":2472:2473  0 */\n      0x00\n        /* \"contracts/zkp_sql.sol\":2459:2474  publicInputs[0] */\n      dup2\n      mload\n      dup2\n      lt\n      tag_53\n      jumpi\n      tag_54\n      tag_55\n      jump\t// in\n    tag_54:\n    tag_53:\n      0x20\n      mul\n      0x20\n      add\n      add\n        /* \"contracts/zkp_sql.sol\":2459:2490  publicInputs[0] = newCommitment */\n      dup2\n      dup2\n      mstore\n      pop\n      pop\n        /* \"contracts/zkp_sql.sol\":2519:2536  table_commitments */\n      0x05\n        /* \"contracts/zkp_sql.sol\":2537:2542  table */\n      dup3\n        /* \"contracts/zkp_sql.sol\":2519:2543  table_commitments[table] */\n      mload(0x40)\n      tag_56\n      swap2\n      swap1\n      tag_57\n      jump\t// in\n    tag_56:\n      swap1\n      dup2\n      mstore\n      0x20\n      add\n      mload(0x40)\n      dup1\n      swap2\n      sub\n      swap1\n      keccak256\n      sload\n        /* \"contracts/zkp_sql.sol\":2501:2513  publicInputs */\n      dup2\n        /* \"contracts/zkp_sql.sol\":2514:2515  1 */\n      0x01\n        /* \"contracts/zkp_sql.sol\":2501:2516  publicInputs[1] */\n      dup2\n      mload\n      dup2\n      lt\n      tag_58\n      jumpi\n      tag_59\n      tag_55\n      jump\t// in\n    tag_59:\n    tag_58:\n      0x20\n      mul\n      0x20\n      add\n      add\n        /* \"contracts/zkp_sql.sol\":2501:2543  publicInputs[1] = table_commitments[table] */\n      dup2\n      dup2\n      mstore\n      pop\n      pop\n        /* \"contracts/zkp_sql.sol\":2572:2586  argsCommitment */\n      dup7\n        /* \"contracts/zkp_sql.sol\":2554:2566  publicInputs */\n      dup2\n        /* \"contracts/zkp_sql.sol\":2567:2568  2 */\n      0x02\n        /* \"contracts/zkp_sql.sol\":2554:2569  publicInputs[2] */\n      dup2\n      mload\n      dup2\n      lt\n      tag_60\n      jumpi\n      tag_61\n      tag_55\n      jump\t// in\n    tag_61:\n    tag_60:\n      0x20\n      mul\n      0x20\n      add\n      add\n        /* \"contracts/zkp_sql.sol\":2554:2586  publicInputs[2] = argsCommitment */\n      dup2\n      dup2\n      mstore\n      pop\n      pop\n        /* \"contracts/zkp_sql.sol\":2615:2623  verifier */\n      dup3\n        /* \"contracts/zkp_sql.sol\":2605:2636  IVerifier(verifier).verifyProof */\n      0xffffffffffffffffffffffffffffffffffffffff\n      and\n      0x1e8e1e13\n        /* \"contracts/zkp_sql.sol\":2637:2642  proof */\n      dup7\n        /* \"contracts/zkp_sql.sol\":2644:2656  publicInputs */\n      dup4\n        /* \"contracts/zkp_sql.sol\":2605:2657  IVerifier(verifier).verifyProof(proof, publicInputs) */\n      mload(0x40)\n      dup4\n      0xffffffff\n      and\n      0xe0\n      shl\n      dup2\n      mstore\n      0x04\n      add\n      tag_62\n      swap3\n      swap2\n      swap1\n      tag_63\n      jump\t// in\n    tag_62:\n      0x20\n      mload(0x40)\n      dup1\n      dup4\n      sub\n      dup2\n      dup7\n      gas\n      staticcall\n      iszero\n      dup1\n      iszero\n      tag_65\n      jumpi\n      returndatasize\n      0x00\n      dup1\n      returndatacopy\n      revert(0x00, returndatasize)\n    tag_65:\n      pop\n      pop\n      pop\n      pop\n      mload(0x40)\n      returndatasize\n      not(0x1f)\n      0x1f\n      dup3\n      add\n      and\n      dup3\n      add\n      dup1\n      0x40\n      mstore\n      pop\n      dup2\n      add\n      swap1\n      tag_66\n      swap2\n      swap1\n      tag_67\n      jump\t// in\n    tag_66:\n        /* \"contracts/zkp_sql.sol\":2597:2687  require(IVerifier(verifier).verifyProof(proof, publicInputs), \"SNARK verification failed\") */\n      tag_68\n      jumpi\n      mload(0x40)\n      0x08c379a000000000000000000000000000000000000000000000000000000000\n      dup2\n      mstore\n      0x04\n      add\n      tag_69\n      swap1\n      tag_70\n      jump\t// in\n    tag_69:\n      mload(0x40)\n      dup1\n      swap2\n      sub\n      swap1\n      revert\n    tag_68:\n        /* \"contracts/zkp_sql.sol\":2727:2740  newCommitment */\n      dup6\n        /* \"contracts/zkp_sql.sol\":2700:2717  table_commitments */\n      0x05\n        /* \"contracts/zkp_sql.sol\":2718:2723  table */\n      dup4\n        /* \"contracts/zkp_sql.sol\":2700:2724  table_commitments[table] */\n      mload(0x40)\n      tag_71\n      swap2\n      swap1\n      tag_57\n      jump\t// in\n    tag_71:\n      swap1\n      dup2\n      mstore\n      0x20\n      add\n      mload(0x40)\n      dup1\n      swap2\n      sub\n      swap1\n      keccak256\n        /* \"contracts/zkp_sql.sol\":2700:2740  table_commitments[table] = newCommitment */\n      dup2\n      swap1\n      sstore\n      pop\n        /* \"contracts/zkp_sql.sol\":2756:2790  TableUpdated(table, newCommitment) */\n      0xb3b3b1b935c13b8259ef760ae6538d44cc98c9c394d621d8807add6817a46365\n        /* \"contracts/zkp_sql.sol\":2769:2774  table */\n      dup3\n        /* \"contracts/zkp_sql.sol\":2776:2789  newCommitment */\n      dup8\n        /* \"contracts/zkp_sql.sol\":2756:2790  TableUpdated(table, newCommitment) */\n      mload(0x40)\n      tag_72\n      swap3\n      swap2\n      swap1\n      tag_73\n      jump\t// in\n    tag_72:\n      mload(0x40)\n      dup1\n      swap2\n      sub\n      swap1\n      log1\n        /* \"contracts/zkp_sql.sol\":2811:2815  true */\n      0x01\n        /* \"contracts/zkp_sql.sol\":2804:2815  return true */\n      swap4\n      pop\n      pop\n      pop\n      pop\n        /* \"contracts/zkp_sql.sol\":2069:2828  function execRequest(sql_operation opcode, uint256 argsCommitment, uint newCommitment, bytes memory proof) public returns (bool){... */\n      swap5\n      swap4\n      pop\n      pop\n      pop\n      pop\n      jump\t// out\n        /* \"contracts/zkp_sql.sol\":753:783  address public select_verifier */\n    tag_22:\n      0x01\n      0x00\n      swap1\n      sload\n      swap1\n      0x0100\n      exp\n      swap1\n      div\n      0xffffffffffffffffffffffffffffffffffffffff\n      and\n      dup2\n      jump\t// out\n        /* \"contracts/zkp_sql.sol\":1608:1864  function createTable(string memory tableName , uint commitment)public{... */\n    tag_27:\n        /* \"contracts/zkp_sql.sol\":1728:1729  0 */\n      0x00\n        /* \"contracts/zkp_sql.sol\":1696:1713  table_commitments */\n      0x05\n        /* \"contracts/zkp_sql.sol\":1714:1723  tableName */\n      dup4\n        /* \"contracts/zkp_sql.sol\":1696:1724  table_commitments[tableName] */\n      mload(0x40)\n      tag_75\n      swap2\n      swap1\n      tag_57\n      jump\t// in\n    tag_75:\n      swap1\n      dup2\n      mstore\n      0x20\n      add\n      mload(0x40)\n      dup1\n      swap2\n      sub\n      swap1\n      keccak256\n      sload\n        /* \"contracts/zkp_sql.sol\":1696:1729  table_commitments[tableName] == 0 */\n      eq\n        /* \"contracts/zkp_sql.sol\":1688:1752  require(table_commitments[tableName] == 0, \"La tabla ya existe\") */\n      tag_76\n      jumpi\n      mload(0x40)\n      0x08c379a000000000000000000000000000000000000000000000000000000000\n      dup2\n      mstore\n      0x04\n      add\n      tag_77\n      swap1\n      tag_78\n      jump\t// in\n    tag_77:\n      mload(0x40)\n      dup1\n      swap2\n      sub\n      swap1\n      revert\n    tag_76:\n        /* \"contracts/zkp_sql.sol\":1794:1804  commitment */\n      dup1\n        /* \"contracts/zkp_sql.sol\":1763:1780  table_commitments */\n      0x05\n        /* \"contracts/zkp_sql.sol\":1781:1790  tableName */\n      dup4\n        /* \"contracts/zkp_sql.sol\":1763:1791  table_commitments[tableName] */\n      mload(0x40)\n      tag_79\n      swap2\n      swap1\n      tag_57\n      jump\t// in\n    tag_79:\n      swap1\n      dup2\n      mstore\n      0x20\n      add\n      mload(0x40)\n      dup1\n      swap2\n      sub\n      swap1\n      keccak256\n        /* \"contracts/zkp_sql.sol\":1763:1804  table_commitments[tableName] = commitment */\n      dup2\n      swap1\n      sstore\n      pop\n        /* \"contracts/zkp_sql.sol\":1821:1856  TableCreated(tableName, commitment) */\n      0x0b71b7291a9fc3a0721b1959743945de91156f701b493bac77dcfaeba05cd8d3\n        /* \"contracts/zkp_sql.sol\":1834:1843  tableName */\n      dup3\n        /* \"contracts/zkp_sql.sol\":1845:1855  commitment */\n      dup3\n        /* \"contracts/zkp_sql.sol\":1821:1856  TableCreated(tableName, commitment) */\n      mload(0x40)\n      tag_80\n      swap3\n      swap2\n      swap1\n      tag_73\n      jump\t// in\n    tag_80:\n      mload(0x40)\n      dup1\n      swap2\n      sub\n      swap1\n      log1\n        /* \"contracts/zkp_sql.sol\":1608:1864  function createTable(string memory tableName , uint commitment)public{... */\n      pop\n      pop\n      jump\t// out\n        /* \"contracts/zkp_sql.sol\":827:857  address public update_verifier */\n    tag_29:\n      0x03\n      0x00\n      swap1\n      sload\n      swap1\n      0x0100\n      exp\n      swap1\n      div\n      0xffffffffffffffffffffffffffffffffffffffff\n      and\n      dup2\n      jump\t// out\n        /* \"contracts/zkp_sql.sol\":1872:2061  function request(string memory table, uint256 argsCommitment) public {... */\n    tag_33:\n        /* \"contracts/zkp_sql.sol\":1991:1996  table */\n      dup2\n        /* \"contracts/zkp_sql.sol\":1952:1972  requests_commitments */\n      0x06\n        /* \"contracts/zkp_sql.sol\":1952:1988  requests_commitments[argsCommitment] */\n      0x00\n        /* \"contracts/zkp_sql.sol\":1973:1987  argsCommitment */\n      dup4\n        /* \"contracts/zkp_sql.sol\":1952:1988  requests_commitments[argsCommitment] */\n      dup2\n      mstore\n      0x20\n      add\n      swap1\n      dup2\n      mstore\n      0x20\n      add\n      0x00\n      keccak256\n        /* \"contracts/zkp_sql.sol\":1952:1996  requests_commitments[argsCommitment] = table */\n      swap1\n      dup2\n      tag_82\n      swap2\n      swap1\n      tag_83\n      jump\t// in\n    tag_82:\n      pop\n        /* \"contracts/zkp_sql.sol\":2012:2053  RequestPosted(msg.sender, argsCommitment) */\n      0xe42038eda0238692da8d8c200345a40ed84f713f2b07bfdfe04eda8824caabb8\n        /* \"contracts/zkp_sql.sol\":2026:2036  msg.sender */\n      caller\n        /* \"contracts/zkp_sql.sol\":2038:2052  argsCommitment */\n      dup3\n        /* \"contracts/zkp_sql.sol\":2012:2053  RequestPosted(msg.sender, argsCommitment) */\n      mload(0x40)\n      tag_84\n      swap3\n      swap2\n      swap1\n      tag_85\n      jump\t// in\n    tag_84:\n      mload(0x40)\n      dup1\n      swap2\n      sub\n      swap1\n      log1\n        /* \"contracts/zkp_sql.sol\":1872:2061  function request(string memory table, uint256 argsCommitment) public {... */\n      pop\n      pop\n      jump\t// out\n        /* \"contracts/zkp_sql.sol\":790:820  address public delete_verifier */\n    tag_35:\n      0x02\n      0x00\n      swap1\n      sload\n      swap1\n      0x0100\n      exp\n      swap1\n      div\n      0xffffffffffffffffffffffffffffffffffffffff\n      and\n      dup2\n      jump\t// out\n        /* \"contracts/zkp_sql.sol\":2836:3349  function verifierForOperation(sql_operation opcode) internal view returns (address){... */\n    tag_39:\n        /* \"contracts/zkp_sql.sol\":2911:2918  address */\n      0x00\n        /* \"contracts/zkp_sql.sol\":2944:2964  sql_operation.Select */\n      dup1\n        /* \"contracts/zkp_sql.sol\":2934:2964  opcode == sql_operation.Select */\n      0x03\n      dup2\n      gt\n      iszero\n      tag_87\n      jumpi\n      tag_88\n      tag_89\n      jump\t// in\n    tag_88:\n    tag_87:\n        /* \"contracts/zkp_sql.sol\":2934:2940  opcode */\n      dup3\n        /* \"contracts/zkp_sql.sol\":2934:2964  opcode == sql_operation.Select */\n      0x03\n      dup2\n      gt\n      iszero\n      tag_90\n      jumpi\n      tag_91\n      tag_89\n      jump\t// in\n    tag_91:\n    tag_90:\n      sub\n        /* \"contracts/zkp_sql.sol\":2930:3346  if (opcode == sql_operation.Select){... */\n      tag_92\n      jumpi\n        /* \"contracts/zkp_sql.sol\":2987:3002  select_verifier */\n      0x01\n      0x00\n      swap1\n      sload\n      swap1\n      0x0100\n      exp\n      swap1\n      div\n      0xffffffffffffffffffffffffffffffffffffffff\n      and\n        /* \"contracts/zkp_sql.sol\":2980:3002  return select_verifier */\n      swap1\n      pop\n      jump(tag_86)\n        /* \"contracts/zkp_sql.sol\":2930:3346  if (opcode == sql_operation.Select){... */\n    tag_92:\n        /* \"contracts/zkp_sql.sol\":3034:3054  sql_operation.Insert */\n      0x01\n        /* \"contracts/zkp_sql.sol\":3024:3054  opcode == sql_operation.Insert */\n      0x03\n      dup2\n      gt\n      iszero\n      tag_94\n      jumpi\n      tag_95\n      tag_89\n      jump\t// in\n    tag_95:\n    tag_94:\n        /* \"contracts/zkp_sql.sol\":3024:3030  opcode */\n      dup3\n        /* \"contracts/zkp_sql.sol\":3024:3054  opcode == sql_operation.Insert */\n      0x03\n      dup2\n      gt\n      iszero\n      tag_96\n      jumpi\n      tag_97\n      tag_89\n      jump\t// in\n    tag_97:\n    tag_96:\n      sub\n        /* \"contracts/zkp_sql.sol\":3020:3346  if (opcode == sql_operation.Insert){... */\n      tag_98\n      jumpi\n        /* \"contracts/zkp_sql.sol\":3077:3092  insert_verifier */\n      0x00\n      dup1\n      sload\n      swap1\n      0x0100\n      exp\n      swap1\n      div\n      0xffffffffffffffffffffffffffffffffffffffff\n      and\n        /* \"contracts/zkp_sql.sol\":3070:3092  return insert_verifier */\n      swap1\n      pop\n      jump(tag_86)\n        /* \"contracts/zkp_sql.sol\":3020:3346  if (opcode == sql_operation.Insert){... */\n    tag_98:\n        /* \"contracts/zkp_sql.sol\":3124:3144  sql_operation.Delete */\n      0x02\n        /* \"contracts/zkp_sql.sol\":3114:3144  opcode == sql_operation.Delete */\n      0x03\n      dup2\n      gt\n      iszero\n      tag_100\n      jumpi\n      tag_101\n      tag_89\n      jump\t// in\n    tag_101:\n    tag_100:\n        /* \"contracts/zkp_sql.sol\":3114:3120  opcode */\n      dup3\n        /* \"contracts/zkp_sql.sol\":3114:3144  opcode == sql_operation.Delete */\n      0x03\n      dup2\n      gt\n      iszero\n      tag_102\n      jumpi\n      tag_103\n      tag_89\n      jump\t// in\n    tag_103:\n    tag_102:\n      sub\n        /* \"contracts/zkp_sql.sol\":3110:3346  if (opcode == sql_operation.Delete){... */\n      tag_104\n      jumpi\n        /* \"contracts/zkp_sql.sol\":3167:3182  delete_verifier */\n      0x02\n      0x00\n      swap1\n      sload\n      swap1\n      0x0100\n      exp\n      swap1\n      div\n      0xffffffffffffffffffffffffffffffffffffffff\n      and\n        /* \"contracts/zkp_sql.sol\":3160:3182  return delete_verifier */\n      swap1\n      pop\n      jump(tag_86)\n        /* \"contracts/zkp_sql.sol\":3110:3346  if (opcode == sql_operation.Delete){... */\n    tag_104:\n        /* \"contracts/zkp_sql.sol\":3214:3234  sql_operation.Update */\n      0x03\n        /* \"contracts/zkp_sql.sol\":3204:3234  opcode == sql_operation.Update */\n      dup1\n      dup2\n      gt\n      iszero\n      tag_106\n      jumpi\n      tag_107\n      tag_89\n      jump\t// in\n    tag_107:\n    tag_106:\n        /* \"contracts/zkp_sql.sol\":3204:3210  opcode */\n      dup3\n        /* \"contracts/zkp_sql.sol\":3204:3234  opcode == sql_operation.Update */\n      0x03\n      dup2\n      gt\n      iszero\n      tag_108\n      jumpi\n      tag_109\n      tag_89\n      jump\t// in\n    tag_109:\n    tag_108:\n      sub\n        /* \"contracts/zkp_sql.sol\":3200:3346  if (opcode == sql_operation.Update){... */\n      tag_110\n      jumpi\n        /* \"contracts/zkp_sql.sol\":3257:3272  update_verifier */\n      0x03\n      0x00\n      swap1\n      sload\n      swap1\n      0x0100\n      exp\n      swap1\n      div\n      0xffffffffffffffffffffffffffffffffffffffff\n      and\n        /* \"contracts/zkp_sql.sol\":3250:3272  return update_verifier */\n      swap1\n      pop\n      jump(tag_86)\n        /* \"contracts/zkp_sql.sol\":3200:3346  if (opcode == sql_operation.Update){... */\n    tag_110:\n        /* \"contracts/zkp_sql.sol\":3305:3334  revert(\"Operation not valid\") */\n      mload(0x40)\n      0x08c379a000000000000000000000000000000000000000000000000000000000\n      dup2\n      mstore\n      0x04\n      add\n      tag_112\n      swap1\n      tag_113\n      jump\t// in\n    tag_112:\n      mload(0x40)\n      dup1\n      swap2\n      sub\n      swap1\n      revert\n        /* \"contracts/zkp_sql.sol\":2836:3349  function verifierForOperation(sql_operation opcode) internal view returns (address){... */\n    tag_86:\n      swap2\n      swap1\n      pop\n      jump\t// out\n        /* \"#utility.yul\":7:133   */\n    tag_114:\n        /* \"#utility.yul\":44:51   */\n      0x00\n        /* \"#utility.yul\":84:126   */\n      0xffffffffffffffffffffffffffffffffffffffff\n        /* \"#utility.yul\":77:82   */\n      dup3\n        /* \"#utility.yul\":73:127   */\n      and\n        /* \"#utility.yul\":62:127   */\n      swap1\n      pop\n        /* \"#utility.yul\":7:133   */\n      swap2\n      swap1\n      pop\n      jump\t// out\n        /* \"#utility.yul\":139:235   */\n    tag_115:\n        /* \"#utility.yul\":176:183   */\n      0x00\n        /* \"#utility.yul\":205:229   */\n      tag_185\n        /* \"#utility.yul\":223:228   */\n      dup3\n        /* \"#utility.yul\":205:229   */\n      tag_114\n      jump\t// in\n    tag_185:\n        /* \"#utility.yul\":194:229   */\n      swap1\n      pop\n        /* \"#utility.yul\":139:235   */\n      swap2\n      swap1\n      pop\n      jump\t// out\n        /* \"#utility.yul\":241:359   */\n    tag_116:\n        /* \"#utility.yul\":328:352   */\n      tag_187\n        /* \"#utility.yul\":346:351   */\n      dup2\n        /* \"#utility.yul\":328:352   */\n      tag_115\n      jump\t// in\n    tag_187:\n        /* \"#utility.yul\":323:326   */\n      dup3\n        /* \"#utility.yul\":316:353   */\n      mstore\n        /* \"#utility.yul\":241:359   */\n      pop\n      pop\n      jump\t// out\n        /* \"#utility.yul\":365:587   */\n    tag_14:\n        /* \"#utility.yul\":458:462   */\n      0x00\n        /* \"#utility.yul\":496:498   */\n      0x20\n        /* \"#utility.yul\":485:494   */\n      dup3\n        /* \"#utility.yul\":481:499   */\n      add\n        /* \"#utility.yul\":473:499   */\n      swap1\n      pop\n        /* \"#utility.yul\":509:580   */\n      tag_189\n        /* \"#utility.yul\":577:578   */\n      0x00\n        /* \"#utility.yul\":566:575   */\n      dup4\n        /* \"#utility.yul\":562:579   */\n      add\n        /* \"#utility.yul\":553:559   */\n      dup5\n        /* \"#utility.yul\":509:580   */\n      tag_116\n      jump\t// in\n    tag_189:\n        /* \"#utility.yul\":365:587   */\n      swap3\n      swap2\n      pop\n      pop\n      jump\t// out\n        /* \"#utility.yul\":593:668   */\n    tag_117:\n        /* \"#utility.yul\":626:632   */\n      0x00\n        /* \"#utility.yul\":659:661   */\n      0x40\n        /* \"#utility.yul\":653:662   */\n      mload\n        /* \"#utility.yul\":643:662   */\n      swap1\n      pop\n        /* \"#utility.yul\":593:668   */\n      swap1\n      jump\t// out\n        /* \"#utility.yul\":674:791   */\n    tag_118:\n        /* \"#utility.yul\":783:784   */\n      0x00\n        /* \"#utility.yul\":780:781   */\n      dup1\n        /* \"#utility.yul\":773:785   */\n      revert\n        /* \"#utility.yul\":797:914   */\n    tag_119:\n        /* \"#utility.yul\":906:907   */\n      0x00\n        /* \"#utility.yul\":903:904   */\n      dup1\n        /* \"#utility.yul\":896:908   */\n      revert\n        /* \"#utility.yul\":920:1035   */\n    tag_120:\n        /* \"#utility.yul\":1009:1010   */\n      0x04\n        /* \"#utility.yul\":1002:1007   */\n      dup2\n        /* \"#utility.yul\":999:1011   */\n      lt\n        /* \"#utility.yul\":989:1029   */\n      tag_194\n      jumpi\n        /* \"#utility.yul\":1025:1026   */\n      0x00\n        /* \"#utility.yul\":1022:1023   */\n      dup1\n        /* \"#utility.yul\":1015:1027   */\n      revert\n        /* \"#utility.yul\":989:1029   */\n    tag_194:\n        /* \"#utility.yul\":920:1035   */\n      pop\n      jump\t// out\n        /* \"#utility.yul\":1041:1212   */\n    tag_121:\n        /* \"#utility.yul\":1103:1108   */\n      0x00\n        /* \"#utility.yul\":1141:1147   */\n      dup2\n        /* \"#utility.yul\":1128:1148   */\n      calldataload\n        /* \"#utility.yul\":1119:1148   */\n      swap1\n      pop\n        /* \"#utility.yul\":1157:1206   */\n      tag_196\n        /* \"#utility.yul\":1200:1205   */\n      dup2\n        /* \"#utility.yul\":1157:1206   */\n      tag_120\n      jump\t// in\n    tag_196:\n        /* \"#utility.yul\":1041:1212   */\n      swap3\n      swap2\n      pop\n      pop\n      jump\t// out\n        /* \"#utility.yul\":1218:1295   */\n    tag_122:\n        /* \"#utility.yul\":1255:1262   */\n      0x00\n        /* \"#utility.yul\":1284:1289   */\n      dup2\n        /* \"#utility.yul\":1273:1289   */\n      swap1\n      pop\n        /* \"#utility.yul\":1218:1295   */\n      swap2\n      swap1\n      pop\n      jump\t// out\n        /* \"#utility.yul\":1301:1423   */\n    tag_123:\n        /* \"#utility.yul\":1374:1398   */\n      tag_199\n        /* \"#utility.yul\":1392:1397   */\n      dup2\n        /* \"#utility.yul\":1374:1398   */\n      tag_122\n      jump\t// in\n    tag_199:\n        /* \"#utility.yul\":1367:1372   */\n      dup2\n        /* \"#utility.yul\":1364:1399   */\n      eq\n        /* \"#utility.yul\":1354:1417   */\n      tag_200\n      jumpi\n        /* \"#utility.yul\":1413:1414   */\n      0x00\n        /* \"#utility.yul\":1410:1411   */\n      dup1\n        /* \"#utility.yul\":1403:1415   */\n      revert\n        /* \"#utility.yul\":1354:1417   */\n    tag_200:\n        /* \"#utility.yul\":1301:1423   */\n      pop\n      jump\t// out\n        /* \"#utility.yul\":1429:1568   */\n    tag_124:\n        /* \"#utility.yul\":1475:1480   */\n      0x00\n        /* \"#utility.yul\":1513:1519   */\n      dup2\n        /* \"#utility.yul\":1500:1520   */\n      calldataload\n        /* \"#utility.yul\":1491:1520   */\n      swap1\n      pop\n        /* \"#utility.yul\":1529:1562   */\n      tag_202\n        /* \"#utility.yul\":1556:1561   */\n      dup2\n        /* \"#utility.yul\":1529:1562   */\n      tag_123\n      jump\t// in\n    tag_202:\n        /* \"#utility.yul\":1429:1568   */\n      swap3\n      swap2\n      pop\n      pop\n      jump\t// out\n        /* \"#utility.yul\":1574:1691   */\n    tag_125:\n        /* \"#utility.yul\":1683:1684   */\n      0x00\n        /* \"#utility.yul\":1680:1681   */\n      dup1\n        /* \"#utility.yul\":1673:1685   */\n      revert\n        /* \"#utility.yul\":1697:1814   */\n    tag_126:\n        /* \"#utility.yul\":1806:1807   */\n      0x00\n        /* \"#utility.yul\":1803:1804   */\n      dup1\n        /* \"#utility.yul\":1796:1808   */\n      revert\n        /* \"#utility.yul\":1820:1922   */\n    tag_127:\n        /* \"#utility.yul\":1861:1867   */\n      0x00\n        /* \"#utility.yul\":1912:1914   */\n      0x1f\n        /* \"#utility.yul\":1908:1915   */\n      not\n        /* \"#utility.yul\":1903:1905   */\n      0x1f\n        /* \"#utility.yul\":1896:1901   */\n      dup4\n        /* \"#utility.yul\":1892:1906   */\n      add\n        /* \"#utility.yul\":1888:1916   */\n      and\n        /* \"#utility.yul\":1878:1916   */\n      swap1\n      pop\n        /* \"#utility.yul\":1820:1922   */\n      swap2\n      swap1\n      pop\n      jump\t// out\n        /* \"#utility.yul\":1928:2108   */\n    tag_51:\n        /* \"#utility.yul\":1976:2053   */\n      0x4e487b7100000000000000000000000000000000000000000000000000000000\n        /* \"#utility.yul\":1973:1974   */\n      0x00\n        /* \"#utility.yul\":1966:2054   */\n      mstore\n        /* \"#utility.yul\":2073:2077   */\n      0x41\n        /* \"#utility.yul\":2070:2071   */\n      0x04\n        /* \"#utility.yul\":2063:2078   */\n      mstore\n        /* \"#utility.yul\":2097:2101   */\n      0x24\n        /* \"#utility.yul\":2094:2095   */\n      0x00\n        /* \"#utility.yul\":2087:2102   */\n      revert\n        /* \"#utility.yul\":2114:2395   */\n    tag_128:\n        /* \"#utility.yul\":2197:2224   */\n      tag_208\n        /* \"#utility.yul\":2219:2223   */\n      dup3\n        /* \"#utility.yul\":2197:2224   */\n      tag_127\n      jump\t// in\n    tag_208:\n        /* \"#utility.yul\":2189:2195   */\n      dup2\n        /* \"#utility.yul\":2185:2225   */\n      add\n        /* \"#utility.yul\":2327:2333   */\n      dup2\n        /* \"#utility.yul\":2315:2325   */\n      dup2\n        /* \"#utility.yul\":2312:2334   */\n      lt\n        /* \"#utility.yul\":2291:2309   */\n      0xffffffffffffffff\n        /* \"#utility.yul\":2279:2289   */\n      dup3\n        /* \"#utility.yul\":2276:2310   */\n      gt\n        /* \"#utility.yul\":2273:2335   */\n      or\n        /* \"#utility.yul\":2270:2358   */\n      iszero\n      tag_209\n      jumpi\n        /* \"#utility.yul\":2338:2356   */\n      tag_210\n      tag_51\n      jump\t// in\n    tag_210:\n        /* \"#utility.yul\":2270:2358   */\n    tag_209:\n        /* \"#utility.yul\":2378:2388   */\n      dup1\n        /* \"#utility.yul\":2374:2376   */\n      0x40\n        /* \"#utility.yul\":2367:2389   */\n      mstore\n        /* \"#utility.yul\":2157:2395   */\n      pop\n        /* \"#utility.yul\":2114:2395   */\n      pop\n      pop\n      jump\t// out\n        /* \"#utility.yul\":2401:2530   */\n    tag_129:\n        /* \"#utility.yul\":2435:2441   */\n      0x00\n        /* \"#utility.yul\":2462:2482   */\n      tag_212\n      tag_117\n      jump\t// in\n    tag_212:\n        /* \"#utility.yul\":2452:2482   */\n      swap1\n      pop\n        /* \"#utility.yul\":2491:2524   */\n      tag_213\n        /* \"#utility.yul\":2519:2523   */\n      dup3\n        /* \"#utility.yul\":2511:2517   */\n      dup3\n        /* \"#utility.yul\":2491:2524   */\n      tag_128\n      jump\t// in\n    tag_213:\n        /* \"#utility.yul\":2401:2530   */\n      swap2\n      swap1\n      pop\n      jump\t// out\n        /* \"#utility.yul\":2536:2843   */\n    tag_130:\n        /* \"#utility.yul\":2597:2601   */\n      0x00\n        /* \"#utility.yul\":2687:2705   */\n      0xffffffffffffffff\n        /* \"#utility.yul\":2679:2685   */\n      dup3\n        /* \"#utility.yul\":2676:2706   */\n      gt\n        /* \"#utility.yul\":2673:2729   */\n      iszero\n      tag_215\n      jumpi\n        /* \"#utility.yul\":2709:2727   */\n      tag_216\n      tag_51\n      jump\t// in\n    tag_216:\n        /* \"#utility.yul\":2673:2729   */\n    tag_215:\n        /* \"#utility.yul\":2747:2776   */\n      tag_217\n        /* \"#utility.yul\":2769:2775   */\n      dup3\n        /* \"#utility.yul\":2747:2776   */\n      tag_127\n      jump\t// in\n    tag_217:\n        /* \"#utility.yul\":2739:2776   */\n      swap1\n      pop\n        /* \"#utility.yul\":2831:2835   */\n      0x20\n        /* \"#utility.yul\":2825:2829   */\n      dup2\n        /* \"#utility.yul\":2821:2836   */\n      add\n        /* \"#utility.yul\":2813:2836   */\n      swap1\n      pop\n        /* \"#utility.yul\":2536:2843   */\n      swap2\n      swap1\n      pop\n      jump\t// out\n        /* \"#utility.yul\":2849:2997   */\n    tag_131:\n        /* \"#utility.yul\":2947:2953   */\n      dup3\n        /* \"#utility.yul\":2942:2945   */\n      dup2\n        /* \"#utility.yul\":2937:2940   */\n      dup4\n        /* \"#utility.yul\":2924:2954   */\n      calldatacopy\n        /* \"#utility.yul\":2988:2989   */\n      0x00\n        /* \"#utility.yul\":2979:2985   */\n      dup4\n        /* \"#utility.yul\":2974:2977   */\n      dup4\n        /* \"#utility.yul\":2970:2986   */\n      add\n        /* \"#utility.yul\":2963:2990   */\n      mstore\n        /* \"#utility.yul\":2849:2997   */\n      pop\n      pop\n      pop\n      jump\t// out\n        /* \"#utility.yul\":3003:3426   */\n    tag_132:\n        /* \"#utility.yul\":3080:3085   */\n      0x00\n        /* \"#utility.yul\":3105:3170   */\n      tag_220\n        /* \"#utility.yul\":3121:3169   */\n      tag_221\n        /* \"#utility.yul\":3162:3168   */\n      dup5\n        /* \"#utility.yul\":3121:3169   */\n      tag_130\n      jump\t// in\n    tag_221:\n        /* \"#utility.yul\":3105:3170   */\n      tag_129\n      jump\t// in\n    tag_220:\n        /* \"#utility.yul\":3096:3170   */\n      swap1\n      pop\n        /* \"#utility.yul\":3193:3199   */\n      dup3\n        /* \"#utility.yul\":3186:3191   */\n      dup2\n        /* \"#utility.yul\":3179:3200   */\n      mstore\n        /* \"#utility.yul\":3231:3235   */\n      0x20\n        /* \"#utility.yul\":3224:3229   */\n      dup2\n        /* \"#utility.yul\":3220:3236   */\n      add\n        /* \"#utility.yul\":3269:3272   */\n      dup5\n        /* \"#utility.yul\":3260:3266   */\n      dup5\n        /* \"#utility.yul\":3255:3258   */\n      dup5\n        /* \"#utility.yul\":3251:3267   */\n      add\n        /* \"#utility.yul\":3248:3273   */\n      gt\n        /* \"#utility.yul\":3245:3357   */\n      iszero\n      tag_222\n      jumpi\n        /* \"#utility.yul\":3276:3355   */\n      tag_223\n      tag_126\n      jump\t// in\n    tag_223:\n        /* \"#utility.yul\":3245:3357   */\n    tag_222:\n        /* \"#utility.yul\":3366:3420   */\n      tag_224\n        /* \"#utility.yul\":3413:3419   */\n      dup5\n        /* \"#utility.yul\":3408:3411   */\n      dup3\n        /* \"#utility.yul\":3403:3406   */\n      dup6\n        /* \"#utility.yul\":3366:3420   */\n      tag_131\n      jump\t// in\n    tag_224:\n        /* \"#utility.yul\":3086:3426   */\n      pop\n        /* \"#utility.yul\":3003:3426   */\n      swap4\n      swap3\n      pop\n      pop\n      pop\n      jump\t// out\n        /* \"#utility.yul\":3445:3783   */\n    tag_133:\n        /* \"#utility.yul\":3500:3505   */\n      0x00\n        /* \"#utility.yul\":3549:3552   */\n      dup3\n        /* \"#utility.yul\":3542:3546   */\n      0x1f\n        /* \"#utility.yul\":3534:3540   */\n      dup4\n        /* \"#utility.yul\":3530:3547   */\n      add\n        /* \"#utility.yul\":3526:3553   */\n      slt\n        /* \"#utility.yul\":3516:3638   */\n      tag_226\n      jumpi\n        /* \"#utility.yul\":3557:3636   */\n      tag_227\n      tag_125\n      jump\t// in\n    tag_227:\n        /* \"#utility.yul\":3516:3638   */\n    tag_226:\n        /* \"#utility.yul\":3674:3680   */\n      dup2\n        /* \"#utility.yul\":3661:3681   */\n      calldataload\n        /* \"#utility.yul\":3699:3777   */\n      tag_228\n        /* \"#utility.yul\":3773:3776   */\n      dup5\n        /* \"#utility.yul\":3765:3771   */\n      dup3\n        /* \"#utility.yul\":3758:3762   */\n      0x20\n        /* \"#utility.yul\":3750:3756   */\n      dup7\n        /* \"#utility.yul\":3746:3763   */\n      add\n        /* \"#utility.yul\":3699:3777   */\n      tag_132\n      jump\t// in\n    tag_228:\n        /* \"#utility.yul\":3690:3777   */\n      swap2\n      pop\n        /* \"#utility.yul\":3506:3783   */\n      pop\n        /* \"#utility.yul\":3445:3783   */\n      swap3\n      swap2\n      pop\n      pop\n      jump\t// out\n        /* \"#utility.yul\":3789:4764   */\n    tag_17:\n        /* \"#utility.yul\":3900:3906   */\n      0x00\n        /* \"#utility.yul\":3908:3914   */\n      dup1\n        /* \"#utility.yul\":3916:3922   */\n      0x00\n        /* \"#utility.yul\":3924:3930   */\n      dup1\n        /* \"#utility.yul\":3973:3976   */\n      0x80\n        /* \"#utility.yul\":3961:3970   */\n      dup6\n        /* \"#utility.yul\":3952:3959   */\n      dup8\n        /* \"#utility.yul\":3948:3971   */\n      sub\n        /* \"#utility.yul\":3944:3977   */\n      slt\n        /* \"#utility.yul\":3941:4061   */\n      iszero\n      tag_230\n      jumpi\n        /* \"#utility.yul\":3980:4059   */\n      tag_231\n      tag_118\n      jump\t// in\n    tag_231:\n        /* \"#utility.yul\":3941:4061   */\n    tag_230:\n        /* \"#utility.yul\":4100:4101   */\n      0x00\n        /* \"#utility.yul\":4125:4194   */\n      tag_232\n        /* \"#utility.yul\":4186:4193   */\n      dup8\n        /* \"#utility.yul\":4177:4183   */\n      dup3\n        /* \"#utility.yul\":4166:4175   */\n      dup9\n        /* \"#utility.yul\":4162:4184   */\n      add\n        /* \"#utility.yul\":4125:4194   */\n      tag_121\n      jump\t// in\n    tag_232:\n        /* \"#utility.yul\":4115:4194   */\n      swap5\n      pop\n        /* \"#utility.yul\":4071:4204   */\n      pop\n        /* \"#utility.yul\":4243:4245   */\n      0x20\n        /* \"#utility.yul\":4269:4322   */\n      tag_233\n        /* \"#utility.yul\":4314:4321   */\n      dup8\n        /* \"#utility.yul\":4305:4311   */\n      dup3\n        /* \"#utility.yul\":4294:4303   */\n      dup9\n        /* \"#utility.yul\":4290:4312   */\n      add\n        /* \"#utility.yul\":4269:4322   */\n      tag_124\n      jump\t// in\n    tag_233:\n        /* \"#utility.yul\":4259:4322   */\n      swap4\n      pop\n        /* \"#utility.yul\":4214:4332   */\n      pop\n        /* \"#utility.yul\":4371:4373   */\n      0x40\n        /* \"#utility.yul\":4397:4450   */\n      tag_234\n        /* \"#utility.yul\":4442:4449   */\n      dup8\n        /* \"#utility.yul\":4433:4439   */\n      dup3\n        /* \"#utility.yul\":4422:4431   */\n      dup9\n        /* \"#utility.yul\":4418:4440   */\n      add\n        /* \"#utility.yul\":4397:4450   */\n      tag_124\n      jump\t// in\n    tag_234:\n        /* \"#utility.yul\":4387:4450   */\n      swap3\n      pop\n        /* \"#utility.yul\":4342:4460   */\n      pop\n        /* \"#utility.yul\":4527:4529   */\n      0x60\n        /* \"#utility.yul\":4516:4525   */\n      dup6\n        /* \"#utility.yul\":4512:4530   */\n      add\n        /* \"#utility.yul\":4499:4531   */\n      calldataload\n        /* \"#utility.yul\":4558:4576   */\n      0xffffffffffffffff\n        /* \"#utility.yul\":4550:4556   */\n      dup2\n        /* \"#utility.yul\":4547:4577   */\n      gt\n        /* \"#utility.yul\":4544:4661   */\n      iszero\n      tag_235\n      jumpi\n        /* \"#utility.yul\":4580:4659   */\n      tag_236\n      tag_119\n      jump\t// in\n    tag_236:\n        /* \"#utility.yul\":4544:4661   */\n    tag_235:\n        /* \"#utility.yul\":4685:4747   */\n      tag_237\n        /* \"#utility.yul\":4739:4746   */\n      dup8\n        /* \"#utility.yul\":4730:4736   */\n      dup3\n        /* \"#utility.yul\":4719:4728   */\n      dup9\n        /* \"#utility.yul\":4715:4737   */\n      add\n        /* \"#utility.yul\":4685:4747   */\n      tag_133\n      jump\t// in\n    tag_237:\n        /* \"#utility.yul\":4675:4747   */\n      swap2\n      pop\n        /* \"#utility.yul\":4470:4757   */\n      pop\n        /* \"#utility.yul\":3789:4764   */\n      swap3\n      swap6\n      swap2\n      swap5\n      pop\n      swap3\n      pop\n      jump\t// out\n        /* \"#utility.yul\":4770:4860   */\n    tag_134:\n        /* \"#utility.yul\":4804:4811   */\n      0x00\n        /* \"#utility.yul\":4847:4852   */\n      dup2\n        /* \"#utility.yul\":4840:4853   */\n      iszero\n        /* \"#utility.yul\":4833:4854   */\n      iszero\n        /* \"#utility.yul\":4822:4854   */\n      swap1\n      pop\n        /* \"#utility.yul\":4770:4860   */\n      swap2\n      swap1\n      pop\n      jump\t// out\n        /* \"#utility.yul\":4866:4975   */\n    tag_135:\n        /* \"#utility.yul\":4947:4968   */\n      tag_240\n        /* \"#utility.yul\":4962:4967   */\n      dup2\n        /* \"#utility.yul\":4947:4968   */\n      tag_134\n      jump\t// in\n    tag_240:\n        /* \"#utility.yul\":4942:4945   */\n      dup3\n        /* \"#utility.yul\":4935:4969   */\n      mstore\n        /* \"#utility.yul\":4866:4975   */\n      pop\n      pop\n      jump\t// out\n        /* \"#utility.yul\":4981:5191   */\n    tag_20:\n        /* \"#utility.yul\":5068:5072   */\n      0x00\n        /* \"#utility.yul\":5106:5108   */\n      0x20\n        /* \"#utility.yul\":5095:5104   */\n      dup3\n        /* \"#utility.yul\":5091:5109   */\n      add\n        /* \"#utility.yul\":5083:5109   */\n      swap1\n      pop\n        /* \"#utility.yul\":5119:5184   */\n      tag_242\n        /* \"#utility.yul\":5181:5182   */\n      0x00\n        /* \"#utility.yul\":5170:5179   */\n      dup4\n        /* \"#utility.yul\":5166:5183   */\n      add\n        /* \"#utility.yul\":5157:5163   */\n      dup5\n        /* \"#utility.yul\":5119:5184   */\n      tag_135\n      jump\t// in\n    tag_242:\n        /* \"#utility.yul\":4981:5191   */\n      swap3\n      swap2\n      pop\n      pop\n      jump\t// out\n        /* \"#utility.yul\":5197:5505   */\n    tag_136:\n        /* \"#utility.yul\":5259:5263   */\n      0x00\n        /* \"#utility.yul\":5349:5367   */\n      0xffffffffffffffff\n        /* \"#utility.yul\":5341:5347   */\n      dup3\n        /* \"#utility.yul\":5338:5368   */\n      gt\n        /* \"#utility.yul\":5335:5391   */\n      iszero\n      tag_244\n      jumpi\n        /* \"#utility.yul\":5371:5389   */\n      tag_245\n      tag_51\n      jump\t// in\n    tag_245:\n        /* \"#utility.yul\":5335:5391   */\n    tag_244:\n        /* \"#utility.yul\":5409:5438   */\n      tag_246\n        /* \"#utility.yul\":5431:5437   */\n      dup3\n        /* \"#utility.yul\":5409:5438   */\n      tag_127\n      jump\t// in\n    tag_246:\n        /* \"#utility.yul\":5401:5438   */\n      swap1\n      pop\n        /* \"#utility.yul\":5493:5497   */\n      0x20\n        /* \"#utility.yul\":5487:5491   */\n      dup2\n        /* \"#utility.yul\":5483:5498   */\n      add\n        /* \"#utility.yul\":5475:5498   */\n      swap1\n      pop\n        /* \"#utility.yul\":5197:5505   */\n      swap2\n      swap1\n      pop\n      jump\t// out\n        /* \"#utility.yul\":5511:5936   */\n    tag_137:\n        /* \"#utility.yul\":5589:5594   */\n      0x00\n        /* \"#utility.yul\":5614:5680   */\n      tag_248\n        /* \"#utility.yul\":5630:5679   */\n      tag_249\n        /* \"#utility.yul\":5672:5678   */\n      dup5\n        /* \"#utility.yul\":5630:5679   */\n      tag_136\n      jump\t// in\n    tag_249:\n        /* \"#utility.yul\":5614:5680   */\n      tag_129\n      jump\t// in\n    tag_248:\n        /* \"#utility.yul\":5605:5680   */\n      swap1\n      pop\n        /* \"#utility.yul\":5703:5709   */\n      dup3\n        /* \"#utility.yul\":5696:5701   */\n      dup2\n        /* \"#utility.yul\":5689:5710   */\n      mstore\n        /* \"#utility.yul\":5741:5745   */\n      0x20\n        /* \"#utility.yul\":5734:5739   */\n      dup2\n        /* \"#utility.yul\":5730:5746   */\n      add\n        /* \"#utility.yul\":5779:5782   */\n      dup5\n        /* \"#utility.yul\":5770:5776   */\n      dup5\n        /* \"#utility.yul\":5765:5768   */\n      dup5\n        /* \"#utility.yul\":5761:5777   */\n      add\n        /* \"#utility.yul\":5758:5783   */\n      gt\n        /* \"#utility.yul\":5755:5867   */\n      iszero\n      tag_250\n      jumpi\n        /* \"#utility.yul\":5786:5865   */\n      tag_251\n      tag_126\n      jump\t// in\n    tag_251:\n        /* \"#utility.yul\":5755:5867   */\n    tag_250:\n        /* \"#utility.yul\":5876:5930   */\n      tag_252\n        /* \"#utility.yul\":5923:5929   */\n      dup5\n        /* \"#utility.yul\":5918:5921   */\n      dup3\n        /* \"#utility.yul\":5913:5916   */\n      dup6\n        /* \"#utility.yul\":5876:5930   */\n      tag_131\n      jump\t// in\n    tag_252:\n        /* \"#utility.yul\":5595:5936   */\n      pop\n        /* \"#utility.yul\":5511:5936   */\n      swap4\n      swap3\n      pop\n      pop\n      pop\n      jump\t// out\n        /* \"#utility.yul\":5956:6296   */\n    tag_138:\n        /* \"#utility.yul\":6012:6017   */\n      0x00\n        /* \"#utility.yul\":6061:6064   */\n      dup3\n        /* \"#utility.yul\":6054:6058   */\n      0x1f\n        /* \"#utility.yul\":6046:6052   */\n      dup4\n        /* \"#utility.yul\":6042:6059   */\n      add\n        /* \"#utility.yul\":6038:6065   */\n      slt\n        /* \"#utility.yul\":6028:6150   */\n      tag_254\n      jumpi\n        /* \"#utility.yul\":6069:6148   */\n      tag_255\n      tag_125\n      jump\t// in\n    tag_255:\n        /* \"#utility.yul\":6028:6150   */\n    tag_254:\n        /* \"#utility.yul\":6186:6192   */\n      dup2\n        /* \"#utility.yul\":6173:6193   */\n      calldataload\n        /* \"#utility.yul\":6211:6290   */\n      tag_256\n        /* \"#utility.yul\":6286:6289   */\n      dup5\n        /* \"#utility.yul\":6278:6284   */\n      dup3\n        /* \"#utility.yul\":6271:6275   */\n      0x20\n        /* \"#utility.yul\":6263:6269   */\n      dup7\n        /* \"#utility.yul\":6259:6276   */\n      add\n        /* \"#utility.yul\":6211:6290   */\n      tag_137\n      jump\t// in\n    tag_256:\n        /* \"#utility.yul\":6202:6290   */\n      swap2\n      pop\n        /* \"#utility.yul\":6018:6296   */\n      pop\n        /* \"#utility.yul\":5956:6296   */\n      swap3\n      swap2\n      pop\n      pop\n      jump\t// out\n        /* \"#utility.yul\":6302:6956   */\n    tag_26:\n        /* \"#utility.yul\":6380:6386   */\n      0x00\n        /* \"#utility.yul\":6388:6394   */\n      dup1\n        /* \"#utility.yul\":6437:6439   */\n      0x40\n        /* \"#utility.yul\":6425:6434   */\n      dup4\n        /* \"#utility.yul\":6416:6423   */\n      dup6\n        /* \"#utility.yul\":6412:6435   */\n      sub\n        /* \"#utility.yul\":6408:6440   */\n      slt\n        /* \"#utility.yul\":6405:6524   */\n      iszero\n      tag_258\n      jumpi\n        /* \"#utility.yul\":6443:6522   */\n      tag_259\n      tag_118\n      jump\t// in\n    tag_259:\n        /* \"#utility.yul\":6405:6524   */\n    tag_258:\n        /* \"#utility.yul\":6591:6592   */\n      0x00\n        /* \"#utility.yul\":6580:6589   */\n      dup4\n        /* \"#utility.yul\":6576:6593   */\n      add\n        /* \"#utility.yul\":6563:6594   */\n      calldataload\n        /* \"#utility.yul\":6621:6639   */\n      0xffffffffffffffff\n        /* \"#utility.yul\":6613:6619   */\n      dup2\n        /* \"#utility.yul\":6610:6640   */\n      gt\n        /* \"#utility.yul\":6607:6724   */\n      iszero\n      tag_260\n      jumpi\n        /* \"#utility.yul\":6643:6722   */\n      tag_261\n      tag_119\n      jump\t// in\n    tag_261:\n        /* \"#utility.yul\":6607:6724   */\n    tag_260:\n        /* \"#utility.yul\":6748:6811   */\n      tag_262\n        /* \"#utility.yul\":6803:6810   */\n      dup6\n        /* \"#utility.yul\":6794:6800   */\n      dup3\n        /* \"#utility.yul\":6783:6792   */\n      dup7\n        /* \"#utility.yul\":6779:6801   */\n      add\n        /* \"#utility.yul\":6748:6811   */\n      tag_138\n      jump\t// in\n    tag_262:\n        /* \"#utility.yul\":6738:6811   */\n      swap3\n      pop\n        /* \"#utility.yul\":6534:6821   */\n      pop\n        /* \"#utility.yul\":6860:6862   */\n      0x20\n        /* \"#utility.yul\":6886:6939   */\n      tag_263\n        /* \"#utility.yul\":6931:6938   */\n      dup6\n        /* \"#utility.yul\":6922:6928   */\n      dup3\n        /* \"#utility.yul\":6911:6920   */\n      dup7\n        /* \"#utility.yul\":6907:6929   */\n      add\n        /* \"#utility.yul\":6886:6939   */\n      tag_124\n      jump\t// in\n    tag_263:\n        /* \"#utility.yul\":6876:6939   */\n      swap2\n      pop\n        /* \"#utility.yul\":6831:6949   */\n      pop\n        /* \"#utility.yul\":6302:6956   */\n      swap3\n      pop\n      swap3\n      swap1\n      pop\n      jump\t// out\n        /* \"#utility.yul\":6962:7142   */\n    tag_139:\n        /* \"#utility.yul\":7010:7087   */\n      0x4e487b7100000000000000000000000000000000000000000000000000000000\n        /* \"#utility.yul\":7007:7008   */\n      0x00\n        /* \"#utility.yul\":7000:7088   */\n      mstore\n        /* \"#utility.yul\":7107:7111   */\n      0x22\n        /* \"#utility.yul\":7104:7105   */\n      0x04\n        /* \"#utility.yul\":7097:7112   */\n      mstore\n        /* \"#utility.yul\":7131:7135   */\n      0x24\n        /* \"#utility.yul\":7128:7129   */\n      0x00\n        /* \"#utility.yul\":7121:7136   */\n      revert\n        /* \"#utility.yul\":7148:7468   */\n    tag_41:\n        /* \"#utility.yul\":7192:7198   */\n      0x00\n        /* \"#utility.yul\":7229:7230   */\n      0x02\n        /* \"#utility.yul\":7223:7227   */\n      dup3\n        /* \"#utility.yul\":7219:7231   */\n      div\n        /* \"#utility.yul\":7209:7231   */\n      swap1\n      pop\n        /* \"#utility.yul\":7276:7277   */\n      0x01\n        /* \"#utility.yul\":7270:7274   */\n      dup3\n        /* \"#utility.yul\":7266:7278   */\n      and\n        /* \"#utility.yul\":7297:7315   */\n      dup1\n        /* \"#utility.yul\":7287:7368   */\n      tag_266\n      jumpi\n        /* \"#utility.yul\":7353:7357   */\n      0x7f\n        /* \"#utility.yul\":7345:7351   */\n      dup3\n        /* \"#utility.yul\":7341:7358   */\n      and\n        /* \"#utility.yul\":7331:7358   */\n      swap2\n      pop\n        /* \"#utility.yul\":7287:7368   */\n    tag_266:\n        /* \"#utility.yul\":7415:7417   */\n      0x20\n        /* \"#utility.yul\":7407:7413   */\n      dup3\n        /* \"#utility.yul\":7404:7418   */\n      lt\n        /* \"#utility.yul\":7384:7402   */\n      dup2\n        /* \"#utility.yul\":7381:7419   */\n      sub\n        /* \"#utility.yul\":7378:7462   */\n      tag_267\n      jumpi\n        /* \"#utility.yul\":7434:7452   */\n      tag_268\n      tag_139\n      jump\t// in\n    tag_268:\n        /* \"#utility.yul\":7378:7462   */\n    tag_267:\n        /* \"#utility.yul\":7199:7468   */\n      pop\n        /* \"#utility.yul\":7148:7468   */\n      swap2\n      swap1\n      pop\n      jump\t// out\n        /* \"#utility.yul\":7474:7643   */\n    tag_140:\n        /* \"#utility.yul\":7558:7569   */\n      0x00\n        /* \"#utility.yul\":7592:7598   */\n      dup3\n        /* \"#utility.yul\":7587:7590   */\n      dup3\n        /* \"#utility.yul\":7580:7599   */\n      mstore\n        /* \"#utility.yul\":7632:7636   */\n      0x20\n        /* \"#utility.yul\":7627:7630   */\n      dup3\n        /* \"#utility.yul\":7623:7637   */\n      add\n        /* \"#utility.yul\":7608:7637   */\n      swap1\n      pop\n        /* \"#utility.yul\":7474:7643   */\n      swap3\n      swap2\n      pop\n      pop\n      jump\t// out\n        /* \"#utility.yul\":7649:7814   */\n    tag_141:\n        /* \"#utility.yul\":7789:7806   */\n      0x5265717565737420756e6b6e6f776e0000000000000000000000000000000000\n        /* \"#utility.yul\":7785:7786   */\n      0x00\n        /* \"#utility.yul\":7777:7783   */\n      dup3\n        /* \"#utility.yul\":7773:7787   */\n      add\n        /* \"#utility.yul\":7766:7807   */\n      mstore\n        /* \"#utility.yul\":7649:7814   */\n      pop\n      jump\t// out\n        /* \"#utility.yul\":7820:8186   */\n    tag_142:\n        /* \"#utility.yul\":7962:7965   */\n      0x00\n        /* \"#utility.yul\":7983:8050   */\n      tag_272\n        /* \"#utility.yul\":8047:8049   */\n      0x0f\n        /* \"#utility.yul\":8042:8045   */\n      dup4\n        /* \"#utility.yul\":7983:8050   */\n      tag_140\n      jump\t// in\n    tag_272:\n        /* \"#utility.yul\":7976:8050   */\n      swap2\n      pop\n        /* \"#utility.yul\":8059:8152   */\n      tag_273\n        /* \"#utility.yul\":8148:8151   */\n      dup3\n        /* \"#utility.yul\":8059:8152   */\n      tag_141\n      jump\t// in\n    tag_273:\n        /* \"#utility.yul\":8177:8179   */\n      0x20\n        /* \"#utility.yul\":8172:8175   */\n      dup3\n        /* \"#utility.yul\":8168:8180   */\n      add\n        /* \"#utility.yul\":8161:8180   */\n      swap1\n      pop\n        /* \"#utility.yul\":7820:8186   */\n      swap2\n      swap1\n      pop\n      jump\t// out\n        /* \"#utility.yul\":8192:8611   */\n    tag_48:\n        /* \"#utility.yul\":8358:8362   */\n      0x00\n        /* \"#utility.yul\":8396:8398   */\n      0x20\n        /* \"#utility.yul\":8385:8394   */\n      dup3\n        /* \"#utility.yul\":8381:8399   */\n      add\n        /* \"#utility.yul\":8373:8399   */\n      swap1\n      pop\n        /* \"#utility.yul\":8445:8454   */\n      dup2\n        /* \"#utility.yul\":8439:8443   */\n      dup2\n        /* \"#utility.yul\":8435:8455   */\n      sub\n        /* \"#utility.yul\":8431:8432   */\n      0x00\n        /* \"#utility.yul\":8420:8429   */\n      dup4\n        /* \"#utility.yul\":8416:8433   */\n      add\n        /* \"#utility.yul\":8409:8456   */\n      mstore\n        /* \"#utility.yul\":8473:8604   */\n      tag_275\n        /* \"#utility.yul\":8599:8603   */\n      dup2\n        /* \"#utility.yul\":8473:8604   */\n      tag_142\n      jump\t// in\n    tag_275:\n        /* \"#utility.yul\":8465:8604   */\n      swap1\n      pop\n        /* \"#utility.yul\":8192:8611   */\n      swap2\n      swap1\n      pop\n      jump\t// out\n        /* \"#utility.yul\":8617:8797   */\n    tag_55:\n        /* \"#utility.yul\":8665:8742   */\n      0x4e487b7100000000000000000000000000000000000000000000000000000000\n        /* \"#utility.yul\":8662:8663   */\n      0x00\n        /* \"#utility.yul\":8655:8743   */\n      mstore\n        /* \"#utility.yul\":8762:8766   */\n      0x32\n        /* \"#utility.yul\":8759:8760   */\n      0x04\n        /* \"#utility.yul\":8752:8767   */\n      mstore\n        /* \"#utility.yul\":8786:8790   */\n      0x24\n        /* \"#utility.yul\":8783:8784   */\n      0x00\n        /* \"#utility.yul\":8776:8791   */\n      revert\n        /* \"#utility.yul\":8803:8902   */\n    tag_143:\n        /* \"#utility.yul\":8855:8861   */\n      0x00\n        /* \"#utility.yul\":8889:8894   */\n      dup2\n        /* \"#utility.yul\":8883:8895   */\n      mload\n        /* \"#utility.yul\":8873:8895   */\n      swap1\n      pop\n        /* \"#utility.yul\":8803:8902   */\n      swap2\n      swap1\n      pop\n      jump\t// out\n        /* \"#utility.yul\":8908:9056   */\n    tag_144:\n        /* \"#utility.yul\":9010:9021   */\n      0x00\n        /* \"#utility.yul\":9047:9050   */\n      dup2\n        /* \"#utility.yul\":9032:9050   */\n      swap1\n      pop\n        /* \"#utility.yul\":8908:9056   */\n      swap3\n      swap2\n      pop\n      pop\n      jump\t// out\n        /* \"#utility.yul\":9062:9201   */\n    tag_145:\n        /* \"#utility.yul\":9151:9157   */\n      dup3\n        /* \"#utility.yul\":9146:9149   */\n      dup2\n        /* \"#utility.yul\":9141:9144   */\n      dup4\n        /* \"#utility.yul\":9135:9158   */\n      mcopy\n        /* \"#utility.yul\":9192:9193   */\n      0x00\n        /* \"#utility.yul\":9183:9189   */\n      dup4\n        /* \"#utility.yul\":9178:9181   */\n      dup4\n        /* \"#utility.yul\":9174:9190   */\n      add\n        /* \"#utility.yul\":9167:9194   */\n      mstore\n        /* \"#utility.yul\":9062:9201   */\n      pop\n      pop\n      pop\n      jump\t// out\n        /* \"#utility.yul\":9207:9597   */\n    tag_146:\n        /* \"#utility.yul\":9313:9316   */\n      0x00\n        /* \"#utility.yul\":9341:9380   */\n      tag_281\n        /* \"#utility.yul\":9374:9379   */\n      dup3\n        /* \"#utility.yul\":9341:9380   */\n      tag_143\n      jump\t// in\n    tag_281:\n        /* \"#utility.yul\":9396:9485   */\n      tag_282\n        /* \"#utility.yul\":9478:9484   */\n      dup2\n        /* \"#utility.yul\":9473:9476   */\n      dup6\n        /* \"#utility.yul\":9396:9485   */\n      tag_144\n      jump\t// in\n    tag_282:\n        /* \"#utility.yul\":9389:9485   */\n      swap4\n      pop\n        /* \"#utility.yul\":9494:9559   */\n      tag_283\n        /* \"#utility.yul\":9552:9558   */\n      dup2\n        /* \"#utility.yul\":9547:9550   */\n      dup6\n        /* \"#utility.yul\":9540:9544   */\n      0x20\n        /* \"#utility.yul\":9533:9538   */\n      dup7\n        /* \"#utility.yul\":9529:9545   */\n      add\n        /* \"#utility.yul\":9494:9559   */\n      tag_145\n      jump\t// in\n    tag_283:\n        /* \"#utility.yul\":9584:9590   */\n      dup1\n        /* \"#utility.yul\":9579:9582   */\n      dup5\n        /* \"#utility.yul\":9575:9591   */\n      add\n        /* \"#utility.yul\":9568:9591   */\n      swap2\n      pop\n        /* \"#utility.yul\":9317:9597   */\n      pop\n        /* \"#utility.yul\":9207:9597   */\n      swap3\n      swap2\n      pop\n      pop\n      jump\t// out\n        /* \"#utility.yul\":9603:9878   */\n    tag_57:\n        /* \"#utility.yul\":9735:9738   */\n      0x00\n        /* \"#utility.yul\":9757:9852   */\n      tag_285\n        /* \"#utility.yul\":9848:9851   */\n      dup3\n        /* \"#utility.yul\":9839:9845   */\n      dup5\n        /* \"#utility.yul\":9757:9852   */\n      tag_146\n      jump\t// in\n    tag_285:\n        /* \"#utility.yul\":9750:9852   */\n      swap2\n      pop\n        /* \"#utility.yul\":9869:9872   */\n      dup2\n        /* \"#utility.yul\":9862:9872   */\n      swap1\n      pop\n        /* \"#utility.yul\":9603:9878   */\n      swap3\n      swap2\n      pop\n      pop\n      jump\t// out\n        /* \"#utility.yul\":9884:9982   */\n    tag_147:\n        /* \"#utility.yul\":9935:9941   */\n      0x00\n        /* \"#utility.yul\":9969:9974   */\n      dup2\n        /* \"#utility.yul\":9963:9975   */\n      mload\n        /* \"#utility.yul\":9953:9975   */\n      swap1\n      pop\n        /* \"#utility.yul\":9884:9982   */\n      swap2\n      swap1\n      pop\n      jump\t// out\n        /* \"#utility.yul\":9988:10156   */\n    tag_148:\n        /* \"#utility.yul\":10071:10082   */\n      0x00\n        /* \"#utility.yul\":10105:10111   */\n      dup3\n        /* \"#utility.yul\":10100:10103   */\n      dup3\n        /* \"#utility.yul\":10093:10112   */\n      mstore\n        /* \"#utility.yul\":10145:10149   */\n      0x20\n        /* \"#utility.yul\":10140:10143   */\n      dup3\n        /* \"#utility.yul\":10136:10150   */\n      add\n        /* \"#utility.yul\":10121:10150   */\n      swap1\n      pop\n        /* \"#utility.yul\":9988:10156   */\n      swap3\n      swap2\n      pop\n      pop\n      jump\t// out\n        /* \"#utility.yul\":10162:10535   */\n    tag_149:\n        /* \"#utility.yul\":10248:10251   */\n      0x00\n        /* \"#utility.yul\":10276:10314   */\n      tag_289\n        /* \"#utility.yul\":10308:10313   */\n      dup3\n        /* \"#utility.yul\":10276:10314   */\n      tag_147\n      jump\t// in\n    tag_289:\n        /* \"#utility.yul\":10330:10400   */\n      tag_290\n        /* \"#utility.yul\":10393:10399   */\n      dup2\n        /* \"#utility.yul\":10388:10391   */\n      dup6\n        /* \"#utility.yul\":10330:10400   */\n      tag_148\n      jump\t// in\n    tag_290:\n        /* \"#utility.yul\":10323:10400   */\n      swap4\n      pop\n        /* \"#utility.yul\":10409:10474   */\n      tag_291\n        /* \"#utility.yul\":10467:10473   */\n      dup2\n        /* \"#utility.yul\":10462:10465   */\n      dup6\n        /* \"#utility.yul\":10455:10459   */\n      0x20\n        /* \"#utility.yul\":10448:10453   */\n      dup7\n        /* \"#utility.yul\":10444:10460   */\n      add\n        /* \"#utility.yul\":10409:10474   */\n      tag_145\n      jump\t// in\n    tag_291:\n        /* \"#utility.yul\":10499:10528   */\n      tag_292\n        /* \"#utility.yul\":10521:10527   */\n      dup2\n        /* \"#utility.yul\":10499:10528   */\n      tag_127\n      jump\t// in\n    tag_292:\n        /* \"#utility.yul\":10494:10497   */\n      dup5\n        /* \"#utility.yul\":10490:10529   */\n      add\n        /* \"#utility.yul\":10483:10529   */\n      swap2\n      pop\n        /* \"#utility.yul\":10252:10535   */\n      pop\n        /* \"#utility.yul\":10162:10535   */\n      swap3\n      swap2\n      pop\n      pop\n      jump\t// out\n        /* \"#utility.yul\":10541:10655   */\n    tag_150:\n        /* \"#utility.yul\":10608:10614   */\n      0x00\n        /* \"#utility.yul\":10642:10647   */\n      dup2\n        /* \"#utility.yul\":10636:10648   */\n      mload\n        /* \"#utility.yul\":10626:10648   */\n      swap1\n      pop\n        /* \"#utility.yul\":10541:10655   */\n      swap2\n      swap1\n      pop\n      jump\t// out\n        /* \"#utility.yul\":10661:10845   */\n    tag_151:\n        /* \"#utility.yul\":10760:10771   */\n      0x00\n        /* \"#utility.yul\":10794:10800   */\n      dup3\n        /* \"#utility.yul\":10789:10792   */\n      dup3\n        /* \"#utility.yul\":10782:10801   */\n      mstore\n        /* \"#utility.yul\":10834:10838   */\n      0x20\n        /* \"#utility.yul\":10829:10832   */\n      dup3\n        /* \"#utility.yul\":10825:10839   */\n      add\n        /* \"#utility.yul\":10810:10839   */\n      swap1\n      pop\n        /* \"#utility.yul\":10661:10845   */\n      swap3\n      swap2\n      pop\n      pop\n      jump\t// out\n        /* \"#utility.yul\":10851:10983   */\n    tag_152:\n        /* \"#utility.yul\":10918:10922   */\n      0x00\n        /* \"#utility.yul\":10941:10944   */\n      dup2\n        /* \"#utility.yul\":10933:10944   */\n      swap1\n      pop\n        /* \"#utility.yul\":10971:10975   */\n      0x20\n        /* \"#utility.yul\":10966:10969   */\n      dup3\n        /* \"#utility.yul\":10962:10976   */\n      add\n        /* \"#utility.yul\":10954:10976   */\n      swap1\n      pop\n        /* \"#utility.yul\":10851:10983   */\n      swap2\n      swap1\n      pop\n      jump\t// out\n        /* \"#utility.yul\":10989:11097   */\n    tag_153:\n        /* \"#utility.yul\":11066:11090   */\n      tag_297\n        /* \"#utility.yul\":11084:11089   */\n      dup2\n        /* \"#utility.yul\":11066:11090   */\n      tag_122\n      jump\t// in\n    tag_297:\n        /* \"#utility.yul\":11061:11064   */\n      dup3\n        /* \"#utility.yul\":11054:11091   */\n      mstore\n        /* \"#utility.yul\":10989:11097   */\n      pop\n      pop\n      jump\t// out\n        /* \"#utility.yul\":11103:11282   */\n    tag_154:\n        /* \"#utility.yul\":11172:11182   */\n      0x00\n        /* \"#utility.yul\":11193:11239   */\n      tag_299\n        /* \"#utility.yul\":11235:11238   */\n      dup4\n        /* \"#utility.yul\":11227:11233   */\n      dup4\n        /* \"#utility.yul\":11193:11239   */\n      tag_153\n      jump\t// in\n    tag_299:\n        /* \"#utility.yul\":11271:11275   */\n      0x20\n        /* \"#utility.yul\":11266:11269   */\n      dup4\n        /* \"#utility.yul\":11262:11276   */\n      add\n        /* \"#utility.yul\":11248:11276   */\n      swap1\n      pop\n        /* \"#utility.yul\":11103:11282   */\n      swap3\n      swap2\n      pop\n      pop\n      jump\t// out\n        /* \"#utility.yul\":11288:11401   */\n    tag_155:\n        /* \"#utility.yul\":11358:11362   */\n      0x00\n        /* \"#utility.yul\":11390:11394   */\n      0x20\n        /* \"#utility.yul\":11385:11388   */\n      dup3\n        /* \"#utility.yul\":11381:11395   */\n      add\n        /* \"#utility.yul\":11373:11395   */\n      swap1\n      pop\n        /* \"#utility.yul\":11288:11401   */\n      swap2\n      swap1\n      pop\n      jump\t// out\n        /* \"#utility.yul\":11437:12169   */\n    tag_156:\n        /* \"#utility.yul\":11556:11559   */\n      0x00\n        /* \"#utility.yul\":11585:11639   */\n      tag_302\n        /* \"#utility.yul\":11633:11638   */\n      dup3\n        /* \"#utility.yul\":11585:11639   */\n      tag_150\n      jump\t// in\n    tag_302:\n        /* \"#utility.yul\":11655:11741   */\n      tag_303\n        /* \"#utility.yul\":11734:11740   */\n      dup2\n        /* \"#utility.yul\":11729:11732   */\n      dup6\n        /* \"#utility.yul\":11655:11741   */\n      tag_151\n      jump\t// in\n    tag_303:\n        /* \"#utility.yul\":11648:11741   */\n      swap4\n      pop\n        /* \"#utility.yul\":11765:11821   */\n      tag_304\n        /* \"#utility.yul\":11815:11820   */\n      dup4\n        /* \"#utility.yul\":11765:11821   */\n      tag_152\n      jump\t// in\n    tag_304:\n        /* \"#utility.yul\":11844:11851   */\n      dup1\n        /* \"#utility.yul\":11875:11876   */\n      0x00\n        /* \"#utility.yul\":11860:12144   */\n    tag_305:\n        /* \"#utility.yul\":11885:11891   */\n      dup4\n        /* \"#utility.yul\":11882:11883   */\n      dup2\n        /* \"#utility.yul\":11879:11892   */\n      lt\n        /* \"#utility.yul\":11860:12144   */\n      iszero\n      tag_307\n      jumpi\n        /* \"#utility.yul\":11961:11967   */\n      dup2\n        /* \"#utility.yul\":11955:11968   */\n      mload\n        /* \"#utility.yul\":11988:12051   */\n      tag_308\n        /* \"#utility.yul\":12047:12050   */\n      dup9\n        /* \"#utility.yul\":12032:12045   */\n      dup3\n        /* \"#utility.yul\":11988:12051   */\n      tag_154\n      jump\t// in\n    tag_308:\n        /* \"#utility.yul\":11981:12051   */\n      swap8\n      pop\n        /* \"#utility.yul\":12074:12134   */\n      tag_309\n        /* \"#utility.yul\":12127:12133   */\n      dup4\n        /* \"#utility.yul\":12074:12134   */\n      tag_155\n      jump\t// in\n    tag_309:\n        /* \"#utility.yul\":12064:12134   */\n      swap3\n      pop\n        /* \"#utility.yul\":11920:12144   */\n      pop\n        /* \"#utility.yul\":11907:11908   */\n      0x01\n        /* \"#utility.yul\":11904:11905   */\n      dup2\n        /* \"#utility.yul\":11900:11909   */\n      add\n        /* \"#utility.yul\":11895:11909   */\n      swap1\n      pop\n        /* \"#utility.yul\":11860:12144   */\n      jump(tag_305)\n    tag_307:\n        /* \"#utility.yul\":11864:11878   */\n      pop\n        /* \"#utility.yul\":12160:12163   */\n      dup6\n        /* \"#utility.yul\":12153:12163   */\n      swap4\n      pop\n        /* \"#utility.yul\":11561:12169   */\n      pop\n      pop\n      pop\n        /* \"#utility.yul\":11437:12169   */\n      swap3\n      swap2\n      pop\n      pop\n      jump\t// out\n        /* \"#utility.yul\":12175:12745   */\n    tag_63:\n        /* \"#utility.yul\":12364:12368   */\n      0x00\n        /* \"#utility.yul\":12402:12404   */\n      0x40\n        /* \"#utility.yul\":12391:12400   */\n      dup3\n        /* \"#utility.yul\":12387:12405   */\n      add\n        /* \"#utility.yul\":12379:12405   */\n      swap1\n      pop\n        /* \"#utility.yul\":12451:12460   */\n      dup2\n        /* \"#utility.yul\":12445:12449   */\n      dup2\n        /* \"#utility.yul\":12441:12461   */\n      sub\n        /* \"#utility.yul\":12437:12438   */\n      0x00\n        /* \"#utility.yul\":12426:12435   */\n      dup4\n        /* \"#utility.yul\":12422:12439   */\n      add\n        /* \"#utility.yul\":12415:12462   */\n      mstore\n        /* \"#utility.yul\":12479:12555   */\n      tag_311\n        /* \"#utility.yul\":12550:12554   */\n      dup2\n        /* \"#utility.yul\":12541:12547   */\n      dup6\n        /* \"#utility.yul\":12479:12555   */\n      tag_149\n      jump\t// in\n    tag_311:\n        /* \"#utility.yul\":12471:12555   */\n      swap1\n      pop\n        /* \"#utility.yul\":12602:12611   */\n      dup2\n        /* \"#utility.yul\":12596:12600   */\n      dup2\n        /* \"#utility.yul\":12592:12612   */\n      sub\n        /* \"#utility.yul\":12587:12589   */\n      0x20\n        /* \"#utility.yul\":12576:12585   */\n      dup4\n        /* \"#utility.yul\":12572:12590   */\n      add\n        /* \"#utility.yul\":12565:12613   */\n      mstore\n        /* \"#utility.yul\":12630:12738   */\n      tag_312\n        /* \"#utility.yul\":12733:12737   */\n      dup2\n        /* \"#utility.yul\":12724:12730   */\n      dup5\n        /* \"#utility.yul\":12630:12738   */\n      tag_156\n      jump\t// in\n    tag_312:\n        /* \"#utility.yul\":12622:12738   */\n      swap1\n      pop\n        /* \"#utility.yul\":12175:12745   */\n      swap4\n      swap3\n      pop\n      pop\n      pop\n      jump\t// out\n        /* \"#utility.yul\":12751:12867   */\n    tag_157:\n        /* \"#utility.yul\":12821:12842   */\n      tag_314\n        /* \"#utility.yul\":12836:12841   */\n      dup2\n        /* \"#utility.yul\":12821:12842   */\n      tag_134\n      jump\t// in\n    tag_314:\n        /* \"#utility.yul\":12814:12819   */\n      dup2\n        /* \"#utility.yul\":12811:12843   */\n      eq\n        /* \"#utility.yul\":12801:12861   */\n      tag_315\n      jumpi\n        /* \"#utility.yul\":12857:12858   */\n      0x00\n        /* \"#utility.yul\":12854:12855   */\n      dup1\n        /* \"#utility.yul\":12847:12859   */\n      revert\n        /* \"#utility.yul\":12801:12861   */\n    tag_315:\n        /* \"#utility.yul\":12751:12867   */\n      pop\n      jump\t// out\n        /* \"#utility.yul\":12873:13010   */\n    tag_158:\n        /* \"#utility.yul\":12927:12932   */\n      0x00\n        /* \"#utility.yul\":12958:12964   */\n      dup2\n        /* \"#utility.yul\":12952:12965   */\n      mload\n        /* \"#utility.yul\":12943:12965   */\n      swap1\n      pop\n        /* \"#utility.yul\":12974:13004   */\n      tag_317\n        /* \"#utility.yul\":12998:13003   */\n      dup2\n        /* \"#utility.yul\":12974:13004   */\n      tag_157\n      jump\t// in\n    tag_317:\n        /* \"#utility.yul\":12873:13010   */\n      swap3\n      swap2\n      pop\n      pop\n      jump\t// out\n        /* \"#utility.yul\":13016:13361   */\n    tag_67:\n        /* \"#utility.yul\":13083:13089   */\n      0x00\n        /* \"#utility.yul\":13132:13134   */\n      0x20\n        /* \"#utility.yul\":13120:13129   */\n      dup3\n        /* \"#utility.yul\":13111:13118   */\n      dup5\n        /* \"#utility.yul\":13107:13130   */\n      sub\n        /* \"#utility.yul\":13103:13135   */\n      slt\n        /* \"#utility.yul\":13100:13219   */\n      iszero\n      tag_319\n      jumpi\n        /* \"#utility.yul\":13138:13217   */\n      tag_320\n      tag_118\n      jump\t// in\n    tag_320:\n        /* \"#utility.yul\":13100:13219   */\n    tag_319:\n        /* \"#utility.yul\":13258:13259   */\n      0x00\n        /* \"#utility.yul\":13283:13344   */\n      tag_321\n        /* \"#utility.yul\":13336:13343   */\n      dup5\n        /* \"#utility.yul\":13327:13333   */\n      dup3\n        /* \"#utility.yul\":13316:13325   */\n      dup6\n        /* \"#utility.yul\":13312:13334   */\n      add\n        /* \"#utility.yul\":13283:13344   */\n      tag_158\n      jump\t// in\n    tag_321:\n        /* \"#utility.yul\":13273:13344   */\n      swap2\n      pop\n        /* \"#utility.yul\":13229:13354   */\n      pop\n        /* \"#utility.yul\":13016:13361   */\n      swap3\n      swap2\n      pop\n      pop\n      jump\t// out\n        /* \"#utility.yul\":13367:13542   */\n    tag_159:\n        /* \"#utility.yul\":13507:13534   */\n      0x534e41524b20766572696669636174696f6e206661696c656400000000000000\n        /* \"#utility.yul\":13503:13504   */\n      0x00\n        /* \"#utility.yul\":13495:13501   */\n      dup3\n        /* \"#utility.yul\":13491:13505   */\n      add\n        /* \"#utility.yul\":13484:13535   */\n      mstore\n        /* \"#utility.yul\":13367:13542   */\n      pop\n      jump\t// out\n        /* \"#utility.yul\":13548:13914   */\n    tag_160:\n        /* \"#utility.yul\":13690:13693   */\n      0x00\n        /* \"#utility.yul\":13711:13778   */\n      tag_324\n        /* \"#utility.yul\":13775:13777   */\n      0x19\n        /* \"#utility.yul\":13770:13773   */\n      dup4\n        /* \"#utility.yul\":13711:13778   */\n      tag_140\n      jump\t// in\n    tag_324:\n        /* \"#utility.yul\":13704:13778   */\n      swap2\n      pop\n        /* \"#utility.yul\":13787:13880   */\n      tag_325\n        /* \"#utility.yul\":13876:13879   */\n      dup3\n        /* \"#utility.yul\":13787:13880   */\n      tag_159\n      jump\t// in\n    tag_325:\n        /* \"#utility.yul\":13905:13907   */\n      0x20\n        /* \"#utility.yul\":13900:13903   */\n      dup3\n        /* \"#utility.yul\":13896:13908   */\n      add\n        /* \"#utility.yul\":13889:13908   */\n      swap1\n      pop\n        /* \"#utility.yul\":13548:13914   */\n      swap2\n      swap1\n      pop\n      jump\t// out\n        /* \"#utility.yul\":13920:14339   */\n    tag_70:\n        /* \"#utility.yul\":14086:14090   */\n      0x00\n        /* \"#utility.yul\":14124:14126   */\n      0x20\n        /* \"#utility.yul\":14113:14122   */\n      dup3\n        /* \"#utility.yul\":14109:14127   */\n      add\n        /* \"#utility.yul\":14101:14127   */\n      swap1\n      pop\n        /* \"#utility.yul\":14173:14182   */\n      dup2\n        /* \"#utility.yul\":14167:14171   */\n      dup2\n        /* \"#utility.yul\":14163:14183   */\n      sub\n        /* \"#utility.yul\":14159:14160   */\n      0x00\n        /* \"#utility.yul\":14148:14157   */\n      dup4\n        /* \"#utility.yul\":14144:14161   */\n      add\n        /* \"#utility.yul\":14137:14184   */\n      mstore\n        /* \"#utility.yul\":14201:14332   */\n      tag_327\n        /* \"#utility.yul\":14327:14331   */\n      dup2\n        /* \"#utility.yul\":14201:14332   */\n      tag_160\n      jump\t// in\n    tag_327:\n        /* \"#utility.yul\":14193:14332   */\n      swap1\n      pop\n        /* \"#utility.yul\":13920:14339   */\n      swap2\n      swap1\n      pop\n      jump\t// out\n        /* \"#utility.yul\":14345:14722   */\n    tag_161:\n        /* \"#utility.yul\":14433:14436   */\n      0x00\n        /* \"#utility.yul\":14461:14500   */\n      tag_329\n        /* \"#utility.yul\":14494:14499   */\n      dup3\n        /* \"#utility.yul\":14461:14500   */\n      tag_143\n      jump\t// in\n    tag_329:\n        /* \"#utility.yul\":14516:14587   */\n      tag_330\n        /* \"#utility.yul\":14580:14586   */\n      dup2\n        /* \"#utility.yul\":14575:14578   */\n      dup6\n        /* \"#utility.yul\":14516:14587   */\n      tag_140\n      jump\t// in\n    tag_330:\n        /* \"#utility.yul\":14509:14587   */\n      swap4\n      pop\n        /* \"#utility.yul\":14596:14661   */\n      tag_331\n        /* \"#utility.yul\":14654:14660   */\n      dup2\n        /* \"#utility.yul\":14649:14652   */\n      dup6\n        /* \"#utility.yul\":14642:14646   */\n      0x20\n        /* \"#utility.yul\":14635:14640   */\n      dup7\n        /* \"#utility.yul\":14631:14647   */\n      add\n        /* \"#utility.yul\":14596:14661   */\n      tag_145\n      jump\t// in\n    tag_331:\n        /* \"#utility.yul\":14686:14715   */\n      tag_332\n        /* \"#utility.yul\":14708:14714   */\n      dup2\n        /* \"#utility.yul\":14686:14715   */\n      tag_127\n      jump\t// in\n    tag_332:\n        /* \"#utility.yul\":14681:14684   */\n      dup5\n        /* \"#utility.yul\":14677:14716   */\n      add\n        /* \"#utility.yul\":14670:14716   */\n      swap2\n      pop\n        /* \"#utility.yul\":14437:14722   */\n      pop\n        /* \"#utility.yul\":14345:14722   */\n      swap3\n      swap2\n      pop\n      pop\n      jump\t// out\n        /* \"#utility.yul\":14728:14846   */\n    tag_162:\n        /* \"#utility.yul\":14815:14839   */\n      tag_334\n        /* \"#utility.yul\":14833:14838   */\n      dup2\n        /* \"#utility.yul\":14815:14839   */\n      tag_122\n      jump\t// in\n    tag_334:\n        /* \"#utility.yul\":14810:14813   */\n      dup3\n        /* \"#utility.yul\":14803:14840   */\n      mstore\n        /* \"#utility.yul\":14728:14846   */\n      pop\n      pop\n      jump\t// out\n        /* \"#utility.yul\":14852:15275   */\n    tag_73:\n        /* \"#utility.yul\":14993:14997   */\n      0x00\n        /* \"#utility.yul\":15031:15033   */\n      0x40\n        /* \"#utility.yul\":15020:15029   */\n      dup3\n        /* \"#utility.yul\":15016:15034   */\n      add\n        /* \"#utility.yul\":15008:15034   */\n      swap1\n      pop\n        /* \"#utility.yul\":15080:15089   */\n      dup2\n        /* \"#utility.yul\":15074:15078   */\n      dup2\n        /* \"#utility.yul\":15070:15090   */\n      sub\n        /* \"#utility.yul\":15066:15067   */\n      0x00\n        /* \"#utility.yul\":15055:15064   */\n      dup4\n        /* \"#utility.yul\":15051:15068   */\n      add\n        /* \"#utility.yul\":15044:15091   */\n      mstore\n        /* \"#utility.yul\":15108:15186   */\n      tag_336\n        /* \"#utility.yul\":15181:15185   */\n      dup2\n        /* \"#utility.yul\":15172:15178   */\n      dup6\n        /* \"#utility.yul\":15108:15186   */\n      tag_161\n      jump\t// in\n    tag_336:\n        /* \"#utility.yul\":15100:15186   */\n      swap1\n      pop\n        /* \"#utility.yul\":15196:15268   */\n      tag_337\n        /* \"#utility.yul\":15264:15266   */\n      0x20\n        /* \"#utility.yul\":15253:15262   */\n      dup4\n        /* \"#utility.yul\":15249:15267   */\n      add\n        /* \"#utility.yul\":15240:15246   */\n      dup5\n        /* \"#utility.yul\":15196:15268   */\n      tag_162\n      jump\t// in\n    tag_337:\n        /* \"#utility.yul\":14852:15275   */\n      swap4\n      swap3\n      pop\n      pop\n      pop\n      jump\t// out\n        /* \"#utility.yul\":15281:15449   */\n    tag_163:\n        /* \"#utility.yul\":15421:15441   */\n      0x4c61207461626c61207961206578697374650000000000000000000000000000\n        /* \"#utility.yul\":15417:15418   */\n      0x00\n        /* \"#utility.yul\":15409:15415   */\n      dup3\n        /* \"#utility.yul\":15405:15419   */\n      add\n        /* \"#utility.yul\":15398:15442   */\n      mstore\n        /* \"#utility.yul\":15281:15449   */\n      pop\n      jump\t// out\n        /* \"#utility.yul\":15455:15821   */\n    tag_164:\n        /* \"#utility.yul\":15597:15600   */\n      0x00\n        /* \"#utility.yul\":15618:15685   */\n      tag_340\n        /* \"#utility.yul\":15682:15684   */\n      0x12\n        /* \"#utility.yul\":15677:15680   */\n      dup4\n        /* \"#utility.yul\":15618:15685   */\n      tag_140\n      jump\t// in\n    tag_340:\n        /* \"#utility.yul\":15611:15685   */\n      swap2\n      pop\n        /* \"#utility.yul\":15694:15787   */\n      tag_341\n        /* \"#utility.yul\":15783:15786   */\n      dup3\n        /* \"#utility.yul\":15694:15787   */\n      tag_163\n      jump\t// in\n    tag_341:\n        /* \"#utility.yul\":15812:15814   */\n      0x20\n        /* \"#utility.yul\":15807:15810   */\n      dup3\n        /* \"#utility.yul\":15803:15815   */\n      add\n        /* \"#utility.yul\":15796:15815   */\n      swap1\n      pop\n        /* \"#utility.yul\":15455:15821   */\n      swap2\n      swap1\n      pop\n      jump\t// out\n        /* \"#utility.yul\":15827:16246   */\n    tag_78:\n        /* \"#utility.yul\":15993:15997   */\n      0x00\n        /* \"#utility.yul\":16031:16033   */\n      0x20\n        /* \"#utility.yul\":16020:16029   */\n      dup3\n        /* \"#utility.yul\":16016:16034   */\n      add\n        /* \"#utility.yul\":16008:16034   */\n      swap1\n      pop\n        /* \"#utility.yul\":16080:16089   */\n      dup2\n        /* \"#utility.yul\":16074:16078   */\n      dup2\n        /* \"#utility.yul\":16070:16090   */\n      sub\n        /* \"#utility.yul\":16066:16067   */\n      0x00\n        /* \"#utility.yul\":16055:16064   */\n      dup4\n        /* \"#utility.yul\":16051:16068   */\n      add\n        /* \"#utility.yul\":16044:16091   */\n      mstore\n        /* \"#utility.yul\":16108:16239   */\n      tag_343\n        /* \"#utility.yul\":16234:16238   */\n      dup2\n        /* \"#utility.yul\":16108:16239   */\n      tag_164\n      jump\t// in\n    tag_343:\n        /* \"#utility.yul\":16100:16239   */\n      swap1\n      pop\n        /* \"#utility.yul\":15827:16246   */\n      swap2\n      swap1\n      pop\n      jump\t// out\n        /* \"#utility.yul\":16252:16393   */\n    tag_165:\n        /* \"#utility.yul\":16301:16305   */\n      0x00\n        /* \"#utility.yul\":16324:16327   */\n      dup2\n        /* \"#utility.yul\":16316:16327   */\n      swap1\n      pop\n        /* \"#utility.yul\":16347:16350   */\n      dup2\n        /* \"#utility.yul\":16344:16345   */\n      0x00\n        /* \"#utility.yul\":16337:16351   */\n      mstore\n        /* \"#utility.yul\":16381:16385   */\n      0x20\n        /* \"#utility.yul\":16378:16379   */\n      0x00\n        /* \"#utility.yul\":16368:16386   */\n      keccak256\n        /* \"#utility.yul\":16360:16386   */\n      swap1\n      pop\n        /* \"#utility.yul\":16252:16393   */\n      swap2\n      swap1\n      pop\n      jump\t// out\n        /* \"#utility.yul\":16399:16492   */\n    tag_166:\n        /* \"#utility.yul\":16436:16442   */\n      0x00\n        /* \"#utility.yul\":16483:16485   */\n      0x20\n        /* \"#utility.yul\":16478:16480   */\n      0x1f\n        /* \"#utility.yul\":16471:16476   */\n      dup4\n        /* \"#utility.yul\":16467:16481   */\n      add\n        /* \"#utility.yul\":16463:16486   */\n      div\n        /* \"#utility.yul\":16453:16486   */\n      swap1\n      pop\n        /* \"#utility.yul\":16399:16492   */\n      swap2\n      swap1\n      pop\n      jump\t// out\n        /* \"#utility.yul\":16498:16605   */\n    tag_167:\n        /* \"#utility.yul\":16542:16550   */\n      0x00\n        /* \"#utility.yul\":16592:16597   */\n      dup3\n        /* \"#utility.yul\":16586:16590   */\n      dup3\n        /* \"#utility.yul\":16582:16598   */\n      shl\n        /* \"#utility.yul\":16561:16598   */\n      swap1\n      pop\n        /* \"#utility.yul\":16498:16605   */\n      swap3\n      swap2\n      pop\n      pop\n      jump\t// out\n        /* \"#utility.yul\":16611:17004   */\n    tag_168:\n        /* \"#utility.yul\":16680:16686   */\n      0x00\n        /* \"#utility.yul\":16730:16731   */\n      0x08\n        /* \"#utility.yul\":16718:16728   */\n      dup4\n        /* \"#utility.yul\":16714:16732   */\n      mul\n        /* \"#utility.yul\":16753:16850   */\n      tag_348\n        /* \"#utility.yul\":16783:16849   */\n      0xffffffffffffffffffffffffffffffffffffffffffffffffffffffffffffffff\n        /* \"#utility.yul\":16772:16781   */\n      dup3\n        /* \"#utility.yul\":16753:16850   */\n      tag_167\n      jump\t// in\n    tag_348:\n        /* \"#utility.yul\":16871:16910   */\n      tag_349\n        /* \"#utility.yul\":16901:16909   */\n      dup7\n        /* \"#utility.yul\":16890:16899   */\n      dup4\n        /* \"#utility.yul\":16871:16910   */\n      tag_167\n      jump\t// in\n    tag_349:\n        /* \"#utility.yul\":16859:16910   */\n      swap6\n      pop\n        /* \"#utility.yul\":16943:16947   */\n      dup1\n        /* \"#utility.yul\":16939:16948   */\n      not\n        /* \"#utility.yul\":16932:16937   */\n      dup5\n        /* \"#utility.yul\":16928:16949   */\n      and\n        /* \"#utility.yul\":16919:16949   */\n      swap4\n      pop\n        /* \"#utility.yul\":16992:16996   */\n      dup1\n        /* \"#utility.yul\":16982:16990   */\n      dup7\n        /* \"#utility.yul\":16978:16997   */\n      and\n        /* \"#utility.yul\":16971:16976   */\n      dup5\n        /* \"#utility.yul\":16968:16998   */\n      or\n        /* \"#utility.yul\":16958:16998   */\n      swap3\n      pop\n        /* \"#utility.yul\":16687:17004   */\n      pop\n      pop\n        /* \"#utility.yul\":16611:17004   */\n      swap4\n      swap3\n      pop\n      pop\n      pop\n      jump\t// out\n        /* \"#utility.yul\":17010:17070   */\n    tag_169:\n        /* \"#utility.yul\":17038:17041   */\n      0x00\n        /* \"#utility.yul\":17059:17064   */\n      dup2\n        /* \"#utility.yul\":17052:17064   */\n      swap1\n      pop\n        /* \"#utility.yul\":17010:17070   */\n      swap2\n      swap1\n      pop\n      jump\t// out\n        /* \"#utility.yul\":17076:17218   */\n    tag_170:\n        /* \"#utility.yul\":17126:17135   */\n      0x00\n        /* \"#utility.yul\":17159:17212   */\n      tag_352\n        /* \"#utility.yul\":17177:17211   */\n      tag_353\n        /* \"#utility.yul\":17186:17210   */\n      tag_354\n        /* \"#utility.yul\":17204:17209   */\n      dup5\n        /* \"#utility.yul\":17186:17210   */\n      tag_122\n      jump\t// in\n    tag_354:\n        /* \"#utility.yul\":17177:17211   */\n      tag_169\n      jump\t// in\n    tag_353:\n        /* \"#utility.yul\":17159:17212   */\n      tag_122\n      jump\t// in\n    tag_352:\n        /* \"#utility.yul\":17146:17212   */\n      swap1\n      pop\n        /* \"#utility.yul\":17076:17218   */\n      swap2\n      swap1\n      pop\n      jump\t// out\n        /* \"#utility.yul\":17224:17299   */\n    tag_171:\n        /* \"#utility.yul\":17267:17270   */\n      0x00\n        /* \"#utility.yul\":17288:17293   */\n      dup2\n        /* \"#utility.yul\":17281:17293   */\n      swap1\n      pop\n        /* \"#utility.yul\":17224:17299   */\n      swap2\n      swap1\n      pop\n      jump\t// out\n        /* \"#utility.yul\":17305:17574   */\n    tag_172:\n        /* \"#utility.yul\":17415:17454   */\n      tag_357\n        /* \"#utility.yul\":17446:17453   */\n      dup4\n        /* \"#utility.yul\":17415:17454   */\n      tag_170\n      jump\t// in\n    tag_357:\n        /* \"#utility.yul\":17476:17567   */\n      tag_358\n        /* \"#utility.yul\":17525:17566   */\n      tag_359\n        /* \"#utility.yul\":17549:17565   */\n      dup3\n        /* \"#utility.yul\":17525:17566   */\n      tag_171\n      jump\t// in\n    tag_359:\n        /* \"#utility.yul\":17517:17523   */\n      dup5\n        /* \"#utility.yul\":17510:17514   */\n      dup5\n        /* \"#utility.yul\":17504:17515   */\n      sload\n        /* \"#utility.yul\":17476:17567   */\n      tag_168\n      jump\t// in\n    tag_358:\n        /* \"#utility.yul\":17470:17474   */\n      dup3\n        /* \"#utility.yul\":17463:17568   */\n      sstore\n        /* \"#utility.yul\":17381:17574   */\n      pop\n        /* \"#utility.yul\":17305:17574   */\n      pop\n      pop\n      pop\n      jump\t// out\n        /* \"#utility.yul\":17580:17653   */\n    tag_173:\n        /* \"#utility.yul\":17625:17628   */\n      0x00\n        /* \"#utility.yul\":17580:17653   */\n      swap1\n      jump\t// out\n        /* \"#utility.yul\":17659:17848   */\n    tag_174:\n        /* \"#utility.yul\":17736:17768   */\n      tag_362\n      tag_173\n      jump\t// in\n    tag_362:\n        /* \"#utility.yul\":17777:17842   */\n      tag_363\n        /* \"#utility.yul\":17835:17841   */\n      dup2\n        /* \"#utility.yul\":17827:17833   */\n      dup5\n        /* \"#utility.yul\":17821:17825   */\n      dup5\n        /* \"#utility.yul\":17777:17842   */\n      tag_172\n      jump\t// in\n    tag_363:\n        /* \"#utility.yul\":17712:17848   */\n      pop\n        /* \"#utility.yul\":17659:17848   */\n      pop\n      pop\n      jump\t// out\n        /* \"#utility.yul\":17854:18040   */\n    tag_175:\n        /* \"#utility.yul\":17914:18034   */\n    tag_365:\n        /* \"#utility.yul\":17931:17934   */\n      dup2\n        /* \"#utility.yul\":17924:17929   */\n      dup2\n        /* \"#utility.yul\":17921:17935   */\n      lt\n        /* \"#utility.yul\":17914:18034   */\n      iszero\n      tag_367\n      jumpi\n        /* \"#utility.yul\":17985:18024   */\n      tag_368\n        /* \"#utility.yul\":18022:18023   */\n      0x00\n        /* \"#utility.yul\":18015:18020   */\n      dup3\n        /* \"#utility.yul\":17985:18024   */\n      tag_174\n      jump\t// in\n    tag_368:\n        /* \"#utility.yul\":17958:17959   */\n      0x01\n        /* \"#utility.yul\":17951:17956   */\n      dup2\n        /* \"#utility.yul\":17947:17960   */\n      add\n        /* \"#utility.yul\":17938:17960   */\n      swap1\n      pop\n        /* \"#utility.yul\":17914:18034   */\n      jump(tag_365)\n    tag_367:\n        /* \"#utility.yul\":17854:18040   */\n      pop\n      pop\n      jump\t// out\n        /* \"#utility.yul\":18046:18589   */\n    tag_176:\n        /* \"#utility.yul\":18147:18149   */\n      0x1f\n        /* \"#utility.yul\":18142:18145   */\n      dup3\n        /* \"#utility.yul\":18139:18150   */\n      gt\n        /* \"#utility.yul\":18136:18582   */\n      iszero\n      tag_370\n      jumpi\n        /* \"#utility.yul\":18181:18219   */\n      tag_371\n        /* \"#utility.yul\":18213:18218   */\n      dup2\n        /* \"#utility.yul\":18181:18219   */\n      tag_165\n      jump\t// in\n    tag_371:\n        /* \"#utility.yul\":18265:18294   */\n      tag_372\n        /* \"#utility.yul\":18283:18293   */\n      dup5\n        /* \"#utility.yul\":18265:18294   */\n      tag_166\n      jump\t// in\n    tag_372:\n        /* \"#utility.yul\":18255:18263   */\n      dup2\n        /* \"#utility.yul\":18251:18295   */\n      add\n        /* \"#utility.yul\":18448:18450   */\n      0x20\n        /* \"#utility.yul\":18436:18446   */\n      dup6\n        /* \"#utility.yul\":18433:18451   */\n      lt\n        /* \"#utility.yul\":18430:18479   */\n      iszero\n      tag_373\n      jumpi\n        /* \"#utility.yul\":18469:18477   */\n      dup2\n        /* \"#utility.yul\":18454:18477   */\n      swap1\n      pop\n        /* \"#utility.yul\":18430:18479   */\n    tag_373:\n        /* \"#utility.yul\":18492:18572   */\n      tag_374\n        /* \"#utility.yul\":18548:18570   */\n      tag_375\n        /* \"#utility.yul\":18566:18569   */\n      dup6\n        /* \"#utility.yul\":18548:18570   */\n      tag_166\n      jump\t// in\n    tag_375:\n        /* \"#utility.yul\":18538:18546   */\n      dup4\n        /* \"#utility.yul\":18534:18571   */\n      add\n        /* \"#utility.yul\":18521:18532   */\n      dup3\n        /* \"#utility.yul\":18492:18572   */\n      tag_175\n      jump\t// in\n    tag_374:\n        /* \"#utility.yul\":18151:18582   */\n      pop\n      pop\n        /* \"#utility.yul\":18136:18582   */\n    tag_370:\n        /* \"#utility.yul\":18046:18589   */\n      pop\n      pop\n      pop\n      jump\t// out\n        /* \"#utility.yul\":18595:18712   */\n    tag_177:\n        /* \"#utility.yul\":18649:18657   */\n      0x00\n        /* \"#utility.yul\":18699:18704   */\n      dup3\n        /* \"#utility.yul\":18693:18697   */\n      dup3\n        /* \"#utility.yul\":18689:18705   */\n      shr\n        /* \"#utility.yul\":18668:18705   */\n      swap1\n      pop\n        /* \"#utility.yul\":18595:18712   */\n      swap3\n      swap2\n      pop\n      pop\n      jump\t// out\n        /* \"#utility.yul\":18718:18887   */\n    tag_178:\n        /* \"#utility.yul\":18762:18768   */\n      0x00\n        /* \"#utility.yul\":18795:18846   */\n      tag_378\n        /* \"#utility.yul\":18843:18844   */\n      0x00\n        /* \"#utility.yul\":18839:18845   */\n      not\n        /* \"#utility.yul\":18831:18836   */\n      dup5\n        /* \"#utility.yul\":18828:18829   */\n      0x08\n        /* \"#utility.yul\":18824:18837   */\n      mul\n        /* \"#utility.yul\":18795:18846   */\n      tag_177\n      jump\t// in\n    tag_378:\n        /* \"#utility.yul\":18791:18847   */\n      not\n        /* \"#utility.yul\":18876:18880   */\n      dup1\n        /* \"#utility.yul\":18870:18874   */\n      dup4\n        /* \"#utility.yul\":18866:18881   */\n      and\n        /* \"#utility.yul\":18856:18881   */\n      swap2\n      pop\n        /* \"#utility.yul\":18769:18887   */\n      pop\n        /* \"#utility.yul\":18718:18887   */\n      swap3\n      swap2\n      pop\n      pop\n      jump\t// out\n        /* \"#utility.yul\":18892:19187   */\n    tag_179:\n        /* \"#utility.yul\":18968:18972   */\n      0x00\n        /* \"#utility.yul\":19114:19143   */\n      tag_380\n        /* \"#utility.yul\":19139:19142   */\n      dup4\n        /* \"#utility.yul\":19133:19137   */\n      dup4\n        /* \"#utility.yul\":19114:19143   */\n      tag_178\n      jump\t// in\n    tag_380:\n        /* \"#utility.yul\":19106:19143   */\n      swap2\n      pop\n        /* \"#utility.yul\":19176:19179   */\n      dup3\n        /* \"#utility.yul\":19173:19174   */\n      0x02\n        /* \"#utility.yul\":19169:19180   */\n      mul\n        /* \"#utility.yul\":19163:19167   */\n      dup3\n        /* \"#utility.yul\":19160:19181   */\n      or\n        /* \"#utility.yul\":19152:19181   */\n      swap1\n      pop\n        /* \"#utility.yul\":18892:19187   */\n      swap3\n      swap2\n      pop\n      pop\n      jump\t// out\n        /* \"#utility.yul\":19192:20587   */\n    tag_83:\n        /* \"#utility.yul\":19309:19346   */\n      tag_382\n        /* \"#utility.yul\":19342:19345   */\n      dup3\n        /* \"#utility.yul\":19309:19346   */\n      tag_143\n      jump\t// in\n    tag_382:\n        /* \"#utility.yul\":19411:19429   */\n      0xffffffffffffffff\n        /* \"#utility.yul\":19403:19409   */\n      dup2\n        /* \"#utility.yul\":19400:19430   */\n      gt\n        /* \"#utility.yul\":19397:19453   */\n      iszero\n      tag_383\n      jumpi\n        /* \"#utility.yul\":19433:19451   */\n      tag_384\n      tag_51\n      jump\t// in\n    tag_384:\n        /* \"#utility.yul\":19397:19453   */\n    tag_383:\n        /* \"#utility.yul\":19477:19515   */\n      tag_385\n        /* \"#utility.yul\":19509:19513   */\n      dup3\n        /* \"#utility.yul\":19503:19514   */\n      sload\n        /* \"#utility.yul\":19477:19515   */\n      tag_41\n      jump\t// in\n    tag_385:\n        /* \"#utility.yul\":19562:19629   */\n      tag_386\n        /* \"#utility.yul\":19622:19628   */\n      dup3\n        /* \"#utility.yul\":19614:19620   */\n      dup3\n        /* \"#utility.yul\":19608:19612   */\n      dup6\n        /* \"#utility.yul\":19562:19629   */\n      tag_176\n      jump\t// in\n    tag_386:\n        /* \"#utility.yul\":19656:19657   */\n      0x00\n        /* \"#utility.yul\":19680:19684   */\n      0x20\n        /* \"#utility.yul\":19667:19684   */\n      swap1\n      pop\n        /* \"#utility.yul\":19712:19714   */\n      0x1f\n        /* \"#utility.yul\":19704:19710   */\n      dup4\n        /* \"#utility.yul\":19701:19715   */\n      gt\n        /* \"#utility.yul\":19729:19730   */\n      0x01\n        /* \"#utility.yul\":19724:20342   */\n      dup2\n      eq\n      tag_388\n      jumpi\n        /* \"#utility.yul\":20386:20387   */\n      0x00\n        /* \"#utility.yul\":20403:20409   */\n      dup5\n        /* \"#utility.yul\":20400:20477   */\n      iszero\n      tag_389\n      jumpi\n        /* \"#utility.yul\":20452:20461   */\n      dup3\n        /* \"#utility.yul\":20447:20450   */\n      dup8\n        /* \"#utility.yul\":20443:20462   */\n      add\n        /* \"#utility.yul\":20437:20463   */\n      mload\n        /* \"#utility.yul\":20428:20463   */\n      swap1\n      pop\n        /* \"#utility.yul\":20400:20477   */\n    tag_389:\n        /* \"#utility.yul\":20503:20570   */\n      tag_390\n        /* \"#utility.yul\":20563:20569   */\n      dup6\n        /* \"#utility.yul\":20556:20561   */\n      dup3\n        /* \"#utility.yul\":20503:20570   */\n      tag_179\n      jump\t// in\n    tag_390:\n        /* \"#utility.yul\":20497:20501   */\n      dup7\n        /* \"#utility.yul\":20490:20571   */\n      sstore\n        /* \"#utility.yul\":20359:20581   */\n      pop\n        /* \"#utility.yul\":19694:20581   */\n      jump(tag_387)\n        /* \"#utility.yul\":19724:20342   */\n    tag_388:\n        /* \"#utility.yul\":19776:19780   */\n      0x1f\n        /* \"#utility.yul\":19772:19781   */\n      not\n        /* \"#utility.yul\":19764:19770   */\n      dup5\n        /* \"#utility.yul\":19760:19782   */\n      and\n        /* \"#utility.yul\":19810:19847   */\n      tag_391\n        /* \"#utility.yul\":19842:19846   */\n      dup7\n        /* \"#utility.yul\":19810:19847   */\n      tag_165\n      jump\t// in\n    tag_391:\n        /* \"#utility.yul\":19869:19870   */\n      0x00\n        /* \"#utility.yul\":19883:20091   */\n    tag_392:\n        /* \"#utility.yul\":19897:19904   */\n      dup3\n        /* \"#utility.yul\":19894:19895   */\n      dup2\n        /* \"#utility.yul\":19891:19905   */\n      lt\n        /* \"#utility.yul\":19883:20091   */\n      iszero\n      tag_394\n      jumpi\n        /* \"#utility.yul\":19976:19985   */\n      dup5\n        /* \"#utility.yul\":19971:19974   */\n      dup10\n        /* \"#utility.yul\":19967:19986   */\n      add\n        /* \"#utility.yul\":19961:19987   */\n      mload\n        /* \"#utility.yul\":19953:19959   */\n      dup3\n        /* \"#utility.yul\":19946:19988   */\n      sstore\n        /* \"#utility.yul\":20027:20028   */\n      0x01\n        /* \"#utility.yul\":20019:20025   */\n      dup3\n        /* \"#utility.yul\":20015:20029   */\n      add\n        /* \"#utility.yul\":20005:20029   */\n      swap2\n      pop\n        /* \"#utility.yul\":20074:20076   */\n      0x20\n        /* \"#utility.yul\":20063:20072   */\n      dup6\n        /* \"#utility.yul\":20059:20077   */\n      add\n        /* \"#utility.yul\":20046:20077   */\n      swap5\n      pop\n        /* \"#utility.yul\":19920:19924   */\n      0x20\n        /* \"#utility.yul\":19917:19918   */\n      dup2\n        /* \"#utility.yul\":19913:19925   */\n      add\n        /* \"#utility.yul\":19908:19925   */\n      swap1\n      pop\n        /* \"#utility.yul\":19883:20091   */\n      jump(tag_392)\n    tag_394:\n        /* \"#utility.yul\":20119:20125   */\n      dup7\n        /* \"#utility.yul\":20110:20117   */\n      dup4\n        /* \"#utility.yul\":20107:20126   */\n      lt\n        /* \"#utility.yul\":20104:20283   */\n      iszero\n      tag_395\n      jumpi\n        /* \"#utility.yul\":20177:20186   */\n      dup5\n        /* \"#utility.yul\":20172:20175   */\n      dup10\n        /* \"#utility.yul\":20168:20187   */\n      add\n        /* \"#utility.yul\":20162:20188   */\n      mload\n        /* \"#utility.yul\":20220:20268   */\n      tag_396\n        /* \"#utility.yul\":20262:20266   */\n      0x1f\n        /* \"#utility.yul\":20254:20260   */\n      dup10\n        /* \"#utility.yul\":20250:20267   */\n      and\n        /* \"#utility.yul\":20239:20248   */\n      dup3\n        /* \"#utility.yul\":20220:20268   */\n      tag_178\n      jump\t// in\n    tag_396:\n        /* \"#utility.yul\":20212:20218   */\n      dup4\n        /* \"#utility.yul\":20205:20269   */\n      sstore\n        /* \"#utility.yul\":20127:20283   */\n      pop\n        /* \"#utility.yul\":20104:20283   */\n    tag_395:\n        /* \"#utility.yul\":20329:20330   */\n      0x01\n        /* \"#utility.yul\":20325:20326   */\n      0x02\n        /* \"#utility.yul\":20317:20323   */\n      dup9\n        /* \"#utility.yul\":20313:20327   */\n      mul\n        /* \"#utility.yul\":20309:20331   */\n      add\n        /* \"#utility.yul\":20303:20307   */\n      dup9\n        /* \"#utility.yul\":20296:20332   */\n      sstore\n        /* \"#utility.yul\":19731:20342   */\n      pop\n      pop\n      pop\n        /* \"#utility.yul\":19694:20581   */\n    tag_387:\n      pop\n        /* \"#utility.yul\":19284:20587   */\n      pop\n      pop\n      pop\n        /* \"#utility.yul\":19192:20587   */\n      pop\n      pop\n      jump\t// out\n        /* \"#utility.yul\":20593:20925   */\n    tag_85:\n        /* \"#utility.yul\":20714:20718   */\n      0x00\n        /* \"#utility.yul\":20752:20754   */\n      0x40\n        /* \"#utility.yul\":20741:20750   */\n      dup3\n        /* \"#utility.yul\":20737:20755   */\n      add\n        /* \"#utility.yul\":20729:20755   */\n      swap1\n      pop\n        /* \"#utility.yul\":20765:20836   */\n      tag_398\n        /* \"#utility.yul\":20833:20834   */\n      0x00\n        /* \"#utility.yul\":20822:20831   */\n      dup4\n        /* \"#utility.yul\":20818:20835   */\n      add\n        /* \"#utility.yul\":20809:20815   */\n      dup6\n        /* \"#utility.yul\":20765:20836   */\n      tag_116\n      jump\t// in\n    tag_398:\n        /* \"#utility.yul\":20846:20918   */\n      tag_399\n        /* \"#utility.yul\":20914:20916   */\n      0x20\n        /* \"#utility.yul\":20903:20912   */\n      dup4\n        /* \"#utility.yul\":20899:20917   */\n      add\n        /* \"#utility.yul\":20890:20896   */\n      dup5\n        /* \"#utility.yul\":20846:20918   */\n      tag_162\n      jump\t// in\n    tag_399:\n        /* \"#utility.yul\":20593:20925   */\n      swap4\n      swap3\n      pop\n      pop\n      pop\n      jump\t// out\n        /* \"#utility.yul\":20931:21111   */\n    tag_89:\n        /* \"#utility.yul\":20979:21056   */\n      0x4e487b7100000000000000000000000000000000000000000000000000000000\n        /* \"#utility.yul\":20976:20977   */\n      0x00\n        /* \"#utility.yul\":20969:21057   */\n      mstore\n        /* \"#utility.yul\":21076:21080   */\n      0x21\n        /* \"#utility.yul\":21073:21074   */\n      0x04\n        /* \"#utility.yul\":21066:21081   */\n      mstore\n        /* \"#utility.yul\":21100:21104   */\n      0x24\n        /* \"#utility.yul\":21097:21098   */\n      0x00\n        /* \"#utility.yul\":21090:21105   */\n      revert\n        /* \"#utility.yul\":21117:21286   */\n    tag_180:\n        /* \"#utility.yul\":21257:21278   */\n      0x4f7065726174696f6e206e6f742076616c696400000000000000000000000000\n        /* \"#utility.yul\":21253:21254   */\n      0x00\n        /* \"#utility.yul\":21245:21251   */\n      dup3\n        /* \"#utility.yul\":21241:21255   */\n      add\n        /* \"#utility.yul\":21234:21279   */\n      mstore\n        /* \"#utility.yul\":21117:21286   */\n      pop\n      jump\t// out\n        /* \"#utility.yul\":21292:21658   */\n    tag_181:\n        /* \"#utility.yul\":21434:21437   */\n      0x00\n        /* \"#utility.yul\":21455:21522   */\n      tag_403\n        /* \"#utility.yul\":21519:21521   */\n      0x13\n        /* \"#utility.yul\":21514:21517   */\n      dup4\n        /* \"#utility.yul\":21455:21522   */\n      tag_140\n      jump\t// in\n    tag_403:\n        /* \"#utility.yul\":21448:21522   */\n      swap2\n      pop\n        /* \"#utility.yul\":21531:21624   */\n      tag_404\n        /* \"#utility.yul\":21620:21623   */\n      dup3\n        /* \"#utility.yul\":21531:21624   */\n      tag_180\n      jump\t// in\n    tag_404:\n        /* \"#utility.yul\":21649:21651   */\n      0x20\n        /* \"#utility.yul\":21644:21647   */\n      dup3\n        /* \"#utility.yul\":21640:21652   */\n      add\n        /* \"#utility.yul\":21633:21652   */\n      swap1\n      pop\n        /* \"#utility.yul\":21292:21658   */\n      swap2\n      swap1\n      pop\n      jump\t// out\n        /* \"#utility.yul\":21664:22083   */\n    tag_113:\n        /* \"#utility.yul\":21830:21834   */\n      0x00\n        /* \"#utility.yul\":21868:21870   */\n      0x20\n        /* \"#utility.yul\":21857:21866   */\n      dup3\n        /* \"#utility.yul\":21853:21871   */\n      add\n        /* \"#utility.yul\":21845:21871   */\n      swap1\n      pop\n        /* \"#utility.yul\":21917:21926   */\n      dup2\n        /* \"#utility.yul\":21911:21915   */\n      dup2\n        /* \"#utility.yul\":21907:21927   */\n      sub\n        /* \"#utility.yul\":21903:21904   */\n      0x00\n        /* \"#utility.yul\":21892:21901   */\n      dup4\n        /* \"#utility.yul\":21888:21905   */\n      add\n        /* \"#utility.yul\":21881:21928   */\n      mstore\n        /* \"#utility.yul\":21945:22076   */\n      tag_406\n        /* \"#utility.yul\":22071:22075   */\n      dup2\n        /* \"#utility.yul\":21945:22076   */\n      tag_181\n      jump\t// in\n    tag_406:\n        /* \"#utility.yul\":21937:22076   */\n      swap1\n      pop\n        /* \"#utility.yul\":21664:22083   */\n      swap2\n      swap1\n      pop\n      jump\t// out\n\n    auxdata: 0xa26469706673582212202ce984730a9311f90e17806110274c313ffa31d6b4ad34f9817a82ebb903829564736f6c63430008190033\n}\n",
				"bytecode": {
					"linkReferences": {},
					"object": "608060405234801561000f575f80fd5b5060405161159138038061159183398181016040528101906100319190610233565b5f8473ffffffffffffffffffffffffffffffffffffffff163b1461005857610057610297565b5b5f8373ffffffffffffffffffffffffffffffffffffffff163b1461007f5761007e610297565b5b5f8273ffffffffffffffffffffffffffffffffffffffff163b146100a6576100a5610297565b5b5f8173ffffffffffffffffffffffffffffffffffffffff163b146100cd576100cc610297565b5b835f806101000a81548173ffffffffffffffffffffffffffffffffffffffff021916908373ffffffffffffffffffffffffffffffffffffffff1602179055508260035f6101000a81548173ffffffffffffffffffffffffffffffffffffffff021916908373ffffffffffffffffffffffffffffffffffffffff1602179055508160015f6101000a81548173ffffffffffffffffffffffffffffffffffffffff021916908373ffffffffffffffffffffffffffffffffffffffff1602179055508060025f6101000a81548173ffffffffffffffffffffffffffffffffffffffff021916908373ffffffffffffffffffffffffffffffffffffffff160217905550505050506102c4565b5f80fd5b5f73ffffffffffffffffffffffffffffffffffffffff82169050919050565b5f610202826101d9565b9050919050565b610212816101f8565b811461021c575f80fd5b50565b5f8151905061022d81610209565b92915050565b5f805f806080858703121561024b5761024a6101d5565b5b5f6102588782880161021f565b94505060206102698782880161021f565b935050604061027a8782880161021f565b925050606061028b8782880161021f565b91505092959194509250565b7f4e487b71000000000000000000000000000000000000000000000000000000005f52600160045260245ffd5b6112c0806102d15f395ff3fe608060405234801561000f575f80fd5b506004361061007b575f3560e01c80636543e213116100595780636543e213146100eb5780639251dba314610107578063dc6ad19e14610125578063eb96ffd6146101415761007b565b8063031e0f211461007f578063093892be1461009d57806357a9321b146100cd575b5f80fd5b61008761015f565b60405161009491906107b9565b60405180910390f35b6100b760048036038101906100b29190610975565b610182565b6040516100c49190610a0f565b60405180910390f35b6100d561045e565b6040516100e291906107b9565b60405180910390f35b61010560048036038101906101009190610ac6565b610483565b005b61010f610543565b60405161011c91906107b9565b60405180910390f35b61013f600480360381019061013a9190610ac6565b610568565b005b6101496105c4565b60405161015691906107b9565b60405180910390f35b5f8054906101000a900473ffffffffffffffffffffffffffffffffffffffff1681565b5f8061018d866105e9565b90505f60065f8781526020019081526020015f2080546101ac90610b4d565b80601f01602080910402602001604051908101604052809291908181526020018280546101d890610b4d565b80156102235780601f106101fa57610100808354040283529160200191610223565b820191905f5260205f20905b81548152906001019060200180831161020657829003601f168201915b505050505090505f81510361026d576040517f08c379a000000000000000000000000000000000000000000000000000000000815260040161026490610bd7565b60405180910390fd5b5f600367ffffffffffffffff81111561028957610288610851565b5b6040519080825280602002602001820160405280156102b75781602001602082028036833780820191505090505b50905085815f815181106102ce576102cd610bf5565b5b6020026020010181815250506005826040516102ea9190610c74565b9081526020016040518091039020548160018151811061030d5761030c610bf5565b5b602002602001018181525050868160028151811061032e5761032d610bf5565b5b6020026020010181815250508273ffffffffffffffffffffffffffffffffffffffff16631e8e1e1386836040518363ffffffff1660e01b8152600401610375929190610d93565b602060405180830381865afa158015610390573d5f803e3d5ffd5b505050506040513d601f19601f820116820180604052508101906103b49190610df2565b6103f3576040517f08c379a00000000000000000000000000000000000000000000000000000000081526004016103ea90610e67565b60405180910390fd5b856005836040516104049190610c74565b9081526020016040518091039020819055507fb3b3b1b935c13b8259ef760ae6538d44cc98c9c394d621d8807add6817a463658287604051610447929190610ecc565b60405180910390a160019350505050949350505050565b60015f9054906101000a900473ffffffffffffffffffffffffffffffffffffffff1681565b5f6005836040516104949190610c74565b908152602001604051809103902054146104e3576040517f08c379a00000000000000000000000000000000000000000000000000000000081526004016104da90610f44565b60405180910390fd5b806005836040516104f49190610c74565b9081526020016040518091039020819055507f0b71b7291a9fc3a0721b1959743945de91156f701b493bac77dcfaeba05cd8d38282604051610537929190610ecc565b60405180910390a15050565b60035f9054906101000a900473ffffffffffffffffffffffffffffffffffffffff1681565b8160065f8381526020019081526020015f20908161058691906110ff565b507fe42038eda0238692da8d8c200345a40ed84f713f2b07bfdfe04eda8824caabb833826040516105b89291906111ce565b60405180910390a15050565b60025f9054906101000a900473ffffffffffffffffffffffffffffffffffffffff1681565b5f8060038111156105fd576105fc6111f5565b5b8260038111156106105761060f6111f5565b5b0361063e5760015f9054906101000a900473ffffffffffffffffffffffffffffffffffffffff169050610775565b60016003811115610652576106516111f5565b5b826003811115610665576106646111f5565b5b03610691575f8054906101000a900473ffffffffffffffffffffffffffffffffffffffff169050610775565b600260038111156106a5576106a46111f5565b5b8260038111156106b8576106b76111f5565b5b036106e65760025f9054906101000a900473ffffffffffffffffffffffffffffffffffffffff169050610775565b6003808111156106f9576106f86111f5565b5b82600381111561070c5761070b6111f5565b5b0361073a5760035f9054906101000a900473ffffffffffffffffffffffffffffffffffffffff169050610775565b6040517f08c379a000000000000000000000000000000000000000000000000000000000815260040161076c9061126c565b60405180910390fd5b919050565b5f73ffffffffffffffffffffffffffffffffffffffff82169050919050565b5f6107a38261077a565b9050919050565b6107b381610799565b82525050565b5f6020820190506107cc5f8301846107aa565b92915050565b5f604051905090565b5f80fd5b5f80fd5b600481106107ef575f80fd5b50565b5f81359050610800816107e3565b92915050565b5f819050919050565b61081881610806565b8114610822575f80fd5b50565b5f813590506108338161080f565b92915050565b5f80fd5b5f80fd5b5f601f19601f8301169050919050565b7f4e487b71000000000000000000000000000000000000000000000000000000005f52604160045260245ffd5b61088782610841565b810181811067ffffffffffffffff821117156108a6576108a5610851565b5b80604052505050565b5f6108b86107d2565b90506108c4828261087e565b919050565b5f67ffffffffffffffff8211156108e3576108e2610851565b5b6108ec82610841565b9050602081019050919050565b828183375f83830152505050565b5f610919610914846108c9565b6108af565b9050828152602081018484840111156109355761093461083d565b5b6109408482856108f9565b509392505050565b5f82601f83011261095c5761095b610839565b5b813561096c848260208601610907565b91505092915050565b5f805f806080858703121561098d5761098c6107db565b5b5f61099a878288016107f2565b94505060206109ab87828801610825565b93505060406109bc87828801610825565b925050606085013567ffffffffffffffff8111156109dd576109dc6107df565b5b6109e987828801610948565b91505092959194509250565b5f8115159050919050565b610a09816109f5565b82525050565b5f602082019050610a225f830184610a00565b92915050565b5f67ffffffffffffffff821115610a4257610a41610851565b5b610a4b82610841565b9050602081019050919050565b5f610a6a610a6584610a28565b6108af565b905082815260208101848484011115610a8657610a8561083d565b5b610a918482856108f9565b509392505050565b5f82601f830112610aad57610aac610839565b5b8135610abd848260208601610a58565b91505092915050565b5f8060408385031215610adc57610adb6107db565b5b5f83013567ffffffffffffffff811115610af957610af86107df565b5b610b0585828601610a99565b9250506020610b1685828601610825565b9150509250929050565b7f4e487b71000000000000000000000000000000000000000000000000000000005f52602260045260245ffd5b5f6002820490506001821680610b6457607f821691505b602082108103610b7757610b76610b20565b5b50919050565b5f82825260208201905092915050565b7f5265717565737420756e6b6e6f776e00000000000000000000000000000000005f82015250565b5f610bc1600f83610b7d565b9150610bcc82610b8d565b602082019050919050565b5f6020820190508181035f830152610bee81610bb5565b9050919050565b7f4e487b71000000000000000000000000000000000000000000000000000000005f52603260045260245ffd5b5f81519050919050565b5f81905092915050565b8281835e5f83830152505050565b5f610c4e82610c22565b610c588185610c2c565b9350610c68818560208601610c36565b80840191505092915050565b5f610c7f8284610c44565b915081905092915050565b5f81519050919050565b5f82825260208201905092915050565b5f610cae82610c8a565b610cb88185610c94565b9350610cc8818560208601610c36565b610cd181610841565b840191505092915050565b5f81519050919050565b5f82825260208201905092915050565b5f819050602082019050919050565b610d0e81610806565b82525050565b5f610d1f8383610d05565b60208301905092915050565b5f602082019050919050565b5f610d4182610cdc565b610d4b8185610ce6565b9350610d5683610cf6565b805f5b83811015610d86578151610d6d8882610d14565b9750610d7883610d2b565b925050600181019050610d59565b5085935050505092915050565b5f6040820190508181035f830152610dab8185610ca4565b90508181036020830152610dbf8184610d37565b90509392505050565b610dd1816109f5565b8114610ddb575f80fd5b50565b5f81519050610dec81610dc8565b92915050565b5f60208284031215610e0757610e066107db565b5b5f610e1484828501610dde565b91505092915050565b7f534e41524b20766572696669636174696f6e206661696c6564000000000000005f82015250565b5f610e51601983610b7d565b9150610e5c82610e1d565b602082019050919050565b5f6020820190508181035f830152610e7e81610e45565b9050919050565b5f610e8f82610c22565b610e998185610b7d565b9350610ea9818560208601610c36565b610eb281610841565b840191505092915050565b610ec681610806565b82525050565b5f6040820190508181035f830152610ee48185610e85565b9050610ef36020830184610ebd565b9392505050565b7f4c61207461626c612079612065786973746500000000000000000000000000005f82015250565b5f610f2e601283610b7d565b9150610f3982610efa565b602082019050919050565b5f6020820190508181035f830152610f5b81610f22565b9050919050565b5f819050815f5260205f209050919050565b5f6020601f8301049050919050565b5f82821b905092915050565b5f60088302610fbe7fffffffffffffffffffffffffffffffffffffffffffffffffffffffffffffffff82610f83565b610fc88683610f83565b95508019841693508086168417925050509392505050565b5f819050919050565b5f611003610ffe610ff984610806565b610fe0565b610806565b9050919050565b5f819050919050565b61101c83610fe9565b6110306110288261100a565b848454610f8f565b825550505050565b5f90565b611044611038565b61104f818484611013565b505050565b5b81811015611072576110675f8261103c565b600181019050611055565b5050565b601f8211156110b75761108881610f62565b61109184610f74565b810160208510156110a0578190505b6110b46110ac85610f74565b830182611054565b50505b505050565b5f82821c905092915050565b5f6110d75f19846008026110bc565b1980831691505092915050565b5f6110ef83836110c8565b9150826002028217905092915050565b61110882610c22565b67ffffffffffffffff81111561112157611120610851565b5b61112b8254610b4d565b611136828285611076565b5f60209050601f831160018114611167575f8415611155578287015190505b61115f85826110e4565b8655506111c6565b601f19841661117586610f62565b5f5b8281101561119c57848901518255600182019150602085019450602081019050611177565b868310156111b957848901516111b5601f8916826110c8565b8355505b6001600288020188555050505b505050505050565b5f6040820190506111e15f8301856107aa565b6111ee6020830184610ebd565b9392505050565b7f4e487b71000000000000000000000000000000000000000000000000000000005f52602160045260245ffd5b7f4f7065726174696f6e206e6f742076616c6964000000000000000000000000005f82015250565b5f611256601383610b7d565b915061126182611222565b602082019050919050565b5f6020820190508181035f8301526112838161124a565b905091905056fea26469706673582212202ce984730a9311f90e17806110274c313ffa31d6b4ad34f9817a82ebb903829564736f6c63430008190033",
					"opcodes": "PUSH1 0x80 PUSH1 0x40 MSTORE CALLVALUE DUP1 ISZERO PUSH2 0xF JUMPI PUSH0 DUP1 REVERT JUMPDEST POP PUSH1 0x40 MLOAD PUSH2 0x1591 CODESIZE SUB DUP1 PUSH2 0x1591 DUP4 CODECOPY DUP2 DUP2 ADD PUSH1 0x40 MSTORE DUP2 ADD SWAP1 PUSH2 0x31 SWAP2 SWAP1 PUSH2 0x233 JUMP JUMPDEST PUSH0 DUP5 PUSH20 0xFFFFFFFFFFFFFFFFFFFFFFFFFFFFFFFFFFFFFFFF AND EXTCODESIZE EQ PUSH2 0x58 JUMPI PUSH2 0x57 PUSH2 0x297 JUMP JUMPDEST JUMPDEST PUSH0 DUP4 PUSH20 0xFFFFFFFFFFFFFFFFFFFFFFFFFFFFFFFFFFFFFFFF AND EXTCODESIZE EQ PUSH2 0x7F JUMPI PUSH2 0x7E PUSH2 0x297 JUMP JUMPDEST JUMPDEST PUSH0 DUP3 PUSH20 0xFFFFFFFFFFFFFFFFFFFFFFFFFFFFFFFFFFFFFFFF AND EXTCODESIZE EQ PUSH2 0xA6 JUMPI PUSH2 0xA5 PUSH2 0x297 JUMP JUMPDEST JUMPDEST PUSH0 DUP2 PUSH20 0xFFFFFFFFFFFFFFFFFFFFFFFFFFFFFFFFFFFFFFFF AND EXTCODESIZE EQ PUSH2 0xCD JUMPI PUSH2 0xCC PUSH2 0x297 JUMP JUMPDEST JUMPDEST DUP4 PUSH0 DUP1 PUSH2 0x100 EXP DUP2 SLOAD DUP2 PUSH20 0xFFFFFFFFFFFFFFFFFFFFFFFFFFFFFFFFFFFFFFFF MUL NOT AND SWAP1 DUP4 PUSH20 0xFFFFFFFFFFFFFFFFFFFFFFFFFFFFFFFFFFFFFFFF AND MUL OR SWAP1 SSTORE POP DUP3 PUSH1 0x3 PUSH0 PUSH2 0x100 EXP DUP2 SLOAD DUP2 PUSH20 0xFFFFFFFFFFFFFFFFFFFFFFFFFFFFFFFFFFFFFFFF MUL NOT AND SWAP1 DUP4 PUSH20 0xFFFFFFFFFFFFFFFFFFFFFFFFFFFFFFFFFFFFFFFF AND MUL OR SWAP1 SSTORE POP DUP2 PUSH1 0x1 PUSH0 PUSH2 0x100 EXP DUP2 SLOAD DUP2 PUSH20 0xFFFFFFFFFFFFFFFFFFFFFFFFFFFFFFFFFFFFFFFF MUL NOT AND SWAP1 DUP4 PUSH20 0xFFFFFFFFFFFFFFFFFFFFFFFFFFFFFFFFFFFFFFFF AND MUL OR SWAP1 SSTORE POP DUP1 PUSH1 0x2 PUSH0 PUSH2 0x100 EXP DUP2 SLOAD DUP2 PUSH20 0xFFFFFFFFFFFFFFFFFFFFFFFFFFFFFFFFFFFFFFFF MUL NOT AND SWAP1 DUP4 PUSH20 0xFFFFFFFFFFFFFFFFFFFFFFFFFFFFFFFFFFFFFFFF AND MUL OR SWAP1 SSTORE POP POP POP POP POP PUSH2 0x2C4 JUMP JUMPDEST PUSH0 DUP1 REVERT JUMPDEST PUSH0 PUSH20 0xFFFFFFFFFFFFFFFFFFFFFFFFFFFFFFFFFFFFFFFF DUP3 AND SWAP1 POP SWAP2 SWAP1 POP JUMP JUMPDEST PUSH0 PUSH2 0x202 DUP3 PUSH2 0x1D9 JUMP JUMPDEST SWAP1 POP SWAP2 SWAP1 POP JUMP JUMPDEST PUSH2 0x212 DUP2 PUSH2 0x1F8 JUMP JUMPDEST DUP2 EQ PUSH2 0x21C JUMPI PUSH0 DUP1 REVERT JUMPDEST POP JUMP JUMPDEST PUSH0 DUP2 MLOAD SWAP1 POP PUSH2 0x22D DUP2 PUSH2 0x209 JUMP JUMPDEST SWAP3 SWAP2 POP POP JUMP JUMPDEST PUSH0 DUP1 PUSH0 DUP1 PUSH1 0x80 DUP6 DUP8 SUB SLT ISZERO PUSH2 0x24B JUMPI PUSH2 0x24A PUSH2 0x1D5 JUMP JUMPDEST JUMPDEST PUSH0 PUSH2 0x258 DUP8 DUP3 DUP9 ADD PUSH2 0x21F JUMP JUMPDEST SWAP5 POP POP PUSH1 0x20 PUSH2 0x269 DUP8 DUP3 DUP9 ADD PUSH2 0x21F JUMP JUMPDEST SWAP4 POP POP PUSH1 0x40 PUSH2 0x27A DUP8 DUP3 DUP9 ADD PUSH2 0x21F JUMP JUMPDEST SWAP3 POP POP PUSH1 0x60 PUSH2 0x28B DUP8 DUP3 DUP9 ADD PUSH2 0x21F JUMP JUMPDEST SWAP2 POP POP SWAP3 SWAP6 SWAP2 SWAP5 POP SWAP3 POP JUMP JUMPDEST PUSH32 0x4E487B7100000000000000000000000000000000000000000000000000000000 PUSH0 MSTORE PUSH1 0x1 PUSH1 0x4 MSTORE PUSH1 0x24 PUSH0 REVERT JUMPDEST PUSH2 0x12C0 DUP1 PUSH2 0x2D1 PUSH0 CODECOPY PUSH0 RETURN INVALID PUSH1 0x80 PUSH1 0x40 MSTORE CALLVALUE DUP1 ISZERO PUSH2 0xF JUMPI PUSH0 DUP1 REVERT JUMPDEST POP PUSH1 0x4 CALLDATASIZE LT PUSH2 0x7B JUMPI PUSH0 CALLDATALOAD PUSH1 0xE0 SHR DUP1 PUSH4 0x6543E213 GT PUSH2 0x59 JUMPI DUP1 PUSH4 0x6543E213 EQ PUSH2 0xEB JUMPI DUP1 PUSH4 0x9251DBA3 EQ PUSH2 0x107 JUMPI DUP1 PUSH4 0xDC6AD19E EQ PUSH2 0x125 JUMPI DUP1 PUSH4 0xEB96FFD6 EQ PUSH2 0x141 JUMPI PUSH2 0x7B JUMP JUMPDEST DUP1 PUSH4 0x31E0F21 EQ PUSH2 0x7F JUMPI DUP1 PUSH4 0x93892BE EQ PUSH2 0x9D JUMPI DUP1 PUSH4 0x57A9321B EQ PUSH2 0xCD JUMPI JUMPDEST PUSH0 DUP1 REVERT JUMPDEST PUSH2 0x87 PUSH2 0x15F JUMP JUMPDEST PUSH1 0x40 MLOAD PUSH2 0x94 SWAP2 SWAP1 PUSH2 0x7B9 JUMP JUMPDEST PUSH1 0x40 MLOAD DUP1 SWAP2 SUB SWAP1 RETURN JUMPDEST PUSH2 0xB7 PUSH1 0x4 DUP1 CALLDATASIZE SUB DUP2 ADD SWAP1 PUSH2 0xB2 SWAP2 SWAP1 PUSH2 0x975 JUMP JUMPDEST PUSH2 0x182 JUMP JUMPDEST PUSH1 0x40 MLOAD PUSH2 0xC4 SWAP2 SWAP1 PUSH2 0xA0F JUMP JUMPDEST PUSH1 0x40 MLOAD DUP1 SWAP2 SUB SWAP1 RETURN JUMPDEST PUSH2 0xD5 PUSH2 0x45E JUMP JUMPDEST PUSH1 0x40 MLOAD PUSH2 0xE2 SWAP2 SWAP1 PUSH2 0x7B9 JUMP JUMPDEST PUSH1 0x40 MLOAD DUP1 SWAP2 SUB SWAP1 RETURN JUMPDEST PUSH2 0x105 PUSH1 0x4 DUP1 CALLDATASIZE SUB DUP2 ADD SWAP1 PUSH2 0x100 SWAP2 SWAP1 PUSH2 0xAC6 JUMP JUMPDEST PUSH2 0x483 JUMP JUMPDEST STOP JUMPDEST PUSH2 0x10F PUSH2 0x543 JUMP JUMPDEST PUSH1 0x40 MLOAD PUSH2 0x11C SWAP2 SWAP1 PUSH2 0x7B9 JUMP JUMPDEST PUSH1 0x40 MLOAD DUP1 SWAP2 SUB SWAP1 RETURN JUMPDEST PUSH2 0x13F PUSH1 0x4 DUP1 CALLDATASIZE SUB DUP2 ADD SWAP1 PUSH2 0x13A SWAP2 SWAP1 PUSH2 0xAC6 JUMP JUMPDEST PUSH2 0x568 JUMP JUMPDEST STOP JUMPDEST PUSH2 0x149 PUSH2 0x5C4 JUMP JUMPDEST PUSH1 0x40 MLOAD PUSH2 0x156 SWAP2 SWAP1 PUSH2 0x7B9 JUMP JUMPDEST PUSH1 0x40 MLOAD DUP1 SWAP2 SUB SWAP1 RETURN JUMPDEST PUSH0 DUP1 SLOAD SWAP1 PUSH2 0x100 EXP SWAP1 DIV PUSH20 0xFFFFFFFFFFFFFFFFFFFFFFFFFFFFFFFFFFFFFFFF AND DUP2 JUMP JUMPDEST PUSH0 DUP1 PUSH2 0x18D DUP7 PUSH2 0x5E9 JUMP JUMPDEST SWAP1 POP PUSH0 PUSH1 0x6 PUSH0 DUP8 DUP2 MSTORE PUSH1 0x20 ADD SWAP1 DUP2 MSTORE PUSH1 0x20 ADD PUSH0 KECCAK256 DUP1 SLOAD PUSH2 0x1AC SWAP1 PUSH2 0xB4D JUMP JUMPDEST DUP1 PUSH1 0x1F ADD PUSH1 0x20 DUP1 SWAP2 DIV MUL PUSH1 0x20 ADD PUSH1 0x40 MLOAD SWAP1 DUP2 ADD PUSH1 0x40 MSTORE DUP1 SWAP3 SWAP2 SWAP1 DUP2 DUP2 MSTORE PUSH1 0x20 ADD DUP3 DUP1 SLOAD PUSH2 0x1D8 SWAP1 PUSH2 0xB4D JUMP JUMPDEST DUP1 ISZERO PUSH2 0x223 JUMPI DUP1 PUSH1 0x1F LT PUSH2 0x1FA JUMPI PUSH2 0x100 DUP1 DUP4 SLOAD DIV MUL DUP4 MSTORE SWAP2 PUSH1 0x20 ADD SWAP2 PUSH2 0x223 JUMP JUMPDEST DUP3 ADD SWAP2 SWAP1 PUSH0 MSTORE PUSH1 0x20 PUSH0 KECCAK256 SWAP1 JUMPDEST DUP2 SLOAD DUP2 MSTORE SWAP1 PUSH1 0x1 ADD SWAP1 PUSH1 0x20 ADD DUP1 DUP4 GT PUSH2 0x206 JUMPI DUP3 SWAP1 SUB PUSH1 0x1F AND DUP3 ADD SWAP2 JUMPDEST POP POP POP POP POP SWAP1 POP PUSH0 DUP2 MLOAD SUB PUSH2 0x26D JUMPI PUSH1 0x40 MLOAD PUSH32 0x8C379A000000000000000000000000000000000000000000000000000000000 DUP2 MSTORE PUSH1 0x4 ADD PUSH2 0x264 SWAP1 PUSH2 0xBD7 JUMP JUMPDEST PUSH1 0x40 MLOAD DUP1 SWAP2 SUB SWAP1 REVERT JUMPDEST PUSH0 PUSH1 0x3 PUSH8 0xFFFFFFFFFFFFFFFF DUP2 GT ISZERO PUSH2 0x289 JUMPI PUSH2 0x288 PUSH2 0x851 JUMP JUMPDEST JUMPDEST PUSH1 0x40 MLOAD SWAP1 DUP1 DUP3 MSTORE DUP1 PUSH1 0x20 MUL PUSH1 0x20 ADD DUP3 ADD PUSH1 0x40 MSTORE DUP1 ISZERO PUSH2 0x2B7 JUMPI DUP2 PUSH1 0x20 ADD PUSH1 0x20 DUP3 MUL DUP1 CALLDATASIZE DUP4 CALLDATACOPY DUP1 DUP3 ADD SWAP2 POP POP SWAP1 POP JUMPDEST POP SWAP1 POP DUP6 DUP2 PUSH0 DUP2 MLOAD DUP2 LT PUSH2 0x2CE JUMPI PUSH2 0x2CD PUSH2 0xBF5 JUMP JUMPDEST JUMPDEST PUSH1 0x20 MUL PUSH1 0x20 ADD ADD DUP2 DUP2 MSTORE POP POP PUSH1 0x5 DUP3 PUSH1 0x40 MLOAD PUSH2 0x2EA SWAP2 SWAP1 PUSH2 0xC74 JUMP JUMPDEST SWAP1 DUP2 MSTORE PUSH1 0x20 ADD PUSH1 0x40 MLOAD DUP1 SWAP2 SUB SWAP1 KECCAK256 SLOAD DUP2 PUSH1 0x1 DUP2 MLOAD DUP2 LT PUSH2 0x30D JUMPI PUSH2 0x30C PUSH2 0xBF5 JUMP JUMPDEST JUMPDEST PUSH1 0x20 MUL PUSH1 0x20 ADD ADD DUP2 DUP2 MSTORE POP POP DUP7 DUP2 PUSH1 0x2 DUP2 MLOAD DUP2 LT PUSH2 0x32E JUMPI PUSH2 0x32D PUSH2 0xBF5 JUMP JUMPDEST JUMPDEST PUSH1 0x20 MUL PUSH1 0x20 ADD ADD DUP2 DUP2 MSTORE POP POP DUP3 PUSH20 0xFFFFFFFFFFFFFFFFFFFFFFFFFFFFFFFFFFFFFFFF AND PUSH4 0x1E8E1E13 DUP7 DUP4 PUSH1 0x40 MLOAD DUP4 PUSH4 0xFFFFFFFF AND PUSH1 0xE0 SHL DUP2 MSTORE PUSH1 0x4 ADD PUSH2 0x375 SWAP3 SWAP2 SWAP1 PUSH2 0xD93 JUMP JUMPDEST PUSH1 0x20 PUSH1 0x40 MLOAD DUP1 DUP4 SUB DUP2 DUP7 GAS STATICCALL ISZERO DUP1 ISZERO PUSH2 0x390 JUMPI RETURNDATASIZE PUSH0 DUP1 RETURNDATACOPY RETURNDATASIZE PUSH0 REVERT JUMPDEST POP POP POP POP PUSH1 0x40 MLOAD RETURNDATASIZE PUSH1 0x1F NOT PUSH1 0x1F DUP3 ADD AND DUP3 ADD DUP1 PUSH1 0x40 MSTORE POP DUP2 ADD SWAP1 PUSH2 0x3B4 SWAP2 SWAP1 PUSH2 0xDF2 JUMP JUMPDEST PUSH2 0x3F3 JUMPI PUSH1 0x40 MLOAD PUSH32 0x8C379A000000000000000000000000000000000000000000000000000000000 DUP2 MSTORE PUSH1 0x4 ADD PUSH2 0x3EA SWAP1 PUSH2 0xE67 JUMP JUMPDEST PUSH1 0x40 MLOAD DUP1 SWAP2 SUB SWAP1 REVERT JUMPDEST DUP6 PUSH1 0x5 DUP4 PUSH1 0x40 MLOAD PUSH2 0x404 SWAP2 SWAP1 PUSH2 0xC74 JUMP JUMPDEST SWAP1 DUP2 MSTORE PUSH1 0x20 ADD PUSH1 0x40 MLOAD DUP1 SWAP2 SUB SWAP1 KECCAK256 DUP2 SWAP1 SSTORE POP PUSH32 0xB3B3B1B935C13B8259EF760AE6538D44CC98C9C394D621D8807ADD6817A46365 DUP3 DUP8 PUSH1 0x40 MLOAD PUSH2 0x447 SWAP3 SWAP2 SWAP1 PUSH2 0xECC JUMP JUMPDEST PUSH1 0x40 MLOAD DUP1 SWAP2 SUB SWAP1 LOG1 PUSH1 0x1 SWAP4 POP POP POP POP SWAP5 SWAP4 POP POP POP POP JUMP JUMPDEST PUSH1 0x1 PUSH0 SWAP1 SLOAD SWAP1 PUSH2 0x100 EXP SWAP1 DIV PUSH20 0xFFFFFFFFFFFFFFFFFFFFFFFFFFFFFFFFFFFFFFFF AND DUP2 JUMP JUMPDEST PUSH0 PUSH1 0x5 DUP4 PUSH1 0x40 MLOAD PUSH2 0x494 SWAP2 SWAP1 PUSH2 0xC74 JUMP JUMPDEST SWAP1 DUP2 MSTORE PUSH1 0x20 ADD PUSH1 0x40 MLOAD DUP1 SWAP2 SUB SWAP1 KECCAK256 SLOAD EQ PUSH2 0x4E3 JUMPI PUSH1 0x40 MLOAD PUSH32 0x8C379A000000000000000000000000000000000000000000000000000000000 DUP2 MSTORE PUSH1 0x4 ADD PUSH2 0x4DA SWAP1 PUSH2 0xF44 JUMP JUMPDEST PUSH1 0x40 MLOAD DUP1 SWAP2 SUB SWAP1 REVERT JUMPDEST DUP1 PUSH1 0x5 DUP4 PUSH1 0x40 MLOAD PUSH2 0x4F4 SWAP2 SWAP1 PUSH2 0xC74 JUMP JUMPDEST SWAP1 DUP2 MSTORE PUSH1 0x20 ADD PUSH1 0x40 MLOAD DUP1 SWAP2 SUB SWAP1 KECCAK256 DUP2 SWAP1 SSTORE POP PUSH32 0xB71B7291A9FC3A0721B1959743945DE91156F701B493BAC77DCFAEBA05CD8D3 DUP3 DUP3 PUSH1 0x40 MLOAD PUSH2 0x537 SWAP3 SWAP2 SWAP1 PUSH2 0xECC JUMP JUMPDEST PUSH1 0x40 MLOAD DUP1 SWAP2 SUB SWAP1 LOG1 POP POP JUMP JUMPDEST PUSH1 0x3 PUSH0 SWAP1 SLOAD SWAP1 PUSH2 0x100 EXP SWAP1 DIV PUSH20 0xFFFFFFFFFFFFFFFFFFFFFFFFFFFFFFFFFFFFFFFF AND DUP2 JUMP JUMPDEST DUP2 PUSH1 0x6 PUSH0 DUP4 DUP2 MSTORE PUSH1 0x20 ADD SWAP1 DUP2 MSTORE PUSH1 0x20 ADD PUSH0 KECCAK256 SWAP1 DUP2 PUSH2 0x586 SWAP2 SWAP1 PUSH2 0x10FF JUMP JUMPDEST POP PUSH32 0xE42038EDA0238692DA8D8C200345A40ED84F713F2B07BFDFE04EDA8824CAABB8 CALLER DUP3 PUSH1 0x40 MLOAD PUSH2 0x5B8 SWAP3 SWAP2 SWAP1 PUSH2 0x11CE JUMP JUMPDEST PUSH1 0x40 MLOAD DUP1 SWAP2 SUB SWAP1 LOG1 POP POP JUMP JUMPDEST PUSH1 0x2 PUSH0 SWAP1 SLOAD SWAP1 PUSH2 0x100 EXP SWAP1 DIV PUSH20 0xFFFFFFFFFFFFFFFFFFFFFFFFFFFFFFFFFFFFFFFF AND DUP2 JUMP JUMPDEST PUSH0 DUP1 PUSH1 0x3 DUP2 GT ISZERO PUSH2 0x5FD JUMPI PUSH2 0x5FC PUSH2 0x11F5 JUMP JUMPDEST JUMPDEST DUP3 PUSH1 0x3 DUP2 GT ISZERO PUSH2 0x610 JUMPI PUSH2 0x60F PUSH2 0x11F5 JUMP JUMPDEST JUMPDEST SUB PUSH2 0x63E JUMPI PUSH1 0x1 PUSH0 SWAP1 SLOAD SWAP1 PUSH2 0x100 EXP SWAP1 DIV PUSH20 0xFFFFFFFFFFFFFFFFFFFFFFFFFFFFFFFFFFFFFFFF AND SWAP1 POP PUSH2 0x775 JUMP JUMPDEST PUSH1 0x1 PUSH1 0x3 DUP2 GT ISZERO PUSH2 0x652 JUMPI PUSH2 0x651 PUSH2 0x11F5 JUMP JUMPDEST JUMPDEST DUP3 PUSH1 0x3 DUP2 GT ISZERO PUSH2 0x665 JUMPI PUSH2 0x664 PUSH2 0x11F5 JUMP JUMPDEST JUMPDEST SUB PUSH2 0x691 JUMPI PUSH0 DUP1 SLOAD SWAP1 PUSH2 0x100 EXP SWAP1 DIV PUSH20 0xFFFFFFFFFFFFFFFFFFFFFFFFFFFFFFFFFFFFFFFF AND SWAP1 POP PUSH2 0x775 JUMP JUMPDEST PUSH1 0x2 PUSH1 0x3 DUP2 GT ISZERO PUSH2 0x6A5 JUMPI PUSH2 0x6A4 PUSH2 0x11F5 JUMP JUMPDEST JUMPDEST DUP3 PUSH1 0x3 DUP2 GT ISZERO PUSH2 0x6B8 JUMPI PUSH2 0x6B7 PUSH2 0x11F5 JUMP JUMPDEST JUMPDEST SUB PUSH2 0x6E6 JUMPI PUSH1 0x2 PUSH0 SWAP1 SLOAD SWAP1 PUSH2 0x100 EXP SWAP1 DIV PUSH20 0xFFFFFFFFFFFFFFFFFFFFFFFFFFFFFFFFFFFFFFFF AND SWAP1 POP PUSH2 0x775 JUMP JUMPDEST PUSH1 0x3 DUP1 DUP2 GT ISZERO PUSH2 0x6F9 JUMPI PUSH2 0x6F8 PUSH2 0x11F5 JUMP JUMPDEST JUMPDEST DUP3 PUSH1 0x3 DUP2 GT ISZERO PUSH2 0x70C JUMPI PUSH2 0x70B PUSH2 0x11F5 JUMP JUMPDEST JUMPDEST SUB PUSH2 0x73A JUMPI PUSH1 0x3 PUSH0 SWAP1 SLOAD SWAP1 PUSH2 0x100 EXP SWAP1 DIV PUSH20 0xFFFFFFFFFFFFFFFFFFFFFFFFFFFFFFFFFFFFFFFF AND SWAP1 POP PUSH2 0x775 JUMP JUMPDEST PUSH1 0x40 MLOAD PUSH32 0x8C379A000000000000000000000000000000000000000000000000000000000 DUP2 MSTORE PUSH1 0x4 ADD PUSH2 0x76C SWAP1 PUSH2 0x126C JUMP JUMPDEST PUSH1 0x40 MLOAD DUP1 SWAP2 SUB SWAP1 REVERT JUMPDEST SWAP2 SWAP1 POP JUMP JUMPDEST PUSH0 PUSH20 0xFFFFFFFFFFFFFFFFFFFFFFFFFFFFFFFFFFFFFFFF DUP3 AND SWAP1 POP SWAP2 SWAP1 POP JUMP JUMPDEST PUSH0 PUSH2 0x7A3 DUP3 PUSH2 0x77A JUMP JUMPDEST SWAP1 POP SWAP2 SWAP1 POP JUMP JUMPDEST PUSH2 0x7B3 DUP2 PUSH2 0x799 JUMP JUMPDEST DUP3 MSTORE POP POP JUMP JUMPDEST PUSH0 PUSH1 0x20 DUP3 ADD SWAP1 POP PUSH2 0x7CC PUSH0 DUP4 ADD DUP5 PUSH2 0x7AA JUMP JUMPDEST SWAP3 SWAP2 POP POP JUMP JUMPDEST PUSH0 PUSH1 0x40 MLOAD SWAP1 POP SWAP1 JUMP JUMPDEST PUSH0 DUP1 REVERT JUMPDEST PUSH0 DUP1 REVERT JUMPDEST PUSH1 0x4 DUP2 LT PUSH2 0x7EF JUMPI PUSH0 DUP1 REVERT JUMPDEST POP JUMP JUMPDEST PUSH0 DUP2 CALLDATALOAD SWAP1 POP PUSH2 0x800 DUP2 PUSH2 0x7E3 JUMP JUMPDEST SWAP3 SWAP2 POP POP JUMP JUMPDEST PUSH0 DUP2 SWAP1 POP SWAP2 SWAP1 POP JUMP JUMPDEST PUSH2 0x818 DUP2 PUSH2 0x806 JUMP JUMPDEST DUP2 EQ PUSH2 0x822 JUMPI PUSH0 DUP1 REVERT JUMPDEST POP JUMP JUMPDEST PUSH0 DUP2 CALLDATALOAD SWAP1 POP PUSH2 0x833 DUP2 PUSH2 0x80F JUMP JUMPDEST SWAP3 SWAP2 POP POP JUMP JUMPDEST PUSH0 DUP1 REVERT JUMPDEST PUSH0 DUP1 REVERT JUMPDEST PUSH0 PUSH1 0x1F NOT PUSH1 0x1F DUP4 ADD AND SWAP1 POP SWAP2 SWAP1 POP JUMP JUMPDEST PUSH32 0x4E487B7100000000000000000000000000000000000000000000000000000000 PUSH0 MSTORE PUSH1 0x41 PUSH1 0x4 MSTORE PUSH1 0x24 PUSH0 REVERT JUMPDEST PUSH2 0x887 DUP3 PUSH2 0x841 JUMP JUMPDEST DUP2 ADD DUP2 DUP2 LT PUSH8 0xFFFFFFFFFFFFFFFF DUP3 GT OR ISZERO PUSH2 0x8A6 JUMPI PUSH2 0x8A5 PUSH2 0x851 JUMP JUMPDEST JUMPDEST DUP1 PUSH1 0x40 MSTORE POP POP POP JUMP JUMPDEST PUSH0 PUSH2 0x8B8 PUSH2 0x7D2 JUMP JUMPDEST SWAP1 POP PUSH2 0x8C4 DUP3 DUP3 PUSH2 0x87E JUMP JUMPDEST SWAP2 SWAP1 POP JUMP JUMPDEST PUSH0 PUSH8 0xFFFFFFFFFFFFFFFF DUP3 GT ISZERO PUSH2 0x8E3 JUMPI PUSH2 0x8E2 PUSH2 0x851 JUMP JUMPDEST JUMPDEST PUSH2 0x8EC DUP3 PUSH2 0x841 JUMP JUMPDEST SWAP1 POP PUSH1 0x20 DUP2 ADD SWAP1 POP SWAP2 SWAP1 POP JUMP JUMPDEST DUP3 DUP2 DUP4 CALLDATACOPY PUSH0 DUP4 DUP4 ADD MSTORE POP POP POP JUMP JUMPDEST PUSH0 PUSH2 0x919 PUSH2 0x914 DUP5 PUSH2 0x8C9 JUMP JUMPDEST PUSH2 0x8AF JUMP JUMPDEST SWAP1 POP DUP3 DUP2 MSTORE PUSH1 0x20 DUP2 ADD DUP5 DUP5 DUP5 ADD GT ISZERO PUSH2 0x935 JUMPI PUSH2 0x934 PUSH2 0x83D JUMP JUMPDEST JUMPDEST PUSH2 0x940 DUP5 DUP3 DUP6 PUSH2 0x8F9 JUMP JUMPDEST POP SWAP4 SWAP3 POP POP POP JUMP JUMPDEST PUSH0 DUP3 PUSH1 0x1F DUP4 ADD SLT PUSH2 0x95C JUMPI PUSH2 0x95B PUSH2 0x839 JUMP JUMPDEST JUMPDEST DUP2 CALLDATALOAD PUSH2 0x96C DUP5 DUP3 PUSH1 0x20 DUP7 ADD PUSH2 0x907 JUMP JUMPDEST SWAP2 POP POP SWAP3 SWAP2 POP POP JUMP JUMPDEST PUSH0 DUP1 PUSH0 DUP1 PUSH1 0x80 DUP6 DUP8 SUB SLT ISZERO PUSH2 0x98D JUMPI PUSH2 0x98C PUSH2 0x7DB JUMP JUMPDEST JUMPDEST PUSH0 PUSH2 0x99A DUP8 DUP3 DUP9 ADD PUSH2 0x7F2 JUMP JUMPDEST SWAP5 POP POP PUSH1 0x20 PUSH2 0x9AB DUP8 DUP3 DUP9 ADD PUSH2 0x825 JUMP JUMPDEST SWAP4 POP POP PUSH1 0x40 PUSH2 0x9BC DUP8 DUP3 DUP9 ADD PUSH2 0x825 JUMP JUMPDEST SWAP3 POP POP PUSH1 0x60 DUP6 ADD CALLDATALOAD PUSH8 0xFFFFFFFFFFFFFFFF DUP2 GT ISZERO PUSH2 0x9DD JUMPI PUSH2 0x9DC PUSH2 0x7DF JUMP JUMPDEST JUMPDEST PUSH2 0x9E9 DUP8 DUP3 DUP9 ADD PUSH2 0x948 JUMP JUMPDEST SWAP2 POP POP SWAP3 SWAP6 SWAP2 SWAP5 POP SWAP3 POP JUMP JUMPDEST PUSH0 DUP2 ISZERO ISZERO SWAP1 POP SWAP2 SWAP1 POP JUMP JUMPDEST PUSH2 0xA09 DUP2 PUSH2 0x9F5 JUMP JUMPDEST DUP3 MSTORE POP POP JUMP JUMPDEST PUSH0 PUSH1 0x20 DUP3 ADD SWAP1 POP PUSH2 0xA22 PUSH0 DUP4 ADD DUP5 PUSH2 0xA00 JUMP JUMPDEST SWAP3 SWAP2 POP POP JUMP JUMPDEST PUSH0 PUSH8 0xFFFFFFFFFFFFFFFF DUP3 GT ISZERO PUSH2 0xA42 JUMPI PUSH2 0xA41 PUSH2 0x851 JUMP JUMPDEST JUMPDEST PUSH2 0xA4B DUP3 PUSH2 0x841 JUMP JUMPDEST SWAP1 POP PUSH1 0x20 DUP2 ADD SWAP1 POP SWAP2 SWAP1 POP JUMP JUMPDEST PUSH0 PUSH2 0xA6A PUSH2 0xA65 DUP5 PUSH2 0xA28 JUMP JUMPDEST PUSH2 0x8AF JUMP JUMPDEST SWAP1 POP DUP3 DUP2 MSTORE PUSH1 0x20 DUP2 ADD DUP5 DUP5 DUP5 ADD GT ISZERO PUSH2 0xA86 JUMPI PUSH2 0xA85 PUSH2 0x83D JUMP JUMPDEST JUMPDEST PUSH2 0xA91 DUP5 DUP3 DUP6 PUSH2 0x8F9 JUMP JUMPDEST POP SWAP4 SWAP3 POP POP POP JUMP JUMPDEST PUSH0 DUP3 PUSH1 0x1F DUP4 ADD SLT PUSH2 0xAAD JUMPI PUSH2 0xAAC PUSH2 0x839 JUMP JUMPDEST JUMPDEST DUP2 CALLDATALOAD PUSH2 0xABD DUP5 DUP3 PUSH1 0x20 DUP7 ADD PUSH2 0xA58 JUMP JUMPDEST SWAP2 POP POP SWAP3 SWAP2 POP POP JUMP JUMPDEST PUSH0 DUP1 PUSH1 0x40 DUP4 DUP6 SUB SLT ISZERO PUSH2 0xADC JUMPI PUSH2 0xADB PUSH2 0x7DB JUMP JUMPDEST JUMPDEST PUSH0 DUP4 ADD CALLDATALOAD PUSH8 0xFFFFFFFFFFFFFFFF DUP2 GT ISZERO PUSH2 0xAF9 JUMPI PUSH2 0xAF8 PUSH2 0x7DF JUMP JUMPDEST JUMPDEST PUSH2 0xB05 DUP6 DUP3 DUP7 ADD PUSH2 0xA99 JUMP JUMPDEST SWAP3 POP POP PUSH1 0x20 PUSH2 0xB16 DUP6 DUP3 DUP7 ADD PUSH2 0x825 JUMP JUMPDEST SWAP2 POP POP SWAP3 POP SWAP3 SWAP1 POP JUMP JUMPDEST PUSH32 0x4E487B7100000000000000000000000000000000000000000000000000000000 PUSH0 MSTORE PUSH1 0x22 PUSH1 0x4 MSTORE PUSH1 0x24 PUSH0 REVERT JUMPDEST PUSH0 PUSH1 0x2 DUP3 DIV SWAP1 POP PUSH1 0x1 DUP3 AND DUP1 PUSH2 0xB64 JUMPI PUSH1 0x7F DUP3 AND SWAP2 POP JUMPDEST PUSH1 0x20 DUP3 LT DUP2 SUB PUSH2 0xB77 JUMPI PUSH2 0xB76 PUSH2 0xB20 JUMP JUMPDEST JUMPDEST POP SWAP2 SWAP1 POP JUMP JUMPDEST PUSH0 DUP3 DUP3 MSTORE PUSH1 0x20 DUP3 ADD SWAP1 POP SWAP3 SWAP2 POP POP JUMP JUMPDEST PUSH32 0x5265717565737420756E6B6E6F776E0000000000000000000000000000000000 PUSH0 DUP3 ADD MSTORE POP JUMP JUMPDEST PUSH0 PUSH2 0xBC1 PUSH1 0xF DUP4 PUSH2 0xB7D JUMP JUMPDEST SWAP2 POP PUSH2 0xBCC DUP3 PUSH2 0xB8D JUMP JUMPDEST PUSH1 0x20 DUP3 ADD SWAP1 POP SWAP2 SWAP1 POP JUMP JUMPDEST PUSH0 PUSH1 0x20 DUP3 ADD SWAP1 POP DUP2 DUP2 SUB PUSH0 DUP4 ADD MSTORE PUSH2 0xBEE DUP2 PUSH2 0xBB5 JUMP JUMPDEST SWAP1 POP SWAP2 SWAP1 POP JUMP JUMPDEST PUSH32 0x4E487B7100000000000000000000000000000000000000000000000000000000 PUSH0 MSTORE PUSH1 0x32 PUSH1 0x4 MSTORE PUSH1 0x24 PUSH0 REVERT JUMPDEST PUSH0 DUP2 MLOAD SWAP1 POP SWAP2 SWAP1 POP JUMP JUMPDEST PUSH0 DUP2 SWAP1 POP SWAP3 SWAP2 POP POP JUMP JUMPDEST DUP3 DUP2 DUP4 MCOPY PUSH0 DUP4 DUP4 ADD MSTORE POP POP POP JUMP JUMPDEST PUSH0 PUSH2 0xC4E DUP3 PUSH2 0xC22 JUMP JUMPDEST PUSH2 0xC58 DUP2 DUP6 PUSH2 0xC2C JUMP JUMPDEST SWAP4 POP PUSH2 0xC68 DUP2 DUP6 PUSH1 0x20 DUP7 ADD PUSH2 0xC36 JUMP JUMPDEST DUP1 DUP5 ADD SWAP2 POP POP SWAP3 SWAP2 POP POP JUMP JUMPDEST PUSH0 PUSH2 0xC7F DUP3 DUP5 PUSH2 0xC44 JUMP JUMPDEST SWAP2 POP DUP2 SWAP1 POP SWAP3 SWAP2 POP POP JUMP JUMPDEST PUSH0 DUP2 MLOAD SWAP1 POP SWAP2 SWAP1 POP JUMP JUMPDEST PUSH0 DUP3 DUP3 MSTORE PUSH1 0x20 DUP3 ADD SWAP1 POP SWAP3 SWAP2 POP POP JUMP JUMPDEST PUSH0 PUSH2 0xCAE DUP3 PUSH2 0xC8A JUMP JUMPDEST PUSH2 0xCB8 DUP2 DUP6 PUSH2 0xC94 JUMP JUMPDEST SWAP4 POP PUSH2 0xCC8 DUP2 DUP6 PUSH1 0x20 DUP7 ADD PUSH2 0xC36 JUMP JUMPDEST PUSH2 0xCD1 DUP2 PUSH2 0x841 JUMP JUMPDEST DUP5 ADD SWAP2 POP POP SWAP3 SWAP2 POP POP JUMP JUMPDEST PUSH0 DUP2 MLOAD SWAP1 POP SWAP2 SWAP1 POP JUMP JUMPDEST PUSH0 DUP3 DUP3 MSTORE PUSH1 0x20 DUP3 ADD SWAP1 POP SWAP3 SWAP2 POP POP JUMP JUMPDEST PUSH0 DUP2 SWAP1 POP PUSH1 0x20 DUP3 ADD SWAP1 POP SWAP2 SWAP1 POP JUMP JUMPDEST PUSH2 0xD0E DUP2 PUSH2 0x806 JUMP JUMPDEST DUP3 MSTORE POP POP JUMP JUMPDEST PUSH0 PUSH2 0xD1F DUP4 DUP4 PUSH2 0xD05 JUMP JUMPDEST PUSH1 0x20 DUP4 ADD SWAP1 POP SWAP3 SWAP2 POP POP JUMP JUMPDEST PUSH0 PUSH1 0x20 DUP3 ADD SWAP1 POP SWAP2 SWAP1 POP JUMP JUMPDEST PUSH0 PUSH2 0xD41 DUP3 PUSH2 0xCDC JUMP JUMPDEST PUSH2 0xD4B DUP2 DUP6 PUSH2 0xCE6 JUMP JUMPDEST SWAP4 POP PUSH2 0xD56 DUP4 PUSH2 0xCF6 JUMP JUMPDEST DUP1 PUSH0 JUMPDEST DUP4 DUP2 LT ISZERO PUSH2 0xD86 JUMPI DUP2 MLOAD PUSH2 0xD6D DUP9 DUP3 PUSH2 0xD14 JUMP JUMPDEST SWAP8 POP PUSH2 0xD78 DUP4 PUSH2 0xD2B JUMP JUMPDEST SWAP3 POP POP PUSH1 0x1 DUP2 ADD SWAP1 POP PUSH2 0xD59 JUMP JUMPDEST POP DUP6 SWAP4 POP POP POP POP SWAP3 SWAP2 POP POP JUMP JUMPDEST PUSH0 PUSH1 0x40 DUP3 ADD SWAP1 POP DUP2 DUP2 SUB PUSH0 DUP4 ADD MSTORE PUSH2 0xDAB DUP2 DUP6 PUSH2 0xCA4 JUMP JUMPDEST SWAP1 POP DUP2 DUP2 SUB PUSH1 0x20 DUP4 ADD MSTORE PUSH2 0xDBF DUP2 DUP5 PUSH2 0xD37 JUMP JUMPDEST SWAP1 POP SWAP4 SWAP3 POP POP POP JUMP JUMPDEST PUSH2 0xDD1 DUP2 PUSH2 0x9F5 JUMP JUMPDEST DUP2 EQ PUSH2 0xDDB JUMPI PUSH0 DUP1 REVERT JUMPDEST POP JUMP JUMPDEST PUSH0 DUP2 MLOAD SWAP1 POP PUSH2 0xDEC DUP2 PUSH2 0xDC8 JUMP JUMPDEST SWAP3 SWAP2 POP POP JUMP JUMPDEST PUSH0 PUSH1 0x20 DUP3 DUP5 SUB SLT ISZERO PUSH2 0xE07 JUMPI PUSH2 0xE06 PUSH2 0x7DB JUMP JUMPDEST JUMPDEST PUSH0 PUSH2 0xE14 DUP5 DUP3 DUP6 ADD PUSH2 0xDDE JUMP JUMPDEST SWAP2 POP POP SWAP3 SWAP2 POP POP JUMP JUMPDEST PUSH32 0x534E41524B20766572696669636174696F6E206661696C656400000000000000 PUSH0 DUP3 ADD MSTORE POP JUMP JUMPDEST PUSH0 PUSH2 0xE51 PUSH1 0x19 DUP4 PUSH2 0xB7D JUMP JUMPDEST SWAP2 POP PUSH2 0xE5C DUP3 PUSH2 0xE1D JUMP JUMPDEST PUSH1 0x20 DUP3 ADD SWAP1 POP SWAP2 SWAP1 POP JUMP JUMPDEST PUSH0 PUSH1 0x20 DUP3 ADD SWAP1 POP DUP2 DUP2 SUB PUSH0 DUP4 ADD MSTORE PUSH2 0xE7E DUP2 PUSH2 0xE45 JUMP JUMPDEST SWAP1 POP SWAP2 SWAP1 POP JUMP JUMPDEST PUSH0 PUSH2 0xE8F DUP3 PUSH2 0xC22 JUMP JUMPDEST PUSH2 0xE99 DUP2 DUP6 PUSH2 0xB7D JUMP JUMPDEST SWAP4 POP PUSH2 0xEA9 DUP2 DUP6 PUSH1 0x20 DUP7 ADD PUSH2 0xC36 JUMP JUMPDEST PUSH2 0xEB2 DUP2 PUSH2 0x841 JUMP JUMPDEST DUP5 ADD SWAP2 POP POP SWAP3 SWAP2 POP POP JUMP JUMPDEST PUSH2 0xEC6 DUP2 PUSH2 0x806 JUMP JUMPDEST DUP3 MSTORE POP POP JUMP JUMPDEST PUSH0 PUSH1 0x40 DUP3 ADD SWAP1 POP DUP2 DUP2 SUB PUSH0 DUP4 ADD MSTORE PUSH2 0xEE4 DUP2 DUP6 PUSH2 0xE85 JUMP JUMPDEST SWAP1 POP PUSH2 0xEF3 PUSH1 0x20 DUP4 ADD DUP5 PUSH2 0xEBD JUMP JUMPDEST SWAP4 SWAP3 POP POP POP JUMP JUMPDEST PUSH32 0x4C61207461626C61207961206578697374650000000000000000000000000000 PUSH0 DUP3 ADD MSTORE POP JUMP JUMPDEST PUSH0 PUSH2 0xF2E PUSH1 0x12 DUP4 PUSH2 0xB7D JUMP JUMPDEST SWAP2 POP PUSH2 0xF39 DUP3 PUSH2 0xEFA JUMP JUMPDEST PUSH1 0x20 DUP3 ADD SWAP1 POP SWAP2 SWAP1 POP JUMP JUMPDEST PUSH0 PUSH1 0x20 DUP3 ADD SWAP1 POP DUP2 DUP2 SUB PUSH0 DUP4 ADD MSTORE PUSH2 0xF5B DUP2 PUSH2 0xF22 JUMP JUMPDEST SWAP1 POP SWAP2 SWAP1 POP JUMP JUMPDEST PUSH0 DUP2 SWAP1 POP DUP2 PUSH0 MSTORE PUSH1 0x20 PUSH0 KECCAK256 SWAP1 POP SWAP2 SWAP1 POP JUMP JUMPDEST PUSH0 PUSH1 0x20 PUSH1 0x1F DUP4 ADD DIV SWAP1 POP SWAP2 SWAP1 POP JUMP JUMPDEST PUSH0 DUP3 DUP3 SHL SWAP1 POP SWAP3 SWAP2 POP POP JUMP JUMPDEST PUSH0 PUSH1 0x8 DUP4 MUL PUSH2 0xFBE PUSH32 0xFFFFFFFFFFFFFFFFFFFFFFFFFFFFFFFFFFFFFFFFFFFFFFFFFFFFFFFFFFFFFFFF DUP3 PUSH2 0xF83 JUMP JUMPDEST PUSH2 0xFC8 DUP7 DUP4 PUSH2 0xF83 JUMP JUMPDEST SWAP6 POP DUP1 NOT DUP5 AND SWAP4 POP DUP1 DUP7 AND DUP5 OR SWAP3 POP POP POP SWAP4 SWAP3 POP POP POP JUMP JUMPDEST PUSH0 DUP2 SWAP1 POP SWAP2 SWAP1 POP JUMP JUMPDEST PUSH0 PUSH2 0x1003 PUSH2 0xFFE PUSH2 0xFF9 DUP5 PUSH2 0x806 JUMP JUMPDEST PUSH2 0xFE0 JUMP JUMPDEST PUSH2 0x806 JUMP JUMPDEST SWAP1 POP SWAP2 SWAP1 POP JUMP JUMPDEST PUSH0 DUP2 SWAP1 POP SWAP2 SWAP1 POP JUMP JUMPDEST PUSH2 0x101C DUP4 PUSH2 0xFE9 JUMP JUMPDEST PUSH2 0x1030 PUSH2 0x1028 DUP3 PUSH2 0x100A JUMP JUMPDEST DUP5 DUP5 SLOAD PUSH2 0xF8F JUMP JUMPDEST DUP3 SSTORE POP POP POP POP JUMP JUMPDEST PUSH0 SWAP1 JUMP JUMPDEST PUSH2 0x1044 PUSH2 0x1038 JUMP JUMPDEST PUSH2 0x104F DUP2 DUP5 DUP5 PUSH2 0x1013 JUMP JUMPDEST POP POP POP JUMP JUMPDEST JUMPDEST DUP2 DUP2 LT ISZERO PUSH2 0x1072 JUMPI PUSH2 0x1067 PUSH0 DUP3 PUSH2 0x103C JUMP JUMPDEST PUSH1 0x1 DUP2 ADD SWAP1 POP PUSH2 0x1055 JUMP JUMPDEST POP POP JUMP JUMPDEST PUSH1 0x1F DUP3 GT ISZERO PUSH2 0x10B7 JUMPI PUSH2 0x1088 DUP2 PUSH2 0xF62 JUMP JUMPDEST PUSH2 0x1091 DUP5 PUSH2 0xF74 JUMP JUMPDEST DUP2 ADD PUSH1 0x20 DUP6 LT ISZERO PUSH2 0x10A0 JUMPI DUP2 SWAP1 POP JUMPDEST PUSH2 0x10B4 PUSH2 0x10AC DUP6 PUSH2 0xF74 JUMP JUMPDEST DUP4 ADD DUP3 PUSH2 0x1054 JUMP JUMPDEST POP POP JUMPDEST POP POP POP JUMP JUMPDEST PUSH0 DUP3 DUP3 SHR SWAP1 POP SWAP3 SWAP2 POP POP JUMP JUMPDEST PUSH0 PUSH2 0x10D7 PUSH0 NOT DUP5 PUSH1 0x8 MUL PUSH2 0x10BC JUMP JUMPDEST NOT DUP1 DUP4 AND SWAP2 POP POP SWAP3 SWAP2 POP POP JUMP JUMPDEST PUSH0 PUSH2 0x10EF DUP4 DUP4 PUSH2 0x10C8 JUMP JUMPDEST SWAP2 POP DUP3 PUSH1 0x2 MUL DUP3 OR SWAP1 POP SWAP3 SWAP2 POP POP JUMP JUMPDEST PUSH2 0x1108 DUP3 PUSH2 0xC22 JUMP JUMPDEST PUSH8 0xFFFFFFFFFFFFFFFF DUP2 GT ISZERO PUSH2 0x1121 JUMPI PUSH2 0x1120 PUSH2 0x851 JUMP JUMPDEST JUMPDEST PUSH2 0x112B DUP3 SLOAD PUSH2 0xB4D JUMP JUMPDEST PUSH2 0x1136 DUP3 DUP3 DUP6 PUSH2 0x1076 JUMP JUMPDEST PUSH0 PUSH1 0x20 SWAP1 POP PUSH1 0x1F DUP4 GT PUSH1 0x1 DUP2 EQ PUSH2 0x1167 JUMPI PUSH0 DUP5 ISZERO PUSH2 0x1155 JUMPI DUP3 DUP8 ADD MLOAD SWAP1 POP JUMPDEST PUSH2 0x115F DUP6 DUP3 PUSH2 0x10E4 JUMP JUMPDEST DUP7 SSTORE POP PUSH2 0x11C6 JUMP JUMPDEST PUSH1 0x1F NOT DUP5 AND PUSH2 0x1175 DUP7 PUSH2 0xF62 JUMP JUMPDEST PUSH0 JUMPDEST DUP3 DUP2 LT ISZERO PUSH2 0x119C JUMPI DUP5 DUP10 ADD MLOAD DUP3 SSTORE PUSH1 0x1 DUP3 ADD SWAP2 POP PUSH1 0x20 DUP6 ADD SWAP5 POP PUSH1 0x20 DUP2 ADD SWAP1 POP PUSH2 0x1177 JUMP JUMPDEST DUP7 DUP4 LT ISZERO PUSH2 0x11B9 JUMPI DUP5 DUP10 ADD MLOAD PUSH2 0x11B5 PUSH1 0x1F DUP10 AND DUP3 PUSH2 0x10C8 JUMP JUMPDEST DUP4 SSTORE POP JUMPDEST PUSH1 0x1 PUSH1 0x2 DUP9 MUL ADD DUP9 SSTORE POP POP POP JUMPDEST POP POP POP POP POP POP JUMP JUMPDEST PUSH0 PUSH1 0x40 DUP3 ADD SWAP1 POP PUSH2 0x11E1 PUSH0 DUP4 ADD DUP6 PUSH2 0x7AA JUMP JUMPDEST PUSH2 0x11EE PUSH1 0x20 DUP4 ADD DUP5 PUSH2 0xEBD JUMP JUMPDEST SWAP4 SWAP3 POP POP POP JUMP JUMPDEST PUSH32 0x4E487B7100000000000000000000000000000000000000000000000000000000 PUSH0 MSTORE PUSH1 0x21 PUSH1 0x4 MSTORE PUSH1 0x24 PUSH0 REVERT JUMPDEST PUSH32 0x4F7065726174696F6E206E6F742076616C696400000000000000000000000000 PUSH0 DUP3 ADD MSTORE POP JUMP JUMPDEST PUSH0 PUSH2 0x1256 PUSH1 0x13 DUP4 PUSH2 0xB7D JUMP JUMPDEST SWAP2 POP PUSH2 0x1261 DUP3 PUSH2 0x1222 JUMP JUMPDEST PUSH1 0x20 DUP3 ADD SWAP1 POP SWAP2 SWAP1 POP JUMP JUMPDEST PUSH0 PUSH1 0x20 DUP3 ADD SWAP1 POP DUP2 DUP2 SUB PUSH0 DUP4 ADD MSTORE PUSH2 0x1283 DUP2 PUSH2 0x124A JUMP JUMPDEST SWAP1 POP SWAP2 SWAP1 POP JUMP INVALID LOG2 PUSH5 0x6970667358 0x22 SLT KECCAK256 0x2C 0xE9 DUP5 PUSH20 0xA9311F90E17806110274C313FFA31D6B4AD34F9 DUP2 PUSH27 0x82EBB903829564736F6C6343000819003300000000000000000000 "
				},
				"gasEstimates": {
					"creation": {
						"codeDepositCost": "960000",
						"executionCost": "infinite",
						"totalCost": "infinite"
					},
					"external": {
						"createTable(string,uint256)": "infinite",
						"delete_verifier()": "2574",
						"execRequest(uint8,uint256,uint256,bytes)": "infinite",
						"insert_verifier()": "2506",
						"request(string,uint256)": "infinite",
						"select_verifier()": "2553",
						"update_verifier()": "2530"
					},
					"internal": {
						"verifierForOperation(enum zkp_proof_sql_contract.sql_operation)": "infinite"
					}
				},
				"methodIdentifiers": {
					"createTable(string,uint256)": "6543e213",
					"delete_verifier()": "eb96ffd6",
					"execRequest(uint8,uint256,uint256,bytes)": "093892be",
					"insert_verifier()": "031e0f21",
					"request(string,uint256)": "dc6ad19e",
					"select_verifier()": "57a9321b",
					"update_verifier()": "9251dba3"
				}
			},
			"storageLayout": {
				"storage": [
					{
						"astId": 37,
						"contract": "contracts/zkp_sql.sol:zkp_proof_sql_contract",
						"label": "insert_verifier",
						"offset": 0,
						"slot": "0",
						"type": "t_address"
					},
					{
						"astId": 39,
						"contract": "contracts/zkp_sql.sol:zkp_proof_sql_contract",
						"label": "select_verifier",
						"offset": 0,
						"slot": "1",
						"type": "t_address"
					},
					{
						"astId": 41,
						"contract": "contracts/zkp_sql.sol:zkp_proof_sql_contract",
						"label": "delete_verifier",
						"offset": 0,
						"slot": "2",
						"type": "t_address"
					},
					{
						"astId": 43,
						"contract": "contracts/zkp_sql.sol:zkp_proof_sql_contract",
						"label": "update_verifier",
						"offset": 0,
						"slot": "3",
						"type": "t_address"
					},
					{
						"astId": 45,
						"contract": "contracts/zkp_sql.sol:zkp_proof_sql_contract",
						"label": "proofTimeStamp",
						"offset": 0,
						"slot": "4",
						"type": "t_uint256"
					},
					{
						"astId": 49,
						"contract": "contracts/zkp_sql.sol:zkp_proof_sql_contract",
						"label": "table_commitments",
						"offset": 0,
						"slot": "5",
						"type": "t_mapping(t_string_memory_ptr,t_uint256)"
					},
					{
						"astId": 53,
						"contract": "contracts/zkp_sql.sol:zkp_proof_sql_contract",
						"label": "requests_commitments",
						"offset": 0,
						"slot": "6",
						"type": "t_mapping(t_uint256,t_string_storage)"
					}
				],
				"types": {
					"t_address": {
						"encoding": "inplace",
						"label": "address",
						"numberOfBytes": "20"
					},
					"t_mapping(t_string_memory_ptr,t_uint256)": {
						"encoding": "mapping",
						"key": "t_string_memory_ptr",
						"label": "mapping(string => uint256)",
						"numberOfBytes": "32",
						"value": "t_uint256"
					},
					"t_mapping(t_uint256,t_string_storage)": {
						"encoding": "mapping",
						"key": "t_uint256",
						"label": "mapping(uint256 => string)",
						"numberOfBytes": "32",
						"value": "t_string_storage"
					},
					"t_string_memory_ptr": {
						"encoding": "bytes",
						"label": "string",
						"numberOfBytes": "32"
					},
					"t_string_storage": {
						"encoding": "bytes",
						"label": "string",
						"numberOfBytes": "32"
					},
					"t_uint256": {
						"encoding": "inplace",
						"label": "uint256",
						"numberOfBytes": "32"
					}
				}
			},
			"userdoc": {
				"kind": "user",
				"methods": {},
				"version": 1
			}
		}
	}
}