{
	"contracts/zkp/verifier_plonk.sol": {
		"IdentityVerification": {
			"abi": [
				{
					"inputs": [
						{
							"internalType": "address",
							"name": "verifierAddress",
							"type": "address"
						}
					],
					"stateMutability": "nonpayable",
					"type": "constructor"
				},
				{
					"inputs": [
						{
							"internalType": "address",
							"name": "",
							"type": "address"
						}
					],
					"name": "isVerified",
					"outputs": [
						{
							"internalType": "bool",
							"name": "",
							"type": "bool"
						}
					],
					"stateMutability": "view",
					"type": "function"
				},
				{
					"inputs": [
						{
							"internalType": "address",
							"name": "",
							"type": "address"
						}
					],
					"name": "users",
					"outputs": [
						{
							"internalType": "string",
							"name": "name",
							"type": "string"
						},
						{
							"internalType": "string",
							"name": "email",
							"type": "string"
						},
						{
							"internalType": "string",
							"name": "country",
							"type": "string"
						}
					],
					"stateMutability": "view",
					"type": "function"
				},
				{
					"inputs": [
						{
							"components": [
								{
									"components": [
										{
											"internalType": "uint256",
											"name": "X",
											"type": "uint256"
										},
										{
											"internalType": "uint256",
											"name": "Y",
											"type": "uint256"
										}
									],
									"internalType": "struct Pairing.G1Point",
									"name": "a",
									"type": "tuple"
								},
								{
									"components": [
										{
											"internalType": "uint256[2]",
											"name": "X",
											"type": "uint256[2]"
										},
										{
											"internalType": "uint256[2]",
											"name": "Y",
											"type": "uint256[2]"
										}
									],
									"internalType": "struct Pairing.G2Point",
									"name": "b",
									"type": "tuple"
								},
								{
									"components": [
										{
											"internalType": "uint256",
											"name": "X",
											"type": "uint256"
										},
										{
											"internalType": "uint256",
											"name": "Y",
											"type": "uint256"
										}
									],
									"internalType": "struct Pairing.G1Point",
									"name": "c",
									"type": "tuple"
								}
							],
							"internalType": "struct Verifier.Proof",
							"name": "proof",
							"type": "tuple"
						}
					],
					"name": "verifyIdentity",
					"outputs": [],
					"stateMutability": "nonpayable",
					"type": "function"
				}
			],
			"devdoc": {
				"kind": "dev",
				"methods": {},
				"version": 1
			},
			"evm": {
				"assembly": "    /* \"contracts/zkp/verifier_plonk.sol\":158:1213  contract IdentityVerification {... */\n  mstore(0x40, 0x80)\n    /* \"contracts/zkp/verifier_plonk.sol\":440:532  constructor(address verifierAddress) {... */\n  callvalue\n  dup1\n  iszero\n  tag_1\n  jumpi\n  0x00\n  dup1\n  revert\ntag_1:\n  pop\n  mload(0x40)\n  sub(codesize, bytecodeSize)\n  dup1\n  bytecodeSize\n  dup4\n  codecopy\n  dup2\n  dup2\n  add\n  0x40\n  mstore\n  dup2\n  add\n  swap1\n  tag_2\n  swap2\n  swap1\n  tag_3\n  jump\t// in\ntag_2:\n    /* \"contracts/zkp/verifier_plonk.sol\":508:523  verifierAddress */\n  dup1\n    /* \"contracts/zkp/verifier_plonk.sol\":488:496  verifier */\n  0x02\n  0x00\n    /* \"contracts/zkp/verifier_plonk.sol\":488:524  verifier = Verifier(verifierAddress) */\n  0x0100\n  exp\n  dup2\n  sload\n  dup2\n  0xffffffffffffffffffffffffffffffffffffffff\n  mul\n  not\n  and\n  swap1\n  dup4\n  0xffffffffffffffffffffffffffffffffffffffff\n  and\n  mul\n  or\n  swap1\n  sstore\n  pop\n    /* \"contracts/zkp/verifier_plonk.sol\":440:532  constructor(address verifierAddress) {... */\n  pop\n    /* \"contracts/zkp/verifier_plonk.sol\":158:1213  contract IdentityVerification {... */\n  jump(tag_6)\n    /* \"#utility.yul\":88:205   */\ntag_8:\n    /* \"#utility.yul\":197:198   */\n  0x00\n    /* \"#utility.yul\":194:195   */\n  dup1\n    /* \"#utility.yul\":187:199   */\n  revert\n    /* \"#utility.yul\":334:460   */\ntag_10:\n    /* \"#utility.yul\":371:378   */\n  0x00\n    /* \"#utility.yul\":411:453   */\n  0xffffffffffffffffffffffffffffffffffffffff\n    /* \"#utility.yul\":404:409   */\n  dup3\n    /* \"#utility.yul\":400:454   */\n  and\n    /* \"#utility.yul\":389:454   */\n  swap1\n  pop\n    /* \"#utility.yul\":334:460   */\n  swap2\n  swap1\n  pop\n  jump\t// out\n    /* \"#utility.yul\":466:562   */\ntag_11:\n    /* \"#utility.yul\":503:510   */\n  0x00\n    /* \"#utility.yul\":532:556   */\n  tag_20\n    /* \"#utility.yul\":550:555   */\n  dup3\n    /* \"#utility.yul\":532:556   */\n  tag_10\n  jump\t// in\ntag_20:\n    /* \"#utility.yul\":521:556   */\n  swap1\n  pop\n    /* \"#utility.yul\":466:562   */\n  swap2\n  swap1\n  pop\n  jump\t// out\n    /* \"#utility.yul\":568:690   */\ntag_12:\n    /* \"#utility.yul\":641:665   */\n  tag_22\n    /* \"#utility.yul\":659:664   */\n  dup2\n    /* \"#utility.yul\":641:665   */\n  tag_11\n  jump\t// in\ntag_22:\n    /* \"#utility.yul\":634:639   */\n  dup2\n    /* \"#utility.yul\":631:666   */\n  eq\n    /* \"#utility.yul\":621:684   */\n  tag_23\n  jumpi\n    /* \"#utility.yul\":680:681   */\n  0x00\n    /* \"#utility.yul\":677:678   */\n  dup1\n    /* \"#utility.yul\":670:682   */\n  revert\n    /* \"#utility.yul\":621:684   */\ntag_23:\n    /* \"#utility.yul\":568:690   */\n  pop\n  jump\t// out\n    /* \"#utility.yul\":696:839   */\ntag_13:\n    /* \"#utility.yul\":753:758   */\n  0x00\n    /* \"#utility.yul\":784:790   */\n  dup2\n    /* \"#utility.yul\":778:791   */\n  mload\n    /* \"#utility.yul\":769:791   */\n  swap1\n  pop\n    /* \"#utility.yul\":800:833   */\n  tag_25\n    /* \"#utility.yul\":827:832   */\n  dup2\n    /* \"#utility.yul\":800:833   */\n  tag_12\n  jump\t// in\ntag_25:\n    /* \"#utility.yul\":696:839   */\n  swap3\n  swap2\n  pop\n  pop\n  jump\t// out\n    /* \"#utility.yul\":845:1196   */\ntag_3:\n    /* \"#utility.yul\":915:921   */\n  0x00\n    /* \"#utility.yul\":964:966   */\n  0x20\n    /* \"#utility.yul\":952:961   */\n  dup3\n    /* \"#utility.yul\":943:950   */\n  dup5\n    /* \"#utility.yul\":939:962   */\n  sub\n    /* \"#utility.yul\":935:967   */\n  slt\n    /* \"#utility.yul\":932:1051   */\n  iszero\n  tag_27\n  jumpi\n    /* \"#utility.yul\":970:1049   */\n  tag_28\n  tag_8\n  jump\t// in\ntag_28:\n    /* \"#utility.yul\":932:1051   */\ntag_27:\n    /* \"#utility.yul\":1090:1091   */\n  0x00\n    /* \"#utility.yul\":1115:1179   */\n  tag_29\n    /* \"#utility.yul\":1171:1178   */\n  dup5\n    /* \"#utility.yul\":1162:1168   */\n  dup3\n    /* \"#utility.yul\":1151:1160   */\n  dup6\n    /* \"#utility.yul\":1147:1169   */\n  add\n    /* \"#utility.yul\":1115:1179   */\n  tag_13\n  jump\t// in\ntag_29:\n    /* \"#utility.yul\":1105:1179   */\n  swap2\n  pop\n    /* \"#utility.yul\":1061:1189   */\n  pop\n    /* \"#utility.yul\":845:1196   */\n  swap3\n  swap2\n  pop\n  pop\n  jump\t// out\n    /* \"contracts/zkp/verifier_plonk.sol\":158:1213  contract IdentityVerification {... */\ntag_6:\n  dataSize(sub_0)\n  dup1\n  dataOffset(sub_0)\n  0x00\n  codecopy\n  0x00\n  return\nstop\n\nsub_0: assembly {\n        /* \"contracts/zkp/verifier_plonk.sol\":158:1213  contract IdentityVerification {... */\n      mstore(0x40, 0x80)\n      callvalue\n      dup1\n      iszero\n      tag_1\n      jumpi\n      0x00\n      dup1\n      revert\n    tag_1:\n      pop\n      jumpi(tag_2, lt(calldatasize, 0x04))\n      shr(0xe0, calldataload(0x00))\n      dup1\n      0x0f2f7ee1\n      eq\n      tag_3\n      jumpi\n      dup1\n      0xa87430ba\n      eq\n      tag_4\n      jumpi\n      dup1\n      0xb9209e33\n      eq\n      tag_5\n      jumpi\n    tag_2:\n      0x00\n      dup1\n      revert\n        /* \"contracts/zkp/verifier_plonk.sol\":540:932  function verifyIdentity(... */\n    tag_3:\n      tag_6\n      0x04\n      dup1\n      calldatasize\n      sub\n      dup2\n      add\n      swap1\n      tag_7\n      swap2\n      swap1\n      tag_8\n      jump\t// in\n    tag_7:\n      tag_9\n      jump\t// in\n    tag_6:\n      stop\n        /* \"contracts/zkp/verifier_plonk.sol\":319:356  mapping(address => User) public users */\n    tag_4:\n      tag_10\n      0x04\n      dup1\n      calldatasize\n      sub\n      dup2\n      add\n      swap1\n      tag_11\n      swap2\n      swap1\n      tag_12\n      jump\t// in\n    tag_11:\n      tag_13\n      jump\t// in\n    tag_10:\n      mload(0x40)\n      tag_14\n      swap4\n      swap3\n      swap2\n      swap1\n      tag_15\n      jump\t// in\n    tag_14:\n      mload(0x40)\n      dup1\n      swap2\n      sub\n      swap1\n      return\n        /* \"contracts/zkp/verifier_plonk.sol\":363:405  mapping(address => bool) public isVerified */\n    tag_5:\n      tag_16\n      0x04\n      dup1\n      calldatasize\n      sub\n      dup2\n      add\n      swap1\n      tag_17\n      swap2\n      swap1\n      tag_12\n      jump\t// in\n    tag_17:\n      tag_18\n      jump\t// in\n    tag_16:\n      mload(0x40)\n      tag_19\n      swap2\n      swap1\n      tag_20\n      jump\t// in\n    tag_19:\n      mload(0x40)\n      dup1\n      swap2\n      sub\n      swap1\n      return\n        /* \"contracts/zkp/verifier_plonk.sol\":540:932  function verifyIdentity(... */\n    tag_9:\n        /* \"contracts/zkp/verifier_plonk.sol\":636:646  isVerified */\n      0x01\n        /* \"contracts/zkp/verifier_plonk.sol\":636:658  isVerified[msg.sender] */\n      0x00\n        /* \"contracts/zkp/verifier_plonk.sol\":647:657  msg.sender */\n      caller\n        /* \"contracts/zkp/verifier_plonk.sol\":636:658  isVerified[msg.sender] */\n      0xffffffffffffffffffffffffffffffffffffffff\n      and\n      0xffffffffffffffffffffffffffffffffffffffff\n      and\n      dup2\n      mstore\n      0x20\n      add\n      swap1\n      dup2\n      mstore\n      0x20\n      add\n      0x00\n      keccak256\n      0x00\n      swap1\n      sload\n      swap1\n      0x0100\n      exp\n      swap1\n      div\n      0xff\n      and\n        /* \"contracts/zkp/verifier_plonk.sol\":635:658  !isVerified[msg.sender] */\n      iszero\n        /* \"contracts/zkp/verifier_plonk.sol\":627:679  require(!isVerified[msg.sender], \"Already verified\") */\n      tag_22\n      jumpi\n      mload(0x40)\n      0x08c379a000000000000000000000000000000000000000000000000000000000\n      dup2\n      mstore\n      0x04\n      add\n      tag_23\n      swap1\n      tag_24\n      jump\t// in\n    tag_23:\n      mload(0x40)\n      dup1\n      swap2\n      sub\n      swap1\n      revert\n    tag_22:\n        /* \"contracts/zkp/verifier_plonk.sol\":783:801  verifyProof(proof) */\n      tag_25\n        /* \"contracts/zkp/verifier_plonk.sol\":795:800  proof */\n      dup2\n        /* \"contracts/zkp/verifier_plonk.sol\":783:794  verifyProof */\n      tag_26\n        /* \"contracts/zkp/verifier_plonk.sol\":783:801  verifyProof(proof) */\n      jump\t// in\n    tag_25:\n        /* \"contracts/zkp/verifier_plonk.sol\":775:819  require(verifyProof(proof), \"Invalid proof\") */\n      tag_27\n      jumpi\n      mload(0x40)\n      0x08c379a000000000000000000000000000000000000000000000000000000000\n      dup2\n      mstore\n      0x04\n      add\n      tag_28\n      swap1\n      tag_29\n      jump\t// in\n    tag_28:\n      mload(0x40)\n      dup1\n      swap2\n      sub\n      swap1\n      revert\n    tag_27:\n        /* \"contracts/zkp/verifier_plonk.sol\":920:924  true */\n      0x01\n        /* \"contracts/zkp/verifier_plonk.sol\":895:905  isVerified */\n      dup1\n        /* \"contracts/zkp/verifier_plonk.sol\":895:917  isVerified[msg.sender] */\n      0x00\n        /* \"contracts/zkp/verifier_plonk.sol\":906:916  msg.sender */\n      caller\n        /* \"contracts/zkp/verifier_plonk.sol\":895:917  isVerified[msg.sender] */\n      0xffffffffffffffffffffffffffffffffffffffff\n      and\n      0xffffffffffffffffffffffffffffffffffffffff\n      and\n      dup2\n      mstore\n      0x20\n      add\n      swap1\n      dup2\n      mstore\n      0x20\n      add\n      0x00\n      keccak256\n      0x00\n        /* \"contracts/zkp/verifier_plonk.sol\":895:924  isVerified[msg.sender] = true */\n      0x0100\n      exp\n      dup2\n      sload\n      dup2\n      0xff\n      mul\n      not\n      and\n      swap1\n      dup4\n      iszero\n      iszero\n      mul\n      or\n      swap1\n      sstore\n      pop\n        /* \"contracts/zkp/verifier_plonk.sol\":540:932  function verifyIdentity(... */\n      pop\n      jump\t// out\n        /* \"contracts/zkp/verifier_plonk.sol\":319:356  mapping(address => User) public users */\n    tag_13:\n      mstore(0x20, 0x00)\n      dup1\n      0x00\n      mstore\n      keccak256(0x00, 0x40)\n      0x00\n      swap2\n      pop\n      swap1\n      pop\n      dup1\n      0x00\n      add\n      dup1\n      sload\n      tag_30\n      swap1\n      tag_31\n      jump\t// in\n    tag_30:\n      dup1\n      0x1f\n      add\n      0x20\n      dup1\n      swap2\n      div\n      mul\n      0x20\n      add\n      mload(0x40)\n      swap1\n      dup2\n      add\n      0x40\n      mstore\n      dup1\n      swap3\n      swap2\n      swap1\n      dup2\n      dup2\n      mstore\n      0x20\n      add\n      dup3\n      dup1\n      sload\n      tag_32\n      swap1\n      tag_31\n      jump\t// in\n    tag_32:\n      dup1\n      iszero\n      tag_33\n      jumpi\n      dup1\n      0x1f\n      lt\n      tag_34\n      jumpi\n      0x0100\n      dup1\n      dup4\n      sload\n      div\n      mul\n      dup4\n      mstore\n      swap2\n      0x20\n      add\n      swap2\n      jump(tag_33)\n    tag_34:\n      dup3\n      add\n      swap2\n      swap1\n      0x00\n      mstore\n      keccak256(0x00, 0x20)\n      swap1\n    tag_35:\n      dup2\n      sload\n      dup2\n      mstore\n      swap1\n      0x01\n      add\n      swap1\n      0x20\n      add\n      dup1\n      dup4\n      gt\n      tag_35\n      jumpi\n      dup3\n      swap1\n      sub\n      0x1f\n      and\n      dup3\n      add\n      swap2\n    tag_33:\n      pop\n      pop\n      pop\n      pop\n      pop\n      swap1\n      dup1\n      0x01\n      add\n      dup1\n      sload\n      tag_36\n      swap1\n      tag_31\n      jump\t// in\n    tag_36:\n      dup1\n      0x1f\n      add\n      0x20\n      dup1\n      swap2\n      div\n      mul\n      0x20\n      add\n      mload(0x40)\n      swap1\n      dup2\n      add\n      0x40\n      mstore\n      dup1\n      swap3\n      swap2\n      swap1\n      dup2\n      dup2\n      mstore\n      0x20\n      add\n      dup3\n      dup1\n      sload\n      tag_37\n      swap1\n      tag_31\n      jump\t// in\n    tag_37:\n      dup1\n      iszero\n      tag_38\n      jumpi\n      dup1\n      0x1f\n      lt\n      tag_39\n      jumpi\n      0x0100\n      dup1\n      dup4\n      sload\n      div\n      mul\n      dup4\n      mstore\n      swap2\n      0x20\n      add\n      swap2\n      jump(tag_38)\n    tag_39:\n      dup3\n      add\n      swap2\n      swap1\n      0x00\n      mstore\n      keccak256(0x00, 0x20)\n      swap1\n    tag_40:\n      dup2\n      sload\n      dup2\n      mstore\n      swap1\n      0x01\n      add\n      swap1\n      0x20\n      add\n      dup1\n      dup4\n      gt\n      tag_40\n      jumpi\n      dup3\n      swap1\n      sub\n      0x1f\n      and\n      dup3\n      add\n      swap2\n    tag_38:\n      pop\n      pop\n      pop\n      pop\n      pop\n      swap1\n      dup1\n      0x02\n      add\n      dup1\n      sload\n      tag_41\n      swap1\n      tag_31\n      jump\t// in\n    tag_41:\n      dup1\n      0x1f\n      add\n      0x20\n      dup1\n      swap2\n      div\n      mul\n      0x20\n      add\n      mload(0x40)\n      swap1\n      dup2\n      add\n      0x40\n      mstore\n      dup1\n      swap3\n      swap2\n      swap1\n      dup2\n      dup2\n      mstore\n      0x20\n      add\n      dup3\n      dup1\n      sload\n      tag_42\n      swap1\n      tag_31\n      jump\t// in\n    tag_42:\n      dup1\n      iszero\n      tag_43\n      jumpi\n      dup1\n      0x1f\n      lt\n      tag_44\n      jumpi\n      0x0100\n      dup1\n      dup4\n      sload\n      div\n      mul\n      dup4\n      mstore\n      swap2\n      0x20\n      add\n      swap2\n      jump(tag_43)\n    tag_44:\n      dup3\n      add\n      swap2\n      swap1\n      0x00\n      mstore\n      keccak256(0x00, 0x20)\n      swap1\n    tag_45:\n      dup2\n      sload\n      dup2\n      mstore\n      swap1\n      0x01\n      add\n      swap1\n      0x20\n      add\n      dup1\n      dup4\n      gt\n      tag_45\n      jumpi\n      dup3\n      swap1\n      sub\n      0x1f\n      and\n      dup3\n      add\n      swap2\n    tag_43:\n      pop\n      pop\n      pop\n      pop\n      pop\n      swap1\n      pop\n      dup4\n      jump\t// out\n        /* \"contracts/zkp/verifier_plonk.sol\":363:405  mapping(address => bool) public isVerified */\n    tag_18:\n      mstore(0x20, 0x01)\n      dup1\n      0x00\n      mstore\n      keccak256(0x00, 0x40)\n      0x00\n      swap2\n      pop\n      sload\n      swap1\n      0x0100\n      exp\n      swap1\n      div\n      0xff\n      and\n      dup2\n      jump\t// out\n        /* \"contracts/zkp/verifier_plonk.sol\":991:1203  function verifyProof(... */\n    tag_26:\n        /* \"contracts/zkp/verifier_plonk.sol\":1080:1084  bool */\n      0x00\n        /* \"contracts/zkp/verifier_plonk.sol\":1171:1179  verifier */\n      0x02\n      0x00\n      swap1\n      sload\n      swap1\n      0x0100\n      exp\n      swap1\n      div\n      0xffffffffffffffffffffffffffffffffffffffff\n      and\n        /* \"contracts/zkp/verifier_plonk.sol\":1171:1188  verifier.verifyTx */\n      0xffffffffffffffffffffffffffffffffffffffff\n      and\n      0xf6af0311\n        /* \"contracts/zkp/verifier_plonk.sol\":1189:1194  proof */\n      dup4\n        /* \"contracts/zkp/verifier_plonk.sol\":1171:1195  verifier.verifyTx(proof) */\n      mload(0x40)\n      dup3\n      0xffffffff\n      and\n      0xe0\n      shl\n      dup2\n      mstore\n      0x04\n      add\n      tag_47\n      swap2\n      swap1\n      tag_48\n      jump\t// in\n    tag_47:\n      0x20\n      mload(0x40)\n      dup1\n      dup4\n      sub\n      dup2\n      dup7\n      gas\n      staticcall\n      iszero\n      dup1\n      iszero\n      tag_50\n      jumpi\n      returndatasize\n      0x00\n      dup1\n      returndatacopy\n      revert(0x00, returndatasize)\n    tag_50:\n      pop\n      pop\n      pop\n      pop\n      mload(0x40)\n      returndatasize\n      not(0x1f)\n      0x1f\n      dup3\n      add\n      and\n      dup3\n      add\n      dup1\n      0x40\n      mstore\n      pop\n      dup2\n      add\n      swap1\n      tag_51\n      swap2\n      swap1\n      tag_52\n      jump\t// in\n    tag_51:\n        /* \"contracts/zkp/verifier_plonk.sol\":1164:1195  return verifier.verifyTx(proof) */\n      swap1\n      pop\n        /* \"contracts/zkp/verifier_plonk.sol\":991:1203  function verifyProof(... */\n      swap2\n      swap1\n      pop\n      jump\t// out\n        /* \"#utility.yul\":7:82   */\n    tag_53:\n        /* \"#utility.yul\":40:46   */\n      0x00\n        /* \"#utility.yul\":73:75   */\n      0x40\n        /* \"#utility.yul\":67:76   */\n      mload\n        /* \"#utility.yul\":57:76   */\n      swap1\n      pop\n        /* \"#utility.yul\":7:82   */\n      swap1\n      jump\t// out\n        /* \"#utility.yul\":88:205   */\n    tag_54:\n        /* \"#utility.yul\":197:198   */\n      0x00\n        /* \"#utility.yul\":194:195   */\n      dup1\n        /* \"#utility.yul\":187:199   */\n      revert\n        /* \"#utility.yul\":334:451   */\n    tag_56:\n        /* \"#utility.yul\":443:444   */\n      0x00\n        /* \"#utility.yul\":440:441   */\n      dup1\n        /* \"#utility.yul\":433:445   */\n      revert\n        /* \"#utility.yul\":457:559   */\n    tag_57:\n        /* \"#utility.yul\":498:504   */\n      0x00\n        /* \"#utility.yul\":549:551   */\n      0x1f\n        /* \"#utility.yul\":545:552   */\n      not\n        /* \"#utility.yul\":540:542   */\n      0x1f\n        /* \"#utility.yul\":533:538   */\n      dup4\n        /* \"#utility.yul\":529:543   */\n      add\n        /* \"#utility.yul\":525:553   */\n      and\n        /* \"#utility.yul\":515:553   */\n      swap1\n      pop\n        /* \"#utility.yul\":457:559   */\n      swap2\n      swap1\n      pop\n      jump\t// out\n        /* \"#utility.yul\":565:745   */\n    tag_58:\n        /* \"#utility.yul\":613:690   */\n      0x4e487b7100000000000000000000000000000000000000000000000000000000\n        /* \"#utility.yul\":610:611   */\n      0x00\n        /* \"#utility.yul\":603:691   */\n      mstore\n        /* \"#utility.yul\":710:714   */\n      0x41\n        /* \"#utility.yul\":707:708   */\n      0x04\n        /* \"#utility.yul\":700:715   */\n      mstore\n        /* \"#utility.yul\":734:738   */\n      0x24\n        /* \"#utility.yul\":731:732   */\n      0x00\n        /* \"#utility.yul\":724:739   */\n      revert\n        /* \"#utility.yul\":751:1032   */\n    tag_59:\n        /* \"#utility.yul\":834:861   */\n      tag_108\n        /* \"#utility.yul\":856:860   */\n      dup3\n        /* \"#utility.yul\":834:861   */\n      tag_57\n      jump\t// in\n    tag_108:\n        /* \"#utility.yul\":826:832   */\n      dup2\n        /* \"#utility.yul\":822:862   */\n      add\n        /* \"#utility.yul\":964:970   */\n      dup2\n        /* \"#utility.yul\":952:962   */\n      dup2\n        /* \"#utility.yul\":949:971   */\n      lt\n        /* \"#utility.yul\":928:946   */\n      0xffffffffffffffff\n        /* \"#utility.yul\":916:926   */\n      dup3\n        /* \"#utility.yul\":913:947   */\n      gt\n        /* \"#utility.yul\":910:972   */\n      or\n        /* \"#utility.yul\":907:995   */\n      iszero\n      tag_109\n      jumpi\n        /* \"#utility.yul\":975:993   */\n      tag_110\n      tag_58\n      jump\t// in\n    tag_110:\n        /* \"#utility.yul\":907:995   */\n    tag_109:\n        /* \"#utility.yul\":1015:1025   */\n      dup1\n        /* \"#utility.yul\":1011:1013   */\n      0x40\n        /* \"#utility.yul\":1004:1026   */\n      mstore\n        /* \"#utility.yul\":794:1032   */\n      pop\n        /* \"#utility.yul\":751:1032   */\n      pop\n      pop\n      jump\t// out\n        /* \"#utility.yul\":1038:1167   */\n    tag_60:\n        /* \"#utility.yul\":1072:1078   */\n      0x00\n        /* \"#utility.yul\":1099:1119   */\n      tag_112\n      tag_53\n      jump\t// in\n    tag_112:\n        /* \"#utility.yul\":1089:1119   */\n      swap1\n      pop\n        /* \"#utility.yul\":1128:1161   */\n      tag_113\n        /* \"#utility.yul\":1156:1160   */\n      dup3\n        /* \"#utility.yul\":1148:1154   */\n      dup3\n        /* \"#utility.yul\":1128:1161   */\n      tag_59\n      jump\t// in\n    tag_113:\n        /* \"#utility.yul\":1038:1167   */\n      swap2\n      swap1\n      pop\n      jump\t// out\n        /* \"#utility.yul\":1296:1373   */\n    tag_62:\n        /* \"#utility.yul\":1333:1340   */\n      0x00\n        /* \"#utility.yul\":1362:1367   */\n      dup2\n        /* \"#utility.yul\":1351:1367   */\n      swap1\n      pop\n        /* \"#utility.yul\":1296:1373   */\n      swap2\n      swap1\n      pop\n      jump\t// out\n        /* \"#utility.yul\":1379:1501   */\n    tag_63:\n        /* \"#utility.yul\":1452:1476   */\n      tag_117\n        /* \"#utility.yul\":1470:1475   */\n      dup2\n        /* \"#utility.yul\":1452:1476   */\n      tag_62\n      jump\t// in\n    tag_117:\n        /* \"#utility.yul\":1445:1450   */\n      dup2\n        /* \"#utility.yul\":1442:1477   */\n      eq\n        /* \"#utility.yul\":1432:1495   */\n      tag_118\n      jumpi\n        /* \"#utility.yul\":1491:1492   */\n      0x00\n        /* \"#utility.yul\":1488:1489   */\n      dup1\n        /* \"#utility.yul\":1481:1493   */\n      revert\n        /* \"#utility.yul\":1432:1495   */\n    tag_118:\n        /* \"#utility.yul\":1379:1501   */\n      pop\n      jump\t// out\n        /* \"#utility.yul\":1507:1646   */\n    tag_64:\n        /* \"#utility.yul\":1553:1558   */\n      0x00\n        /* \"#utility.yul\":1591:1597   */\n      dup2\n        /* \"#utility.yul\":1578:1598   */\n      calldataload\n        /* \"#utility.yul\":1569:1598   */\n      swap1\n      pop\n        /* \"#utility.yul\":1607:1640   */\n      tag_120\n        /* \"#utility.yul\":1634:1639   */\n      dup2\n        /* \"#utility.yul\":1607:1640   */\n      tag_63\n      jump\t// in\n    tag_120:\n        /* \"#utility.yul\":1507:1646   */\n      swap3\n      swap2\n      pop\n      pop\n      jump\t// out\n        /* \"#utility.yul\":1682:2247   */\n    tag_65:\n        /* \"#utility.yul\":1753:1758   */\n      0x00\n        /* \"#utility.yul\":1797:1801   */\n      0x40\n        /* \"#utility.yul\":1785:1794   */\n      dup3\n        /* \"#utility.yul\":1780:1783   */\n      dup5\n        /* \"#utility.yul\":1776:1795   */\n      sub\n        /* \"#utility.yul\":1772:1802   */\n      slt\n        /* \"#utility.yul\":1769:1886   */\n      iszero\n      tag_122\n      jumpi\n        /* \"#utility.yul\":1805:1884   */\n      tag_123\n      tag_56\n      jump\t// in\n    tag_123:\n        /* \"#utility.yul\":1769:1886   */\n    tag_122:\n        /* \"#utility.yul\":1904:1925   */\n      tag_124\n        /* \"#utility.yul\":1920:1924   */\n      0x40\n        /* \"#utility.yul\":1904:1925   */\n      tag_60\n      jump\t// in\n    tag_124:\n        /* \"#utility.yul\":1895:1925   */\n      swap1\n      pop\n        /* \"#utility.yul\":1981:1982   */\n      0x00\n        /* \"#utility.yul\":2021:2070   */\n      tag_125\n        /* \"#utility.yul\":2066:2069   */\n      dup5\n        /* \"#utility.yul\":2057:2063   */\n      dup3\n        /* \"#utility.yul\":2046:2055   */\n      dup6\n        /* \"#utility.yul\":2042:2064   */\n      add\n        /* \"#utility.yul\":2021:2070   */\n      tag_64\n      jump\t// in\n    tag_125:\n        /* \"#utility.yul\":2014:2018   */\n      0x00\n        /* \"#utility.yul\":2007:2012   */\n      dup4\n        /* \"#utility.yul\":2003:2019   */\n      add\n        /* \"#utility.yul\":1996:2071   */\n      mstore\n        /* \"#utility.yul\":1935:2082   */\n      pop\n        /* \"#utility.yul\":2138:2140   */\n      0x20\n        /* \"#utility.yul\":2179:2228   */\n      tag_126\n        /* \"#utility.yul\":2224:2227   */\n      dup5\n        /* \"#utility.yul\":2215:2221   */\n      dup3\n        /* \"#utility.yul\":2204:2213   */\n      dup6\n        /* \"#utility.yul\":2200:2222   */\n      add\n        /* \"#utility.yul\":2179:2228   */\n      tag_64\n      jump\t// in\n    tag_126:\n        /* \"#utility.yul\":2172:2176   */\n      0x20\n        /* \"#utility.yul\":2165:2170   */\n      dup4\n        /* \"#utility.yul\":2161:2177   */\n      add\n        /* \"#utility.yul\":2154:2229   */\n      mstore\n        /* \"#utility.yul\":2092:2240   */\n      pop\n        /* \"#utility.yul\":1682:2247   */\n      swap3\n      swap2\n      pop\n      pop\n      jump\t// out\n        /* \"#utility.yul\":2253:2370   */\n    tag_66:\n        /* \"#utility.yul\":2362:2363   */\n      0x00\n        /* \"#utility.yul\":2359:2360   */\n      dup1\n        /* \"#utility.yul\":2352:2364   */\n      revert\n        /* \"#utility.yul\":2376:2625   */\n    tag_67:\n        /* \"#utility.yul\":2451:2455   */\n      0x00\n        /* \"#utility.yul\":2541:2559   */\n      0xffffffffffffffff\n        /* \"#utility.yul\":2533:2539   */\n      dup3\n        /* \"#utility.yul\":2530:2560   */\n      gt\n        /* \"#utility.yul\":2527:2583   */\n      iszero\n      tag_129\n      jumpi\n        /* \"#utility.yul\":2563:2581   */\n      tag_130\n      tag_58\n      jump\t// in\n    tag_130:\n        /* \"#utility.yul\":2527:2583   */\n    tag_129:\n        /* \"#utility.yul\":2613:2617   */\n      0x20\n        /* \"#utility.yul\":2605:2611   */\n      dup3\n        /* \"#utility.yul\":2601:2618   */\n      mul\n        /* \"#utility.yul\":2593:2618   */\n      swap1\n      pop\n        /* \"#utility.yul\":2376:2625   */\n      swap2\n      swap1\n      pop\n      jump\t// out\n        /* \"#utility.yul\":2631:2748   */\n    tag_68:\n        /* \"#utility.yul\":2740:2741   */\n      0x00\n        /* \"#utility.yul\":2737:2738   */\n      dup1\n        /* \"#utility.yul\":2730:2742   */\n      revert\n        /* \"#utility.yul\":2772:3415   */\n    tag_69:\n        /* \"#utility.yul\":2866:2871   */\n      0x00\n        /* \"#utility.yul\":2891:2970   */\n      tag_133\n        /* \"#utility.yul\":2907:2969   */\n      tag_134\n        /* \"#utility.yul\":2962:2968   */\n      dup5\n        /* \"#utility.yul\":2907:2969   */\n      tag_67\n      jump\t// in\n    tag_134:\n        /* \"#utility.yul\":2891:2970   */\n      tag_60\n      jump\t// in\n    tag_133:\n        /* \"#utility.yul\":2882:2970   */\n      swap1\n      pop\n        /* \"#utility.yul\":2990:2995   */\n      dup1\n        /* \"#utility.yul\":3043:3047   */\n      0x20\n        /* \"#utility.yul\":3035:3041   */\n      dup5\n        /* \"#utility.yul\":3031:3048   */\n      mul\n        /* \"#utility.yul\":3023:3029   */\n      dup4\n        /* \"#utility.yul\":3019:3049   */\n      add\n        /* \"#utility.yul\":3072:3075   */\n      dup6\n        /* \"#utility.yul\":3064:3070   */\n      dup2\n        /* \"#utility.yul\":3061:3076   */\n      gt\n        /* \"#utility.yul\":3058:3180   */\n      iszero\n      tag_135\n      jumpi\n        /* \"#utility.yul\":3091:3170   */\n      tag_136\n      tag_68\n      jump\t// in\n    tag_136:\n        /* \"#utility.yul\":3058:3180   */\n    tag_135:\n        /* \"#utility.yul\":3206:3212   */\n      dup4\n        /* \"#utility.yul\":3189:3409   */\n    tag_137:\n        /* \"#utility.yul\":3223:3229   */\n      dup2\n        /* \"#utility.yul\":3218:3221   */\n      dup2\n        /* \"#utility.yul\":3215:3230   */\n      lt\n        /* \"#utility.yul\":3189:3409   */\n      iszero\n      tag_139\n      jumpi\n        /* \"#utility.yul\":3298:3301   */\n      dup1\n        /* \"#utility.yul\":3327:3364   */\n      tag_140\n        /* \"#utility.yul\":3360:3363   */\n      dup9\n        /* \"#utility.yul\":3348:3358   */\n      dup3\n        /* \"#utility.yul\":3327:3364   */\n      tag_64\n      jump\t// in\n    tag_140:\n        /* \"#utility.yul\":3322:3325   */\n      dup5\n        /* \"#utility.yul\":3315:3365   */\n      mstore\n        /* \"#utility.yul\":3394:3398   */\n      0x20\n        /* \"#utility.yul\":3389:3392   */\n      dup5\n        /* \"#utility.yul\":3385:3399   */\n      add\n        /* \"#utility.yul\":3378:3399   */\n      swap4\n      pop\n        /* \"#utility.yul\":3265:3409   */\n      pop\n        /* \"#utility.yul\":3249:3253   */\n      0x20\n        /* \"#utility.yul\":3244:3247   */\n      dup2\n        /* \"#utility.yul\":3240:3254   */\n      add\n        /* \"#utility.yul\":3233:3254   */\n      swap1\n      pop\n        /* \"#utility.yul\":3189:3409   */\n      jump(tag_137)\n    tag_139:\n        /* \"#utility.yul\":3193:3214   */\n      pop\n        /* \"#utility.yul\":2872:3415   */\n      pop\n      pop\n        /* \"#utility.yul\":2772:3415   */\n      swap4\n      swap3\n      pop\n      pop\n      pop\n      jump\t// out\n        /* \"#utility.yul\":3439:3778   */\n    tag_70:\n        /* \"#utility.yul\":3508:3513   */\n      0x00\n        /* \"#utility.yul\":3557:3560   */\n      dup3\n        /* \"#utility.yul\":3550:3554   */\n      0x1f\n        /* \"#utility.yul\":3542:3548   */\n      dup4\n        /* \"#utility.yul\":3538:3555   */\n      add\n        /* \"#utility.yul\":3534:3561   */\n      slt\n        /* \"#utility.yul\":3524:3646   */\n      tag_142\n      jumpi\n        /* \"#utility.yul\":3565:3644   */\n      tag_143\n      tag_66\n      jump\t// in\n    tag_143:\n        /* \"#utility.yul\":3524:3646   */\n    tag_142:\n        /* \"#utility.yul\":3669:3673   */\n      0x02\n        /* \"#utility.yul\":3691:3772   */\n      tag_144\n        /* \"#utility.yul\":3768:3771   */\n      dup5\n        /* \"#utility.yul\":3760:3766   */\n      dup3\n        /* \"#utility.yul\":3752:3758   */\n      dup6\n        /* \"#utility.yul\":3691:3772   */\n      tag_69\n      jump\t// in\n    tag_144:\n        /* \"#utility.yul\":3682:3772   */\n      swap2\n      pop\n        /* \"#utility.yul\":3514:3778   */\n      pop\n        /* \"#utility.yul\":3439:3778   */\n      swap3\n      swap2\n      pop\n      pop\n      jump\t// out\n        /* \"#utility.yul\":3814:4426   */\n    tag_71:\n        /* \"#utility.yul\":3886:3891   */\n      0x00\n        /* \"#utility.yul\":3930:3934   */\n      0x80\n        /* \"#utility.yul\":3918:3927   */\n      dup3\n        /* \"#utility.yul\":3913:3916   */\n      dup5\n        /* \"#utility.yul\":3909:3928   */\n      sub\n        /* \"#utility.yul\":3905:3935   */\n      slt\n        /* \"#utility.yul\":3902:4019   */\n      iszero\n      tag_146\n      jumpi\n        /* \"#utility.yul\":3938:4017   */\n      tag_147\n      tag_56\n      jump\t// in\n    tag_147:\n        /* \"#utility.yul\":3902:4019   */\n    tag_146:\n        /* \"#utility.yul\":4037:4058   */\n      tag_148\n        /* \"#utility.yul\":4053:4057   */\n      0x40\n        /* \"#utility.yul\":4037:4058   */\n      tag_60\n      jump\t// in\n    tag_148:\n        /* \"#utility.yul\":4028:4058   */\n      swap1\n      pop\n        /* \"#utility.yul\":4114:4115   */\n      0x00\n        /* \"#utility.yul\":4154:4226   */\n      tag_149\n        /* \"#utility.yul\":4222:4225   */\n      dup5\n        /* \"#utility.yul\":4213:4219   */\n      dup3\n        /* \"#utility.yul\":4202:4211   */\n      dup6\n        /* \"#utility.yul\":4198:4220   */\n      add\n        /* \"#utility.yul\":4154:4226   */\n      tag_70\n      jump\t// in\n    tag_149:\n        /* \"#utility.yul\":4147:4151   */\n      0x00\n        /* \"#utility.yul\":4140:4145   */\n      dup4\n        /* \"#utility.yul\":4136:4152   */\n      add\n        /* \"#utility.yul\":4129:4227   */\n      mstore\n        /* \"#utility.yul\":4068:4238   */\n      pop\n        /* \"#utility.yul\":4294:4296   */\n      0x40\n        /* \"#utility.yul\":4335:4407   */\n      tag_150\n        /* \"#utility.yul\":4403:4406   */\n      dup5\n        /* \"#utility.yul\":4394:4400   */\n      dup3\n        /* \"#utility.yul\":4383:4392   */\n      dup6\n        /* \"#utility.yul\":4379:4401   */\n      add\n        /* \"#utility.yul\":4335:4407   */\n      tag_70\n      jump\t// in\n    tag_150:\n        /* \"#utility.yul\":4328:4332   */\n      0x20\n        /* \"#utility.yul\":4321:4326   */\n      dup4\n        /* \"#utility.yul\":4317:4333   */\n      add\n        /* \"#utility.yul\":4310:4408   */\n      mstore\n        /* \"#utility.yul\":4248:4419   */\n      pop\n        /* \"#utility.yul\":3814:4426   */\n      swap3\n      swap2\n      pop\n      pop\n      jump\t// out\n        /* \"#utility.yul\":4461:5254   */\n    tag_72:\n        /* \"#utility.yul\":4532:4537   */\n      0x00\n        /* \"#utility.yul\":4576:4582   */\n      0x0100\n        /* \"#utility.yul\":4564:4573   */\n      dup3\n        /* \"#utility.yul\":4559:4562   */\n      dup5\n        /* \"#utility.yul\":4555:4574   */\n      sub\n        /* \"#utility.yul\":4551:4583   */\n      slt\n        /* \"#utility.yul\":4548:4667   */\n      iszero\n      tag_152\n      jumpi\n        /* \"#utility.yul\":4586:4665   */\n      tag_153\n      tag_56\n      jump\t// in\n    tag_153:\n        /* \"#utility.yul\":4548:4667   */\n    tag_152:\n        /* \"#utility.yul\":4685:4706   */\n      tag_154\n        /* \"#utility.yul\":4701:4705   */\n      0x60\n        /* \"#utility.yul\":4685:4706   */\n      tag_60\n      jump\t// in\n    tag_154:\n        /* \"#utility.yul\":4676:4706   */\n      swap1\n      pop\n        /* \"#utility.yul\":4762:4763   */\n      0x00\n        /* \"#utility.yul\":4802:4873   */\n      tag_155\n        /* \"#utility.yul\":4869:4872   */\n      dup5\n        /* \"#utility.yul\":4860:4866   */\n      dup3\n        /* \"#utility.yul\":4849:4858   */\n      dup6\n        /* \"#utility.yul\":4845:4867   */\n      add\n        /* \"#utility.yul\":4802:4873   */\n      tag_65\n      jump\t// in\n    tag_155:\n        /* \"#utility.yul\":4795:4799   */\n      0x00\n        /* \"#utility.yul\":4788:4793   */\n      dup4\n        /* \"#utility.yul\":4784:4800   */\n      add\n        /* \"#utility.yul\":4777:4874   */\n      mstore\n        /* \"#utility.yul\":4716:4885   */\n      pop\n        /* \"#utility.yul\":4941:4943   */\n      0x40\n        /* \"#utility.yul\":4982:5054   */\n      tag_156\n        /* \"#utility.yul\":5050:5053   */\n      dup5\n        /* \"#utility.yul\":5041:5047   */\n      dup3\n        /* \"#utility.yul\":5030:5039   */\n      dup6\n        /* \"#utility.yul\":5026:5048   */\n      add\n        /* \"#utility.yul\":4982:5054   */\n      tag_71\n      jump\t// in\n    tag_156:\n        /* \"#utility.yul\":4975:4979   */\n      0x20\n        /* \"#utility.yul\":4968:4973   */\n      dup4\n        /* \"#utility.yul\":4964:4980   */\n      add\n        /* \"#utility.yul\":4957:5055   */\n      mstore\n        /* \"#utility.yul\":4895:5066   */\n      pop\n        /* \"#utility.yul\":5122:5125   */\n      0xc0\n        /* \"#utility.yul\":5164:5235   */\n      tag_157\n        /* \"#utility.yul\":5231:5234   */\n      dup5\n        /* \"#utility.yul\":5222:5228   */\n      dup3\n        /* \"#utility.yul\":5211:5220   */\n      dup6\n        /* \"#utility.yul\":5207:5229   */\n      add\n        /* \"#utility.yul\":5164:5235   */\n      tag_65\n      jump\t// in\n    tag_157:\n        /* \"#utility.yul\":5157:5161   */\n      0x40\n        /* \"#utility.yul\":5150:5155   */\n      dup4\n        /* \"#utility.yul\":5146:5162   */\n      add\n        /* \"#utility.yul\":5139:5236   */\n      mstore\n        /* \"#utility.yul\":5076:5247   */\n      pop\n        /* \"#utility.yul\":4461:5254   */\n      swap3\n      swap2\n      pop\n      pop\n      jump\t// out\n        /* \"#utility.yul\":5260:5634   */\n    tag_8:\n        /* \"#utility.yul\":5341:5347   */\n      0x00\n        /* \"#utility.yul\":5390:5393   */\n      0x0100\n        /* \"#utility.yul\":5378:5387   */\n      dup3\n        /* \"#utility.yul\":5369:5376   */\n      dup5\n        /* \"#utility.yul\":5365:5388   */\n      sub\n        /* \"#utility.yul\":5361:5394   */\n      slt\n        /* \"#utility.yul\":5358:5478   */\n      iszero\n      tag_159\n      jumpi\n        /* \"#utility.yul\":5397:5476   */\n      tag_160\n      tag_54\n      jump\t// in\n    tag_160:\n        /* \"#utility.yul\":5358:5478   */\n    tag_159:\n        /* \"#utility.yul\":5517:5518   */\n      0x00\n        /* \"#utility.yul\":5542:5617   */\n      tag_161\n        /* \"#utility.yul\":5609:5616   */\n      dup5\n        /* \"#utility.yul\":5600:5606   */\n      dup3\n        /* \"#utility.yul\":5589:5598   */\n      dup6\n        /* \"#utility.yul\":5585:5607   */\n      add\n        /* \"#utility.yul\":5542:5617   */\n      tag_72\n      jump\t// in\n    tag_161:\n        /* \"#utility.yul\":5532:5617   */\n      swap2\n      pop\n        /* \"#utility.yul\":5488:5627   */\n      pop\n        /* \"#utility.yul\":5260:5634   */\n      swap3\n      swap2\n      pop\n      pop\n      jump\t// out\n        /* \"#utility.yul\":5640:5766   */\n    tag_73:\n        /* \"#utility.yul\":5677:5684   */\n      0x00\n        /* \"#utility.yul\":5717:5759   */\n      0xffffffffffffffffffffffffffffffffffffffff\n        /* \"#utility.yul\":5710:5715   */\n      dup3\n        /* \"#utility.yul\":5706:5760   */\n      and\n        /* \"#utility.yul\":5695:5760   */\n      swap1\n      pop\n        /* \"#utility.yul\":5640:5766   */\n      swap2\n      swap1\n      pop\n      jump\t// out\n        /* \"#utility.yul\":5772:5868   */\n    tag_74:\n        /* \"#utility.yul\":5809:5816   */\n      0x00\n        /* \"#utility.yul\":5838:5862   */\n      tag_164\n        /* \"#utility.yul\":5856:5861   */\n      dup3\n        /* \"#utility.yul\":5838:5862   */\n      tag_73\n      jump\t// in\n    tag_164:\n        /* \"#utility.yul\":5827:5862   */\n      swap1\n      pop\n        /* \"#utility.yul\":5772:5868   */\n      swap2\n      swap1\n      pop\n      jump\t// out\n        /* \"#utility.yul\":5874:5996   */\n    tag_75:\n        /* \"#utility.yul\":5947:5971   */\n      tag_166\n        /* \"#utility.yul\":5965:5970   */\n      dup2\n        /* \"#utility.yul\":5947:5971   */\n      tag_74\n      jump\t// in\n    tag_166:\n        /* \"#utility.yul\":5940:5945   */\n      dup2\n        /* \"#utility.yul\":5937:5972   */\n      eq\n        /* \"#utility.yul\":5927:5990   */\n      tag_167\n      jumpi\n        /* \"#utility.yul\":5986:5987   */\n      0x00\n        /* \"#utility.yul\":5983:5984   */\n      dup1\n        /* \"#utility.yul\":5976:5988   */\n      revert\n        /* \"#utility.yul\":5927:5990   */\n    tag_167:\n        /* \"#utility.yul\":5874:5996   */\n      pop\n      jump\t// out\n        /* \"#utility.yul\":6002:6141   */\n    tag_76:\n        /* \"#utility.yul\":6048:6053   */\n      0x00\n        /* \"#utility.yul\":6086:6092   */\n      dup2\n        /* \"#utility.yul\":6073:6093   */\n      calldataload\n        /* \"#utility.yul\":6064:6093   */\n      swap1\n      pop\n        /* \"#utility.yul\":6102:6135   */\n      tag_169\n        /* \"#utility.yul\":6129:6134   */\n      dup2\n        /* \"#utility.yul\":6102:6135   */\n      tag_75\n      jump\t// in\n    tag_169:\n        /* \"#utility.yul\":6002:6141   */\n      swap3\n      swap2\n      pop\n      pop\n      jump\t// out\n        /* \"#utility.yul\":6147:6476   */\n    tag_12:\n        /* \"#utility.yul\":6206:6212   */\n      0x00\n        /* \"#utility.yul\":6255:6257   */\n      0x20\n        /* \"#utility.yul\":6243:6252   */\n      dup3\n        /* \"#utility.yul\":6234:6241   */\n      dup5\n        /* \"#utility.yul\":6230:6253   */\n      sub\n        /* \"#utility.yul\":6226:6258   */\n      slt\n        /* \"#utility.yul\":6223:6342   */\n      iszero\n      tag_171\n      jumpi\n        /* \"#utility.yul\":6261:6340   */\n      tag_172\n      tag_54\n      jump\t// in\n    tag_172:\n        /* \"#utility.yul\":6223:6342   */\n    tag_171:\n        /* \"#utility.yul\":6381:6382   */\n      0x00\n        /* \"#utility.yul\":6406:6459   */\n      tag_173\n        /* \"#utility.yul\":6451:6458   */\n      dup5\n        /* \"#utility.yul\":6442:6448   */\n      dup3\n        /* \"#utility.yul\":6431:6440   */\n      dup6\n        /* \"#utility.yul\":6427:6449   */\n      add\n        /* \"#utility.yul\":6406:6459   */\n      tag_76\n      jump\t// in\n    tag_173:\n        /* \"#utility.yul\":6396:6459   */\n      swap2\n      pop\n        /* \"#utility.yul\":6352:6469   */\n      pop\n        /* \"#utility.yul\":6147:6476   */\n      swap3\n      swap2\n      pop\n      pop\n      jump\t// out\n        /* \"#utility.yul\":6482:6581   */\n    tag_77:\n        /* \"#utility.yul\":6534:6540   */\n      0x00\n        /* \"#utility.yul\":6568:6573   */\n      dup2\n        /* \"#utility.yul\":6562:6574   */\n      mload\n        /* \"#utility.yul\":6552:6574   */\n      swap1\n      pop\n        /* \"#utility.yul\":6482:6581   */\n      swap2\n      swap1\n      pop\n      jump\t// out\n        /* \"#utility.yul\":6587:6756   */\n    tag_78:\n        /* \"#utility.yul\":6671:6682   */\n      0x00\n        /* \"#utility.yul\":6705:6711   */\n      dup3\n        /* \"#utility.yul\":6700:6703   */\n      dup3\n        /* \"#utility.yul\":6693:6712   */\n      mstore\n        /* \"#utility.yul\":6745:6749   */\n      0x20\n        /* \"#utility.yul\":6740:6743   */\n      dup3\n        /* \"#utility.yul\":6736:6750   */\n      add\n        /* \"#utility.yul\":6721:6750   */\n      swap1\n      pop\n        /* \"#utility.yul\":6587:6756   */\n      swap3\n      swap2\n      pop\n      pop\n      jump\t// out\n        /* \"#utility.yul\":6762:6901   */\n    tag_79:\n        /* \"#utility.yul\":6851:6857   */\n      dup3\n        /* \"#utility.yul\":6846:6849   */\n      dup2\n        /* \"#utility.yul\":6841:6844   */\n      dup4\n        /* \"#utility.yul\":6835:6858   */\n      mcopy\n        /* \"#utility.yul\":6892:6893   */\n      0x00\n        /* \"#utility.yul\":6883:6889   */\n      dup4\n        /* \"#utility.yul\":6878:6881   */\n      dup4\n        /* \"#utility.yul\":6874:6890   */\n      add\n        /* \"#utility.yul\":6867:6894   */\n      mstore\n        /* \"#utility.yul\":6762:6901   */\n      pop\n      pop\n      pop\n      jump\t// out\n        /* \"#utility.yul\":6907:7284   */\n    tag_80:\n        /* \"#utility.yul\":6995:6998   */\n      0x00\n        /* \"#utility.yul\":7023:7062   */\n      tag_178\n        /* \"#utility.yul\":7056:7061   */\n      dup3\n        /* \"#utility.yul\":7023:7062   */\n      tag_77\n      jump\t// in\n    tag_178:\n        /* \"#utility.yul\":7078:7149   */\n      tag_179\n        /* \"#utility.yul\":7142:7148   */\n      dup2\n        /* \"#utility.yul\":7137:7140   */\n      dup6\n        /* \"#utility.yul\":7078:7149   */\n      tag_78\n      jump\t// in\n    tag_179:\n        /* \"#utility.yul\":7071:7149   */\n      swap4\n      pop\n        /* \"#utility.yul\":7158:7223   */\n      tag_180\n        /* \"#utility.yul\":7216:7222   */\n      dup2\n        /* \"#utility.yul\":7211:7214   */\n      dup6\n        /* \"#utility.yul\":7204:7208   */\n      0x20\n        /* \"#utility.yul\":7197:7202   */\n      dup7\n        /* \"#utility.yul\":7193:7209   */\n      add\n        /* \"#utility.yul\":7158:7223   */\n      tag_79\n      jump\t// in\n    tag_180:\n        /* \"#utility.yul\":7248:7277   */\n      tag_181\n        /* \"#utility.yul\":7270:7276   */\n      dup2\n        /* \"#utility.yul\":7248:7277   */\n      tag_57\n      jump\t// in\n    tag_181:\n        /* \"#utility.yul\":7243:7246   */\n      dup5\n        /* \"#utility.yul\":7239:7278   */\n      add\n        /* \"#utility.yul\":7232:7278   */\n      swap2\n      pop\n        /* \"#utility.yul\":6999:7284   */\n      pop\n        /* \"#utility.yul\":6907:7284   */\n      swap3\n      swap2\n      pop\n      pop\n      jump\t// out\n        /* \"#utility.yul\":7290:8005   */\n    tag_15:\n        /* \"#utility.yul\":7499:7503   */\n      0x00\n        /* \"#utility.yul\":7537:7539   */\n      0x60\n        /* \"#utility.yul\":7526:7535   */\n      dup3\n        /* \"#utility.yul\":7522:7540   */\n      add\n        /* \"#utility.yul\":7514:7540   */\n      swap1\n      pop\n        /* \"#utility.yul\":7586:7595   */\n      dup2\n        /* \"#utility.yul\":7580:7584   */\n      dup2\n        /* \"#utility.yul\":7576:7596   */\n      sub\n        /* \"#utility.yul\":7572:7573   */\n      0x00\n        /* \"#utility.yul\":7561:7570   */\n      dup4\n        /* \"#utility.yul\":7557:7574   */\n      add\n        /* \"#utility.yul\":7550:7597   */\n      mstore\n        /* \"#utility.yul\":7614:7692   */\n      tag_183\n        /* \"#utility.yul\":7687:7691   */\n      dup2\n        /* \"#utility.yul\":7678:7684   */\n      dup7\n        /* \"#utility.yul\":7614:7692   */\n      tag_80\n      jump\t// in\n    tag_183:\n        /* \"#utility.yul\":7606:7692   */\n      swap1\n      pop\n        /* \"#utility.yul\":7739:7748   */\n      dup2\n        /* \"#utility.yul\":7733:7737   */\n      dup2\n        /* \"#utility.yul\":7729:7749   */\n      sub\n        /* \"#utility.yul\":7724:7726   */\n      0x20\n        /* \"#utility.yul\":7713:7722   */\n      dup4\n        /* \"#utility.yul\":7709:7727   */\n      add\n        /* \"#utility.yul\":7702:7750   */\n      mstore\n        /* \"#utility.yul\":7767:7845   */\n      tag_184\n        /* \"#utility.yul\":7840:7844   */\n      dup2\n        /* \"#utility.yul\":7831:7837   */\n      dup6\n        /* \"#utility.yul\":7767:7845   */\n      tag_80\n      jump\t// in\n    tag_184:\n        /* \"#utility.yul\":7759:7845   */\n      swap1\n      pop\n        /* \"#utility.yul\":7892:7901   */\n      dup2\n        /* \"#utility.yul\":7886:7890   */\n      dup2\n        /* \"#utility.yul\":7882:7902   */\n      sub\n        /* \"#utility.yul\":7877:7879   */\n      0x40\n        /* \"#utility.yul\":7866:7875   */\n      dup4\n        /* \"#utility.yul\":7862:7880   */\n      add\n        /* \"#utility.yul\":7855:7903   */\n      mstore\n        /* \"#utility.yul\":7920:7998   */\n      tag_185\n        /* \"#utility.yul\":7993:7997   */\n      dup2\n        /* \"#utility.yul\":7984:7990   */\n      dup5\n        /* \"#utility.yul\":7920:7998   */\n      tag_80\n      jump\t// in\n    tag_185:\n        /* \"#utility.yul\":7912:7998   */\n      swap1\n      pop\n        /* \"#utility.yul\":7290:8005   */\n      swap5\n      swap4\n      pop\n      pop\n      pop\n      pop\n      jump\t// out\n        /* \"#utility.yul\":8011:8101   */\n    tag_81:\n        /* \"#utility.yul\":8045:8052   */\n      0x00\n        /* \"#utility.yul\":8088:8093   */\n      dup2\n        /* \"#utility.yul\":8081:8094   */\n      iszero\n        /* \"#utility.yul\":8074:8095   */\n      iszero\n        /* \"#utility.yul\":8063:8095   */\n      swap1\n      pop\n        /* \"#utility.yul\":8011:8101   */\n      swap2\n      swap1\n      pop\n      jump\t// out\n        /* \"#utility.yul\":8107:8216   */\n    tag_82:\n        /* \"#utility.yul\":8188:8209   */\n      tag_188\n        /* \"#utility.yul\":8203:8208   */\n      dup2\n        /* \"#utility.yul\":8188:8209   */\n      tag_81\n      jump\t// in\n    tag_188:\n        /* \"#utility.yul\":8183:8186   */\n      dup3\n        /* \"#utility.yul\":8176:8210   */\n      mstore\n        /* \"#utility.yul\":8107:8216   */\n      pop\n      pop\n      jump\t// out\n        /* \"#utility.yul\":8222:8432   */\n    tag_20:\n        /* \"#utility.yul\":8309:8313   */\n      0x00\n        /* \"#utility.yul\":8347:8349   */\n      0x20\n        /* \"#utility.yul\":8336:8345   */\n      dup3\n        /* \"#utility.yul\":8332:8350   */\n      add\n        /* \"#utility.yul\":8324:8350   */\n      swap1\n      pop\n        /* \"#utility.yul\":8360:8425   */\n      tag_190\n        /* \"#utility.yul\":8422:8423   */\n      0x00\n        /* \"#utility.yul\":8411:8420   */\n      dup4\n        /* \"#utility.yul\":8407:8424   */\n      add\n        /* \"#utility.yul\":8398:8404   */\n      dup5\n        /* \"#utility.yul\":8360:8425   */\n      tag_82\n      jump\t// in\n    tag_190:\n        /* \"#utility.yul\":8222:8432   */\n      swap3\n      swap2\n      pop\n      pop\n      jump\t// out\n        /* \"#utility.yul\":8438:8604   */\n    tag_83:\n        /* \"#utility.yul\":8578:8596   */\n      0x416c726561647920766572696669656400000000000000000000000000000000\n        /* \"#utility.yul\":8574:8575   */\n      0x00\n        /* \"#utility.yul\":8566:8572   */\n      dup3\n        /* \"#utility.yul\":8562:8576   */\n      add\n        /* \"#utility.yul\":8555:8597   */\n      mstore\n        /* \"#utility.yul\":8438:8604   */\n      pop\n      jump\t// out\n        /* \"#utility.yul\":8610:8976   */\n    tag_84:\n        /* \"#utility.yul\":8752:8755   */\n      0x00\n        /* \"#utility.yul\":8773:8840   */\n      tag_193\n        /* \"#utility.yul\":8837:8839   */\n      0x10\n        /* \"#utility.yul\":8832:8835   */\n      dup4\n        /* \"#utility.yul\":8773:8840   */\n      tag_78\n      jump\t// in\n    tag_193:\n        /* \"#utility.yul\":8766:8840   */\n      swap2\n      pop\n        /* \"#utility.yul\":8849:8942   */\n      tag_194\n        /* \"#utility.yul\":8938:8941   */\n      dup3\n        /* \"#utility.yul\":8849:8942   */\n      tag_83\n      jump\t// in\n    tag_194:\n        /* \"#utility.yul\":8967:8969   */\n      0x20\n        /* \"#utility.yul\":8962:8965   */\n      dup3\n        /* \"#utility.yul\":8958:8970   */\n      add\n        /* \"#utility.yul\":8951:8970   */\n      swap1\n      pop\n        /* \"#utility.yul\":8610:8976   */\n      swap2\n      swap1\n      pop\n      jump\t// out\n        /* \"#utility.yul\":8982:9401   */\n    tag_24:\n        /* \"#utility.yul\":9148:9152   */\n      0x00\n        /* \"#utility.yul\":9186:9188   */\n      0x20\n        /* \"#utility.yul\":9175:9184   */\n      dup3\n        /* \"#utility.yul\":9171:9189   */\n      add\n        /* \"#utility.yul\":9163:9189   */\n      swap1\n      pop\n        /* \"#utility.yul\":9235:9244   */\n      dup2\n        /* \"#utility.yul\":9229:9233   */\n      dup2\n        /* \"#utility.yul\":9225:9245   */\n      sub\n        /* \"#utility.yul\":9221:9222   */\n      0x00\n        /* \"#utility.yul\":9210:9219   */\n      dup4\n        /* \"#utility.yul\":9206:9223   */\n      add\n        /* \"#utility.yul\":9199:9246   */\n      mstore\n        /* \"#utility.yul\":9263:9394   */\n      tag_196\n        /* \"#utility.yul\":9389:9393   */\n      dup2\n        /* \"#utility.yul\":9263:9394   */\n      tag_84\n      jump\t// in\n    tag_196:\n        /* \"#utility.yul\":9255:9394   */\n      swap1\n      pop\n        /* \"#utility.yul\":8982:9401   */\n      swap2\n      swap1\n      pop\n      jump\t// out\n        /* \"#utility.yul\":9407:9570   */\n    tag_85:\n        /* \"#utility.yul\":9547:9562   */\n      0x496e76616c69642070726f6f6600000000000000000000000000000000000000\n        /* \"#utility.yul\":9543:9544   */\n      0x00\n        /* \"#utility.yul\":9535:9541   */\n      dup3\n        /* \"#utility.yul\":9531:9545   */\n      add\n        /* \"#utility.yul\":9524:9563   */\n      mstore\n        /* \"#utility.yul\":9407:9570   */\n      pop\n      jump\t// out\n        /* \"#utility.yul\":9576:9942   */\n    tag_86:\n        /* \"#utility.yul\":9718:9721   */\n      0x00\n        /* \"#utility.yul\":9739:9806   */\n      tag_199\n        /* \"#utility.yul\":9803:9805   */\n      0x0d\n        /* \"#utility.yul\":9798:9801   */\n      dup4\n        /* \"#utility.yul\":9739:9806   */\n      tag_78\n      jump\t// in\n    tag_199:\n        /* \"#utility.yul\":9732:9806   */\n      swap2\n      pop\n        /* \"#utility.yul\":9815:9908   */\n      tag_200\n        /* \"#utility.yul\":9904:9907   */\n      dup3\n        /* \"#utility.yul\":9815:9908   */\n      tag_85\n      jump\t// in\n    tag_200:\n        /* \"#utility.yul\":9933:9935   */\n      0x20\n        /* \"#utility.yul\":9928:9931   */\n      dup3\n        /* \"#utility.yul\":9924:9936   */\n      add\n        /* \"#utility.yul\":9917:9936   */\n      swap1\n      pop\n        /* \"#utility.yul\":9576:9942   */\n      swap2\n      swap1\n      pop\n      jump\t// out\n        /* \"#utility.yul\":9948:10367   */\n    tag_29:\n        /* \"#utility.yul\":10114:10118   */\n      0x00\n        /* \"#utility.yul\":10152:10154   */\n      0x20\n        /* \"#utility.yul\":10141:10150   */\n      dup3\n        /* \"#utility.yul\":10137:10155   */\n      add\n        /* \"#utility.yul\":10129:10155   */\n      swap1\n      pop\n        /* \"#utility.yul\":10201:10210   */\n      dup2\n        /* \"#utility.yul\":10195:10199   */\n      dup2\n        /* \"#utility.yul\":10191:10211   */\n      sub\n        /* \"#utility.yul\":10187:10188   */\n      0x00\n        /* \"#utility.yul\":10176:10185   */\n      dup4\n        /* \"#utility.yul\":10172:10189   */\n      add\n        /* \"#utility.yul\":10165:10212   */\n      mstore\n        /* \"#utility.yul\":10229:10360   */\n      tag_202\n        /* \"#utility.yul\":10355:10359   */\n      dup2\n        /* \"#utility.yul\":10229:10360   */\n      tag_86\n      jump\t// in\n    tag_202:\n        /* \"#utility.yul\":10221:10360   */\n      swap1\n      pop\n        /* \"#utility.yul\":9948:10367   */\n      swap2\n      swap1\n      pop\n      jump\t// out\n        /* \"#utility.yul\":10373:10553   */\n    tag_87:\n        /* \"#utility.yul\":10421:10498   */\n      0x4e487b7100000000000000000000000000000000000000000000000000000000\n        /* \"#utility.yul\":10418:10419   */\n      0x00\n        /* \"#utility.yul\":10411:10499   */\n      mstore\n        /* \"#utility.yul\":10518:10522   */\n      0x22\n        /* \"#utility.yul\":10515:10516   */\n      0x04\n        /* \"#utility.yul\":10508:10523   */\n      mstore\n        /* \"#utility.yul\":10542:10546   */\n      0x24\n        /* \"#utility.yul\":10539:10540   */\n      0x00\n        /* \"#utility.yul\":10532:10547   */\n      revert\n        /* \"#utility.yul\":10559:10879   */\n    tag_31:\n        /* \"#utility.yul\":10603:10609   */\n      0x00\n        /* \"#utility.yul\":10640:10641   */\n      0x02\n        /* \"#utility.yul\":10634:10638   */\n      dup3\n        /* \"#utility.yul\":10630:10642   */\n      div\n        /* \"#utility.yul\":10620:10642   */\n      swap1\n      pop\n        /* \"#utility.yul\":10687:10688   */\n      0x01\n        /* \"#utility.yul\":10681:10685   */\n      dup3\n        /* \"#utility.yul\":10677:10689   */\n      and\n        /* \"#utility.yul\":10708:10726   */\n      dup1\n        /* \"#utility.yul\":10698:10779   */\n      tag_205\n      jumpi\n        /* \"#utility.yul\":10764:10768   */\n      0x7f\n        /* \"#utility.yul\":10756:10762   */\n      dup3\n        /* \"#utility.yul\":10752:10769   */\n      and\n        /* \"#utility.yul\":10742:10769   */\n      swap2\n      pop\n        /* \"#utility.yul\":10698:10779   */\n    tag_205:\n        /* \"#utility.yul\":10826:10828   */\n      0x20\n        /* \"#utility.yul\":10818:10824   */\n      dup3\n        /* \"#utility.yul\":10815:10829   */\n      lt\n        /* \"#utility.yul\":10795:10813   */\n      dup2\n        /* \"#utility.yul\":10792:10830   */\n      sub\n        /* \"#utility.yul\":10789:10873   */\n      tag_206\n      jumpi\n        /* \"#utility.yul\":10845:10863   */\n      tag_207\n      tag_87\n      jump\t// in\n    tag_207:\n        /* \"#utility.yul\":10789:10873   */\n    tag_206:\n        /* \"#utility.yul\":10610:10879   */\n      pop\n        /* \"#utility.yul\":10559:10879   */\n      swap2\n      swap1\n      pop\n      jump\t// out\n        /* \"#utility.yul\":10885:10993   */\n    tag_88:\n        /* \"#utility.yul\":10962:10986   */\n      tag_209\n        /* \"#utility.yul\":10980:10985   */\n      dup2\n        /* \"#utility.yul\":10962:10986   */\n      tag_62\n      jump\t// in\n    tag_209:\n        /* \"#utility.yul\":10957:10960   */\n      dup3\n        /* \"#utility.yul\":10950:10987   */\n      mstore\n        /* \"#utility.yul\":10885:10993   */\n      pop\n      pop\n      jump\t// out\n        /* \"#utility.yul\":11055:11540   */\n    tag_89:\n        /* \"#utility.yul\":11186:11190   */\n      0x40\n        /* \"#utility.yul\":11181:11184   */\n      dup3\n        /* \"#utility.yul\":11177:11191   */\n      add\n        /* \"#utility.yul\":11270:11274   */\n      0x00\n        /* \"#utility.yul\":11263:11268   */\n      dup3\n        /* \"#utility.yul\":11259:11275   */\n      add\n        /* \"#utility.yul\":11253:11276   */\n      mload\n        /* \"#utility.yul\":11289:11352   */\n      tag_211\n        /* \"#utility.yul\":11346:11350   */\n      0x00\n        /* \"#utility.yul\":11341:11344   */\n      dup6\n        /* \"#utility.yul\":11337:11351   */\n      add\n        /* \"#utility.yul\":11323:11335   */\n      dup3\n        /* \"#utility.yul\":11289:11352   */\n      tag_88\n      jump\t// in\n    tag_211:\n        /* \"#utility.yul\":11201:11362   */\n      pop\n        /* \"#utility.yul\":11441:11445   */\n      0x20\n        /* \"#utility.yul\":11434:11439   */\n      dup3\n        /* \"#utility.yul\":11430:11446   */\n      add\n        /* \"#utility.yul\":11424:11447   */\n      mload\n        /* \"#utility.yul\":11460:11523   */\n      tag_212\n        /* \"#utility.yul\":11517:11521   */\n      0x20\n        /* \"#utility.yul\":11512:11515   */\n      dup6\n        /* \"#utility.yul\":11508:11522   */\n      add\n        /* \"#utility.yul\":11494:11506   */\n      dup3\n        /* \"#utility.yul\":11460:11523   */\n      tag_88\n      jump\t// in\n    tag_212:\n        /* \"#utility.yul\":11372:11533   */\n      pop\n        /* \"#utility.yul\":11155:11540   */\n      pop\n        /* \"#utility.yul\":11055:11540   */\n      pop\n      pop\n      jump\t// out\n        /* \"#utility.yul\":11546:11650   */\n    tag_90:\n        /* \"#utility.yul\":11611:11617   */\n      0x00\n        /* \"#utility.yul\":11639:11643   */\n      0x02\n        /* \"#utility.yul\":11629:11643   */\n      swap1\n      pop\n        /* \"#utility.yul\":11546:11650   */\n      swap2\n      swap1\n      pop\n      jump\t// out\n        /* \"#utility.yul\":11656:11789   */\n    tag_91:\n        /* \"#utility.yul\":11743:11754   */\n      0x00\n        /* \"#utility.yul\":11780:11783   */\n      dup2\n        /* \"#utility.yul\":11765:11783   */\n      swap1\n      pop\n        /* \"#utility.yul\":11656:11789   */\n      swap3\n      swap2\n      pop\n      pop\n      jump\t// out\n        /* \"#utility.yul\":11795:11893   */\n    tag_92:\n        /* \"#utility.yul\":11860:11864   */\n      0x00\n        /* \"#utility.yul\":11883:11886   */\n      dup2\n        /* \"#utility.yul\":11875:11886   */\n      swap1\n      pop\n        /* \"#utility.yul\":11795:11893   */\n      swap2\n      swap1\n      pop\n      jump\t// out\n        /* \"#utility.yul\":11899:12078   */\n    tag_93:\n        /* \"#utility.yul\":11968:11978   */\n      0x00\n        /* \"#utility.yul\":11989:12035   */\n      tag_217\n        /* \"#utility.yul\":12031:12034   */\n      dup4\n        /* \"#utility.yul\":12023:12029   */\n      dup4\n        /* \"#utility.yul\":11989:12035   */\n      tag_88\n      jump\t// in\n    tag_217:\n        /* \"#utility.yul\":12067:12071   */\n      0x20\n        /* \"#utility.yul\":12062:12065   */\n      dup4\n        /* \"#utility.yul\":12058:12072   */\n      add\n        /* \"#utility.yul\":12044:12072   */\n      swap1\n      pop\n        /* \"#utility.yul\":11899:12078   */\n      swap3\n      swap2\n      pop\n      pop\n      jump\t// out\n        /* \"#utility.yul\":12084:12195   */\n    tag_94:\n        /* \"#utility.yul\":12152:12156   */\n      0x00\n        /* \"#utility.yul\":12184:12188   */\n      0x20\n        /* \"#utility.yul\":12179:12182   */\n      dup3\n        /* \"#utility.yul\":12175:12189   */\n      add\n        /* \"#utility.yul\":12167:12189   */\n      swap1\n      pop\n        /* \"#utility.yul\":12084:12195   */\n      swap2\n      swap1\n      pop\n      jump\t// out\n        /* \"#utility.yul\":12233:12907   */\n    tag_95:\n        /* \"#utility.yul\":12359:12411   */\n      tag_220\n        /* \"#utility.yul\":12405:12410   */\n      dup2\n        /* \"#utility.yul\":12359:12411   */\n      tag_90\n      jump\t// in\n    tag_220:\n        /* \"#utility.yul\":12427:12501   */\n      tag_221\n        /* \"#utility.yul\":12494:12500   */\n      dup2\n        /* \"#utility.yul\":12489:12492   */\n      dup5\n        /* \"#utility.yul\":12427:12501   */\n      tag_91\n      jump\t// in\n    tag_221:\n        /* \"#utility.yul\":12420:12501   */\n      swap3\n      pop\n        /* \"#utility.yul\":12525:12579   */\n      tag_222\n        /* \"#utility.yul\":12573:12578   */\n      dup3\n        /* \"#utility.yul\":12525:12579   */\n      tag_92\n      jump\t// in\n    tag_222:\n        /* \"#utility.yul\":12602:12609   */\n      dup1\n        /* \"#utility.yul\":12633:12634   */\n      0x00\n        /* \"#utility.yul\":12618:12900   */\n    tag_223:\n        /* \"#utility.yul\":12643:12649   */\n      dup4\n        /* \"#utility.yul\":12640:12641   */\n      dup2\n        /* \"#utility.yul\":12637:12650   */\n      lt\n        /* \"#utility.yul\":12618:12900   */\n      iszero\n      tag_225\n      jumpi\n        /* \"#utility.yul\":12719:12725   */\n      dup2\n        /* \"#utility.yul\":12713:12726   */\n      mload\n        /* \"#utility.yul\":12746:12809   */\n      tag_226\n        /* \"#utility.yul\":12805:12808   */\n      dup8\n        /* \"#utility.yul\":12790:12803   */\n      dup3\n        /* \"#utility.yul\":12746:12809   */\n      tag_93\n      jump\t// in\n    tag_226:\n        /* \"#utility.yul\":12739:12809   */\n      swap7\n      pop\n        /* \"#utility.yul\":12832:12890   */\n      tag_227\n        /* \"#utility.yul\":12883:12889   */\n      dup4\n        /* \"#utility.yul\":12832:12890   */\n      tag_94\n      jump\t// in\n    tag_227:\n        /* \"#utility.yul\":12822:12890   */\n      swap3\n      pop\n        /* \"#utility.yul\":12678:12900   */\n      pop\n        /* \"#utility.yul\":12665:12666   */\n      0x01\n        /* \"#utility.yul\":12662:12663   */\n      dup2\n        /* \"#utility.yul\":12658:12667   */\n      add\n        /* \"#utility.yul\":12653:12667   */\n      swap1\n      pop\n        /* \"#utility.yul\":12618:12900   */\n      jump(tag_223)\n    tag_225:\n        /* \"#utility.yul\":12622:12636   */\n      pop\n        /* \"#utility.yul\":12335:12907   */\n      pop\n      pop\n      pop\n        /* \"#utility.yul\":12233:12907   */\n      pop\n      pop\n      jump\t// out\n        /* \"#utility.yul\":12969:13548   */\n    tag_96:\n        /* \"#utility.yul\":13102:13106   */\n      0x80\n        /* \"#utility.yul\":13097:13100   */\n      dup3\n        /* \"#utility.yul\":13093:13107   */\n      add\n        /* \"#utility.yul\":13186:13190   */\n      0x00\n        /* \"#utility.yul\":13179:13184   */\n      dup3\n        /* \"#utility.yul\":13175:13191   */\n      add\n        /* \"#utility.yul\":13169:13192   */\n      mload\n        /* \"#utility.yul\":13205:13314   */\n      tag_229\n        /* \"#utility.yul\":13308:13312   */\n      0x00\n        /* \"#utility.yul\":13303:13306   */\n      dup6\n        /* \"#utility.yul\":13299:13313   */\n      add\n        /* \"#utility.yul\":13285:13297   */\n      dup3\n        /* \"#utility.yul\":13205:13314   */\n      tag_95\n      jump\t// in\n    tag_229:\n        /* \"#utility.yul\":13117:13324   */\n      pop\n        /* \"#utility.yul\":13403:13407   */\n      0x20\n        /* \"#utility.yul\":13396:13401   */\n      dup3\n        /* \"#utility.yul\":13392:13408   */\n      add\n        /* \"#utility.yul\":13386:13409   */\n      mload\n        /* \"#utility.yul\":13422:13531   */\n      tag_230\n        /* \"#utility.yul\":13525:13529   */\n      0x40\n        /* \"#utility.yul\":13520:13523   */\n      dup6\n        /* \"#utility.yul\":13516:13530   */\n      add\n        /* \"#utility.yul\":13502:13514   */\n      dup3\n        /* \"#utility.yul\":13422:13531   */\n      tag_95\n      jump\t// in\n    tag_230:\n        /* \"#utility.yul\":13334:13541   */\n      pop\n        /* \"#utility.yul\":13071:13548   */\n      pop\n        /* \"#utility.yul\":12969:13548   */\n      pop\n      pop\n      jump\t// out\n        /* \"#utility.yul\":13608:14410   */\n    tag_97:\n        /* \"#utility.yul\":13749:13755   */\n      0x0100\n        /* \"#utility.yul\":13744:13747   */\n      dup3\n        /* \"#utility.yul\":13740:13756   */\n      add\n        /* \"#utility.yul\":13835:13839   */\n      0x00\n        /* \"#utility.yul\":13828:13833   */\n      dup3\n        /* \"#utility.yul\":13824:13840   */\n      add\n        /* \"#utility.yul\":13818:13841   */\n      mload\n        /* \"#utility.yul\":13854:13961   */\n      tag_232\n        /* \"#utility.yul\":13955:13959   */\n      0x00\n        /* \"#utility.yul\":13950:13953   */\n      dup6\n        /* \"#utility.yul\":13946:13960   */\n      add\n        /* \"#utility.yul\":13932:13944   */\n      dup3\n        /* \"#utility.yul\":13854:13961   */\n      tag_89\n      jump\t// in\n    tag_232:\n        /* \"#utility.yul\":13766:13971   */\n      pop\n        /* \"#utility.yul\":14050:14054   */\n      0x20\n        /* \"#utility.yul\":14043:14048   */\n      dup3\n        /* \"#utility.yul\":14039:14055   */\n      add\n        /* \"#utility.yul\":14033:14056   */\n      mload\n        /* \"#utility.yul\":14069:14178   */\n      tag_233\n        /* \"#utility.yul\":14172:14176   */\n      0x40\n        /* \"#utility.yul\":14167:14170   */\n      dup6\n        /* \"#utility.yul\":14163:14177   */\n      add\n        /* \"#utility.yul\":14149:14161   */\n      dup3\n        /* \"#utility.yul\":14069:14178   */\n      tag_96\n      jump\t// in\n    tag_233:\n        /* \"#utility.yul\":13981:14188   */\n      pop\n        /* \"#utility.yul\":14267:14271   */\n      0x40\n        /* \"#utility.yul\":14260:14265   */\n      dup3\n        /* \"#utility.yul\":14256:14272   */\n      add\n        /* \"#utility.yul\":14250:14273   */\n      mload\n        /* \"#utility.yul\":14286:14393   */\n      tag_234\n        /* \"#utility.yul\":14387:14391   */\n      0xc0\n        /* \"#utility.yul\":14382:14385   */\n      dup6\n        /* \"#utility.yul\":14378:14392   */\n      add\n        /* \"#utility.yul\":14364:14376   */\n      dup3\n        /* \"#utility.yul\":14286:14393   */\n      tag_89\n      jump\t// in\n    tag_234:\n        /* \"#utility.yul\":14198:14403   */\n      pop\n        /* \"#utility.yul\":13718:14410   */\n      pop\n        /* \"#utility.yul\":13608:14410   */\n      pop\n      pop\n      jump\t// out\n        /* \"#utility.yul\":14416:14727   */\n    tag_48:\n        /* \"#utility.yul\":14553:14557   */\n      0x00\n        /* \"#utility.yul\":14591:14594   */\n      0x0100\n        /* \"#utility.yul\":14580:14589   */\n      dup3\n        /* \"#utility.yul\":14576:14595   */\n      add\n        /* \"#utility.yul\":14568:14595   */\n      swap1\n      pop\n        /* \"#utility.yul\":14605:14720   */\n      tag_236\n        /* \"#utility.yul\":14717:14718   */\n      0x00\n        /* \"#utility.yul\":14706:14715   */\n      dup4\n        /* \"#utility.yul\":14702:14719   */\n      add\n        /* \"#utility.yul\":14693:14699   */\n      dup5\n        /* \"#utility.yul\":14605:14720   */\n      tag_97\n      jump\t// in\n    tag_236:\n        /* \"#utility.yul\":14416:14727   */\n      swap3\n      swap2\n      pop\n      pop\n      jump\t// out\n        /* \"#utility.yul\":14733:14849   */\n    tag_98:\n        /* \"#utility.yul\":14803:14824   */\n      tag_238\n        /* \"#utility.yul\":14818:14823   */\n      dup2\n        /* \"#utility.yul\":14803:14824   */\n      tag_81\n      jump\t// in\n    tag_238:\n        /* \"#utility.yul\":14796:14801   */\n      dup2\n        /* \"#utility.yul\":14793:14825   */\n      eq\n        /* \"#utility.yul\":14783:14843   */\n      tag_239\n      jumpi\n        /* \"#utility.yul\":14839:14840   */\n      0x00\n        /* \"#utility.yul\":14836:14837   */\n      dup1\n        /* \"#utility.yul\":14829:14841   */\n      revert\n        /* \"#utility.yul\":14783:14843   */\n    tag_239:\n        /* \"#utility.yul\":14733:14849   */\n      pop\n      jump\t// out\n        /* \"#utility.yul\":14855:14992   */\n    tag_99:\n        /* \"#utility.yul\":14909:14914   */\n      0x00\n        /* \"#utility.yul\":14940:14946   */\n      dup2\n        /* \"#utility.yul\":14934:14947   */\n      mload\n        /* \"#utility.yul\":14925:14947   */\n      swap1\n      pop\n        /* \"#utility.yul\":14956:14986   */\n      tag_241\n        /* \"#utility.yul\":14980:14985   */\n      dup2\n        /* \"#utility.yul\":14956:14986   */\n      tag_98\n      jump\t// in\n    tag_241:\n        /* \"#utility.yul\":14855:14992   */\n      swap3\n      swap2\n      pop\n      pop\n      jump\t// out\n        /* \"#utility.yul\":14998:15343   */\n    tag_52:\n        /* \"#utility.yul\":15065:15071   */\n      0x00\n        /* \"#utility.yul\":15114:15116   */\n      0x20\n        /* \"#utility.yul\":15102:15111   */\n      dup3\n        /* \"#utility.yul\":15093:15100   */\n      dup5\n        /* \"#utility.yul\":15089:15112   */\n      sub\n        /* \"#utility.yul\":15085:15117   */\n      slt\n        /* \"#utility.yul\":15082:15201   */\n      iszero\n      tag_243\n      jumpi\n        /* \"#utility.yul\":15120:15199   */\n      tag_244\n      tag_54\n      jump\t// in\n    tag_244:\n        /* \"#utility.yul\":15082:15201   */\n    tag_243:\n        /* \"#utility.yul\":15240:15241   */\n      0x00\n        /* \"#utility.yul\":15265:15326   */\n      tag_245\n        /* \"#utility.yul\":15318:15325   */\n      dup5\n        /* \"#utility.yul\":15309:15315   */\n      dup3\n        /* \"#utility.yul\":15298:15307   */\n      dup6\n        /* \"#utility.yul\":15294:15316   */\n      add\n        /* \"#utility.yul\":15265:15326   */\n      tag_99\n      jump\t// in\n    tag_245:\n        /* \"#utility.yul\":15255:15326   */\n      swap2\n      pop\n        /* \"#utility.yul\":15211:15336   */\n      pop\n        /* \"#utility.yul\":14998:15343   */\n      swap3\n      swap2\n      pop\n      pop\n      jump\t// out\n\n    auxdata: 0xa264697066735822122042f2b33a9105467dfd61da6e55b0a7c74e3356351e69de60763ee88095acf56264736f6c63430008190033\n}\n",
				"bytecode": {
					"linkReferences": {},
					"object": "608060405234801561000f575f80fd5b50604051610c8a380380610c8a833981810160405281019061003191906100d5565b8060025f6101000a81548173ffffffffffffffffffffffffffffffffffffffff021916908373ffffffffffffffffffffffffffffffffffffffff16021790555050610100565b5f80fd5b5f73ffffffffffffffffffffffffffffffffffffffff82169050919050565b5f6100a48261007b565b9050919050565b6100b48161009a565b81146100be575f80fd5b50565b5f815190506100cf816100ab565b92915050565b5f602082840312156100ea576100e9610077565b5b5f6100f7848285016100c1565b91505092915050565b610b7d8061010d5f395ff3fe608060405234801561000f575f80fd5b506004361061003f575f3560e01c80630f2f7ee114610043578063a87430ba1461005f578063b9209e3314610091575b5f80fd5b61005d600480360381019061005891906106dd565b6100c1565b005b61007960048036038101906100749190610763565b6101ea565b604051610088939291906107ee565b60405180910390f35b6100ab60048036038101906100a69190610763565b6103a1565b6040516100b89190610852565b60405180910390f35b60015f3373ffffffffffffffffffffffffffffffffffffffff1673ffffffffffffffffffffffffffffffffffffffff1681526020019081526020015f205f9054906101000a900460ff161561014b576040517f08c379a0000000000000000000000000000000000000000000000000000000008152600401610142906108b5565b60405180910390fd5b610154816103be565b610193576040517f08c379a000000000000000000000000000000000000000000000000000000000815260040161018a9061091d565b60405180910390fd5b6001805f3373ffffffffffffffffffffffffffffffffffffffff1673ffffffffffffffffffffffffffffffffffffffff1681526020019081526020015f205f6101000a81548160ff02191690831515021790555050565b5f602052805f5260405f205f91509050805f01805461020890610968565b80601f016020809104026020016040519081016040528092919081815260200182805461023490610968565b801561027f5780601f106102565761010080835404028352916020019161027f565b820191905f5260205f20905b81548152906001019060200180831161026257829003601f168201915b50505050509080600101805461029490610968565b80601f01602080910402602001604051908101604052809291908181526020018280546102c090610968565b801561030b5780601f106102e25761010080835404028352916020019161030b565b820191905f5260205f20905b8154815290600101906020018083116102ee57829003601f168201915b50505050509080600201805461032090610968565b80601f016020809104026020016040519081016040528092919081815260200182805461034c90610968565b80156103975780601f1061036e57610100808354040283529160200191610397565b820191905f5260205f20905b81548152906001019060200180831161037a57829003601f168201915b5050505050905083565b6001602052805f5260405f205f915054906101000a900460ff1681565b5f60025f9054906101000a900473ffffffffffffffffffffffffffffffffffffffff1673ffffffffffffffffffffffffffffffffffffffff1663f6af0311836040518263ffffffff1660e01b81526004016104199190610ad8565b602060405180830381865afa158015610434573d5f803e3d5ffd5b505050506040513d601f19601f820116820180604052508101906104589190610b1c565b9050919050565b5f604051905090565b5f80fd5b5f80fd5b5f601f19601f8301169050919050565b7f4e487b71000000000000000000000000000000000000000000000000000000005f52604160045260245ffd5b6104b682610470565b810181811067ffffffffffffffff821117156104d5576104d4610480565b5b80604052505050565b5f6104e761045f565b90506104f382826104ad565b919050565b5f819050919050565b61050a816104f8565b8114610514575f80fd5b50565b5f8135905061052581610501565b92915050565b5f604082840312156105405761053f61046c565b5b61054a60406104de565b90505f61055984828501610517565b5f83015250602061056c84828501610517565b60208301525092915050565b5f80fd5b5f67ffffffffffffffff82111561059657610595610480565b5b602082029050919050565b5f80fd5b5f6105b76105b28461057c565b6104de565b905080602084028301858111156105d1576105d06105a1565b5b835b818110156105fa57806105e68882610517565b8452602084019350506020810190506105d3565b5050509392505050565b5f82601f83011261061857610617610578565b5b60026106258482856105a5565b91505092915050565b5f608082840312156106435761064261046c565b5b61064d60406104de565b90505f61065c84828501610604565b5f83015250604061066f84828501610604565b60208301525092915050565b5f61010082840312156106915761069061046c565b5b61069b60606104de565b90505f6106aa8482850161052b565b5f8301525060406106bd8482850161062e565b60208301525060c06106d18482850161052b565b60408301525092915050565b5f61010082840312156106f3576106f2610468565b5b5f6107008482850161067b565b91505092915050565b5f73ffffffffffffffffffffffffffffffffffffffff82169050919050565b5f61073282610709565b9050919050565b61074281610728565b811461074c575f80fd5b50565b5f8135905061075d81610739565b92915050565b5f6020828403121561077857610777610468565b5b5f6107858482850161074f565b91505092915050565b5f81519050919050565b5f82825260208201905092915050565b8281835e5f83830152505050565b5f6107c08261078e565b6107ca8185610798565b93506107da8185602086016107a8565b6107e381610470565b840191505092915050565b5f6060820190508181035f83015261080681866107b6565b9050818103602083015261081a81856107b6565b9050818103604083015261082e81846107b6565b9050949350505050565b5f8115159050919050565b61084c81610838565b82525050565b5f6020820190506108655f830184610843565b92915050565b7f416c7265616479207665726966696564000000000000000000000000000000005f82015250565b5f61089f601083610798565b91506108aa8261086b565b602082019050919050565b5f6020820190508181035f8301526108cc81610893565b9050919050565b7f496e76616c69642070726f6f66000000000000000000000000000000000000005f82015250565b5f610907600d83610798565b9150610912826108d3565b602082019050919050565b5f6020820190508181035f830152610934816108fb565b9050919050565b7f4e487b71000000000000000000000000000000000000000000000000000000005f52602260045260245ffd5b5f600282049050600182168061097f57607f821691505b6020821081036109925761099161093b565b5b50919050565b6109a1816104f8565b82525050565b604082015f8201516109bb5f850182610998565b5060208201516109ce6020850182610998565b50505050565b5f60029050919050565b5f81905092915050565b5f819050919050565b5f6109fc8383610998565b60208301905092915050565b5f602082019050919050565b610a1d816109d4565b610a2781846109de565b9250610a32826109e8565b805f5b83811015610a62578151610a4987826109f1565b9650610a5483610a08565b925050600181019050610a35565b505050505050565b608082015f820151610a7e5f850182610a14565b506020820151610a916040850182610a14565b50505050565b61010082015f820151610aac5f8501826109a7565b506020820151610abf6040850182610a6a565b506040820151610ad260c08501826109a7565b50505050565b5f61010082019050610aec5f830184610a97565b92915050565b610afb81610838565b8114610b05575f80fd5b50565b5f81519050610b1681610af2565b92915050565b5f60208284031215610b3157610b30610468565b5b5f610b3e84828501610b08565b9150509291505056fea264697066735822122042f2b33a9105467dfd61da6e55b0a7c74e3356351e69de60763ee88095acf56264736f6c63430008190033",
					"opcodes": "PUSH1 0x80 PUSH1 0x40 MSTORE CALLVALUE DUP1 ISZERO PUSH2 0xF JUMPI PUSH0 DUP1 REVERT JUMPDEST POP PUSH1 0x40 MLOAD PUSH2 0xC8A CODESIZE SUB DUP1 PUSH2 0xC8A DUP4 CODECOPY DUP2 DUP2 ADD PUSH1 0x40 MSTORE DUP2 ADD SWAP1 PUSH2 0x31 SWAP2 SWAP1 PUSH2 0xD5 JUMP JUMPDEST DUP1 PUSH1 0x2 PUSH0 PUSH2 0x100 EXP DUP2 SLOAD DUP2 PUSH20 0xFFFFFFFFFFFFFFFFFFFFFFFFFFFFFFFFFFFFFFFF MUL NOT AND SWAP1 DUP4 PUSH20 0xFFFFFFFFFFFFFFFFFFFFFFFFFFFFFFFFFFFFFFFF AND MUL OR SWAP1 SSTORE POP POP PUSH2 0x100 JUMP JUMPDEST PUSH0 DUP1 REVERT JUMPDEST PUSH0 PUSH20 0xFFFFFFFFFFFFFFFFFFFFFFFFFFFFFFFFFFFFFFFF DUP3 AND SWAP1 POP SWAP2 SWAP1 POP JUMP JUMPDEST PUSH0 PUSH2 0xA4 DUP3 PUSH2 0x7B JUMP JUMPDEST SWAP1 POP SWAP2 SWAP1 POP JUMP JUMPDEST PUSH2 0xB4 DUP2 PUSH2 0x9A JUMP JUMPDEST DUP2 EQ PUSH2 0xBE JUMPI PUSH0 DUP1 REVERT JUMPDEST POP JUMP JUMPDEST PUSH0 DUP2 MLOAD SWAP1 POP PUSH2 0xCF DUP2 PUSH2 0xAB JUMP JUMPDEST SWAP3 SWAP2 POP POP JUMP JUMPDEST PUSH0 PUSH1 0x20 DUP3 DUP5 SUB SLT ISZERO PUSH2 0xEA JUMPI PUSH2 0xE9 PUSH2 0x77 JUMP JUMPDEST JUMPDEST PUSH0 PUSH2 0xF7 DUP5 DUP3 DUP6 ADD PUSH2 0xC1 JUMP JUMPDEST SWAP2 POP POP SWAP3 SWAP2 POP POP JUMP JUMPDEST PUSH2 0xB7D DUP1 PUSH2 0x10D PUSH0 CODECOPY PUSH0 RETURN INVALID PUSH1 0x80 PUSH1 0x40 MSTORE CALLVALUE DUP1 ISZERO PUSH2 0xF JUMPI PUSH0 DUP1 REVERT JUMPDEST POP PUSH1 0x4 CALLDATASIZE LT PUSH2 0x3F JUMPI PUSH0 CALLDATALOAD PUSH1 0xE0 SHR DUP1 PUSH4 0xF2F7EE1 EQ PUSH2 0x43 JUMPI DUP1 PUSH4 0xA87430BA EQ PUSH2 0x5F JUMPI DUP1 PUSH4 0xB9209E33 EQ PUSH2 0x91 JUMPI JUMPDEST PUSH0 DUP1 REVERT JUMPDEST PUSH2 0x5D PUSH1 0x4 DUP1 CALLDATASIZE SUB DUP2 ADD SWAP1 PUSH2 0x58 SWAP2 SWAP1 PUSH2 0x6DD JUMP JUMPDEST PUSH2 0xC1 JUMP JUMPDEST STOP JUMPDEST PUSH2 0x79 PUSH1 0x4 DUP1 CALLDATASIZE SUB DUP2 ADD SWAP1 PUSH2 0x74 SWAP2 SWAP1 PUSH2 0x763 JUMP JUMPDEST PUSH2 0x1EA JUMP JUMPDEST PUSH1 0x40 MLOAD PUSH2 0x88 SWAP4 SWAP3 SWAP2 SWAP1 PUSH2 0x7EE JUMP JUMPDEST PUSH1 0x40 MLOAD DUP1 SWAP2 SUB SWAP1 RETURN JUMPDEST PUSH2 0xAB PUSH1 0x4 DUP1 CALLDATASIZE SUB DUP2 ADD SWAP1 PUSH2 0xA6 SWAP2 SWAP1 PUSH2 0x763 JUMP JUMPDEST PUSH2 0x3A1 JUMP JUMPDEST PUSH1 0x40 MLOAD PUSH2 0xB8 SWAP2 SWAP1 PUSH2 0x852 JUMP JUMPDEST PUSH1 0x40 MLOAD DUP1 SWAP2 SUB SWAP1 RETURN JUMPDEST PUSH1 0x1 PUSH0 CALLER PUSH20 0xFFFFFFFFFFFFFFFFFFFFFFFFFFFFFFFFFFFFFFFF AND PUSH20 0xFFFFFFFFFFFFFFFFFFFFFFFFFFFFFFFFFFFFFFFF AND DUP2 MSTORE PUSH1 0x20 ADD SWAP1 DUP2 MSTORE PUSH1 0x20 ADD PUSH0 KECCAK256 PUSH0 SWAP1 SLOAD SWAP1 PUSH2 0x100 EXP SWAP1 DIV PUSH1 0xFF AND ISZERO PUSH2 0x14B JUMPI PUSH1 0x40 MLOAD PUSH32 0x8C379A000000000000000000000000000000000000000000000000000000000 DUP2 MSTORE PUSH1 0x4 ADD PUSH2 0x142 SWAP1 PUSH2 0x8B5 JUMP JUMPDEST PUSH1 0x40 MLOAD DUP1 SWAP2 SUB SWAP1 REVERT JUMPDEST PUSH2 0x154 DUP2 PUSH2 0x3BE JUMP JUMPDEST PUSH2 0x193 JUMPI PUSH1 0x40 MLOAD PUSH32 0x8C379A000000000000000000000000000000000000000000000000000000000 DUP2 MSTORE PUSH1 0x4 ADD PUSH2 0x18A SWAP1 PUSH2 0x91D JUMP JUMPDEST PUSH1 0x40 MLOAD DUP1 SWAP2 SUB SWAP1 REVERT JUMPDEST PUSH1 0x1 DUP1 PUSH0 CALLER PUSH20 0xFFFFFFFFFFFFFFFFFFFFFFFFFFFFFFFFFFFFFFFF AND PUSH20 0xFFFFFFFFFFFFFFFFFFFFFFFFFFFFFFFFFFFFFFFF AND DUP2 MSTORE PUSH1 0x20 ADD SWAP1 DUP2 MSTORE PUSH1 0x20 ADD PUSH0 KECCAK256 PUSH0 PUSH2 0x100 EXP DUP2 SLOAD DUP2 PUSH1 0xFF MUL NOT AND SWAP1 DUP4 ISZERO ISZERO MUL OR SWAP1 SSTORE POP POP JUMP JUMPDEST PUSH0 PUSH1 0x20 MSTORE DUP1 PUSH0 MSTORE PUSH1 0x40 PUSH0 KECCAK256 PUSH0 SWAP2 POP SWAP1 POP DUP1 PUSH0 ADD DUP1 SLOAD PUSH2 0x208 SWAP1 PUSH2 0x968 JUMP JUMPDEST DUP1 PUSH1 0x1F ADD PUSH1 0x20 DUP1 SWAP2 DIV MUL PUSH1 0x20 ADD PUSH1 0x40 MLOAD SWAP1 DUP2 ADD PUSH1 0x40 MSTORE DUP1 SWAP3 SWAP2 SWAP1 DUP2 DUP2 MSTORE PUSH1 0x20 ADD DUP3 DUP1 SLOAD PUSH2 0x234 SWAP1 PUSH2 0x968 JUMP JUMPDEST DUP1 ISZERO PUSH2 0x27F JUMPI DUP1 PUSH1 0x1F LT PUSH2 0x256 JUMPI PUSH2 0x100 DUP1 DUP4 SLOAD DIV MUL DUP4 MSTORE SWAP2 PUSH1 0x20 ADD SWAP2 PUSH2 0x27F JUMP JUMPDEST DUP3 ADD SWAP2 SWAP1 PUSH0 MSTORE PUSH1 0x20 PUSH0 KECCAK256 SWAP1 JUMPDEST DUP2 SLOAD DUP2 MSTORE SWAP1 PUSH1 0x1 ADD SWAP1 PUSH1 0x20 ADD DUP1 DUP4 GT PUSH2 0x262 JUMPI DUP3 SWAP1 SUB PUSH1 0x1F AND DUP3 ADD SWAP2 JUMPDEST POP POP POP POP POP SWAP1 DUP1 PUSH1 0x1 ADD DUP1 SLOAD PUSH2 0x294 SWAP1 PUSH2 0x968 JUMP JUMPDEST DUP1 PUSH1 0x1F ADD PUSH1 0x20 DUP1 SWAP2 DIV MUL PUSH1 0x20 ADD PUSH1 0x40 MLOAD SWAP1 DUP2 ADD PUSH1 0x40 MSTORE DUP1 SWAP3 SWAP2 SWAP1 DUP2 DUP2 MSTORE PUSH1 0x20 ADD DUP3 DUP1 SLOAD PUSH2 0x2C0 SWAP1 PUSH2 0x968 JUMP JUMPDEST DUP1 ISZERO PUSH2 0x30B JUMPI DUP1 PUSH1 0x1F LT PUSH2 0x2E2 JUMPI PUSH2 0x100 DUP1 DUP4 SLOAD DIV MUL DUP4 MSTORE SWAP2 PUSH1 0x20 ADD SWAP2 PUSH2 0x30B JUMP JUMPDEST DUP3 ADD SWAP2 SWAP1 PUSH0 MSTORE PUSH1 0x20 PUSH0 KECCAK256 SWAP1 JUMPDEST DUP2 SLOAD DUP2 MSTORE SWAP1 PUSH1 0x1 ADD SWAP1 PUSH1 0x20 ADD DUP1 DUP4 GT PUSH2 0x2EE JUMPI DUP3 SWAP1 SUB PUSH1 0x1F AND DUP3 ADD SWAP2 JUMPDEST POP POP POP POP POP SWAP1 DUP1 PUSH1 0x2 ADD DUP1 SLOAD PUSH2 0x320 SWAP1 PUSH2 0x968 JUMP JUMPDEST DUP1 PUSH1 0x1F ADD PUSH1 0x20 DUP1 SWAP2 DIV MUL PUSH1 0x20 ADD PUSH1 0x40 MLOAD SWAP1 DUP2 ADD PUSH1 0x40 MSTORE DUP1 SWAP3 SWAP2 SWAP1 DUP2 DUP2 MSTORE PUSH1 0x20 ADD DUP3 DUP1 SLOAD PUSH2 0x34C SWAP1 PUSH2 0x968 JUMP JUMPDEST DUP1 ISZERO PUSH2 0x397 JUMPI DUP1 PUSH1 0x1F LT PUSH2 0x36E JUMPI PUSH2 0x100 DUP1 DUP4 SLOAD DIV MUL DUP4 MSTORE SWAP2 PUSH1 0x20 ADD SWAP2 PUSH2 0x397 JUMP JUMPDEST DUP3 ADD SWAP2 SWAP1 PUSH0 MSTORE PUSH1 0x20 PUSH0 KECCAK256 SWAP1 JUMPDEST DUP2 SLOAD DUP2 MSTORE SWAP1 PUSH1 0x1 ADD SWAP1 PUSH1 0x20 ADD DUP1 DUP4 GT PUSH2 0x37A JUMPI DUP3 SWAP1 SUB PUSH1 0x1F AND DUP3 ADD SWAP2 JUMPDEST POP POP POP POP POP SWAP1 POP DUP4 JUMP JUMPDEST PUSH1 0x1 PUSH1 0x20 MSTORE DUP1 PUSH0 MSTORE PUSH1 0x40 PUSH0 KECCAK256 PUSH0 SWAP2 POP SLOAD SWAP1 PUSH2 0x100 EXP SWAP1 DIV PUSH1 0xFF AND DUP2 JUMP JUMPDEST PUSH0 PUSH1 0x2 PUSH0 SWAP1 SLOAD SWAP1 PUSH2 0x100 EXP SWAP1 DIV PUSH20 0xFFFFFFFFFFFFFFFFFFFFFFFFFFFFFFFFFFFFFFFF AND PUSH20 0xFFFFFFFFFFFFFFFFFFFFFFFFFFFFFFFFFFFFFFFF AND PUSH4 0xF6AF0311 DUP4 PUSH1 0x40 MLOAD DUP3 PUSH4 0xFFFFFFFF AND PUSH1 0xE0 SHL DUP2 MSTORE PUSH1 0x4 ADD PUSH2 0x419 SWAP2 SWAP1 PUSH2 0xAD8 JUMP JUMPDEST PUSH1 0x20 PUSH1 0x40 MLOAD DUP1 DUP4 SUB DUP2 DUP7 GAS STATICCALL ISZERO DUP1 ISZERO PUSH2 0x434 JUMPI RETURNDATASIZE PUSH0 DUP1 RETURNDATACOPY RETURNDATASIZE PUSH0 REVERT JUMPDEST POP POP POP POP PUSH1 0x40 MLOAD RETURNDATASIZE PUSH1 0x1F NOT PUSH1 0x1F DUP3 ADD AND DUP3 ADD DUP1 PUSH1 0x40 MSTORE POP DUP2 ADD SWAP1 PUSH2 0x458 SWAP2 SWAP1 PUSH2 0xB1C JUMP JUMPDEST SWAP1 POP SWAP2 SWAP1 POP JUMP JUMPDEST PUSH0 PUSH1 0x40 MLOAD SWAP1 POP SWAP1 JUMP JUMPDEST PUSH0 DUP1 REVERT JUMPDEST PUSH0 DUP1 REVERT JUMPDEST PUSH0 PUSH1 0x1F NOT PUSH1 0x1F DUP4 ADD AND SWAP1 POP SWAP2 SWAP1 POP JUMP JUMPDEST PUSH32 0x4E487B7100000000000000000000000000000000000000000000000000000000 PUSH0 MSTORE PUSH1 0x41 PUSH1 0x4 MSTORE PUSH1 0x24 PUSH0 REVERT JUMPDEST PUSH2 0x4B6 DUP3 PUSH2 0x470 JUMP JUMPDEST DUP2 ADD DUP2 DUP2 LT PUSH8 0xFFFFFFFFFFFFFFFF DUP3 GT OR ISZERO PUSH2 0x4D5 JUMPI PUSH2 0x4D4 PUSH2 0x480 JUMP JUMPDEST JUMPDEST DUP1 PUSH1 0x40 MSTORE POP POP POP JUMP JUMPDEST PUSH0 PUSH2 0x4E7 PUSH2 0x45F JUMP JUMPDEST SWAP1 POP PUSH2 0x4F3 DUP3 DUP3 PUSH2 0x4AD JUMP JUMPDEST SWAP2 SWAP1 POP JUMP JUMPDEST PUSH0 DUP2 SWAP1 POP SWAP2 SWAP1 POP JUMP JUMPDEST PUSH2 0x50A DUP2 PUSH2 0x4F8 JUMP JUMPDEST DUP2 EQ PUSH2 0x514 JUMPI PUSH0 DUP1 REVERT JUMPDEST POP JUMP JUMPDEST PUSH0 DUP2 CALLDATALOAD SWAP1 POP PUSH2 0x525 DUP2 PUSH2 0x501 JUMP JUMPDEST SWAP3 SWAP2 POP POP JUMP JUMPDEST PUSH0 PUSH1 0x40 DUP3 DUP5 SUB SLT ISZERO PUSH2 0x540 JUMPI PUSH2 0x53F PUSH2 0x46C JUMP JUMPDEST JUMPDEST PUSH2 0x54A PUSH1 0x40 PUSH2 0x4DE JUMP JUMPDEST SWAP1 POP PUSH0 PUSH2 0x559 DUP5 DUP3 DUP6 ADD PUSH2 0x517 JUMP JUMPDEST PUSH0 DUP4 ADD MSTORE POP PUSH1 0x20 PUSH2 0x56C DUP5 DUP3 DUP6 ADD PUSH2 0x517 JUMP JUMPDEST PUSH1 0x20 DUP4 ADD MSTORE POP SWAP3 SWAP2 POP POP JUMP JUMPDEST PUSH0 DUP1 REVERT JUMPDEST PUSH0 PUSH8 0xFFFFFFFFFFFFFFFF DUP3 GT ISZERO PUSH2 0x596 JUMPI PUSH2 0x595 PUSH2 0x480 JUMP JUMPDEST JUMPDEST PUSH1 0x20 DUP3 MUL SWAP1 POP SWAP2 SWAP1 POP JUMP JUMPDEST PUSH0 DUP1 REVERT JUMPDEST PUSH0 PUSH2 0x5B7 PUSH2 0x5B2 DUP5 PUSH2 0x57C JUMP JUMPDEST PUSH2 0x4DE JUMP JUMPDEST SWAP1 POP DUP1 PUSH1 0x20 DUP5 MUL DUP4 ADD DUP6 DUP2 GT ISZERO PUSH2 0x5D1 JUMPI PUSH2 0x5D0 PUSH2 0x5A1 JUMP JUMPDEST JUMPDEST DUP4 JUMPDEST DUP2 DUP2 LT ISZERO PUSH2 0x5FA JUMPI DUP1 PUSH2 0x5E6 DUP9 DUP3 PUSH2 0x517 JUMP JUMPDEST DUP5 MSTORE PUSH1 0x20 DUP5 ADD SWAP4 POP POP PUSH1 0x20 DUP2 ADD SWAP1 POP PUSH2 0x5D3 JUMP JUMPDEST POP POP POP SWAP4 SWAP3 POP POP POP JUMP JUMPDEST PUSH0 DUP3 PUSH1 0x1F DUP4 ADD SLT PUSH2 0x618 JUMPI PUSH2 0x617 PUSH2 0x578 JUMP JUMPDEST JUMPDEST PUSH1 0x2 PUSH2 0x625 DUP5 DUP3 DUP6 PUSH2 0x5A5 JUMP JUMPDEST SWAP2 POP POP SWAP3 SWAP2 POP POP JUMP JUMPDEST PUSH0 PUSH1 0x80 DUP3 DUP5 SUB SLT ISZERO PUSH2 0x643 JUMPI PUSH2 0x642 PUSH2 0x46C JUMP JUMPDEST JUMPDEST PUSH2 0x64D PUSH1 0x40 PUSH2 0x4DE JUMP JUMPDEST SWAP1 POP PUSH0 PUSH2 0x65C DUP5 DUP3 DUP6 ADD PUSH2 0x604 JUMP JUMPDEST PUSH0 DUP4 ADD MSTORE POP PUSH1 0x40 PUSH2 0x66F DUP5 DUP3 DUP6 ADD PUSH2 0x604 JUMP JUMPDEST PUSH1 0x20 DUP4 ADD MSTORE POP SWAP3 SWAP2 POP POP JUMP JUMPDEST PUSH0 PUSH2 0x100 DUP3 DUP5 SUB SLT ISZERO PUSH2 0x691 JUMPI PUSH2 0x690 PUSH2 0x46C JUMP JUMPDEST JUMPDEST PUSH2 0x69B PUSH1 0x60 PUSH2 0x4DE JUMP JUMPDEST SWAP1 POP PUSH0 PUSH2 0x6AA DUP5 DUP3 DUP6 ADD PUSH2 0x52B JUMP JUMPDEST PUSH0 DUP4 ADD MSTORE POP PUSH1 0x40 PUSH2 0x6BD DUP5 DUP3 DUP6 ADD PUSH2 0x62E JUMP JUMPDEST PUSH1 0x20 DUP4 ADD MSTORE POP PUSH1 0xC0 PUSH2 0x6D1 DUP5 DUP3 DUP6 ADD PUSH2 0x52B JUMP JUMPDEST PUSH1 0x40 DUP4 ADD MSTORE POP SWAP3 SWAP2 POP POP JUMP JUMPDEST PUSH0 PUSH2 0x100 DUP3 DUP5 SUB SLT ISZERO PUSH2 0x6F3 JUMPI PUSH2 0x6F2 PUSH2 0x468 JUMP JUMPDEST JUMPDEST PUSH0 PUSH2 0x700 DUP5 DUP3 DUP6 ADD PUSH2 0x67B JUMP JUMPDEST SWAP2 POP POP SWAP3 SWAP2 POP POP JUMP JUMPDEST PUSH0 PUSH20 0xFFFFFFFFFFFFFFFFFFFFFFFFFFFFFFFFFFFFFFFF DUP3 AND SWAP1 POP SWAP2 SWAP1 POP JUMP JUMPDEST PUSH0 PUSH2 0x732 DUP3 PUSH2 0x709 JUMP JUMPDEST SWAP1 POP SWAP2 SWAP1 POP JUMP JUMPDEST PUSH2 0x742 DUP2 PUSH2 0x728 JUMP JUMPDEST DUP2 EQ PUSH2 0x74C JUMPI PUSH0 DUP1 REVERT JUMPDEST POP JUMP JUMPDEST PUSH0 DUP2 CALLDATALOAD SWAP1 POP PUSH2 0x75D DUP2 PUSH2 0x739 JUMP JUMPDEST SWAP3 SWAP2 POP POP JUMP JUMPDEST PUSH0 PUSH1 0x20 DUP3 DUP5 SUB SLT ISZERO PUSH2 0x778 JUMPI PUSH2 0x777 PUSH2 0x468 JUMP JUMPDEST JUMPDEST PUSH0 PUSH2 0x785 DUP5 DUP3 DUP6 ADD PUSH2 0x74F JUMP JUMPDEST SWAP2 POP POP SWAP3 SWAP2 POP POP JUMP JUMPDEST PUSH0 DUP2 MLOAD SWAP1 POP SWAP2 SWAP1 POP JUMP JUMPDEST PUSH0 DUP3 DUP3 MSTORE PUSH1 0x20 DUP3 ADD SWAP1 POP SWAP3 SWAP2 POP POP JUMP JUMPDEST DUP3 DUP2 DUP4 MCOPY PUSH0 DUP4 DUP4 ADD MSTORE POP POP POP JUMP JUMPDEST PUSH0 PUSH2 0x7C0 DUP3 PUSH2 0x78E JUMP JUMPDEST PUSH2 0x7CA DUP2 DUP6 PUSH2 0x798 JUMP JUMPDEST SWAP4 POP PUSH2 0x7DA DUP2 DUP6 PUSH1 0x20 DUP7 ADD PUSH2 0x7A8 JUMP JUMPDEST PUSH2 0x7E3 DUP2 PUSH2 0x470 JUMP JUMPDEST DUP5 ADD SWAP2 POP POP SWAP3 SWAP2 POP POP JUMP JUMPDEST PUSH0 PUSH1 0x60 DUP3 ADD SWAP1 POP DUP2 DUP2 SUB PUSH0 DUP4 ADD MSTORE PUSH2 0x806 DUP2 DUP7 PUSH2 0x7B6 JUMP JUMPDEST SWAP1 POP DUP2 DUP2 SUB PUSH1 0x20 DUP4 ADD MSTORE PUSH2 0x81A DUP2 DUP6 PUSH2 0x7B6 JUMP JUMPDEST SWAP1 POP DUP2 DUP2 SUB PUSH1 0x40 DUP4 ADD MSTORE PUSH2 0x82E DUP2 DUP5 PUSH2 0x7B6 JUMP JUMPDEST SWAP1 POP SWAP5 SWAP4 POP POP POP POP JUMP JUMPDEST PUSH0 DUP2 ISZERO ISZERO SWAP1 POP SWAP2 SWAP1 POP JUMP JUMPDEST PUSH2 0x84C DUP2 PUSH2 0x838 JUMP JUMPDEST DUP3 MSTORE POP POP JUMP JUMPDEST PUSH0 PUSH1 0x20 DUP3 ADD SWAP1 POP PUSH2 0x865 PUSH0 DUP4 ADD DUP5 PUSH2 0x843 JUMP JUMPDEST SWAP3 SWAP2 POP POP JUMP JUMPDEST PUSH32 0x416C726561647920766572696669656400000000000000000000000000000000 PUSH0 DUP3 ADD MSTORE POP JUMP JUMPDEST PUSH0 PUSH2 0x89F PUSH1 0x10 DUP4 PUSH2 0x798 JUMP JUMPDEST SWAP2 POP PUSH2 0x8AA DUP3 PUSH2 0x86B JUMP JUMPDEST PUSH1 0x20 DUP3 ADD SWAP1 POP SWAP2 SWAP1 POP JUMP JUMPDEST PUSH0 PUSH1 0x20 DUP3 ADD SWAP1 POP DUP2 DUP2 SUB PUSH0 DUP4 ADD MSTORE PUSH2 0x8CC DUP2 PUSH2 0x893 JUMP JUMPDEST SWAP1 POP SWAP2 SWAP1 POP JUMP JUMPDEST PUSH32 0x496E76616C69642070726F6F6600000000000000000000000000000000000000 PUSH0 DUP3 ADD MSTORE POP JUMP JUMPDEST PUSH0 PUSH2 0x907 PUSH1 0xD DUP4 PUSH2 0x798 JUMP JUMPDEST SWAP2 POP PUSH2 0x912 DUP3 PUSH2 0x8D3 JUMP JUMPDEST PUSH1 0x20 DUP3 ADD SWAP1 POP SWAP2 SWAP1 POP JUMP JUMPDEST PUSH0 PUSH1 0x20 DUP3 ADD SWAP1 POP DUP2 DUP2 SUB PUSH0 DUP4 ADD MSTORE PUSH2 0x934 DUP2 PUSH2 0x8FB JUMP JUMPDEST SWAP1 POP SWAP2 SWAP1 POP JUMP JUMPDEST PUSH32 0x4E487B7100000000000000000000000000000000000000000000000000000000 PUSH0 MSTORE PUSH1 0x22 PUSH1 0x4 MSTORE PUSH1 0x24 PUSH0 REVERT JUMPDEST PUSH0 PUSH1 0x2 DUP3 DIV SWAP1 POP PUSH1 0x1 DUP3 AND DUP1 PUSH2 0x97F JUMPI PUSH1 0x7F DUP3 AND SWAP2 POP JUMPDEST PUSH1 0x20 DUP3 LT DUP2 SUB PUSH2 0x992 JUMPI PUSH2 0x991 PUSH2 0x93B JUMP JUMPDEST JUMPDEST POP SWAP2 SWAP1 POP JUMP JUMPDEST PUSH2 0x9A1 DUP2 PUSH2 0x4F8 JUMP JUMPDEST DUP3 MSTORE POP POP JUMP JUMPDEST PUSH1 0x40 DUP3 ADD PUSH0 DUP3 ADD MLOAD PUSH2 0x9BB PUSH0 DUP6 ADD DUP3 PUSH2 0x998 JUMP JUMPDEST POP PUSH1 0x20 DUP3 ADD MLOAD PUSH2 0x9CE PUSH1 0x20 DUP6 ADD DUP3 PUSH2 0x998 JUMP JUMPDEST POP POP POP POP JUMP JUMPDEST PUSH0 PUSH1 0x2 SWAP1 POP SWAP2 SWAP1 POP JUMP JUMPDEST PUSH0 DUP2 SWAP1 POP SWAP3 SWAP2 POP POP JUMP JUMPDEST PUSH0 DUP2 SWAP1 POP SWAP2 SWAP1 POP JUMP JUMPDEST PUSH0 PUSH2 0x9FC DUP4 DUP4 PUSH2 0x998 JUMP JUMPDEST PUSH1 0x20 DUP4 ADD SWAP1 POP SWAP3 SWAP2 POP POP JUMP JUMPDEST PUSH0 PUSH1 0x20 DUP3 ADD SWAP1 POP SWAP2 SWAP1 POP JUMP JUMPDEST PUSH2 0xA1D DUP2 PUSH2 0x9D4 JUMP JUMPDEST PUSH2 0xA27 DUP2 DUP5 PUSH2 0x9DE JUMP JUMPDEST SWAP3 POP PUSH2 0xA32 DUP3 PUSH2 0x9E8 JUMP JUMPDEST DUP1 PUSH0 JUMPDEST DUP4 DUP2 LT ISZERO PUSH2 0xA62 JUMPI DUP2 MLOAD PUSH2 0xA49 DUP8 DUP3 PUSH2 0x9F1 JUMP JUMPDEST SWAP7 POP PUSH2 0xA54 DUP4 PUSH2 0xA08 JUMP JUMPDEST SWAP3 POP POP PUSH1 0x1 DUP2 ADD SWAP1 POP PUSH2 0xA35 JUMP JUMPDEST POP POP POP POP POP POP JUMP JUMPDEST PUSH1 0x80 DUP3 ADD PUSH0 DUP3 ADD MLOAD PUSH2 0xA7E PUSH0 DUP6 ADD DUP3 PUSH2 0xA14 JUMP JUMPDEST POP PUSH1 0x20 DUP3 ADD MLOAD PUSH2 0xA91 PUSH1 0x40 DUP6 ADD DUP3 PUSH2 0xA14 JUMP JUMPDEST POP POP POP POP JUMP JUMPDEST PUSH2 0x100 DUP3 ADD PUSH0 DUP3 ADD MLOAD PUSH2 0xAAC PUSH0 DUP6 ADD DUP3 PUSH2 0x9A7 JUMP JUMPDEST POP PUSH1 0x20 DUP3 ADD MLOAD PUSH2 0xABF PUSH1 0x40 DUP6 ADD DUP3 PUSH2 0xA6A JUMP JUMPDEST POP PUSH1 0x40 DUP3 ADD MLOAD PUSH2 0xAD2 PUSH1 0xC0 DUP6 ADD DUP3 PUSH2 0x9A7 JUMP JUMPDEST POP POP POP POP JUMP JUMPDEST PUSH0 PUSH2 0x100 DUP3 ADD SWAP1 POP PUSH2 0xAEC PUSH0 DUP4 ADD DUP5 PUSH2 0xA97 JUMP JUMPDEST SWAP3 SWAP2 POP POP JUMP JUMPDEST PUSH2 0xAFB DUP2 PUSH2 0x838 JUMP JUMPDEST DUP2 EQ PUSH2 0xB05 JUMPI PUSH0 DUP1 REVERT JUMPDEST POP JUMP JUMPDEST PUSH0 DUP2 MLOAD SWAP1 POP PUSH2 0xB16 DUP2 PUSH2 0xAF2 JUMP JUMPDEST SWAP3 SWAP2 POP POP JUMP JUMPDEST PUSH0 PUSH1 0x20 DUP3 DUP5 SUB SLT ISZERO PUSH2 0xB31 JUMPI PUSH2 0xB30 PUSH2 0x468 JUMP JUMPDEST JUMPDEST PUSH0 PUSH2 0xB3E DUP5 DUP3 DUP6 ADD PUSH2 0xB08 JUMP JUMPDEST SWAP2 POP POP SWAP3 SWAP2 POP POP JUMP INVALID LOG2 PUSH5 0x6970667358 0x22 SLT KECCAK256 TIMESTAMP CALLCODE 0xB3 GASPRICE SWAP2 SDIV CHAINID PUSH30 0xFD61DA6E55B0A7C74E3356351E69DE60763EE88095ACF56264736F6C6343 STOP ADDMOD NOT STOP CALLER "
				},
				"gasEstimates": {
					"creation": {
						"codeDepositCost": "588200",
						"executionCost": "infinite",
						"totalCost": "infinite"
					},
					"external": {
						"isVerified(address)": "2855",
						"users(address)": "infinite",
						"verifyIdentity(((uint256,uint256),(uint256[2],uint256[2]),(uint256,uint256)))": "infinite"
					},
					"internal": {
						"verifyProof(struct Verifier.Proof memory)": "infinite"
					}
				},
				"methodIdentifiers": {
					"isVerified(address)": "b9209e33",
					"users(address)": "a87430ba",
					"verifyIdentity(((uint256,uint256),(uint256[2],uint256[2]),(uint256,uint256)))": "0f2f7ee1"
				}
			},
			"storageLayout": {
				"storage": [
					{
						"astId": 965,
						"contract": "contracts/zkp/verifier_plonk.sol:IdentityVerification",
						"label": "users",
						"offset": 0,
						"slot": "0",
						"type": "t_mapping(t_address,t_struct(User)960_storage)"
					},
					{
						"astId": 969,
						"contract": "contracts/zkp/verifier_plonk.sol:IdentityVerification",
						"label": "isVerified",
						"offset": 0,
						"slot": "1",
						"type": "t_mapping(t_address,t_bool)"
					},
					{
						"astId": 972,
						"contract": "contracts/zkp/verifier_plonk.sol:IdentityVerification",
						"label": "verifier",
						"offset": 0,
						"slot": "2",
						"type": "t_contract(Verifier)948"
					}
				],
				"types": {
					"t_address": {
						"encoding": "inplace",
						"label": "address",
						"numberOfBytes": "20"
					},
					"t_bool": {
						"encoding": "inplace",
						"label": "bool",
						"numberOfBytes": "1"
					},
					"t_contract(Verifier)948": {
						"encoding": "inplace",
						"label": "contract Verifier",
						"numberOfBytes": "20"
					},
					"t_mapping(t_address,t_bool)": {
						"encoding": "mapping",
						"key": "t_address",
						"label": "mapping(address => bool)",
						"numberOfBytes": "32",
						"value": "t_bool"
					},
					"t_mapping(t_address,t_struct(User)960_storage)": {
						"encoding": "mapping",
						"key": "t_address",
						"label": "mapping(address => struct IdentityVerification.User)",
						"numberOfBytes": "32",
						"value": "t_struct(User)960_storage"
					},
					"t_string_storage": {
						"encoding": "bytes",
						"label": "string",
						"numberOfBytes": "32"
					},
					"t_struct(User)960_storage": {
						"encoding": "inplace",
						"label": "struct IdentityVerification.User",
						"members": [
							{
								"astId": 955,
								"contract": "contracts/zkp/verifier_plonk.sol:IdentityVerification",
								"label": "name",
								"offset": 0,
								"slot": "0",
								"type": "t_string_storage"
							},
							{
								"astId": 957,
								"contract": "contracts/zkp/verifier_plonk.sol:IdentityVerification",
								"label": "email",
								"offset": 0,
								"slot": "1",
								"type": "t_string_storage"
							},
							{
								"astId": 959,
								"contract": "contracts/zkp/verifier_plonk.sol:IdentityVerification",
								"label": "country",
								"offset": 0,
								"slot": "2",
								"type": "t_string_storage"
							}
						],
						"numberOfBytes": "96"
					}
				}
			},
			"userdoc": {
				"kind": "user",
				"methods": {},
				"version": 1
			}
		}
	}
}