{
	"contracts/zkp/stark-verifier.sol": {
		"VerificationProofStark": {
			"abi": [
				{
					"inputs": [
						{
							"internalType": "bytes32",
							"name": "_expectedProofHash",
							"type": "bytes32"
						},
						{
							"internalType": "bytes32",
							"name": "_publicKeyHash",
							"type": "bytes32"
						}
					],
					"stateMutability": "nonpayable",
					"type": "constructor"
				},
				{
					"anonymous": false,
					"inputs": [
						{
							"indexed": false,
							"internalType": "string",
							"name": "message",
							"type": "string"
						},
						{
							"indexed": false,
							"internalType": "bytes32",
							"name": "value",
							"type": "bytes32"
						}
					],
					"name": "Debug",
					"type": "event"
				},
				{
					"anonymous": false,
					"inputs": [
						{
							"indexed": false,
							"internalType": "string",
							"name": "message",
							"type": "string"
						},
						{
							"indexed": false,
							"internalType": "address",
							"name": "value",
							"type": "address"
						}
					],
					"name": "DebugAddress",
					"type": "event"
				},
				{
					"inputs": [],
					"name": "expectedProofHash",
					"outputs": [
						{
							"internalType": "bytes32",
							"name": "",
							"type": "bytes32"
						}
					],
					"stateMutability": "view",
					"type": "function"
				},
				{
					"inputs": [
						{
							"internalType": "bytes32",
							"name": "_messageHash",
							"type": "bytes32"
						}
					],
					"name": "getEthSignedMessageHash",
					"outputs": [
						{
							"internalType": "bytes32",
							"name": "",
							"type": "bytes32"
						}
					],
					"stateMutability": "pure",
					"type": "function"
				},
				{
					"inputs": [
						{
							"internalType": "address",
							"name": "",
							"type": "address"
						}
					],
					"name": "isVerified",
					"outputs": [
						{
							"internalType": "bool",
							"name": "",
							"type": "bool"
						}
					],
					"stateMutability": "view",
					"type": "function"
				},
				{
					"inputs": [],
					"name": "publicKeyHash",
					"outputs": [
						{
							"internalType": "bytes32",
							"name": "",
							"type": "bytes32"
						}
					],
					"stateMutability": "view",
					"type": "function"
				},
				{
					"inputs": [
						{
							"internalType": "bytes",
							"name": "sig",
							"type": "bytes"
						}
					],
					"name": "splitSignature",
					"outputs": [
						{
							"internalType": "bytes32",
							"name": "r",
							"type": "bytes32"
						},
						{
							"internalType": "bytes32",
							"name": "s",
							"type": "bytes32"
						},
						{
							"internalType": "uint8",
							"name": "v",
							"type": "uint8"
						}
					],
					"stateMutability": "pure",
					"type": "function"
				},
				{
					"inputs": [
						{
							"internalType": "address",
							"name": "",
							"type": "address"
						}
					],
					"name": "users",
					"outputs": [
						{
							"internalType": "string",
							"name": "name",
							"type": "string"
						},
						{
							"internalType": "string",
							"name": "email",
							"type": "string"
						},
						{
							"internalType": "string",
							"name": "country",
							"type": "string"
						}
					],
					"stateMutability": "view",
					"type": "function"
				},
				{
					"inputs": [
						{
							"internalType": "bytes32",
							"name": "calculatedProofHash",
							"type": "bytes32"
						},
						{
							"internalType": "bytes",
							"name": "signature",
							"type": "bytes"
						},
						{
							"internalType": "address",
							"name": "publicKey",
							"type": "address"
						}
					],
					"name": "verifySignature",
					"outputs": [
						{
							"internalType": "bool",
							"name": "",
							"type": "bool"
						}
					],
					"stateMutability": "view",
					"type": "function"
				}
			],
			"devdoc": {
				"kind": "dev",
				"methods": {},
				"version": 1
			},
			"evm": {
				"assembly": "    /* \"contracts/zkp/stark-verifier.sol\":1012:3583  contract VerificationProofStark {... */\n  mstore(0x40, 0x80)\n    /* \"contracts/zkp/stark-verifier.sol\":1427:1589  constructor(bytes32 _expectedProofHash, bytes32 _publicKeyHash) {... */\n  callvalue\n  dup1\n  iszero\n  tag_1\n  jumpi\n  0x00\n  dup1\n  revert\ntag_1:\n  pop\n  mload(0x40)\n  sub(codesize, bytecodeSize)\n  dup1\n  bytecodeSize\n  dup4\n  codecopy\n  dup2\n  dup2\n  add\n  0x40\n  mstore\n  dup2\n  add\n  swap1\n  tag_2\n  swap2\n  swap1\n  tag_3\n  jump\t// in\ntag_2:\n    /* \"contracts/zkp/stark-verifier.sol\":1522:1540  _expectedProofHash */\n  dup2\n    /* \"contracts/zkp/stark-verifier.sol\":1502:1519  expectedProofHash */\n  0x02\n    /* \"contracts/zkp/stark-verifier.sol\":1502:1540  expectedProofHash = _expectedProofHash */\n  dup2\n  swap1\n  sstore\n  pop\n    /* \"contracts/zkp/stark-verifier.sol\":1567:1581  _publicKeyHash */\n  dup1\n    /* \"contracts/zkp/stark-verifier.sol\":1551:1564  publicKeyHash */\n  0x03\n    /* \"contracts/zkp/stark-verifier.sol\":1551:1581  publicKeyHash = _publicKeyHash */\n  dup2\n  swap1\n  sstore\n  pop\n    /* \"contracts/zkp/stark-verifier.sol\":1427:1589  constructor(bytes32 _expectedProofHash, bytes32 _publicKeyHash) {... */\n  pop\n  pop\n    /* \"contracts/zkp/stark-verifier.sol\":1012:3583  contract VerificationProofStark {... */\n  jump(tag_6)\n    /* \"#utility.yul\":88:205   */\ntag_8:\n    /* \"#utility.yul\":197:198   */\n  0x00\n    /* \"#utility.yul\":194:195   */\n  dup1\n    /* \"#utility.yul\":187:199   */\n  revert\n    /* \"#utility.yul\":334:411   */\ntag_10:\n    /* \"#utility.yul\":371:378   */\n  0x00\n    /* \"#utility.yul\":400:405   */\n  dup2\n    /* \"#utility.yul\":389:405   */\n  swap1\n  pop\n    /* \"#utility.yul\":334:411   */\n  swap2\n  swap1\n  pop\n  jump\t// out\n    /* \"#utility.yul\":417:539   */\ntag_11:\n    /* \"#utility.yul\":490:514   */\n  tag_19\n    /* \"#utility.yul\":508:513   */\n  dup2\n    /* \"#utility.yul\":490:514   */\n  tag_10\n  jump\t// in\ntag_19:\n    /* \"#utility.yul\":483:488   */\n  dup2\n    /* \"#utility.yul\":480:515   */\n  eq\n    /* \"#utility.yul\":470:533   */\n  tag_20\n  jumpi\n    /* \"#utility.yul\":529:530   */\n  0x00\n    /* \"#utility.yul\":526:527   */\n  dup1\n    /* \"#utility.yul\":519:531   */\n  revert\n    /* \"#utility.yul\":470:533   */\ntag_20:\n    /* \"#utility.yul\":417:539   */\n  pop\n  jump\t// out\n    /* \"#utility.yul\":545:688   */\ntag_12:\n    /* \"#utility.yul\":602:607   */\n  0x00\n    /* \"#utility.yul\":633:639   */\n  dup2\n    /* \"#utility.yul\":627:640   */\n  mload\n    /* \"#utility.yul\":618:640   */\n  swap1\n  pop\n    /* \"#utility.yul\":649:682   */\n  tag_22\n    /* \"#utility.yul\":676:681   */\n  dup2\n    /* \"#utility.yul\":649:682   */\n  tag_11\n  jump\t// in\ntag_22:\n    /* \"#utility.yul\":545:688   */\n  swap3\n  swap2\n  pop\n  pop\n  jump\t// out\n    /* \"#utility.yul\":694:1201   */\ntag_3:\n    /* \"#utility.yul\":773:779   */\n  0x00\n    /* \"#utility.yul\":781:787   */\n  dup1\n    /* \"#utility.yul\":830:832   */\n  0x40\n    /* \"#utility.yul\":818:827   */\n  dup4\n    /* \"#utility.yul\":809:816   */\n  dup6\n    /* \"#utility.yul\":805:828   */\n  sub\n    /* \"#utility.yul\":801:833   */\n  slt\n    /* \"#utility.yul\":798:917   */\n  iszero\n  tag_24\n  jumpi\n    /* \"#utility.yul\":836:915   */\n  tag_25\n  tag_8\n  jump\t// in\ntag_25:\n    /* \"#utility.yul\":798:917   */\ntag_24:\n    /* \"#utility.yul\":956:957   */\n  0x00\n    /* \"#utility.yul\":981:1045   */\n  tag_26\n    /* \"#utility.yul\":1037:1044   */\n  dup6\n    /* \"#utility.yul\":1028:1034   */\n  dup3\n    /* \"#utility.yul\":1017:1026   */\n  dup7\n    /* \"#utility.yul\":1013:1035   */\n  add\n    /* \"#utility.yul\":981:1045   */\n  tag_12\n  jump\t// in\ntag_26:\n    /* \"#utility.yul\":971:1045   */\n  swap3\n  pop\n    /* \"#utility.yul\":927:1055   */\n  pop\n    /* \"#utility.yul\":1094:1096   */\n  0x20\n    /* \"#utility.yul\":1120:1184   */\n  tag_27\n    /* \"#utility.yul\":1176:1183   */\n  dup6\n    /* \"#utility.yul\":1167:1173   */\n  dup3\n    /* \"#utility.yul\":1156:1165   */\n  dup7\n    /* \"#utility.yul\":1152:1174   */\n  add\n    /* \"#utility.yul\":1120:1184   */\n  tag_12\n  jump\t// in\ntag_27:\n    /* \"#utility.yul\":1110:1184   */\n  swap2\n  pop\n    /* \"#utility.yul\":1065:1194   */\n  pop\n    /* \"#utility.yul\":694:1201   */\n  swap3\n  pop\n  swap3\n  swap1\n  pop\n  jump\t// out\n    /* \"contracts/zkp/stark-verifier.sol\":1012:3583  contract VerificationProofStark {... */\ntag_6:\n  dataSize(sub_0)\n  dup1\n  dataOffset(sub_0)\n  0x00\n  codecopy\n  0x00\n  return\nstop\n\nsub_0: assembly {\n        /* \"contracts/zkp/stark-verifier.sol\":1012:3583  contract VerificationProofStark {... */\n      mstore(0x40, 0x80)\n      callvalue\n      dup1\n      iszero\n      tag_1\n      jumpi\n      0x00\n      dup1\n      revert\n    tag_1:\n      pop\n      jumpi(tag_2, lt(calldatasize, 0x04))\n      shr(0xe0, calldataload(0x00))\n      dup1\n      0xa7bb5803\n      gt\n      tag_10\n      jumpi\n      dup1\n      0xa7bb5803\n      eq\n      tag_6\n      jumpi\n      dup1\n      0xa87430ba\n      eq\n      tag_7\n      jumpi\n      dup1\n      0xb9209e33\n      eq\n      tag_8\n      jumpi\n      dup1\n      0xfa540801\n      eq\n      tag_9\n      jumpi\n      jump(tag_2)\n    tag_10:\n      dup1\n      0x1478acbb\n      eq\n      tag_3\n      jumpi\n      dup1\n      0x31cd4199\n      eq\n      tag_4\n      jumpi\n      dup1\n      0x5e7e3416\n      eq\n      tag_5\n      jumpi\n    tag_2:\n      0x00\n      dup1\n      revert\n        /* \"contracts/zkp/stark-verifier.sol\":1244:1276  bytes32 public expectedProofHash */\n    tag_3:\n      tag_11\n      tag_12\n      jump\t// in\n    tag_11:\n      mload(0x40)\n      tag_13\n      swap2\n      swap1\n      tag_14\n      jump\t// in\n    tag_13:\n      mload(0x40)\n      dup1\n      swap2\n      sub\n      swap1\n      return\n        /* \"contracts/zkp/stark-verifier.sol\":1595:2315  function verifySignature(bytes32 calculatedProofHash, bytes memory signature, address publicKey) public view returns (bool) {... */\n    tag_4:\n      tag_15\n      0x04\n      dup1\n      calldatasize\n      sub\n      dup2\n      add\n      swap1\n      tag_16\n      swap2\n      swap1\n      tag_17\n      jump\t// in\n    tag_16:\n      tag_18\n      jump\t// in\n    tag_15:\n      mload(0x40)\n      tag_19\n      swap2\n      swap1\n      tag_20\n      jump\t// in\n    tag_19:\n      mload(0x40)\n      dup1\n      swap2\n      sub\n      swap1\n      return\n        /* \"contracts/zkp/stark-verifier.sol\":1283:1311  bytes32 public publicKeyHash */\n    tag_5:\n      tag_21\n      tag_22\n      jump\t// in\n    tag_21:\n      mload(0x40)\n      tag_23\n      swap2\n      swap1\n      tag_14\n      jump\t// in\n    tag_23:\n      mload(0x40)\n      dup1\n      swap2\n      sub\n      swap1\n      return\n        /* \"contracts/zkp/stark-verifier.sol\":3258:3580  function splitSignature(bytes memory sig) public pure returns (bytes32 r, bytes32 s, uint8 v) {... */\n    tag_6:\n      tag_24\n      0x04\n      dup1\n      calldatasize\n      sub\n      dup2\n      add\n      swap1\n      tag_25\n      swap2\n      swap1\n      tag_26\n      jump\t// in\n    tag_25:\n      tag_27\n      jump\t// in\n    tag_24:\n      mload(0x40)\n      tag_28\n      swap4\n      swap3\n      swap2\n      swap1\n      tag_29\n      jump\t// in\n    tag_28:\n      mload(0x40)\n      dup1\n      swap2\n      sub\n      swap1\n      return\n        /* \"contracts/zkp/stark-verifier.sol\":1149:1186  mapping(address => User) public users */\n    tag_7:\n      tag_30\n      0x04\n      dup1\n      calldatasize\n      sub\n      dup2\n      add\n      swap1\n      tag_31\n      swap2\n      swap1\n      tag_32\n      jump\t// in\n    tag_31:\n      tag_33\n      jump\t// in\n    tag_30:\n      mload(0x40)\n      tag_34\n      swap4\n      swap3\n      swap2\n      swap1\n      tag_35\n      jump\t// in\n    tag_34:\n      mload(0x40)\n      dup1\n      swap2\n      sub\n      swap1\n      return\n        /* \"contracts/zkp/stark-verifier.sol\":1193:1235  mapping(address => bool) public isVerified */\n    tag_8:\n      tag_36\n      0x04\n      dup1\n      calldatasize\n      sub\n      dup2\n      add\n      swap1\n      tag_37\n      swap2\n      swap1\n      tag_32\n      jump\t// in\n    tag_37:\n      tag_38\n      jump\t// in\n    tag_36:\n      mload(0x40)\n      tag_39\n      swap2\n      swap1\n      tag_20\n      jump\t// in\n    tag_39:\n      mload(0x40)\n      dup1\n      swap2\n      sub\n      swap1\n      return\n        /* \"contracts/zkp/stark-verifier.sol\":3062:3250  function getEthSignedMessageHash(bytes32 _messageHash) public pure returns (bytes32) {... */\n    tag_9:\n      tag_40\n      0x04\n      dup1\n      calldatasize\n      sub\n      dup2\n      add\n      swap1\n      tag_41\n      swap2\n      swap1\n      tag_42\n      jump\t// in\n    tag_41:\n      tag_43\n      jump\t// in\n    tag_40:\n      mload(0x40)\n      tag_44\n      swap2\n      swap1\n      tag_14\n      jump\t// in\n    tag_44:\n      mload(0x40)\n      dup1\n      swap2\n      sub\n      swap1\n      return\n        /* \"contracts/zkp/stark-verifier.sol\":1244:1276  bytes32 public expectedProofHash */\n    tag_12:\n      sload(0x02)\n      dup2\n      jump\t// out\n        /* \"contracts/zkp/stark-verifier.sol\":1595:2315  function verifySignature(bytes32 calculatedProofHash, bytes memory signature, address publicKey) public view returns (bool) {... */\n    tag_18:\n        /* \"contracts/zkp/stark-verifier.sol\":1713:1717  bool */\n      0x00\n        /* \"contracts/zkp/stark-verifier.sol\":1835:1852  expectedProofHash */\n      sload(0x02)\n        /* \"contracts/zkp/stark-verifier.sol\":1812:1831  calculatedProofHash */\n      dup5\n        /* \"contracts/zkp/stark-verifier.sol\":1812:1852  calculatedProofHash == expectedProofHash */\n      eq\n        /* \"contracts/zkp/stark-verifier.sol\":1804:1882  require(calculatedProofHash == expectedProofHash, \"Proof hash does not match\") */\n      tag_46\n      jumpi\n      mload(0x40)\n      0x08c379a000000000000000000000000000000000000000000000000000000000\n      dup2\n      mstore\n      0x04\n      add\n      tag_47\n      swap1\n      tag_48\n      jump\t// in\n    tag_47:\n      mload(0x40)\n      dup1\n      swap2\n      sub\n      swap1\n      revert\n    tag_46:\n        /* \"contracts/zkp/stark-verifier.sol\":1956:1984  bytes32 ethSignedMessageHash */\n      0x00\n        /* \"contracts/zkp/stark-verifier.sol\":1987:2046  ECRecovery.toEthereumSignedMessageHash(calculatedProofHash) */\n      tag_49\n        /* \"contracts/zkp/stark-verifier.sol\":2026:2045  calculatedProofHash */\n      dup6\n        /* \"contracts/zkp/stark-verifier.sol\":1987:2025  ECRecovery.toEthereumSignedMessageHash */\n      tag_50\n        /* \"contracts/zkp/stark-verifier.sol\":1987:2046  ECRecovery.toEthereumSignedMessageHash(calculatedProofHash) */\n      jump\t// in\n    tag_49:\n        /* \"contracts/zkp/stark-verifier.sol\":1956:2046  bytes32 ethSignedMessageHash = ECRecovery.toEthereumSignedMessageHash(calculatedProofHash) */\n      swap1\n      pop\n        /* \"contracts/zkp/stark-verifier.sol\":2133:2145  bool isValid */\n      0x00\n        /* \"contracts/zkp/stark-verifier.sol\":2148:2209  ECRecovery.verify(ethSignedMessageHash, signature, publicKey) */\n      tag_51\n        /* \"contracts/zkp/stark-verifier.sol\":2166:2186  ethSignedMessageHash */\n      dup3\n        /* \"contracts/zkp/stark-verifier.sol\":2188:2197  signature */\n      dup7\n        /* \"contracts/zkp/stark-verifier.sol\":2199:2208  publicKey */\n      dup7\n        /* \"contracts/zkp/stark-verifier.sol\":2148:2165  ECRecovery.verify */\n      tag_52\n        /* \"contracts/zkp/stark-verifier.sol\":2148:2209  ECRecovery.verify(ethSignedMessageHash, signature, publicKey) */\n      jump\t// in\n    tag_51:\n        /* \"contracts/zkp/stark-verifier.sol\":2133:2209  bool isValid = ECRecovery.verify(ethSignedMessageHash, signature, publicKey) */\n      swap1\n      pop\n        /* \"contracts/zkp/stark-verifier.sol\":2230:2237  isValid */\n      dup1\n        /* \"contracts/zkp/stark-verifier.sol\":2222:2259  require(isValid, \"Invalid signature\") */\n      tag_53\n      jumpi\n      mload(0x40)\n      0x08c379a000000000000000000000000000000000000000000000000000000000\n      dup2\n      mstore\n      0x04\n      add\n      tag_54\n      swap1\n      tag_55\n      jump\t// in\n    tag_54:\n      mload(0x40)\n      dup1\n      swap2\n      sub\n      swap1\n      revert\n    tag_53:\n        /* \"contracts/zkp/stark-verifier.sol\":2279:2283  true */\n      0x01\n        /* \"contracts/zkp/stark-verifier.sol\":2272:2283  return true */\n      swap3\n      pop\n      pop\n      pop\n        /* \"contracts/zkp/stark-verifier.sol\":1595:2315  function verifySignature(bytes32 calculatedProofHash, bytes memory signature, address publicKey) public view returns (bool) {... */\n      swap4\n      swap3\n      pop\n      pop\n      pop\n      jump\t// out\n        /* \"contracts/zkp/stark-verifier.sol\":1283:1311  bytes32 public publicKeyHash */\n    tag_22:\n      sload(0x03)\n      dup2\n      jump\t// out\n        /* \"contracts/zkp/stark-verifier.sol\":3258:3580  function splitSignature(bytes memory sig) public pure returns (bytes32 r, bytes32 s, uint8 v) {... */\n    tag_27:\n        /* \"contracts/zkp/stark-verifier.sol\":3321:3330  bytes32 r */\n      0x00\n        /* \"contracts/zkp/stark-verifier.sol\":3332:3341  bytes32 s */\n      dup1\n        /* \"contracts/zkp/stark-verifier.sol\":3343:3350  uint8 v */\n      0x00\n        /* \"contracts/zkp/stark-verifier.sol\":3385:3387  65 */\n      0x41\n        /* \"contracts/zkp/stark-verifier.sol\":3371:3374  sig */\n      dup5\n        /* \"contracts/zkp/stark-verifier.sol\":3371:3381  sig.length */\n      mload\n        /* \"contracts/zkp/stark-verifier.sol\":3371:3387  sig.length == 65 */\n      eq\n        /* \"contracts/zkp/stark-verifier.sol\":3363:3416  require(sig.length == 65, \"Invalid signature length\") */\n      tag_57\n      jumpi\n      mload(0x40)\n      0x08c379a000000000000000000000000000000000000000000000000000000000\n      dup2\n      mstore\n      0x04\n      add\n      tag_58\n      swap1\n      tag_59\n      jump\t// in\n    tag_58:\n      mload(0x40)\n      dup1\n      swap2\n      sub\n      swap1\n      revert\n    tag_57:\n        /* \"contracts/zkp/stark-verifier.sol\":3473:3475  32 */\n      0x20\n        /* \"contracts/zkp/stark-verifier.sol\":3468:3471  sig */\n      dup5\n        /* \"contracts/zkp/stark-verifier.sol\":3464:3476  add(sig, 32) */\n      add\n        /* \"contracts/zkp/stark-verifier.sol\":3458:3477  mload(add(sig, 32)) */\n      mload\n        /* \"contracts/zkp/stark-verifier.sol\":3453:3477  r := mload(add(sig, 32)) */\n      swap3\n      pop\n        /* \"contracts/zkp/stark-verifier.sol\":3511:3513  64 */\n      0x40\n        /* \"contracts/zkp/stark-verifier.sol\":3506:3509  sig */\n      dup5\n        /* \"contracts/zkp/stark-verifier.sol\":3502:3514  add(sig, 64) */\n      add\n        /* \"contracts/zkp/stark-verifier.sol\":3496:3515  mload(add(sig, 64)) */\n      mload\n        /* \"contracts/zkp/stark-verifier.sol\":3491:3515  s := mload(add(sig, 64)) */\n      swap2\n      pop\n        /* \"contracts/zkp/stark-verifier.sol\":3557:3559  96 */\n      0x60\n        /* \"contracts/zkp/stark-verifier.sol\":3552:3555  sig */\n      dup5\n        /* \"contracts/zkp/stark-verifier.sol\":3548:3560  add(sig, 96) */\n      add\n        /* \"contracts/zkp/stark-verifier.sol\":3542:3561  mload(add(sig, 96)) */\n      mload\n        /* \"contracts/zkp/stark-verifier.sol\":3539:3540  0 */\n      0x00\n        /* \"contracts/zkp/stark-verifier.sol\":3534:3562  byte(0, mload(add(sig, 96))) */\n      byte\n        /* \"contracts/zkp/stark-verifier.sol\":3529:3562  v := byte(0, mload(add(sig, 96))) */\n      swap1\n      pop\n        /* \"contracts/zkp/stark-verifier.sol\":3258:3580  function splitSignature(bytes memory sig) public pure returns (bytes32 r, bytes32 s, uint8 v) {... */\n      swap2\n      swap4\n      swap1\n      swap3\n      pop\n      jump\t// out\n        /* \"contracts/zkp/stark-verifier.sol\":1149:1186  mapping(address => User) public users */\n    tag_33:\n      mstore(0x20, 0x00)\n      dup1\n      0x00\n      mstore\n      keccak256(0x00, 0x40)\n      0x00\n      swap2\n      pop\n      swap1\n      pop\n      dup1\n      0x00\n      add\n      dup1\n      sload\n      tag_60\n      swap1\n      tag_61\n      jump\t// in\n    tag_60:\n      dup1\n      0x1f\n      add\n      0x20\n      dup1\n      swap2\n      div\n      mul\n      0x20\n      add\n      mload(0x40)\n      swap1\n      dup2\n      add\n      0x40\n      mstore\n      dup1\n      swap3\n      swap2\n      swap1\n      dup2\n      dup2\n      mstore\n      0x20\n      add\n      dup3\n      dup1\n      sload\n      tag_62\n      swap1\n      tag_61\n      jump\t// in\n    tag_62:\n      dup1\n      iszero\n      tag_63\n      jumpi\n      dup1\n      0x1f\n      lt\n      tag_64\n      jumpi\n      0x0100\n      dup1\n      dup4\n      sload\n      div\n      mul\n      dup4\n      mstore\n      swap2\n      0x20\n      add\n      swap2\n      jump(tag_63)\n    tag_64:\n      dup3\n      add\n      swap2\n      swap1\n      0x00\n      mstore\n      keccak256(0x00, 0x20)\n      swap1\n    tag_65:\n      dup2\n      sload\n      dup2\n      mstore\n      swap1\n      0x01\n      add\n      swap1\n      0x20\n      add\n      dup1\n      dup4\n      gt\n      tag_65\n      jumpi\n      dup3\n      swap1\n      sub\n      0x1f\n      and\n      dup3\n      add\n      swap2\n    tag_63:\n      pop\n      pop\n      pop\n      pop\n      pop\n      swap1\n      dup1\n      0x01\n      add\n      dup1\n      sload\n      tag_66\n      swap1\n      tag_61\n      jump\t// in\n    tag_66:\n      dup1\n      0x1f\n      add\n      0x20\n      dup1\n      swap2\n      div\n      mul\n      0x20\n      add\n      mload(0x40)\n      swap1\n      dup2\n      add\n      0x40\n      mstore\n      dup1\n      swap3\n      swap2\n      swap1\n      dup2\n      dup2\n      mstore\n      0x20\n      add\n      dup3\n      dup1\n      sload\n      tag_67\n      swap1\n      tag_61\n      jump\t// in\n    tag_67:\n      dup1\n      iszero\n      tag_68\n      jumpi\n      dup1\n      0x1f\n      lt\n      tag_69\n      jumpi\n      0x0100\n      dup1\n      dup4\n      sload\n      div\n      mul\n      dup4\n      mstore\n      swap2\n      0x20\n      add\n      swap2\n      jump(tag_68)\n    tag_69:\n      dup3\n      add\n      swap2\n      swap1\n      0x00\n      mstore\n      keccak256(0x00, 0x20)\n      swap1\n    tag_70:\n      dup2\n      sload\n      dup2\n      mstore\n      swap1\n      0x01\n      add\n      swap1\n      0x20\n      add\n      dup1\n      dup4\n      gt\n      tag_70\n      jumpi\n      dup3\n      swap1\n      sub\n      0x1f\n      and\n      dup3\n      add\n      swap2\n    tag_68:\n      pop\n      pop\n      pop\n      pop\n      pop\n      swap1\n      dup1\n      0x02\n      add\n      dup1\n      sload\n      tag_71\n      swap1\n      tag_61\n      jump\t// in\n    tag_71:\n      dup1\n      0x1f\n      add\n      0x20\n      dup1\n      swap2\n      div\n      mul\n      0x20\n      add\n      mload(0x40)\n      swap1\n      dup2\n      add\n      0x40\n      mstore\n      dup1\n      swap3\n      swap2\n      swap1\n      dup2\n      dup2\n      mstore\n      0x20\n      add\n      dup3\n      dup1\n      sload\n      tag_72\n      swap1\n      tag_61\n      jump\t// in\n    tag_72:\n      dup1\n      iszero\n      tag_73\n      jumpi\n      dup1\n      0x1f\n      lt\n      tag_74\n      jumpi\n      0x0100\n      dup1\n      dup4\n      sload\n      div\n      mul\n      dup4\n      mstore\n      swap2\n      0x20\n      add\n      swap2\n      jump(tag_73)\n    tag_74:\n      dup3\n      add\n      swap2\n      swap1\n      0x00\n      mstore\n      keccak256(0x00, 0x20)\n      swap1\n    tag_75:\n      dup2\n      sload\n      dup2\n      mstore\n      swap1\n      0x01\n      add\n      swap1\n      0x20\n      add\n      dup1\n      dup4\n      gt\n      tag_75\n      jumpi\n      dup3\n      swap1\n      sub\n      0x1f\n      and\n      dup3\n      add\n      swap2\n    tag_73:\n      pop\n      pop\n      pop\n      pop\n      pop\n      swap1\n      pop\n      dup4\n      jump\t// out\n        /* \"contracts/zkp/stark-verifier.sol\":1193:1235  mapping(address => bool) public isVerified */\n    tag_38:\n      mstore(0x20, 0x01)\n      dup1\n      0x00\n      mstore\n      keccak256(0x00, 0x40)\n      0x00\n      swap2\n      pop\n      sload\n      swap1\n      0x0100\n      exp\n      swap1\n      div\n      0xff\n      and\n      dup2\n      jump\t// out\n        /* \"contracts/zkp/stark-verifier.sol\":3062:3250  function getEthSignedMessageHash(bytes32 _messageHash) public pure returns (bytes32) {... */\n    tag_43:\n        /* \"contracts/zkp/stark-verifier.sol\":3138:3145  bytes32 */\n      0x00\n        /* \"contracts/zkp/stark-verifier.sol\":3228:3240  _messageHash */\n      dup2\n        /* \"contracts/zkp/stark-verifier.sol\":3175:3241  abi.encodePacked(\"\\x19Ethereum Signed Message:\\n32\", _messageHash) */\n      add(0x20, mload(0x40))\n      tag_77\n      swap2\n      swap1\n      tag_78\n      jump\t// in\n    tag_77:\n      mload(0x40)\n      0x20\n      dup2\n      dup4\n      sub\n      sub\n      dup2\n      mstore\n      swap1\n      0x40\n      mstore\n        /* \"contracts/zkp/stark-verifier.sol\":3165:3242  keccak256(abi.encodePacked(\"\\x19Ethereum Signed Message:\\n32\", _messageHash)) */\n      dup1\n      mload\n      swap1\n      0x20\n      add\n      keccak256\n        /* \"contracts/zkp/stark-verifier.sol\":3158:3242  return keccak256(abi.encodePacked(\"\\x19Ethereum Signed Message:\\n32\", _messageHash)) */\n      swap1\n      pop\n        /* \"contracts/zkp/stark-verifier.sol\":3062:3250  function getEthSignedMessageHash(bytes32 _messageHash) public pure returns (bytes32) {... */\n      swap2\n      swap1\n      pop\n      jump\t// out\n        /* \"contracts/zkp/stark-verifier.sol\":654:832  function toEthereumSignedMessageHash(bytes32 hash) internal pure returns (bytes32) {... */\n    tag_50:\n        /* \"contracts/zkp/stark-verifier.sol\":728:735  bytes32 */\n      0x00\n        /* \"contracts/zkp/stark-verifier.sol\":818:822  hash */\n      dup2\n        /* \"contracts/zkp/stark-verifier.sol\":765:823  abi.encodePacked(\"\\x19Ethereum Signed Message:\\n32\", hash) */\n      add(0x20, mload(0x40))\n      tag_80\n      swap2\n      swap1\n      tag_78\n      jump\t// in\n    tag_80:\n      mload(0x40)\n      0x20\n      dup2\n      dup4\n      sub\n      sub\n      dup2\n      mstore\n      swap1\n      0x40\n      mstore\n        /* \"contracts/zkp/stark-verifier.sol\":755:824  keccak256(abi.encodePacked(\"\\x19Ethereum Signed Message:\\n32\", hash)) */\n      dup1\n      mload\n      swap1\n      0x20\n      add\n      keccak256\n        /* \"contracts/zkp/stark-verifier.sol\":748:824  return keccak256(abi.encodePacked(\"\\x19Ethereum Signed Message:\\n32\", hash)) */\n      swap1\n      pop\n        /* \"contracts/zkp/stark-verifier.sol\":654:832  function toEthereumSignedMessageHash(bytes32 hash) internal pure returns (bytes32) {... */\n      swap2\n      swap1\n      pop\n      jump\t// out\n        /* \"contracts/zkp/stark-verifier.sol\":840:1005  function verify(bytes32 hash, bytes memory signature, address publicKey) internal pure returns (bool) {... */\n    tag_52:\n        /* \"contracts/zkp/stark-verifier.sol\":936:940  bool */\n      0x00\n        /* \"contracts/zkp/stark-verifier.sol\":988:997  publicKey */\n      dup2\n        /* \"contracts/zkp/stark-verifier.sol\":960:997  recover(hash, signature) == publicKey */\n      0xffffffffffffffffffffffffffffffffffffffff\n      and\n        /* \"contracts/zkp/stark-verifier.sol\":960:984  recover(hash, signature) */\n      tag_82\n        /* \"contracts/zkp/stark-verifier.sol\":968:972  hash */\n      dup6\n        /* \"contracts/zkp/stark-verifier.sol\":974:983  signature */\n      dup6\n        /* \"contracts/zkp/stark-verifier.sol\":960:967  recover */\n      tag_83\n        /* \"contracts/zkp/stark-verifier.sol\":960:984  recover(hash, signature) */\n      jump\t// in\n    tag_82:\n        /* \"contracts/zkp/stark-verifier.sol\":960:997  recover(hash, signature) == publicKey */\n      0xffffffffffffffffffffffffffffffffffffffff\n      and\n      eq\n        /* \"contracts/zkp/stark-verifier.sol\":953:997  return recover(hash, signature) == publicKey */\n      swap1\n      pop\n        /* \"contracts/zkp/stark-verifier.sol\":840:1005  function verify(bytes32 hash, bytes memory signature, address publicKey) internal pure returns (bool) {... */\n      swap4\n      swap3\n      pop\n      pop\n      pop\n      jump\t// out\n        /* \"contracts/zkp/stark-verifier.sol\":86:646  function recover(bytes32 hash, bytes memory signature) internal pure returns (address) {... */\n    tag_83:\n        /* \"contracts/zkp/stark-verifier.sol\":164:171  address */\n      0x00\n        /* \"contracts/zkp/stark-verifier.sol\":212:214  65 */\n      0x41\n        /* \"contracts/zkp/stark-verifier.sol\":192:201  signature */\n      dup3\n        /* \"contracts/zkp/stark-verifier.sol\":192:208  signature.length */\n      mload\n        /* \"contracts/zkp/stark-verifier.sol\":192:214  signature.length == 65 */\n      eq\n        /* \"contracts/zkp/stark-verifier.sol\":184:243  require(signature.length == 65, \"Invalid signature length\") */\n      tag_85\n      jumpi\n      mload(0x40)\n      0x08c379a000000000000000000000000000000000000000000000000000000000\n      dup2\n      mstore\n      0x04\n      add\n      tag_86\n      swap1\n      tag_59\n      jump\t// in\n    tag_86:\n      mload(0x40)\n      dup1\n      swap2\n      sub\n      swap1\n      revert\n    tag_85:\n        /* \"contracts/zkp/stark-verifier.sol\":256:265  bytes32 r */\n      0x00\n        /* \"contracts/zkp/stark-verifier.sol\":276:285  bytes32 s */\n      dup1\n        /* \"contracts/zkp/stark-verifier.sol\":296:303  uint8 v */\n      0x00\n        /* \"contracts/zkp/stark-verifier.sol\":366:368  32 */\n      0x20\n        /* \"contracts/zkp/stark-verifier.sol\":355:364  signature */\n      dup6\n        /* \"contracts/zkp/stark-verifier.sol\":351:369  add(signature, 32) */\n      add\n        /* \"contracts/zkp/stark-verifier.sol\":345:370  mload(add(signature, 32)) */\n      mload\n        /* \"contracts/zkp/stark-verifier.sol\":340:370  r := mload(add(signature, 32)) */\n      swap3\n      pop\n        /* \"contracts/zkp/stark-verifier.sol\":410:412  64 */\n      0x40\n        /* \"contracts/zkp/stark-verifier.sol\":399:408  signature */\n      dup6\n        /* \"contracts/zkp/stark-verifier.sol\":395:413  add(signature, 64) */\n      add\n        /* \"contracts/zkp/stark-verifier.sol\":389:414  mload(add(signature, 64)) */\n      mload\n        /* \"contracts/zkp/stark-verifier.sol\":384:414  s := mload(add(signature, 64)) */\n      swap2\n      pop\n        /* \"contracts/zkp/stark-verifier.sol\":462:464  96 */\n      0x60\n        /* \"contracts/zkp/stark-verifier.sol\":451:460  signature */\n      dup6\n        /* \"contracts/zkp/stark-verifier.sol\":447:465  add(signature, 96) */\n      add\n        /* \"contracts/zkp/stark-verifier.sol\":441:466  mload(add(signature, 96)) */\n      mload\n        /* \"contracts/zkp/stark-verifier.sol\":438:439  0 */\n      0x00\n        /* \"contracts/zkp/stark-verifier.sol\":433:467  byte(0, mload(add(signature, 96))) */\n      byte\n        /* \"contracts/zkp/stark-verifier.sol\":428:467  v := byte(0, mload(add(signature, 96))) */\n      swap1\n      pop\n        /* \"contracts/zkp/stark-verifier.sol\":498:500  27 */\n      0x1b\n        /* \"contracts/zkp/stark-verifier.sol\":494:495  v */\n      dup2\n        /* \"contracts/zkp/stark-verifier.sol\":494:500  v < 27 */\n      0xff\n      and\n      lt\n        /* \"contracts/zkp/stark-verifier.sol\":490:536  if (v < 27) {... */\n      iszero\n      tag_87\n      jumpi\n        /* \"contracts/zkp/stark-verifier.sol\":522:524  27 */\n      0x1b\n        /* \"contracts/zkp/stark-verifier.sol\":517:524  v += 27 */\n      dup2\n      tag_88\n      swap2\n      swap1\n      tag_89\n      jump\t// in\n    tag_88:\n      swap1\n      pop\n        /* \"contracts/zkp/stark-verifier.sol\":490:536  if (v < 27) {... */\n    tag_87:\n        /* \"contracts/zkp/stark-verifier.sol\":561:563  27 */\n      0x1b\n        /* \"contracts/zkp/stark-verifier.sol\":556:557  v */\n      dup2\n        /* \"contracts/zkp/stark-verifier.sol\":556:563  v == 27 */\n      0xff\n      and\n      eq\n        /* \"contracts/zkp/stark-verifier.sol\":556:574  v == 27 || v == 28 */\n      dup1\n      tag_90\n      jumpi\n      pop\n        /* \"contracts/zkp/stark-verifier.sol\":572:574  28 */\n      0x1c\n        /* \"contracts/zkp/stark-verifier.sol\":567:568  v */\n      dup2\n        /* \"contracts/zkp/stark-verifier.sol\":567:574  v == 28 */\n      0xff\n      and\n      eq\n        /* \"contracts/zkp/stark-verifier.sol\":556:574  v == 27 || v == 28 */\n    tag_90:\n        /* \"contracts/zkp/stark-verifier.sol\":548:594  require(v == 27 || v == 28, \"Invalid v value\") */\n      tag_91\n      jumpi\n      mload(0x40)\n      0x08c379a000000000000000000000000000000000000000000000000000000000\n      dup2\n      mstore\n      0x04\n      add\n      tag_92\n      swap1\n      tag_93\n      jump\t// in\n    tag_92:\n      mload(0x40)\n      dup1\n      swap2\n      sub\n      swap1\n      revert\n    tag_91:\n        /* \"contracts/zkp/stark-verifier.sol\":614:638  ecrecover(hash, v, r, s) */\n      0x01\n        /* \"contracts/zkp/stark-verifier.sol\":624:628  hash */\n      dup7\n        /* \"contracts/zkp/stark-verifier.sol\":630:631  v */\n      dup3\n        /* \"contracts/zkp/stark-verifier.sol\":633:634  r */\n      dup6\n        /* \"contracts/zkp/stark-verifier.sol\":636:637  s */\n      dup6\n        /* \"contracts/zkp/stark-verifier.sol\":614:638  ecrecover(hash, v, r, s) */\n      mload(0x40)\n      0x00\n      dup2\n      mstore\n      0x20\n      add\n      0x40\n      mstore\n      mload(0x40)\n      tag_94\n      swap5\n      swap4\n      swap3\n      swap2\n      swap1\n      tag_95\n      jump\t// in\n    tag_94:\n      0x20\n      mload(0x40)\n      0x20\n      dup2\n      sub\n      swap1\n      dup1\n      dup5\n      sub\n      swap1\n      dup6\n      gas\n      staticcall\n      iszero\n      dup1\n      iszero\n      tag_97\n      jumpi\n      returndatasize\n      0x00\n      dup1\n      returndatacopy\n      revert(0x00, returndatasize)\n    tag_97:\n      pop\n      pop\n      pop\n      mload(sub(mload(0x40), 0x20))\n        /* \"contracts/zkp/stark-verifier.sol\":607:638  return ecrecover(hash, v, r, s) */\n      swap4\n      pop\n      pop\n      pop\n      pop\n        /* \"contracts/zkp/stark-verifier.sol\":86:646  function recover(bytes32 hash, bytes memory signature) internal pure returns (address) {... */\n      swap3\n      swap2\n      pop\n      pop\n      jump\t// out\n        /* \"#utility.yul\":7:84   */\n    tag_98:\n        /* \"#utility.yul\":44:51   */\n      0x00\n        /* \"#utility.yul\":73:78   */\n      dup2\n        /* \"#utility.yul\":62:78   */\n      swap1\n      pop\n        /* \"#utility.yul\":7:84   */\n      swap2\n      swap1\n      pop\n      jump\t// out\n        /* \"#utility.yul\":90:208   */\n    tag_99:\n        /* \"#utility.yul\":177:201   */\n      tag_145\n        /* \"#utility.yul\":195:200   */\n      dup2\n        /* \"#utility.yul\":177:201   */\n      tag_98\n      jump\t// in\n    tag_145:\n        /* \"#utility.yul\":172:175   */\n      dup3\n        /* \"#utility.yul\":165:202   */\n      mstore\n        /* \"#utility.yul\":90:208   */\n      pop\n      pop\n      jump\t// out\n        /* \"#utility.yul\":214:436   */\n    tag_14:\n        /* \"#utility.yul\":307:311   */\n      0x00\n        /* \"#utility.yul\":345:347   */\n      0x20\n        /* \"#utility.yul\":334:343   */\n      dup3\n        /* \"#utility.yul\":330:348   */\n      add\n        /* \"#utility.yul\":322:348   */\n      swap1\n      pop\n        /* \"#utility.yul\":358:429   */\n      tag_147\n        /* \"#utility.yul\":426:427   */\n      0x00\n        /* \"#utility.yul\":415:424   */\n      dup4\n        /* \"#utility.yul\":411:428   */\n      add\n        /* \"#utility.yul\":402:408   */\n      dup5\n        /* \"#utility.yul\":358:429   */\n      tag_99\n      jump\t// in\n    tag_147:\n        /* \"#utility.yul\":214:436   */\n      swap3\n      swap2\n      pop\n      pop\n      jump\t// out\n        /* \"#utility.yul\":442:517   */\n    tag_100:\n        /* \"#utility.yul\":475:481   */\n      0x00\n        /* \"#utility.yul\":508:510   */\n      0x40\n        /* \"#utility.yul\":502:511   */\n      mload\n        /* \"#utility.yul\":492:511   */\n      swap1\n      pop\n        /* \"#utility.yul\":442:517   */\n      swap1\n      jump\t// out\n        /* \"#utility.yul\":523:640   */\n    tag_101:\n        /* \"#utility.yul\":632:633   */\n      0x00\n        /* \"#utility.yul\":629:630   */\n      dup1\n        /* \"#utility.yul\":622:634   */\n      revert\n        /* \"#utility.yul\":646:763   */\n    tag_102:\n        /* \"#utility.yul\":755:756   */\n      0x00\n        /* \"#utility.yul\":752:753   */\n      dup1\n        /* \"#utility.yul\":745:757   */\n      revert\n        /* \"#utility.yul\":769:891   */\n    tag_103:\n        /* \"#utility.yul\":842:866   */\n      tag_152\n        /* \"#utility.yul\":860:865   */\n      dup2\n        /* \"#utility.yul\":842:866   */\n      tag_98\n      jump\t// in\n    tag_152:\n        /* \"#utility.yul\":835:840   */\n      dup2\n        /* \"#utility.yul\":832:867   */\n      eq\n        /* \"#utility.yul\":822:885   */\n      tag_153\n      jumpi\n        /* \"#utility.yul\":881:882   */\n      0x00\n        /* \"#utility.yul\":878:879   */\n      dup1\n        /* \"#utility.yul\":871:883   */\n      revert\n        /* \"#utility.yul\":822:885   */\n    tag_153:\n        /* \"#utility.yul\":769:891   */\n      pop\n      jump\t// out\n        /* \"#utility.yul\":897:1036   */\n    tag_104:\n        /* \"#utility.yul\":943:948   */\n      0x00\n        /* \"#utility.yul\":981:987   */\n      dup2\n        /* \"#utility.yul\":968:988   */\n      calldataload\n        /* \"#utility.yul\":959:988   */\n      swap1\n      pop\n        /* \"#utility.yul\":997:1030   */\n      tag_155\n        /* \"#utility.yul\":1024:1029   */\n      dup2\n        /* \"#utility.yul\":997:1030   */\n      tag_103\n      jump\t// in\n    tag_155:\n        /* \"#utility.yul\":897:1036   */\n      swap3\n      swap2\n      pop\n      pop\n      jump\t// out\n        /* \"#utility.yul\":1042:1159   */\n    tag_105:\n        /* \"#utility.yul\":1151:1152   */\n      0x00\n        /* \"#utility.yul\":1148:1149   */\n      dup1\n        /* \"#utility.yul\":1141:1153   */\n      revert\n        /* \"#utility.yul\":1165:1282   */\n    tag_106:\n        /* \"#utility.yul\":1274:1275   */\n      0x00\n        /* \"#utility.yul\":1271:1272   */\n      dup1\n        /* \"#utility.yul\":1264:1276   */\n      revert\n        /* \"#utility.yul\":1288:1390   */\n    tag_107:\n        /* \"#utility.yul\":1329:1335   */\n      0x00\n        /* \"#utility.yul\":1380:1382   */\n      0x1f\n        /* \"#utility.yul\":1376:1383   */\n      not\n        /* \"#utility.yul\":1371:1373   */\n      0x1f\n        /* \"#utility.yul\":1364:1369   */\n      dup4\n        /* \"#utility.yul\":1360:1374   */\n      add\n        /* \"#utility.yul\":1356:1384   */\n      and\n        /* \"#utility.yul\":1346:1384   */\n      swap1\n      pop\n        /* \"#utility.yul\":1288:1390   */\n      swap2\n      swap1\n      pop\n      jump\t// out\n        /* \"#utility.yul\":1396:1576   */\n    tag_108:\n        /* \"#utility.yul\":1444:1521   */\n      0x4e487b7100000000000000000000000000000000000000000000000000000000\n        /* \"#utility.yul\":1441:1442   */\n      0x00\n        /* \"#utility.yul\":1434:1522   */\n      mstore\n        /* \"#utility.yul\":1541:1545   */\n      0x41\n        /* \"#utility.yul\":1538:1539   */\n      0x04\n        /* \"#utility.yul\":1531:1546   */\n      mstore\n        /* \"#utility.yul\":1565:1569   */\n      0x24\n        /* \"#utility.yul\":1562:1563   */\n      0x00\n        /* \"#utility.yul\":1555:1570   */\n      revert\n        /* \"#utility.yul\":1582:1863   */\n    tag_109:\n        /* \"#utility.yul\":1665:1692   */\n      tag_161\n        /* \"#utility.yul\":1687:1691   */\n      dup3\n        /* \"#utility.yul\":1665:1692   */\n      tag_107\n      jump\t// in\n    tag_161:\n        /* \"#utility.yul\":1657:1663   */\n      dup2\n        /* \"#utility.yul\":1653:1693   */\n      add\n        /* \"#utility.yul\":1795:1801   */\n      dup2\n        /* \"#utility.yul\":1783:1793   */\n      dup2\n        /* \"#utility.yul\":1780:1802   */\n      lt\n        /* \"#utility.yul\":1759:1777   */\n      0xffffffffffffffff\n        /* \"#utility.yul\":1747:1757   */\n      dup3\n        /* \"#utility.yul\":1744:1778   */\n      gt\n        /* \"#utility.yul\":1741:1803   */\n      or\n        /* \"#utility.yul\":1738:1826   */\n      iszero\n      tag_162\n      jumpi\n        /* \"#utility.yul\":1806:1824   */\n      tag_163\n      tag_108\n      jump\t// in\n    tag_163:\n        /* \"#utility.yul\":1738:1826   */\n    tag_162:\n        /* \"#utility.yul\":1846:1856   */\n      dup1\n        /* \"#utility.yul\":1842:1844   */\n      0x40\n        /* \"#utility.yul\":1835:1857   */\n      mstore\n        /* \"#utility.yul\":1625:1863   */\n      pop\n        /* \"#utility.yul\":1582:1863   */\n      pop\n      pop\n      jump\t// out\n        /* \"#utility.yul\":1869:1998   */\n    tag_110:\n        /* \"#utility.yul\":1903:1909   */\n      0x00\n        /* \"#utility.yul\":1930:1950   */\n      tag_165\n      tag_100\n      jump\t// in\n    tag_165:\n        /* \"#utility.yul\":1920:1950   */\n      swap1\n      pop\n        /* \"#utility.yul\":1959:1992   */\n      tag_166\n        /* \"#utility.yul\":1987:1991   */\n      dup3\n        /* \"#utility.yul\":1979:1985   */\n      dup3\n        /* \"#utility.yul\":1959:1992   */\n      tag_109\n      jump\t// in\n    tag_166:\n        /* \"#utility.yul\":1869:1998   */\n      swap2\n      swap1\n      pop\n      jump\t// out\n        /* \"#utility.yul\":2004:2311   */\n    tag_111:\n        /* \"#utility.yul\":2065:2069   */\n      0x00\n        /* \"#utility.yul\":2155:2173   */\n      0xffffffffffffffff\n        /* \"#utility.yul\":2147:2153   */\n      dup3\n        /* \"#utility.yul\":2144:2174   */\n      gt\n        /* \"#utility.yul\":2141:2197   */\n      iszero\n      tag_168\n      jumpi\n        /* \"#utility.yul\":2177:2195   */\n      tag_169\n      tag_108\n      jump\t// in\n    tag_169:\n        /* \"#utility.yul\":2141:2197   */\n    tag_168:\n        /* \"#utility.yul\":2215:2244   */\n      tag_170\n        /* \"#utility.yul\":2237:2243   */\n      dup3\n        /* \"#utility.yul\":2215:2244   */\n      tag_107\n      jump\t// in\n    tag_170:\n        /* \"#utility.yul\":2207:2244   */\n      swap1\n      pop\n        /* \"#utility.yul\":2299:2303   */\n      0x20\n        /* \"#utility.yul\":2293:2297   */\n      dup2\n        /* \"#utility.yul\":2289:2304   */\n      add\n        /* \"#utility.yul\":2281:2304   */\n      swap1\n      pop\n        /* \"#utility.yul\":2004:2311   */\n      swap2\n      swap1\n      pop\n      jump\t// out\n        /* \"#utility.yul\":2317:2465   */\n    tag_112:\n        /* \"#utility.yul\":2415:2421   */\n      dup3\n        /* \"#utility.yul\":2410:2413   */\n      dup2\n        /* \"#utility.yul\":2405:2408   */\n      dup4\n        /* \"#utility.yul\":2392:2422   */\n      calldatacopy\n        /* \"#utility.yul\":2456:2457   */\n      0x00\n        /* \"#utility.yul\":2447:2453   */\n      dup4\n        /* \"#utility.yul\":2442:2445   */\n      dup4\n        /* \"#utility.yul\":2438:2454   */\n      add\n        /* \"#utility.yul\":2431:2458   */\n      mstore\n        /* \"#utility.yul\":2317:2465   */\n      pop\n      pop\n      pop\n      jump\t// out\n        /* \"#utility.yul\":2471:2894   */\n    tag_113:\n        /* \"#utility.yul\":2548:2553   */\n      0x00\n        /* \"#utility.yul\":2573:2638   */\n      tag_173\n        /* \"#utility.yul\":2589:2637   */\n      tag_174\n        /* \"#utility.yul\":2630:2636   */\n      dup5\n        /* \"#utility.yul\":2589:2637   */\n      tag_111\n      jump\t// in\n    tag_174:\n        /* \"#utility.yul\":2573:2638   */\n      tag_110\n      jump\t// in\n    tag_173:\n        /* \"#utility.yul\":2564:2638   */\n      swap1\n      pop\n        /* \"#utility.yul\":2661:2667   */\n      dup3\n        /* \"#utility.yul\":2654:2659   */\n      dup2\n        /* \"#utility.yul\":2647:2668   */\n      mstore\n        /* \"#utility.yul\":2699:2703   */\n      0x20\n        /* \"#utility.yul\":2692:2697   */\n      dup2\n        /* \"#utility.yul\":2688:2704   */\n      add\n        /* \"#utility.yul\":2737:2740   */\n      dup5\n        /* \"#utility.yul\":2728:2734   */\n      dup5\n        /* \"#utility.yul\":2723:2726   */\n      dup5\n        /* \"#utility.yul\":2719:2735   */\n      add\n        /* \"#utility.yul\":2716:2741   */\n      gt\n        /* \"#utility.yul\":2713:2825   */\n      iszero\n      tag_175\n      jumpi\n        /* \"#utility.yul\":2744:2823   */\n      tag_176\n      tag_106\n      jump\t// in\n    tag_176:\n        /* \"#utility.yul\":2713:2825   */\n    tag_175:\n        /* \"#utility.yul\":2834:2888   */\n      tag_177\n        /* \"#utility.yul\":2881:2887   */\n      dup5\n        /* \"#utility.yul\":2876:2879   */\n      dup3\n        /* \"#utility.yul\":2871:2874   */\n      dup6\n        /* \"#utility.yul\":2834:2888   */\n      tag_112\n      jump\t// in\n    tag_177:\n        /* \"#utility.yul\":2554:2894   */\n      pop\n        /* \"#utility.yul\":2471:2894   */\n      swap4\n      swap3\n      pop\n      pop\n      pop\n      jump\t// out\n        /* \"#utility.yul\":2913:3251   */\n    tag_114:\n        /* \"#utility.yul\":2968:2973   */\n      0x00\n        /* \"#utility.yul\":3017:3020   */\n      dup3\n        /* \"#utility.yul\":3010:3014   */\n      0x1f\n        /* \"#utility.yul\":3002:3008   */\n      dup4\n        /* \"#utility.yul\":2998:3015   */\n      add\n        /* \"#utility.yul\":2994:3021   */\n      slt\n        /* \"#utility.yul\":2984:3106   */\n      tag_179\n      jumpi\n        /* \"#utility.yul\":3025:3104   */\n      tag_180\n      tag_105\n      jump\t// in\n    tag_180:\n        /* \"#utility.yul\":2984:3106   */\n    tag_179:\n        /* \"#utility.yul\":3142:3148   */\n      dup2\n        /* \"#utility.yul\":3129:3149   */\n      calldataload\n        /* \"#utility.yul\":3167:3245   */\n      tag_181\n        /* \"#utility.yul\":3241:3244   */\n      dup5\n        /* \"#utility.yul\":3233:3239   */\n      dup3\n        /* \"#utility.yul\":3226:3230   */\n      0x20\n        /* \"#utility.yul\":3218:3224   */\n      dup7\n        /* \"#utility.yul\":3214:3231   */\n      add\n        /* \"#utility.yul\":3167:3245   */\n      tag_113\n      jump\t// in\n    tag_181:\n        /* \"#utility.yul\":3158:3245   */\n      swap2\n      pop\n        /* \"#utility.yul\":2974:3251   */\n      pop\n        /* \"#utility.yul\":2913:3251   */\n      swap3\n      swap2\n      pop\n      pop\n      jump\t// out\n        /* \"#utility.yul\":3257:3383   */\n    tag_115:\n        /* \"#utility.yul\":3294:3301   */\n      0x00\n        /* \"#utility.yul\":3334:3376   */\n      0xffffffffffffffffffffffffffffffffffffffff\n        /* \"#utility.yul\":3327:3332   */\n      dup3\n        /* \"#utility.yul\":3323:3377   */\n      and\n        /* \"#utility.yul\":3312:3377   */\n      swap1\n      pop\n        /* \"#utility.yul\":3257:3383   */\n      swap2\n      swap1\n      pop\n      jump\t// out\n        /* \"#utility.yul\":3389:3485   */\n    tag_116:\n        /* \"#utility.yul\":3426:3433   */\n      0x00\n        /* \"#utility.yul\":3455:3479   */\n      tag_184\n        /* \"#utility.yul\":3473:3478   */\n      dup3\n        /* \"#utility.yul\":3455:3479   */\n      tag_115\n      jump\t// in\n    tag_184:\n        /* \"#utility.yul\":3444:3479   */\n      swap1\n      pop\n        /* \"#utility.yul\":3389:3485   */\n      swap2\n      swap1\n      pop\n      jump\t// out\n        /* \"#utility.yul\":3491:3613   */\n    tag_117:\n        /* \"#utility.yul\":3564:3588   */\n      tag_186\n        /* \"#utility.yul\":3582:3587   */\n      dup2\n        /* \"#utility.yul\":3564:3588   */\n      tag_116\n      jump\t// in\n    tag_186:\n        /* \"#utility.yul\":3557:3562   */\n      dup2\n        /* \"#utility.yul\":3554:3589   */\n      eq\n        /* \"#utility.yul\":3544:3607   */\n      tag_187\n      jumpi\n        /* \"#utility.yul\":3603:3604   */\n      0x00\n        /* \"#utility.yul\":3600:3601   */\n      dup1\n        /* \"#utility.yul\":3593:3605   */\n      revert\n        /* \"#utility.yul\":3544:3607   */\n    tag_187:\n        /* \"#utility.yul\":3491:3613   */\n      pop\n      jump\t// out\n        /* \"#utility.yul\":3619:3758   */\n    tag_118:\n        /* \"#utility.yul\":3665:3670   */\n      0x00\n        /* \"#utility.yul\":3703:3709   */\n      dup2\n        /* \"#utility.yul\":3690:3710   */\n      calldataload\n        /* \"#utility.yul\":3681:3710   */\n      swap1\n      pop\n        /* \"#utility.yul\":3719:3752   */\n      tag_189\n        /* \"#utility.yul\":3746:3751   */\n      dup2\n        /* \"#utility.yul\":3719:3752   */\n      tag_117\n      jump\t// in\n    tag_189:\n        /* \"#utility.yul\":3619:3758   */\n      swap3\n      swap2\n      pop\n      pop\n      jump\t// out\n        /* \"#utility.yul\":3764:4561   */\n    tag_17:\n        /* \"#utility.yul\":3850:3856   */\n      0x00\n        /* \"#utility.yul\":3858:3864   */\n      dup1\n        /* \"#utility.yul\":3866:3872   */\n      0x00\n        /* \"#utility.yul\":3915:3917   */\n      0x60\n        /* \"#utility.yul\":3903:3912   */\n      dup5\n        /* \"#utility.yul\":3894:3901   */\n      dup7\n        /* \"#utility.yul\":3890:3913   */\n      sub\n        /* \"#utility.yul\":3886:3918   */\n      slt\n        /* \"#utility.yul\":3883:4002   */\n      iszero\n      tag_191\n      jumpi\n        /* \"#utility.yul\":3921:4000   */\n      tag_192\n      tag_101\n      jump\t// in\n    tag_192:\n        /* \"#utility.yul\":3883:4002   */\n    tag_191:\n        /* \"#utility.yul\":4041:4042   */\n      0x00\n        /* \"#utility.yul\":4066:4119   */\n      tag_193\n        /* \"#utility.yul\":4111:4118   */\n      dup7\n        /* \"#utility.yul\":4102:4108   */\n      dup3\n        /* \"#utility.yul\":4091:4100   */\n      dup8\n        /* \"#utility.yul\":4087:4109   */\n      add\n        /* \"#utility.yul\":4066:4119   */\n      tag_104\n      jump\t// in\n    tag_193:\n        /* \"#utility.yul\":4056:4119   */\n      swap4\n      pop\n        /* \"#utility.yul\":4012:4129   */\n      pop\n        /* \"#utility.yul\":4196:4198   */\n      0x20\n        /* \"#utility.yul\":4185:4194   */\n      dup5\n        /* \"#utility.yul\":4181:4199   */\n      add\n        /* \"#utility.yul\":4168:4200   */\n      calldataload\n        /* \"#utility.yul\":4227:4245   */\n      0xffffffffffffffff\n        /* \"#utility.yul\":4219:4225   */\n      dup2\n        /* \"#utility.yul\":4216:4246   */\n      gt\n        /* \"#utility.yul\":4213:4330   */\n      iszero\n      tag_194\n      jumpi\n        /* \"#utility.yul\":4249:4328   */\n      tag_195\n      tag_102\n      jump\t// in\n    tag_195:\n        /* \"#utility.yul\":4213:4330   */\n    tag_194:\n        /* \"#utility.yul\":4354:4416   */\n      tag_196\n        /* \"#utility.yul\":4408:4415   */\n      dup7\n        /* \"#utility.yul\":4399:4405   */\n      dup3\n        /* \"#utility.yul\":4388:4397   */\n      dup8\n        /* \"#utility.yul\":4384:4406   */\n      add\n        /* \"#utility.yul\":4354:4416   */\n      tag_114\n      jump\t// in\n    tag_196:\n        /* \"#utility.yul\":4344:4416   */\n      swap3\n      pop\n        /* \"#utility.yul\":4139:4426   */\n      pop\n        /* \"#utility.yul\":4465:4467   */\n      0x40\n        /* \"#utility.yul\":4491:4544   */\n      tag_197\n        /* \"#utility.yul\":4536:4543   */\n      dup7\n        /* \"#utility.yul\":4527:4533   */\n      dup3\n        /* \"#utility.yul\":4516:4525   */\n      dup8\n        /* \"#utility.yul\":4512:4534   */\n      add\n        /* \"#utility.yul\":4491:4544   */\n      tag_118\n      jump\t// in\n    tag_197:\n        /* \"#utility.yul\":4481:4544   */\n      swap2\n      pop\n        /* \"#utility.yul\":4436:4554   */\n      pop\n        /* \"#utility.yul\":3764:4561   */\n      swap3\n      pop\n      swap3\n      pop\n      swap3\n      jump\t// out\n        /* \"#utility.yul\":4567:4657   */\n    tag_119:\n        /* \"#utility.yul\":4601:4608   */\n      0x00\n        /* \"#utility.yul\":4644:4649   */\n      dup2\n        /* \"#utility.yul\":4637:4650   */\n      iszero\n        /* \"#utility.yul\":4630:4651   */\n      iszero\n        /* \"#utility.yul\":4619:4651   */\n      swap1\n      pop\n        /* \"#utility.yul\":4567:4657   */\n      swap2\n      swap1\n      pop\n      jump\t// out\n        /* \"#utility.yul\":4663:4772   */\n    tag_120:\n        /* \"#utility.yul\":4744:4765   */\n      tag_200\n        /* \"#utility.yul\":4759:4764   */\n      dup2\n        /* \"#utility.yul\":4744:4765   */\n      tag_119\n      jump\t// in\n    tag_200:\n        /* \"#utility.yul\":4739:4742   */\n      dup3\n        /* \"#utility.yul\":4732:4766   */\n      mstore\n        /* \"#utility.yul\":4663:4772   */\n      pop\n      pop\n      jump\t// out\n        /* \"#utility.yul\":4778:4988   */\n    tag_20:\n        /* \"#utility.yul\":4865:4869   */\n      0x00\n        /* \"#utility.yul\":4903:4905   */\n      0x20\n        /* \"#utility.yul\":4892:4901   */\n      dup3\n        /* \"#utility.yul\":4888:4906   */\n      add\n        /* \"#utility.yul\":4880:4906   */\n      swap1\n      pop\n        /* \"#utility.yul\":4916:4981   */\n      tag_202\n        /* \"#utility.yul\":4978:4979   */\n      0x00\n        /* \"#utility.yul\":4967:4976   */\n      dup4\n        /* \"#utility.yul\":4963:4980   */\n      add\n        /* \"#utility.yul\":4954:4960   */\n      dup5\n        /* \"#utility.yul\":4916:4981   */\n      tag_120\n      jump\t// in\n    tag_202:\n        /* \"#utility.yul\":4778:4988   */\n      swap3\n      swap2\n      pop\n      pop\n      jump\t// out\n        /* \"#utility.yul\":4994:5501   */\n    tag_26:\n        /* \"#utility.yul\":5062:5068   */\n      0x00\n        /* \"#utility.yul\":5111:5113   */\n      0x20\n        /* \"#utility.yul\":5099:5108   */\n      dup3\n        /* \"#utility.yul\":5090:5097   */\n      dup5\n        /* \"#utility.yul\":5086:5109   */\n      sub\n        /* \"#utility.yul\":5082:5114   */\n      slt\n        /* \"#utility.yul\":5079:5198   */\n      iszero\n      tag_204\n      jumpi\n        /* \"#utility.yul\":5117:5196   */\n      tag_205\n      tag_101\n      jump\t// in\n    tag_205:\n        /* \"#utility.yul\":5079:5198   */\n    tag_204:\n        /* \"#utility.yul\":5265:5266   */\n      0x00\n        /* \"#utility.yul\":5254:5263   */\n      dup3\n        /* \"#utility.yul\":5250:5267   */\n      add\n        /* \"#utility.yul\":5237:5268   */\n      calldataload\n        /* \"#utility.yul\":5295:5313   */\n      0xffffffffffffffff\n        /* \"#utility.yul\":5287:5293   */\n      dup2\n        /* \"#utility.yul\":5284:5314   */\n      gt\n        /* \"#utility.yul\":5281:5398   */\n      iszero\n      tag_206\n      jumpi\n        /* \"#utility.yul\":5317:5396   */\n      tag_207\n      tag_102\n      jump\t// in\n    tag_207:\n        /* \"#utility.yul\":5281:5398   */\n    tag_206:\n        /* \"#utility.yul\":5422:5484   */\n      tag_208\n        /* \"#utility.yul\":5476:5483   */\n      dup5\n        /* \"#utility.yul\":5467:5473   */\n      dup3\n        /* \"#utility.yul\":5456:5465   */\n      dup6\n        /* \"#utility.yul\":5452:5474   */\n      add\n        /* \"#utility.yul\":5422:5484   */\n      tag_114\n      jump\t// in\n    tag_208:\n        /* \"#utility.yul\":5412:5484   */\n      swap2\n      pop\n        /* \"#utility.yul\":5208:5494   */\n      pop\n        /* \"#utility.yul\":4994:5501   */\n      swap3\n      swap2\n      pop\n      pop\n      jump\t// out\n        /* \"#utility.yul\":5507:5593   */\n    tag_121:\n        /* \"#utility.yul\":5542:5549   */\n      0x00\n        /* \"#utility.yul\":5582:5586   */\n      0xff\n        /* \"#utility.yul\":5575:5580   */\n      dup3\n        /* \"#utility.yul\":5571:5587   */\n      and\n        /* \"#utility.yul\":5560:5587   */\n      swap1\n      pop\n        /* \"#utility.yul\":5507:5593   */\n      swap2\n      swap1\n      pop\n      jump\t// out\n        /* \"#utility.yul\":5599:5711   */\n    tag_122:\n        /* \"#utility.yul\":5682:5704   */\n      tag_211\n        /* \"#utility.yul\":5698:5703   */\n      dup2\n        /* \"#utility.yul\":5682:5704   */\n      tag_121\n      jump\t// in\n    tag_211:\n        /* \"#utility.yul\":5677:5680   */\n      dup3\n        /* \"#utility.yul\":5670:5705   */\n      mstore\n        /* \"#utility.yul\":5599:5711   */\n      pop\n      pop\n      jump\t// out\n        /* \"#utility.yul\":5717:6151   */\n    tag_29:\n        /* \"#utility.yul\":5862:5866   */\n      0x00\n        /* \"#utility.yul\":5900:5902   */\n      0x60\n        /* \"#utility.yul\":5889:5898   */\n      dup3\n        /* \"#utility.yul\":5885:5903   */\n      add\n        /* \"#utility.yul\":5877:5903   */\n      swap1\n      pop\n        /* \"#utility.yul\":5913:5984   */\n      tag_213\n        /* \"#utility.yul\":5981:5982   */\n      0x00\n        /* \"#utility.yul\":5970:5979   */\n      dup4\n        /* \"#utility.yul\":5966:5983   */\n      add\n        /* \"#utility.yul\":5957:5963   */\n      dup7\n        /* \"#utility.yul\":5913:5984   */\n      tag_99\n      jump\t// in\n    tag_213:\n        /* \"#utility.yul\":5994:6066   */\n      tag_214\n        /* \"#utility.yul\":6062:6064   */\n      0x20\n        /* \"#utility.yul\":6051:6060   */\n      dup4\n        /* \"#utility.yul\":6047:6065   */\n      add\n        /* \"#utility.yul\":6038:6044   */\n      dup6\n        /* \"#utility.yul\":5994:6066   */\n      tag_99\n      jump\t// in\n    tag_214:\n        /* \"#utility.yul\":6076:6144   */\n      tag_215\n        /* \"#utility.yul\":6140:6142   */\n      0x40\n        /* \"#utility.yul\":6129:6138   */\n      dup4\n        /* \"#utility.yul\":6125:6143   */\n      add\n        /* \"#utility.yul\":6116:6122   */\n      dup5\n        /* \"#utility.yul\":6076:6144   */\n      tag_122\n      jump\t// in\n    tag_215:\n        /* \"#utility.yul\":5717:6151   */\n      swap5\n      swap4\n      pop\n      pop\n      pop\n      pop\n      jump\t// out\n        /* \"#utility.yul\":6157:6486   */\n    tag_32:\n        /* \"#utility.yul\":6216:6222   */\n      0x00\n        /* \"#utility.yul\":6265:6267   */\n      0x20\n        /* \"#utility.yul\":6253:6262   */\n      dup3\n        /* \"#utility.yul\":6244:6251   */\n      dup5\n        /* \"#utility.yul\":6240:6263   */\n      sub\n        /* \"#utility.yul\":6236:6268   */\n      slt\n        /* \"#utility.yul\":6233:6352   */\n      iszero\n      tag_217\n      jumpi\n        /* \"#utility.yul\":6271:6350   */\n      tag_218\n      tag_101\n      jump\t// in\n    tag_218:\n        /* \"#utility.yul\":6233:6352   */\n    tag_217:\n        /* \"#utility.yul\":6391:6392   */\n      0x00\n        /* \"#utility.yul\":6416:6469   */\n      tag_219\n        /* \"#utility.yul\":6461:6468   */\n      dup5\n        /* \"#utility.yul\":6452:6458   */\n      dup3\n        /* \"#utility.yul\":6441:6450   */\n      dup6\n        /* \"#utility.yul\":6437:6459   */\n      add\n        /* \"#utility.yul\":6416:6469   */\n      tag_118\n      jump\t// in\n    tag_219:\n        /* \"#utility.yul\":6406:6469   */\n      swap2\n      pop\n        /* \"#utility.yul\":6362:6479   */\n      pop\n        /* \"#utility.yul\":6157:6486   */\n      swap3\n      swap2\n      pop\n      pop\n      jump\t// out\n        /* \"#utility.yul\":6492:6591   */\n    tag_123:\n        /* \"#utility.yul\":6544:6550   */\n      0x00\n        /* \"#utility.yul\":6578:6583   */\n      dup2\n        /* \"#utility.yul\":6572:6584   */\n      mload\n        /* \"#utility.yul\":6562:6584   */\n      swap1\n      pop\n        /* \"#utility.yul\":6492:6591   */\n      swap2\n      swap1\n      pop\n      jump\t// out\n        /* \"#utility.yul\":6597:6766   */\n    tag_124:\n        /* \"#utility.yul\":6681:6692   */\n      0x00\n        /* \"#utility.yul\":6715:6721   */\n      dup3\n        /* \"#utility.yul\":6710:6713   */\n      dup3\n        /* \"#utility.yul\":6703:6722   */\n      mstore\n        /* \"#utility.yul\":6755:6759   */\n      0x20\n        /* \"#utility.yul\":6750:6753   */\n      dup3\n        /* \"#utility.yul\":6746:6760   */\n      add\n        /* \"#utility.yul\":6731:6760   */\n      swap1\n      pop\n        /* \"#utility.yul\":6597:6766   */\n      swap3\n      swap2\n      pop\n      pop\n      jump\t// out\n        /* \"#utility.yul\":6772:6911   */\n    tag_125:\n        /* \"#utility.yul\":6861:6867   */\n      dup3\n        /* \"#utility.yul\":6856:6859   */\n      dup2\n        /* \"#utility.yul\":6851:6854   */\n      dup4\n        /* \"#utility.yul\":6845:6868   */\n      mcopy\n        /* \"#utility.yul\":6902:6903   */\n      0x00\n        /* \"#utility.yul\":6893:6899   */\n      dup4\n        /* \"#utility.yul\":6888:6891   */\n      dup4\n        /* \"#utility.yul\":6884:6900   */\n      add\n        /* \"#utility.yul\":6877:6904   */\n      mstore\n        /* \"#utility.yul\":6772:6911   */\n      pop\n      pop\n      pop\n      jump\t// out\n        /* \"#utility.yul\":6917:7294   */\n    tag_126:\n        /* \"#utility.yul\":7005:7008   */\n      0x00\n        /* \"#utility.yul\":7033:7072   */\n      tag_224\n        /* \"#utility.yul\":7066:7071   */\n      dup3\n        /* \"#utility.yul\":7033:7072   */\n      tag_123\n      jump\t// in\n    tag_224:\n        /* \"#utility.yul\":7088:7159   */\n      tag_225\n        /* \"#utility.yul\":7152:7158   */\n      dup2\n        /* \"#utility.yul\":7147:7150   */\n      dup6\n        /* \"#utility.yul\":7088:7159   */\n      tag_124\n      jump\t// in\n    tag_225:\n        /* \"#utility.yul\":7081:7159   */\n      swap4\n      pop\n        /* \"#utility.yul\":7168:7233   */\n      tag_226\n        /* \"#utility.yul\":7226:7232   */\n      dup2\n        /* \"#utility.yul\":7221:7224   */\n      dup6\n        /* \"#utility.yul\":7214:7218   */\n      0x20\n        /* \"#utility.yul\":7207:7212   */\n      dup7\n        /* \"#utility.yul\":7203:7219   */\n      add\n        /* \"#utility.yul\":7168:7233   */\n      tag_125\n      jump\t// in\n    tag_226:\n        /* \"#utility.yul\":7258:7287   */\n      tag_227\n        /* \"#utility.yul\":7280:7286   */\n      dup2\n        /* \"#utility.yul\":7258:7287   */\n      tag_107\n      jump\t// in\n    tag_227:\n        /* \"#utility.yul\":7253:7256   */\n      dup5\n        /* \"#utility.yul\":7249:7288   */\n      add\n        /* \"#utility.yul\":7242:7288   */\n      swap2\n      pop\n        /* \"#utility.yul\":7009:7294   */\n      pop\n        /* \"#utility.yul\":6917:7294   */\n      swap3\n      swap2\n      pop\n      pop\n      jump\t// out\n        /* \"#utility.yul\":7300:8015   */\n    tag_35:\n        /* \"#utility.yul\":7509:7513   */\n      0x00\n        /* \"#utility.yul\":7547:7549   */\n      0x60\n        /* \"#utility.yul\":7536:7545   */\n      dup3\n        /* \"#utility.yul\":7532:7550   */\n      add\n        /* \"#utility.yul\":7524:7550   */\n      swap1\n      pop\n        /* \"#utility.yul\":7596:7605   */\n      dup2\n        /* \"#utility.yul\":7590:7594   */\n      dup2\n        /* \"#utility.yul\":7586:7606   */\n      sub\n        /* \"#utility.yul\":7582:7583   */\n      0x00\n        /* \"#utility.yul\":7571:7580   */\n      dup4\n        /* \"#utility.yul\":7567:7584   */\n      add\n        /* \"#utility.yul\":7560:7607   */\n      mstore\n        /* \"#utility.yul\":7624:7702   */\n      tag_229\n        /* \"#utility.yul\":7697:7701   */\n      dup2\n        /* \"#utility.yul\":7688:7694   */\n      dup7\n        /* \"#utility.yul\":7624:7702   */\n      tag_126\n      jump\t// in\n    tag_229:\n        /* \"#utility.yul\":7616:7702   */\n      swap1\n      pop\n        /* \"#utility.yul\":7749:7758   */\n      dup2\n        /* \"#utility.yul\":7743:7747   */\n      dup2\n        /* \"#utility.yul\":7739:7759   */\n      sub\n        /* \"#utility.yul\":7734:7736   */\n      0x20\n        /* \"#utility.yul\":7723:7732   */\n      dup4\n        /* \"#utility.yul\":7719:7737   */\n      add\n        /* \"#utility.yul\":7712:7760   */\n      mstore\n        /* \"#utility.yul\":7777:7855   */\n      tag_230\n        /* \"#utility.yul\":7850:7854   */\n      dup2\n        /* \"#utility.yul\":7841:7847   */\n      dup6\n        /* \"#utility.yul\":7777:7855   */\n      tag_126\n      jump\t// in\n    tag_230:\n        /* \"#utility.yul\":7769:7855   */\n      swap1\n      pop\n        /* \"#utility.yul\":7902:7911   */\n      dup2\n        /* \"#utility.yul\":7896:7900   */\n      dup2\n        /* \"#utility.yul\":7892:7912   */\n      sub\n        /* \"#utility.yul\":7887:7889   */\n      0x40\n        /* \"#utility.yul\":7876:7885   */\n      dup4\n        /* \"#utility.yul\":7872:7890   */\n      add\n        /* \"#utility.yul\":7865:7913   */\n      mstore\n        /* \"#utility.yul\":7930:8008   */\n      tag_231\n        /* \"#utility.yul\":8003:8007   */\n      dup2\n        /* \"#utility.yul\":7994:8000   */\n      dup5\n        /* \"#utility.yul\":7930:8008   */\n      tag_126\n      jump\t// in\n    tag_231:\n        /* \"#utility.yul\":7922:8008   */\n      swap1\n      pop\n        /* \"#utility.yul\":7300:8015   */\n      swap5\n      swap4\n      pop\n      pop\n      pop\n      pop\n      jump\t// out\n        /* \"#utility.yul\":8021:8350   */\n    tag_42:\n        /* \"#utility.yul\":8080:8086   */\n      0x00\n        /* \"#utility.yul\":8129:8131   */\n      0x20\n        /* \"#utility.yul\":8117:8126   */\n      dup3\n        /* \"#utility.yul\":8108:8115   */\n      dup5\n        /* \"#utility.yul\":8104:8127   */\n      sub\n        /* \"#utility.yul\":8100:8132   */\n      slt\n        /* \"#utility.yul\":8097:8216   */\n      iszero\n      tag_233\n      jumpi\n        /* \"#utility.yul\":8135:8214   */\n      tag_234\n      tag_101\n      jump\t// in\n    tag_234:\n        /* \"#utility.yul\":8097:8216   */\n    tag_233:\n        /* \"#utility.yul\":8255:8256   */\n      0x00\n        /* \"#utility.yul\":8280:8333   */\n      tag_235\n        /* \"#utility.yul\":8325:8332   */\n      dup5\n        /* \"#utility.yul\":8316:8322   */\n      dup3\n        /* \"#utility.yul\":8305:8314   */\n      dup6\n        /* \"#utility.yul\":8301:8323   */\n      add\n        /* \"#utility.yul\":8280:8333   */\n      tag_104\n      jump\t// in\n    tag_235:\n        /* \"#utility.yul\":8270:8333   */\n      swap2\n      pop\n        /* \"#utility.yul\":8226:8343   */\n      pop\n        /* \"#utility.yul\":8021:8350   */\n      swap3\n      swap2\n      pop\n      pop\n      jump\t// out\n        /* \"#utility.yul\":8356:8531   */\n    tag_127:\n        /* \"#utility.yul\":8496:8523   */\n      0x50726f6f66206861736820646f6573206e6f74206d6174636800000000000000\n        /* \"#utility.yul\":8492:8493   */\n      0x00\n        /* \"#utility.yul\":8484:8490   */\n      dup3\n        /* \"#utility.yul\":8480:8494   */\n      add\n        /* \"#utility.yul\":8473:8524   */\n      mstore\n        /* \"#utility.yul\":8356:8531   */\n      pop\n      jump\t// out\n        /* \"#utility.yul\":8537:8903   */\n    tag_128:\n        /* \"#utility.yul\":8679:8682   */\n      0x00\n        /* \"#utility.yul\":8700:8767   */\n      tag_238\n        /* \"#utility.yul\":8764:8766   */\n      0x19\n        /* \"#utility.yul\":8759:8762   */\n      dup4\n        /* \"#utility.yul\":8700:8767   */\n      tag_124\n      jump\t// in\n    tag_238:\n        /* \"#utility.yul\":8693:8767   */\n      swap2\n      pop\n        /* \"#utility.yul\":8776:8869   */\n      tag_239\n        /* \"#utility.yul\":8865:8868   */\n      dup3\n        /* \"#utility.yul\":8776:8869   */\n      tag_127\n      jump\t// in\n    tag_239:\n        /* \"#utility.yul\":8894:8896   */\n      0x20\n        /* \"#utility.yul\":8889:8892   */\n      dup3\n        /* \"#utility.yul\":8885:8897   */\n      add\n        /* \"#utility.yul\":8878:8897   */\n      swap1\n      pop\n        /* \"#utility.yul\":8537:8903   */\n      swap2\n      swap1\n      pop\n      jump\t// out\n        /* \"#utility.yul\":8909:9328   */\n    tag_48:\n        /* \"#utility.yul\":9075:9079   */\n      0x00\n        /* \"#utility.yul\":9113:9115   */\n      0x20\n        /* \"#utility.yul\":9102:9111   */\n      dup3\n        /* \"#utility.yul\":9098:9116   */\n      add\n        /* \"#utility.yul\":9090:9116   */\n      swap1\n      pop\n        /* \"#utility.yul\":9162:9171   */\n      dup2\n        /* \"#utility.yul\":9156:9160   */\n      dup2\n        /* \"#utility.yul\":9152:9172   */\n      sub\n        /* \"#utility.yul\":9148:9149   */\n      0x00\n        /* \"#utility.yul\":9137:9146   */\n      dup4\n        /* \"#utility.yul\":9133:9150   */\n      add\n        /* \"#utility.yul\":9126:9173   */\n      mstore\n        /* \"#utility.yul\":9190:9321   */\n      tag_241\n        /* \"#utility.yul\":9316:9320   */\n      dup2\n        /* \"#utility.yul\":9190:9321   */\n      tag_128\n      jump\t// in\n    tag_241:\n        /* \"#utility.yul\":9182:9321   */\n      swap1\n      pop\n        /* \"#utility.yul\":8909:9328   */\n      swap2\n      swap1\n      pop\n      jump\t// out\n        /* \"#utility.yul\":9334:9501   */\n    tag_129:\n        /* \"#utility.yul\":9474:9493   */\n      0x496e76616c6964207369676e6174757265000000000000000000000000000000\n        /* \"#utility.yul\":9470:9471   */\n      0x00\n        /* \"#utility.yul\":9462:9468   */\n      dup3\n        /* \"#utility.yul\":9458:9472   */\n      add\n        /* \"#utility.yul\":9451:9494   */\n      mstore\n        /* \"#utility.yul\":9334:9501   */\n      pop\n      jump\t// out\n        /* \"#utility.yul\":9507:9873   */\n    tag_130:\n        /* \"#utility.yul\":9649:9652   */\n      0x00\n        /* \"#utility.yul\":9670:9737   */\n      tag_244\n        /* \"#utility.yul\":9734:9736   */\n      0x11\n        /* \"#utility.yul\":9729:9732   */\n      dup4\n        /* \"#utility.yul\":9670:9737   */\n      tag_124\n      jump\t// in\n    tag_244:\n        /* \"#utility.yul\":9663:9737   */\n      swap2\n      pop\n        /* \"#utility.yul\":9746:9839   */\n      tag_245\n        /* \"#utility.yul\":9835:9838   */\n      dup3\n        /* \"#utility.yul\":9746:9839   */\n      tag_129\n      jump\t// in\n    tag_245:\n        /* \"#utility.yul\":9864:9866   */\n      0x20\n        /* \"#utility.yul\":9859:9862   */\n      dup3\n        /* \"#utility.yul\":9855:9867   */\n      add\n        /* \"#utility.yul\":9848:9867   */\n      swap1\n      pop\n        /* \"#utility.yul\":9507:9873   */\n      swap2\n      swap1\n      pop\n      jump\t// out\n        /* \"#utility.yul\":9879:10298   */\n    tag_55:\n        /* \"#utility.yul\":10045:10049   */\n      0x00\n        /* \"#utility.yul\":10083:10085   */\n      0x20\n        /* \"#utility.yul\":10072:10081   */\n      dup3\n        /* \"#utility.yul\":10068:10086   */\n      add\n        /* \"#utility.yul\":10060:10086   */\n      swap1\n      pop\n        /* \"#utility.yul\":10132:10141   */\n      dup2\n        /* \"#utility.yul\":10126:10130   */\n      dup2\n        /* \"#utility.yul\":10122:10142   */\n      sub\n        /* \"#utility.yul\":10118:10119   */\n      0x00\n        /* \"#utility.yul\":10107:10116   */\n      dup4\n        /* \"#utility.yul\":10103:10120   */\n      add\n        /* \"#utility.yul\":10096:10143   */\n      mstore\n        /* \"#utility.yul\":10160:10291   */\n      tag_247\n        /* \"#utility.yul\":10286:10290   */\n      dup2\n        /* \"#utility.yul\":10160:10291   */\n      tag_130\n      jump\t// in\n    tag_247:\n        /* \"#utility.yul\":10152:10291   */\n      swap1\n      pop\n        /* \"#utility.yul\":9879:10298   */\n      swap2\n      swap1\n      pop\n      jump\t// out\n        /* \"#utility.yul\":10304:10478   */\n    tag_131:\n        /* \"#utility.yul\":10444:10470   */\n      0x496e76616c6964207369676e6174757265206c656e6774680000000000000000\n        /* \"#utility.yul\":10440:10441   */\n      0x00\n        /* \"#utility.yul\":10432:10438   */\n      dup3\n        /* \"#utility.yul\":10428:10442   */\n      add\n        /* \"#utility.yul\":10421:10471   */\n      mstore\n        /* \"#utility.yul\":10304:10478   */\n      pop\n      jump\t// out\n        /* \"#utility.yul\":10484:10850   */\n    tag_132:\n        /* \"#utility.yul\":10626:10629   */\n      0x00\n        /* \"#utility.yul\":10647:10714   */\n      tag_250\n        /* \"#utility.yul\":10711:10713   */\n      0x18\n        /* \"#utility.yul\":10706:10709   */\n      dup4\n        /* \"#utility.yul\":10647:10714   */\n      tag_124\n      jump\t// in\n    tag_250:\n        /* \"#utility.yul\":10640:10714   */\n      swap2\n      pop\n        /* \"#utility.yul\":10723:10816   */\n      tag_251\n        /* \"#utility.yul\":10812:10815   */\n      dup3\n        /* \"#utility.yul\":10723:10816   */\n      tag_131\n      jump\t// in\n    tag_251:\n        /* \"#utility.yul\":10841:10843   */\n      0x20\n        /* \"#utility.yul\":10836:10839   */\n      dup3\n        /* \"#utility.yul\":10832:10844   */\n      add\n        /* \"#utility.yul\":10825:10844   */\n      swap1\n      pop\n        /* \"#utility.yul\":10484:10850   */\n      swap2\n      swap1\n      pop\n      jump\t// out\n        /* \"#utility.yul\":10856:11275   */\n    tag_59:\n        /* \"#utility.yul\":11022:11026   */\n      0x00\n        /* \"#utility.yul\":11060:11062   */\n      0x20\n        /* \"#utility.yul\":11049:11058   */\n      dup3\n        /* \"#utility.yul\":11045:11063   */\n      add\n        /* \"#utility.yul\":11037:11063   */\n      swap1\n      pop\n        /* \"#utility.yul\":11109:11118   */\n      dup2\n        /* \"#utility.yul\":11103:11107   */\n      dup2\n        /* \"#utility.yul\":11099:11119   */\n      sub\n        /* \"#utility.yul\":11095:11096   */\n      0x00\n        /* \"#utility.yul\":11084:11093   */\n      dup4\n        /* \"#utility.yul\":11080:11097   */\n      add\n        /* \"#utility.yul\":11073:11120   */\n      mstore\n        /* \"#utility.yul\":11137:11268   */\n      tag_253\n        /* \"#utility.yul\":11263:11267   */\n      dup2\n        /* \"#utility.yul\":11137:11268   */\n      tag_132\n      jump\t// in\n    tag_253:\n        /* \"#utility.yul\":11129:11268   */\n      swap1\n      pop\n        /* \"#utility.yul\":10856:11275   */\n      swap2\n      swap1\n      pop\n      jump\t// out\n        /* \"#utility.yul\":11281:11461   */\n    tag_133:\n        /* \"#utility.yul\":11329:11406   */\n      0x4e487b7100000000000000000000000000000000000000000000000000000000\n        /* \"#utility.yul\":11326:11327   */\n      0x00\n        /* \"#utility.yul\":11319:11407   */\n      mstore\n        /* \"#utility.yul\":11426:11430   */\n      0x22\n        /* \"#utility.yul\":11423:11424   */\n      0x04\n        /* \"#utility.yul\":11416:11431   */\n      mstore\n        /* \"#utility.yul\":11450:11454   */\n      0x24\n        /* \"#utility.yul\":11447:11448   */\n      0x00\n        /* \"#utility.yul\":11440:11455   */\n      revert\n        /* \"#utility.yul\":11467:11787   */\n    tag_61:\n        /* \"#utility.yul\":11511:11517   */\n      0x00\n        /* \"#utility.yul\":11548:11549   */\n      0x02\n        /* \"#utility.yul\":11542:11546   */\n      dup3\n        /* \"#utility.yul\":11538:11550   */\n      div\n        /* \"#utility.yul\":11528:11550   */\n      swap1\n      pop\n        /* \"#utility.yul\":11595:11596   */\n      0x01\n        /* \"#utility.yul\":11589:11593   */\n      dup3\n        /* \"#utility.yul\":11585:11597   */\n      and\n        /* \"#utility.yul\":11616:11634   */\n      dup1\n        /* \"#utility.yul\":11606:11687   */\n      tag_256\n      jumpi\n        /* \"#utility.yul\":11672:11676   */\n      0x7f\n        /* \"#utility.yul\":11664:11670   */\n      dup3\n        /* \"#utility.yul\":11660:11677   */\n      and\n        /* \"#utility.yul\":11650:11677   */\n      swap2\n      pop\n        /* \"#utility.yul\":11606:11687   */\n    tag_256:\n        /* \"#utility.yul\":11734:11736   */\n      0x20\n        /* \"#utility.yul\":11726:11732   */\n      dup3\n        /* \"#utility.yul\":11723:11737   */\n      lt\n        /* \"#utility.yul\":11703:11721   */\n      dup2\n        /* \"#utility.yul\":11700:11738   */\n      sub\n        /* \"#utility.yul\":11697:11781   */\n      tag_257\n      jumpi\n        /* \"#utility.yul\":11753:11771   */\n      tag_258\n      tag_133\n      jump\t// in\n    tag_258:\n        /* \"#utility.yul\":11697:11781   */\n    tag_257:\n        /* \"#utility.yul\":11518:11787   */\n      pop\n        /* \"#utility.yul\":11467:11787   */\n      swap2\n      swap1\n      pop\n      jump\t// out\n        /* \"#utility.yul\":11793:11941   */\n    tag_134:\n        /* \"#utility.yul\":11895:11906   */\n      0x00\n        /* \"#utility.yul\":11932:11935   */\n      dup2\n        /* \"#utility.yul\":11917:11935   */\n      swap1\n      pop\n        /* \"#utility.yul\":11793:11941   */\n      swap3\n      swap2\n      pop\n      pop\n      jump\t// out\n        /* \"#utility.yul\":11947:12161   */\n    tag_135:\n        /* \"#utility.yul\":12087:12153   */\n      0x19457468657265756d205369676e6564204d6573736167653a0a333200000000\n        /* \"#utility.yul\":12083:12084   */\n      0x00\n        /* \"#utility.yul\":12075:12081   */\n      dup3\n        /* \"#utility.yul\":12071:12085   */\n      add\n        /* \"#utility.yul\":12064:12154   */\n      mstore\n        /* \"#utility.yul\":11947:12161   */\n      pop\n      jump\t// out\n        /* \"#utility.yul\":12167:12569   */\n    tag_136:\n        /* \"#utility.yul\":12327:12330   */\n      0x00\n        /* \"#utility.yul\":12348:12433   */\n      tag_262\n        /* \"#utility.yul\":12430:12432   */\n      0x1c\n        /* \"#utility.yul\":12425:12428   */\n      dup4\n        /* \"#utility.yul\":12348:12433   */\n      tag_134\n      jump\t// in\n    tag_262:\n        /* \"#utility.yul\":12341:12433   */\n      swap2\n      pop\n        /* \"#utility.yul\":12442:12535   */\n      tag_263\n        /* \"#utility.yul\":12531:12534   */\n      dup3\n        /* \"#utility.yul\":12442:12535   */\n      tag_135\n      jump\t// in\n    tag_263:\n        /* \"#utility.yul\":12560:12562   */\n      0x1c\n        /* \"#utility.yul\":12555:12558   */\n      dup3\n        /* \"#utility.yul\":12551:12563   */\n      add\n        /* \"#utility.yul\":12544:12563   */\n      swap1\n      pop\n        /* \"#utility.yul\":12167:12569   */\n      swap2\n      swap1\n      pop\n      jump\t// out\n        /* \"#utility.yul\":12575:12654   */\n    tag_137:\n        /* \"#utility.yul\":12614:12621   */\n      0x00\n        /* \"#utility.yul\":12643:12648   */\n      dup2\n        /* \"#utility.yul\":12632:12648   */\n      swap1\n      pop\n        /* \"#utility.yul\":12575:12654   */\n      swap2\n      swap1\n      pop\n      jump\t// out\n        /* \"#utility.yul\":12660:12817   */\n    tag_138:\n        /* \"#utility.yul\":12765:12810   */\n      tag_266\n        /* \"#utility.yul\":12785:12809   */\n      tag_267\n        /* \"#utility.yul\":12803:12808   */\n      dup3\n        /* \"#utility.yul\":12785:12809   */\n      tag_98\n      jump\t// in\n    tag_267:\n        /* \"#utility.yul\":12765:12810   */\n      tag_137\n      jump\t// in\n    tag_266:\n        /* \"#utility.yul\":12760:12763   */\n      dup3\n        /* \"#utility.yul\":12753:12811   */\n      mstore\n        /* \"#utility.yul\":12660:12817   */\n      pop\n      pop\n      jump\t// out\n        /* \"#utility.yul\":12823:13345   */\n    tag_78:\n        /* \"#utility.yul\":13036:13039   */\n      0x00\n        /* \"#utility.yul\":13058:13206   */\n      tag_269\n        /* \"#utility.yul\":13202:13205   */\n      dup3\n        /* \"#utility.yul\":13058:13206   */\n      tag_136\n      jump\t// in\n    tag_269:\n        /* \"#utility.yul\":13051:13206   */\n      swap2\n      pop\n        /* \"#utility.yul\":13216:13291   */\n      tag_270\n        /* \"#utility.yul\":13287:13290   */\n      dup3\n        /* \"#utility.yul\":13278:13284   */\n      dup5\n        /* \"#utility.yul\":13216:13291   */\n      tag_138\n      jump\t// in\n    tag_270:\n        /* \"#utility.yul\":13316:13318   */\n      0x20\n        /* \"#utility.yul\":13311:13314   */\n      dup3\n        /* \"#utility.yul\":13307:13319   */\n      add\n        /* \"#utility.yul\":13300:13319   */\n      swap2\n      pop\n        /* \"#utility.yul\":13336:13339   */\n      dup2\n        /* \"#utility.yul\":13329:13339   */\n      swap1\n      pop\n        /* \"#utility.yul\":12823:13345   */\n      swap3\n      swap2\n      pop\n      pop\n      jump\t// out\n        /* \"#utility.yul\":13351:13531   */\n    tag_139:\n        /* \"#utility.yul\":13399:13476   */\n      0x4e487b7100000000000000000000000000000000000000000000000000000000\n        /* \"#utility.yul\":13396:13397   */\n      0x00\n        /* \"#utility.yul\":13389:13477   */\n      mstore\n        /* \"#utility.yul\":13496:13500   */\n      0x11\n        /* \"#utility.yul\":13493:13494   */\n      0x04\n        /* \"#utility.yul\":13486:13501   */\n      mstore\n        /* \"#utility.yul\":13520:13524   */\n      0x24\n        /* \"#utility.yul\":13517:13518   */\n      0x00\n        /* \"#utility.yul\":13510:13525   */\n      revert\n        /* \"#utility.yul\":13537:13725   */\n    tag_89:\n        /* \"#utility.yul\":13575:13578   */\n      0x00\n        /* \"#utility.yul\":13594:13612   */\n      tag_273\n        /* \"#utility.yul\":13610:13611   */\n      dup3\n        /* \"#utility.yul\":13594:13612   */\n      tag_121\n      jump\t// in\n    tag_273:\n        /* \"#utility.yul\":13589:13612   */\n      swap2\n      pop\n        /* \"#utility.yul\":13626:13644   */\n      tag_274\n        /* \"#utility.yul\":13642:13643   */\n      dup4\n        /* \"#utility.yul\":13626:13644   */\n      tag_121\n      jump\t// in\n    tag_274:\n        /* \"#utility.yul\":13621:13644   */\n      swap3\n      pop\n        /* \"#utility.yul\":13667:13668   */\n      dup3\n        /* \"#utility.yul\":13664:13665   */\n      dup3\n        /* \"#utility.yul\":13660:13669   */\n      add\n        /* \"#utility.yul\":13653:13669   */\n      swap1\n      pop\n        /* \"#utility.yul\":13690:13694   */\n      0xff\n        /* \"#utility.yul\":13685:13688   */\n      dup2\n        /* \"#utility.yul\":13682:13695   */\n      gt\n        /* \"#utility.yul\":13679:13718   */\n      iszero\n      tag_275\n      jumpi\n        /* \"#utility.yul\":13698:13716   */\n      tag_276\n      tag_139\n      jump\t// in\n    tag_276:\n        /* \"#utility.yul\":13679:13718   */\n    tag_275:\n        /* \"#utility.yul\":13537:13725   */\n      swap3\n      swap2\n      pop\n      pop\n      jump\t// out\n        /* \"#utility.yul\":13731:13896   */\n    tag_140:\n        /* \"#utility.yul\":13871:13888   */\n      0x496e76616c696420762076616c75650000000000000000000000000000000000\n        /* \"#utility.yul\":13867:13868   */\n      0x00\n        /* \"#utility.yul\":13859:13865   */\n      dup3\n        /* \"#utility.yul\":13855:13869   */\n      add\n        /* \"#utility.yul\":13848:13889   */\n      mstore\n        /* \"#utility.yul\":13731:13896   */\n      pop\n      jump\t// out\n        /* \"#utility.yul\":13902:14268   */\n    tag_141:\n        /* \"#utility.yul\":14044:14047   */\n      0x00\n        /* \"#utility.yul\":14065:14132   */\n      tag_279\n        /* \"#utility.yul\":14129:14131   */\n      0x0f\n        /* \"#utility.yul\":14124:14127   */\n      dup4\n        /* \"#utility.yul\":14065:14132   */\n      tag_124\n      jump\t// in\n    tag_279:\n        /* \"#utility.yul\":14058:14132   */\n      swap2\n      pop\n        /* \"#utility.yul\":14141:14234   */\n      tag_280\n        /* \"#utility.yul\":14230:14233   */\n      dup3\n        /* \"#utility.yul\":14141:14234   */\n      tag_140\n      jump\t// in\n    tag_280:\n        /* \"#utility.yul\":14259:14261   */\n      0x20\n        /* \"#utility.yul\":14254:14257   */\n      dup3\n        /* \"#utility.yul\":14250:14262   */\n      add\n        /* \"#utility.yul\":14243:14262   */\n      swap1\n      pop\n        /* \"#utility.yul\":13902:14268   */\n      swap2\n      swap1\n      pop\n      jump\t// out\n        /* \"#utility.yul\":14274:14693   */\n    tag_93:\n        /* \"#utility.yul\":14440:14444   */\n      0x00\n        /* \"#utility.yul\":14478:14480   */\n      0x20\n        /* \"#utility.yul\":14467:14476   */\n      dup3\n        /* \"#utility.yul\":14463:14481   */\n      add\n        /* \"#utility.yul\":14455:14481   */\n      swap1\n      pop\n        /* \"#utility.yul\":14527:14536   */\n      dup2\n        /* \"#utility.yul\":14521:14525   */\n      dup2\n        /* \"#utility.yul\":14517:14537   */\n      sub\n        /* \"#utility.yul\":14513:14514   */\n      0x00\n        /* \"#utility.yul\":14502:14511   */\n      dup4\n        /* \"#utility.yul\":14498:14515   */\n      add\n        /* \"#utility.yul\":14491:14538   */\n      mstore\n        /* \"#utility.yul\":14555:14686   */\n      tag_282\n        /* \"#utility.yul\":14681:14685   */\n      dup2\n        /* \"#utility.yul\":14555:14686   */\n      tag_141\n      jump\t// in\n    tag_282:\n        /* \"#utility.yul\":14547:14686   */\n      swap1\n      pop\n        /* \"#utility.yul\":14274:14693   */\n      swap2\n      swap1\n      pop\n      jump\t// out\n        /* \"#utility.yul\":14699:15244   */\n    tag_95:\n        /* \"#utility.yul\":14872:14876   */\n      0x00\n        /* \"#utility.yul\":14910:14913   */\n      0x80\n        /* \"#utility.yul\":14899:14908   */\n      dup3\n        /* \"#utility.yul\":14895:14914   */\n      add\n        /* \"#utility.yul\":14887:14914   */\n      swap1\n      pop\n        /* \"#utility.yul\":14924:14995   */\n      tag_284\n        /* \"#utility.yul\":14992:14993   */\n      0x00\n        /* \"#utility.yul\":14981:14990   */\n      dup4\n        /* \"#utility.yul\":14977:14994   */\n      add\n        /* \"#utility.yul\":14968:14974   */\n      dup8\n        /* \"#utility.yul\":14924:14995   */\n      tag_99\n      jump\t// in\n    tag_284:\n        /* \"#utility.yul\":15005:15073   */\n      tag_285\n        /* \"#utility.yul\":15069:15071   */\n      0x20\n        /* \"#utility.yul\":15058:15067   */\n      dup4\n        /* \"#utility.yul\":15054:15072   */\n      add\n        /* \"#utility.yul\":15045:15051   */\n      dup7\n        /* \"#utility.yul\":15005:15073   */\n      tag_122\n      jump\t// in\n    tag_285:\n        /* \"#utility.yul\":15083:15155   */\n      tag_286\n        /* \"#utility.yul\":15151:15153   */\n      0x40\n        /* \"#utility.yul\":15140:15149   */\n      dup4\n        /* \"#utility.yul\":15136:15154   */\n      add\n        /* \"#utility.yul\":15127:15133   */\n      dup6\n        /* \"#utility.yul\":15083:15155   */\n      tag_99\n      jump\t// in\n    tag_286:\n        /* \"#utility.yul\":15165:15237   */\n      tag_287\n        /* \"#utility.yul\":15233:15235   */\n      0x60\n        /* \"#utility.yul\":15222:15231   */\n      dup4\n        /* \"#utility.yul\":15218:15236   */\n      add\n        /* \"#utility.yul\":15209:15215   */\n      dup5\n        /* \"#utility.yul\":15165:15237   */\n      tag_99\n      jump\t// in\n    tag_287:\n        /* \"#utility.yul\":14699:15244   */\n      swap6\n      swap5\n      pop\n      pop\n      pop\n      pop\n      pop\n      jump\t// out\n\n    auxdata: 0xa2646970667358221220b7f1a377221df4d84ad14f6711ce04ba9cd58a07b0c709daa1bffb3be695bfea64736f6c634300081a0033\n}\n",
				"bytecode": {
					"linkReferences": {},
					"object": "6080604052348015600e575f80fd5b50604051610ec6380380610ec68339818101604052810190602e91906074565b8160028190555080600381905550505060ab565b5f80fd5b5f819050919050565b6056816046565b8114605f575f80fd5b50565b5f81519050606e81604f565b92915050565b5f806040838503121560875760866042565b5b5f6092858286016062565b925050602060a1858286016062565b9150509250929050565b610e0e806100b85f395ff3fe608060405234801561000f575f80fd5b506004361061007b575f3560e01c8063a7bb580311610059578063a7bb5803146100eb578063a87430ba1461011d578063b9209e331461014f578063fa5408011461017f5761007b565b80631478acbb1461007f57806331cd41991461009d5780635e7e3416146100cd575b5f80fd5b6100876101af565b604051610094919061067e565b60405180910390f35b6100b760048036038101906100b29190610868565b6101b5565b6040516100c491906108ee565b60405180910390f35b6100d5610261565b6040516100e2919061067e565b60405180910390f35b61010560048036038101906101009190610907565b610267565b60405161011493929190610969565b60405180910390f35b6101376004803603810190610132919061099e565b6102cc565b60405161014693929190610a29565b60405180910390f35b6101696004803603810190610164919061099e565b610483565b60405161017691906108ee565b60405180910390f35b61019960048036038101906101949190610a73565b6104a0565b6040516101a6919061067e565b60405180910390f35b60025481565b5f60025484146101fa576040517f08c379a00000000000000000000000000000000000000000000000000000000081526004016101f190610ae8565b60405180910390fd5b5f610204856104cf565b90505f6102128286866104fe565b905080610254576040517f08c379a000000000000000000000000000000000000000000000000000000000815260040161024b90610b50565b60405180910390fd5b6001925050509392505050565b60035481565b5f805f60418451146102ae576040517f08c379a00000000000000000000000000000000000000000000000000000000081526004016102a590610bb8565b60405180910390fd5b602084015192506040840151915060608401515f1a90509193909250565b5f602052805f5260405f205f91509050805f0180546102ea90610c03565b80601f016020809104026020016040519081016040528092919081815260200182805461031690610c03565b80156103615780601f1061033857610100808354040283529160200191610361565b820191905f5260205f20905b81548152906001019060200180831161034457829003601f168201915b50505050509080600101805461037690610c03565b80601f01602080910402602001604051908101604052809291908181526020018280546103a290610c03565b80156103ed5780601f106103c4576101008083540402835291602001916103ed565b820191905f5260205f20905b8154815290600101906020018083116103d057829003601f168201915b50505050509080600201805461040290610c03565b80601f016020809104026020016040519081016040528092919081815260200182805461042e90610c03565b80156104795780601f1061045057610100808354040283529160200191610479565b820191905f5260205f20905b81548152906001019060200180831161045c57829003601f168201915b5050505050905083565b6001602052805f5260405f205f915054906101000a900460ff1681565b5f816040516020016104b29190610ca7565b604051602081830303815290604052805190602001209050919050565b5f816040516020016104e19190610ca7565b604051602081830303815290604052805190602001209050919050565b5f8173ffffffffffffffffffffffffffffffffffffffff166105208585610540565b73ffffffffffffffffffffffffffffffffffffffff161490509392505050565b5f6041825114610585576040517f08c379a000000000000000000000000000000000000000000000000000000000815260040161057c90610bb8565b60405180910390fd5b5f805f602085015192506040850151915060608501515f1a9050601b8160ff1610156105bb57601b816105b89190610cf9565b90505b601b8160ff1614806105d05750601c8160ff16145b61060f576040517f08c379a000000000000000000000000000000000000000000000000000000000815260040161060690610d77565b60405180910390fd5b6001868285856040515f81526020016040526040516106319493929190610d95565b6020604051602081039080840390855afa158015610651573d5f803e3d5ffd5b50505060206040510351935050505092915050565b5f819050919050565b61067881610666565b82525050565b5f6020820190506106915f83018461066f565b92915050565b5f604051905090565b5f80fd5b5f80fd5b6106b181610666565b81146106bb575f80fd5b50565b5f813590506106cc816106a8565b92915050565b5f80fd5b5f80fd5b5f601f19601f8301169050919050565b7f4e487b71000000000000000000000000000000000000000000000000000000005f52604160045260245ffd5b610720826106da565b810181811067ffffffffffffffff8211171561073f5761073e6106ea565b5b80604052505050565b5f610751610697565b905061075d8282610717565b919050565b5f67ffffffffffffffff82111561077c5761077b6106ea565b5b610785826106da565b9050602081019050919050565b828183375f83830152505050565b5f6107b26107ad84610762565b610748565b9050828152602081018484840111156107ce576107cd6106d6565b5b6107d9848285610792565b509392505050565b5f82601f8301126107f5576107f46106d2565b5b81356108058482602086016107a0565b91505092915050565b5f73ffffffffffffffffffffffffffffffffffffffff82169050919050565b5f6108378261080e565b9050919050565b6108478161082d565b8114610851575f80fd5b50565b5f813590506108628161083e565b92915050565b5f805f6060848603121561087f5761087e6106a0565b5b5f61088c868287016106be565b935050602084013567ffffffffffffffff8111156108ad576108ac6106a4565b5b6108b9868287016107e1565b92505060406108ca86828701610854565b9150509250925092565b5f8115159050919050565b6108e8816108d4565b82525050565b5f6020820190506109015f8301846108df565b92915050565b5f6020828403121561091c5761091b6106a0565b5b5f82013567ffffffffffffffff811115610939576109386106a4565b5b610945848285016107e1565b91505092915050565b5f60ff82169050919050565b6109638161094e565b82525050565b5f60608201905061097c5f83018661066f565b610989602083018561066f565b610996604083018461095a565b949350505050565b5f602082840312156109b3576109b26106a0565b5b5f6109c084828501610854565b91505092915050565b5f81519050919050565b5f82825260208201905092915050565b8281835e5f83830152505050565b5f6109fb826109c9565b610a0581856109d3565b9350610a158185602086016109e3565b610a1e816106da565b840191505092915050565b5f6060820190508181035f830152610a4181866109f1565b90508181036020830152610a5581856109f1565b90508181036040830152610a6981846109f1565b9050949350505050565b5f60208284031215610a8857610a876106a0565b5b5f610a95848285016106be565b91505092915050565b7f50726f6f66206861736820646f6573206e6f74206d61746368000000000000005f82015250565b5f610ad26019836109d3565b9150610add82610a9e565b602082019050919050565b5f6020820190508181035f830152610aff81610ac6565b9050919050565b7f496e76616c6964207369676e61747572650000000000000000000000000000005f82015250565b5f610b3a6011836109d3565b9150610b4582610b06565b602082019050919050565b5f6020820190508181035f830152610b6781610b2e565b9050919050565b7f496e76616c6964207369676e6174757265206c656e67746800000000000000005f82015250565b5f610ba26018836109d3565b9150610bad82610b6e565b602082019050919050565b5f6020820190508181035f830152610bcf81610b96565b9050919050565b7f4e487b71000000000000000000000000000000000000000000000000000000005f52602260045260245ffd5b5f6002820490506001821680610c1a57607f821691505b602082108103610c2d57610c2c610bd6565b5b50919050565b5f81905092915050565b7f19457468657265756d205369676e6564204d6573736167653a0a3332000000005f82015250565b5f610c71601c83610c33565b9150610c7c82610c3d565b601c82019050919050565b5f819050919050565b610ca1610c9c82610666565b610c87565b82525050565b5f610cb182610c65565b9150610cbd8284610c90565b60208201915081905092915050565b7f4e487b71000000000000000000000000000000000000000000000000000000005f52601160045260245ffd5b5f610d038261094e565b9150610d0e8361094e565b9250828201905060ff811115610d2757610d26610ccc565b5b92915050565b7f496e76616c696420762076616c756500000000000000000000000000000000005f82015250565b5f610d61600f836109d3565b9150610d6c82610d2d565b602082019050919050565b5f6020820190508181035f830152610d8e81610d55565b9050919050565b5f608082019050610da85f83018761066f565b610db5602083018661095a565b610dc2604083018561066f565b610dcf606083018461066f565b9594505050505056fea2646970667358221220b7f1a377221df4d84ad14f6711ce04ba9cd58a07b0c709daa1bffb3be695bfea64736f6c634300081a0033",
					"opcodes": "PUSH1 0x80 PUSH1 0x40 MSTORE CALLVALUE DUP1 ISZERO PUSH1 0xE JUMPI PUSH0 DUP1 REVERT JUMPDEST POP PUSH1 0x40 MLOAD PUSH2 0xEC6 CODESIZE SUB DUP1 PUSH2 0xEC6 DUP4 CODECOPY DUP2 DUP2 ADD PUSH1 0x40 MSTORE DUP2 ADD SWAP1 PUSH1 0x2E SWAP2 SWAP1 PUSH1 0x74 JUMP JUMPDEST DUP2 PUSH1 0x2 DUP2 SWAP1 SSTORE POP DUP1 PUSH1 0x3 DUP2 SWAP1 SSTORE POP POP POP PUSH1 0xAB JUMP JUMPDEST PUSH0 DUP1 REVERT JUMPDEST PUSH0 DUP2 SWAP1 POP SWAP2 SWAP1 POP JUMP JUMPDEST PUSH1 0x56 DUP2 PUSH1 0x46 JUMP JUMPDEST DUP2 EQ PUSH1 0x5F JUMPI PUSH0 DUP1 REVERT JUMPDEST POP JUMP JUMPDEST PUSH0 DUP2 MLOAD SWAP1 POP PUSH1 0x6E DUP2 PUSH1 0x4F JUMP JUMPDEST SWAP3 SWAP2 POP POP JUMP JUMPDEST PUSH0 DUP1 PUSH1 0x40 DUP4 DUP6 SUB SLT ISZERO PUSH1 0x87 JUMPI PUSH1 0x86 PUSH1 0x42 JUMP JUMPDEST JUMPDEST PUSH0 PUSH1 0x92 DUP6 DUP3 DUP7 ADD PUSH1 0x62 JUMP JUMPDEST SWAP3 POP POP PUSH1 0x20 PUSH1 0xA1 DUP6 DUP3 DUP7 ADD PUSH1 0x62 JUMP JUMPDEST SWAP2 POP POP SWAP3 POP SWAP3 SWAP1 POP JUMP JUMPDEST PUSH2 0xE0E DUP1 PUSH2 0xB8 PUSH0 CODECOPY PUSH0 RETURN INVALID PUSH1 0x80 PUSH1 0x40 MSTORE CALLVALUE DUP1 ISZERO PUSH2 0xF JUMPI PUSH0 DUP1 REVERT JUMPDEST POP PUSH1 0x4 CALLDATASIZE LT PUSH2 0x7B JUMPI PUSH0 CALLDATALOAD PUSH1 0xE0 SHR DUP1 PUSH4 0xA7BB5803 GT PUSH2 0x59 JUMPI DUP1 PUSH4 0xA7BB5803 EQ PUSH2 0xEB JUMPI DUP1 PUSH4 0xA87430BA EQ PUSH2 0x11D JUMPI DUP1 PUSH4 0xB9209E33 EQ PUSH2 0x14F JUMPI DUP1 PUSH4 0xFA540801 EQ PUSH2 0x17F JUMPI PUSH2 0x7B JUMP JUMPDEST DUP1 PUSH4 0x1478ACBB EQ PUSH2 0x7F JUMPI DUP1 PUSH4 0x31CD4199 EQ PUSH2 0x9D JUMPI DUP1 PUSH4 0x5E7E3416 EQ PUSH2 0xCD JUMPI JUMPDEST PUSH0 DUP1 REVERT JUMPDEST PUSH2 0x87 PUSH2 0x1AF JUMP JUMPDEST PUSH1 0x40 MLOAD PUSH2 0x94 SWAP2 SWAP1 PUSH2 0x67E JUMP JUMPDEST PUSH1 0x40 MLOAD DUP1 SWAP2 SUB SWAP1 RETURN JUMPDEST PUSH2 0xB7 PUSH1 0x4 DUP1 CALLDATASIZE SUB DUP2 ADD SWAP1 PUSH2 0xB2 SWAP2 SWAP1 PUSH2 0x868 JUMP JUMPDEST PUSH2 0x1B5 JUMP JUMPDEST PUSH1 0x40 MLOAD PUSH2 0xC4 SWAP2 SWAP1 PUSH2 0x8EE JUMP JUMPDEST PUSH1 0x40 MLOAD DUP1 SWAP2 SUB SWAP1 RETURN JUMPDEST PUSH2 0xD5 PUSH2 0x261 JUMP JUMPDEST PUSH1 0x40 MLOAD PUSH2 0xE2 SWAP2 SWAP1 PUSH2 0x67E JUMP JUMPDEST PUSH1 0x40 MLOAD DUP1 SWAP2 SUB SWAP1 RETURN JUMPDEST PUSH2 0x105 PUSH1 0x4 DUP1 CALLDATASIZE SUB DUP2 ADD SWAP1 PUSH2 0x100 SWAP2 SWAP1 PUSH2 0x907 JUMP JUMPDEST PUSH2 0x267 JUMP JUMPDEST PUSH1 0x40 MLOAD PUSH2 0x114 SWAP4 SWAP3 SWAP2 SWAP1 PUSH2 0x969 JUMP JUMPDEST PUSH1 0x40 MLOAD DUP1 SWAP2 SUB SWAP1 RETURN JUMPDEST PUSH2 0x137 PUSH1 0x4 DUP1 CALLDATASIZE SUB DUP2 ADD SWAP1 PUSH2 0x132 SWAP2 SWAP1 PUSH2 0x99E JUMP JUMPDEST PUSH2 0x2CC JUMP JUMPDEST PUSH1 0x40 MLOAD PUSH2 0x146 SWAP4 SWAP3 SWAP2 SWAP1 PUSH2 0xA29 JUMP JUMPDEST PUSH1 0x40 MLOAD DUP1 SWAP2 SUB SWAP1 RETURN JUMPDEST PUSH2 0x169 PUSH1 0x4 DUP1 CALLDATASIZE SUB DUP2 ADD SWAP1 PUSH2 0x164 SWAP2 SWAP1 PUSH2 0x99E JUMP JUMPDEST PUSH2 0x483 JUMP JUMPDEST PUSH1 0x40 MLOAD PUSH2 0x176 SWAP2 SWAP1 PUSH2 0x8EE JUMP JUMPDEST PUSH1 0x40 MLOAD DUP1 SWAP2 SUB SWAP1 RETURN JUMPDEST PUSH2 0x199 PUSH1 0x4 DUP1 CALLDATASIZE SUB DUP2 ADD SWAP1 PUSH2 0x194 SWAP2 SWAP1 PUSH2 0xA73 JUMP JUMPDEST PUSH2 0x4A0 JUMP JUMPDEST PUSH1 0x40 MLOAD PUSH2 0x1A6 SWAP2 SWAP1 PUSH2 0x67E JUMP JUMPDEST PUSH1 0x40 MLOAD DUP1 SWAP2 SUB SWAP1 RETURN JUMPDEST PUSH1 0x2 SLOAD DUP2 JUMP JUMPDEST PUSH0 PUSH1 0x2 SLOAD DUP5 EQ PUSH2 0x1FA JUMPI PUSH1 0x40 MLOAD PUSH32 0x8C379A000000000000000000000000000000000000000000000000000000000 DUP2 MSTORE PUSH1 0x4 ADD PUSH2 0x1F1 SWAP1 PUSH2 0xAE8 JUMP JUMPDEST PUSH1 0x40 MLOAD DUP1 SWAP2 SUB SWAP1 REVERT JUMPDEST PUSH0 PUSH2 0x204 DUP6 PUSH2 0x4CF JUMP JUMPDEST SWAP1 POP PUSH0 PUSH2 0x212 DUP3 DUP7 DUP7 PUSH2 0x4FE JUMP JUMPDEST SWAP1 POP DUP1 PUSH2 0x254 JUMPI PUSH1 0x40 MLOAD PUSH32 0x8C379A000000000000000000000000000000000000000000000000000000000 DUP2 MSTORE PUSH1 0x4 ADD PUSH2 0x24B SWAP1 PUSH2 0xB50 JUMP JUMPDEST PUSH1 0x40 MLOAD DUP1 SWAP2 SUB SWAP1 REVERT JUMPDEST PUSH1 0x1 SWAP3 POP POP POP SWAP4 SWAP3 POP POP POP JUMP JUMPDEST PUSH1 0x3 SLOAD DUP2 JUMP JUMPDEST PUSH0 DUP1 PUSH0 PUSH1 0x41 DUP5 MLOAD EQ PUSH2 0x2AE JUMPI PUSH1 0x40 MLOAD PUSH32 0x8C379A000000000000000000000000000000000000000000000000000000000 DUP2 MSTORE PUSH1 0x4 ADD PUSH2 0x2A5 SWAP1 PUSH2 0xBB8 JUMP JUMPDEST PUSH1 0x40 MLOAD DUP1 SWAP2 SUB SWAP1 REVERT JUMPDEST PUSH1 0x20 DUP5 ADD MLOAD SWAP3 POP PUSH1 0x40 DUP5 ADD MLOAD SWAP2 POP PUSH1 0x60 DUP5 ADD MLOAD PUSH0 BYTE SWAP1 POP SWAP2 SWAP4 SWAP1 SWAP3 POP JUMP JUMPDEST PUSH0 PUSH1 0x20 MSTORE DUP1 PUSH0 MSTORE PUSH1 0x40 PUSH0 KECCAK256 PUSH0 SWAP2 POP SWAP1 POP DUP1 PUSH0 ADD DUP1 SLOAD PUSH2 0x2EA SWAP1 PUSH2 0xC03 JUMP JUMPDEST DUP1 PUSH1 0x1F ADD PUSH1 0x20 DUP1 SWAP2 DIV MUL PUSH1 0x20 ADD PUSH1 0x40 MLOAD SWAP1 DUP2 ADD PUSH1 0x40 MSTORE DUP1 SWAP3 SWAP2 SWAP1 DUP2 DUP2 MSTORE PUSH1 0x20 ADD DUP3 DUP1 SLOAD PUSH2 0x316 SWAP1 PUSH2 0xC03 JUMP JUMPDEST DUP1 ISZERO PUSH2 0x361 JUMPI DUP1 PUSH1 0x1F LT PUSH2 0x338 JUMPI PUSH2 0x100 DUP1 DUP4 SLOAD DIV MUL DUP4 MSTORE SWAP2 PUSH1 0x20 ADD SWAP2 PUSH2 0x361 JUMP JUMPDEST DUP3 ADD SWAP2 SWAP1 PUSH0 MSTORE PUSH1 0x20 PUSH0 KECCAK256 SWAP1 JUMPDEST DUP2 SLOAD DUP2 MSTORE SWAP1 PUSH1 0x1 ADD SWAP1 PUSH1 0x20 ADD DUP1 DUP4 GT PUSH2 0x344 JUMPI DUP3 SWAP1 SUB PUSH1 0x1F AND DUP3 ADD SWAP2 JUMPDEST POP POP POP POP POP SWAP1 DUP1 PUSH1 0x1 ADD DUP1 SLOAD PUSH2 0x376 SWAP1 PUSH2 0xC03 JUMP JUMPDEST DUP1 PUSH1 0x1F ADD PUSH1 0x20 DUP1 SWAP2 DIV MUL PUSH1 0x20 ADD PUSH1 0x40 MLOAD SWAP1 DUP2 ADD PUSH1 0x40 MSTORE DUP1 SWAP3 SWAP2 SWAP1 DUP2 DUP2 MSTORE PUSH1 0x20 ADD DUP3 DUP1 SLOAD PUSH2 0x3A2 SWAP1 PUSH2 0xC03 JUMP JUMPDEST DUP1 ISZERO PUSH2 0x3ED JUMPI DUP1 PUSH1 0x1F LT PUSH2 0x3C4 JUMPI PUSH2 0x100 DUP1 DUP4 SLOAD DIV MUL DUP4 MSTORE SWAP2 PUSH1 0x20 ADD SWAP2 PUSH2 0x3ED JUMP JUMPDEST DUP3 ADD SWAP2 SWAP1 PUSH0 MSTORE PUSH1 0x20 PUSH0 KECCAK256 SWAP1 JUMPDEST DUP2 SLOAD DUP2 MSTORE SWAP1 PUSH1 0x1 ADD SWAP1 PUSH1 0x20 ADD DUP1 DUP4 GT PUSH2 0x3D0 JUMPI DUP3 SWAP1 SUB PUSH1 0x1F AND DUP3 ADD SWAP2 JUMPDEST POP POP POP POP POP SWAP1 DUP1 PUSH1 0x2 ADD DUP1 SLOAD PUSH2 0x402 SWAP1 PUSH2 0xC03 JUMP JUMPDEST DUP1 PUSH1 0x1F ADD PUSH1 0x20 DUP1 SWAP2 DIV MUL PUSH1 0x20 ADD PUSH1 0x40 MLOAD SWAP1 DUP2 ADD PUSH1 0x40 MSTORE DUP1 SWAP3 SWAP2 SWAP1 DUP2 DUP2 MSTORE PUSH1 0x20 ADD DUP3 DUP1 SLOAD PUSH2 0x42E SWAP1 PUSH2 0xC03 JUMP JUMPDEST DUP1 ISZERO PUSH2 0x479 JUMPI DUP1 PUSH1 0x1F LT PUSH2 0x450 JUMPI PUSH2 0x100 DUP1 DUP4 SLOAD DIV MUL DUP4 MSTORE SWAP2 PUSH1 0x20 ADD SWAP2 PUSH2 0x479 JUMP JUMPDEST DUP3 ADD SWAP2 SWAP1 PUSH0 MSTORE PUSH1 0x20 PUSH0 KECCAK256 SWAP1 JUMPDEST DUP2 SLOAD DUP2 MSTORE SWAP1 PUSH1 0x1 ADD SWAP1 PUSH1 0x20 ADD DUP1 DUP4 GT PUSH2 0x45C JUMPI DUP3 SWAP1 SUB PUSH1 0x1F AND DUP3 ADD SWAP2 JUMPDEST POP POP POP POP POP SWAP1 POP DUP4 JUMP JUMPDEST PUSH1 0x1 PUSH1 0x20 MSTORE DUP1 PUSH0 MSTORE PUSH1 0x40 PUSH0 KECCAK256 PUSH0 SWAP2 POP SLOAD SWAP1 PUSH2 0x100 EXP SWAP1 DIV PUSH1 0xFF AND DUP2 JUMP JUMPDEST PUSH0 DUP2 PUSH1 0x40 MLOAD PUSH1 0x20 ADD PUSH2 0x4B2 SWAP2 SWAP1 PUSH2 0xCA7 JUMP JUMPDEST PUSH1 0x40 MLOAD PUSH1 0x20 DUP2 DUP4 SUB SUB DUP2 MSTORE SWAP1 PUSH1 0x40 MSTORE DUP1 MLOAD SWAP1 PUSH1 0x20 ADD KECCAK256 SWAP1 POP SWAP2 SWAP1 POP JUMP JUMPDEST PUSH0 DUP2 PUSH1 0x40 MLOAD PUSH1 0x20 ADD PUSH2 0x4E1 SWAP2 SWAP1 PUSH2 0xCA7 JUMP JUMPDEST PUSH1 0x40 MLOAD PUSH1 0x20 DUP2 DUP4 SUB SUB DUP2 MSTORE SWAP1 PUSH1 0x40 MSTORE DUP1 MLOAD SWAP1 PUSH1 0x20 ADD KECCAK256 SWAP1 POP SWAP2 SWAP1 POP JUMP JUMPDEST PUSH0 DUP2 PUSH20 0xFFFFFFFFFFFFFFFFFFFFFFFFFFFFFFFFFFFFFFFF AND PUSH2 0x520 DUP6 DUP6 PUSH2 0x540 JUMP JUMPDEST PUSH20 0xFFFFFFFFFFFFFFFFFFFFFFFFFFFFFFFFFFFFFFFF AND EQ SWAP1 POP SWAP4 SWAP3 POP POP POP JUMP JUMPDEST PUSH0 PUSH1 0x41 DUP3 MLOAD EQ PUSH2 0x585 JUMPI PUSH1 0x40 MLOAD PUSH32 0x8C379A000000000000000000000000000000000000000000000000000000000 DUP2 MSTORE PUSH1 0x4 ADD PUSH2 0x57C SWAP1 PUSH2 0xBB8 JUMP JUMPDEST PUSH1 0x40 MLOAD DUP1 SWAP2 SUB SWAP1 REVERT JUMPDEST PUSH0 DUP1 PUSH0 PUSH1 0x20 DUP6 ADD MLOAD SWAP3 POP PUSH1 0x40 DUP6 ADD MLOAD SWAP2 POP PUSH1 0x60 DUP6 ADD MLOAD PUSH0 BYTE SWAP1 POP PUSH1 0x1B DUP2 PUSH1 0xFF AND LT ISZERO PUSH2 0x5BB JUMPI PUSH1 0x1B DUP2 PUSH2 0x5B8 SWAP2 SWAP1 PUSH2 0xCF9 JUMP JUMPDEST SWAP1 POP JUMPDEST PUSH1 0x1B DUP2 PUSH1 0xFF AND EQ DUP1 PUSH2 0x5D0 JUMPI POP PUSH1 0x1C DUP2 PUSH1 0xFF AND EQ JUMPDEST PUSH2 0x60F JUMPI PUSH1 0x40 MLOAD PUSH32 0x8C379A000000000000000000000000000000000000000000000000000000000 DUP2 MSTORE PUSH1 0x4 ADD PUSH2 0x606 SWAP1 PUSH2 0xD77 JUMP JUMPDEST PUSH1 0x40 MLOAD DUP1 SWAP2 SUB SWAP1 REVERT JUMPDEST PUSH1 0x1 DUP7 DUP3 DUP6 DUP6 PUSH1 0x40 MLOAD PUSH0 DUP2 MSTORE PUSH1 0x20 ADD PUSH1 0x40 MSTORE PUSH1 0x40 MLOAD PUSH2 0x631 SWAP5 SWAP4 SWAP3 SWAP2 SWAP1 PUSH2 0xD95 JUMP JUMPDEST PUSH1 0x20 PUSH1 0x40 MLOAD PUSH1 0x20 DUP2 SUB SWAP1 DUP1 DUP5 SUB SWAP1 DUP6 GAS STATICCALL ISZERO DUP1 ISZERO PUSH2 0x651 JUMPI RETURNDATASIZE PUSH0 DUP1 RETURNDATACOPY RETURNDATASIZE PUSH0 REVERT JUMPDEST POP POP POP PUSH1 0x20 PUSH1 0x40 MLOAD SUB MLOAD SWAP4 POP POP POP POP SWAP3 SWAP2 POP POP JUMP JUMPDEST PUSH0 DUP2 SWAP1 POP SWAP2 SWAP1 POP JUMP JUMPDEST PUSH2 0x678 DUP2 PUSH2 0x666 JUMP JUMPDEST DUP3 MSTORE POP POP JUMP JUMPDEST PUSH0 PUSH1 0x20 DUP3 ADD SWAP1 POP PUSH2 0x691 PUSH0 DUP4 ADD DUP5 PUSH2 0x66F JUMP JUMPDEST SWAP3 SWAP2 POP POP JUMP JUMPDEST PUSH0 PUSH1 0x40 MLOAD SWAP1 POP SWAP1 JUMP JUMPDEST PUSH0 DUP1 REVERT JUMPDEST PUSH0 DUP1 REVERT JUMPDEST PUSH2 0x6B1 DUP2 PUSH2 0x666 JUMP JUMPDEST DUP2 EQ PUSH2 0x6BB JUMPI PUSH0 DUP1 REVERT JUMPDEST POP JUMP JUMPDEST PUSH0 DUP2 CALLDATALOAD SWAP1 POP PUSH2 0x6CC DUP2 PUSH2 0x6A8 JUMP JUMPDEST SWAP3 SWAP2 POP POP JUMP JUMPDEST PUSH0 DUP1 REVERT JUMPDEST PUSH0 DUP1 REVERT JUMPDEST PUSH0 PUSH1 0x1F NOT PUSH1 0x1F DUP4 ADD AND SWAP1 POP SWAP2 SWAP1 POP JUMP JUMPDEST PUSH32 0x4E487B7100000000000000000000000000000000000000000000000000000000 PUSH0 MSTORE PUSH1 0x41 PUSH1 0x4 MSTORE PUSH1 0x24 PUSH0 REVERT JUMPDEST PUSH2 0x720 DUP3 PUSH2 0x6DA JUMP JUMPDEST DUP2 ADD DUP2 DUP2 LT PUSH8 0xFFFFFFFFFFFFFFFF DUP3 GT OR ISZERO PUSH2 0x73F JUMPI PUSH2 0x73E PUSH2 0x6EA JUMP JUMPDEST JUMPDEST DUP1 PUSH1 0x40 MSTORE POP POP POP JUMP JUMPDEST PUSH0 PUSH2 0x751 PUSH2 0x697 JUMP JUMPDEST SWAP1 POP PUSH2 0x75D DUP3 DUP3 PUSH2 0x717 JUMP JUMPDEST SWAP2 SWAP1 POP JUMP JUMPDEST PUSH0 PUSH8 0xFFFFFFFFFFFFFFFF DUP3 GT ISZERO PUSH2 0x77C JUMPI PUSH2 0x77B PUSH2 0x6EA JUMP JUMPDEST JUMPDEST PUSH2 0x785 DUP3 PUSH2 0x6DA JUMP JUMPDEST SWAP1 POP PUSH1 0x20 DUP2 ADD SWAP1 POP SWAP2 SWAP1 POP JUMP JUMPDEST DUP3 DUP2 DUP4 CALLDATACOPY PUSH0 DUP4 DUP4 ADD MSTORE POP POP POP JUMP JUMPDEST PUSH0 PUSH2 0x7B2 PUSH2 0x7AD DUP5 PUSH2 0x762 JUMP JUMPDEST PUSH2 0x748 JUMP JUMPDEST SWAP1 POP DUP3 DUP2 MSTORE PUSH1 0x20 DUP2 ADD DUP5 DUP5 DUP5 ADD GT ISZERO PUSH2 0x7CE JUMPI PUSH2 0x7CD PUSH2 0x6D6 JUMP JUMPDEST JUMPDEST PUSH2 0x7D9 DUP5 DUP3 DUP6 PUSH2 0x792 JUMP JUMPDEST POP SWAP4 SWAP3 POP POP POP JUMP JUMPDEST PUSH0 DUP3 PUSH1 0x1F DUP4 ADD SLT PUSH2 0x7F5 JUMPI PUSH2 0x7F4 PUSH2 0x6D2 JUMP JUMPDEST JUMPDEST DUP2 CALLDATALOAD PUSH2 0x805 DUP5 DUP3 PUSH1 0x20 DUP7 ADD PUSH2 0x7A0 JUMP JUMPDEST SWAP2 POP POP SWAP3 SWAP2 POP POP JUMP JUMPDEST PUSH0 PUSH20 0xFFFFFFFFFFFFFFFFFFFFFFFFFFFFFFFFFFFFFFFF DUP3 AND SWAP1 POP SWAP2 SWAP1 POP JUMP JUMPDEST PUSH0 PUSH2 0x837 DUP3 PUSH2 0x80E JUMP JUMPDEST SWAP1 POP SWAP2 SWAP1 POP JUMP JUMPDEST PUSH2 0x847 DUP2 PUSH2 0x82D JUMP JUMPDEST DUP2 EQ PUSH2 0x851 JUMPI PUSH0 DUP1 REVERT JUMPDEST POP JUMP JUMPDEST PUSH0 DUP2 CALLDATALOAD SWAP1 POP PUSH2 0x862 DUP2 PUSH2 0x83E JUMP JUMPDEST SWAP3 SWAP2 POP POP JUMP JUMPDEST PUSH0 DUP1 PUSH0 PUSH1 0x60 DUP5 DUP7 SUB SLT ISZERO PUSH2 0x87F JUMPI PUSH2 0x87E PUSH2 0x6A0 JUMP JUMPDEST JUMPDEST PUSH0 PUSH2 0x88C DUP7 DUP3 DUP8 ADD PUSH2 0x6BE JUMP JUMPDEST SWAP4 POP POP PUSH1 0x20 DUP5 ADD CALLDATALOAD PUSH8 0xFFFFFFFFFFFFFFFF DUP2 GT ISZERO PUSH2 0x8AD JUMPI PUSH2 0x8AC PUSH2 0x6A4 JUMP JUMPDEST JUMPDEST PUSH2 0x8B9 DUP7 DUP3 DUP8 ADD PUSH2 0x7E1 JUMP JUMPDEST SWAP3 POP POP PUSH1 0x40 PUSH2 0x8CA DUP7 DUP3 DUP8 ADD PUSH2 0x854 JUMP JUMPDEST SWAP2 POP POP SWAP3 POP SWAP3 POP SWAP3 JUMP JUMPDEST PUSH0 DUP2 ISZERO ISZERO SWAP1 POP SWAP2 SWAP1 POP JUMP JUMPDEST PUSH2 0x8E8 DUP2 PUSH2 0x8D4 JUMP JUMPDEST DUP3 MSTORE POP POP JUMP JUMPDEST PUSH0 PUSH1 0x20 DUP3 ADD SWAP1 POP PUSH2 0x901 PUSH0 DUP4 ADD DUP5 PUSH2 0x8DF JUMP JUMPDEST SWAP3 SWAP2 POP POP JUMP JUMPDEST PUSH0 PUSH1 0x20 DUP3 DUP5 SUB SLT ISZERO PUSH2 0x91C JUMPI PUSH2 0x91B PUSH2 0x6A0 JUMP JUMPDEST JUMPDEST PUSH0 DUP3 ADD CALLDATALOAD PUSH8 0xFFFFFFFFFFFFFFFF DUP2 GT ISZERO PUSH2 0x939 JUMPI PUSH2 0x938 PUSH2 0x6A4 JUMP JUMPDEST JUMPDEST PUSH2 0x945 DUP5 DUP3 DUP6 ADD PUSH2 0x7E1 JUMP JUMPDEST SWAP2 POP POP SWAP3 SWAP2 POP POP JUMP JUMPDEST PUSH0 PUSH1 0xFF DUP3 AND SWAP1 POP SWAP2 SWAP1 POP JUMP JUMPDEST PUSH2 0x963 DUP2 PUSH2 0x94E JUMP JUMPDEST DUP3 MSTORE POP POP JUMP JUMPDEST PUSH0 PUSH1 0x60 DUP3 ADD SWAP1 POP PUSH2 0x97C PUSH0 DUP4 ADD DUP7 PUSH2 0x66F JUMP JUMPDEST PUSH2 0x989 PUSH1 0x20 DUP4 ADD DUP6 PUSH2 0x66F JUMP JUMPDEST PUSH2 0x996 PUSH1 0x40 DUP4 ADD DUP5 PUSH2 0x95A JUMP JUMPDEST SWAP5 SWAP4 POP POP POP POP JUMP JUMPDEST PUSH0 PUSH1 0x20 DUP3 DUP5 SUB SLT ISZERO PUSH2 0x9B3 JUMPI PUSH2 0x9B2 PUSH2 0x6A0 JUMP JUMPDEST JUMPDEST PUSH0 PUSH2 0x9C0 DUP5 DUP3 DUP6 ADD PUSH2 0x854 JUMP JUMPDEST SWAP2 POP POP SWAP3 SWAP2 POP POP JUMP JUMPDEST PUSH0 DUP2 MLOAD SWAP1 POP SWAP2 SWAP1 POP JUMP JUMPDEST PUSH0 DUP3 DUP3 MSTORE PUSH1 0x20 DUP3 ADD SWAP1 POP SWAP3 SWAP2 POP POP JUMP JUMPDEST DUP3 DUP2 DUP4 MCOPY PUSH0 DUP4 DUP4 ADD MSTORE POP POP POP JUMP JUMPDEST PUSH0 PUSH2 0x9FB DUP3 PUSH2 0x9C9 JUMP JUMPDEST PUSH2 0xA05 DUP2 DUP6 PUSH2 0x9D3 JUMP JUMPDEST SWAP4 POP PUSH2 0xA15 DUP2 DUP6 PUSH1 0x20 DUP7 ADD PUSH2 0x9E3 JUMP JUMPDEST PUSH2 0xA1E DUP2 PUSH2 0x6DA JUMP JUMPDEST DUP5 ADD SWAP2 POP POP SWAP3 SWAP2 POP POP JUMP JUMPDEST PUSH0 PUSH1 0x60 DUP3 ADD SWAP1 POP DUP2 DUP2 SUB PUSH0 DUP4 ADD MSTORE PUSH2 0xA41 DUP2 DUP7 PUSH2 0x9F1 JUMP JUMPDEST SWAP1 POP DUP2 DUP2 SUB PUSH1 0x20 DUP4 ADD MSTORE PUSH2 0xA55 DUP2 DUP6 PUSH2 0x9F1 JUMP JUMPDEST SWAP1 POP DUP2 DUP2 SUB PUSH1 0x40 DUP4 ADD MSTORE PUSH2 0xA69 DUP2 DUP5 PUSH2 0x9F1 JUMP JUMPDEST SWAP1 POP SWAP5 SWAP4 POP POP POP POP JUMP JUMPDEST PUSH0 PUSH1 0x20 DUP3 DUP5 SUB SLT ISZERO PUSH2 0xA88 JUMPI PUSH2 0xA87 PUSH2 0x6A0 JUMP JUMPDEST JUMPDEST PUSH0 PUSH2 0xA95 DUP5 DUP3 DUP6 ADD PUSH2 0x6BE JUMP JUMPDEST SWAP2 POP POP SWAP3 SWAP2 POP POP JUMP JUMPDEST PUSH32 0x50726F6F66206861736820646F6573206E6F74206D6174636800000000000000 PUSH0 DUP3 ADD MSTORE POP JUMP JUMPDEST PUSH0 PUSH2 0xAD2 PUSH1 0x19 DUP4 PUSH2 0x9D3 JUMP JUMPDEST SWAP2 POP PUSH2 0xADD DUP3 PUSH2 0xA9E JUMP JUMPDEST PUSH1 0x20 DUP3 ADD SWAP1 POP SWAP2 SWAP1 POP JUMP JUMPDEST PUSH0 PUSH1 0x20 DUP3 ADD SWAP1 POP DUP2 DUP2 SUB PUSH0 DUP4 ADD MSTORE PUSH2 0xAFF DUP2 PUSH2 0xAC6 JUMP JUMPDEST SWAP1 POP SWAP2 SWAP1 POP JUMP JUMPDEST PUSH32 0x496E76616C6964207369676E6174757265000000000000000000000000000000 PUSH0 DUP3 ADD MSTORE POP JUMP JUMPDEST PUSH0 PUSH2 0xB3A PUSH1 0x11 DUP4 PUSH2 0x9D3 JUMP JUMPDEST SWAP2 POP PUSH2 0xB45 DUP3 PUSH2 0xB06 JUMP JUMPDEST PUSH1 0x20 DUP3 ADD SWAP1 POP SWAP2 SWAP1 POP JUMP JUMPDEST PUSH0 PUSH1 0x20 DUP3 ADD SWAP1 POP DUP2 DUP2 SUB PUSH0 DUP4 ADD MSTORE PUSH2 0xB67 DUP2 PUSH2 0xB2E JUMP JUMPDEST SWAP1 POP SWAP2 SWAP1 POP JUMP JUMPDEST PUSH32 0x496E76616C6964207369676E6174757265206C656E6774680000000000000000 PUSH0 DUP3 ADD MSTORE POP JUMP JUMPDEST PUSH0 PUSH2 0xBA2 PUSH1 0x18 DUP4 PUSH2 0x9D3 JUMP JUMPDEST SWAP2 POP PUSH2 0xBAD DUP3 PUSH2 0xB6E JUMP JUMPDEST PUSH1 0x20 DUP3 ADD SWAP1 POP SWAP2 SWAP1 POP JUMP JUMPDEST PUSH0 PUSH1 0x20 DUP3 ADD SWAP1 POP DUP2 DUP2 SUB PUSH0 DUP4 ADD MSTORE PUSH2 0xBCF DUP2 PUSH2 0xB96 JUMP JUMPDEST SWAP1 POP SWAP2 SWAP1 POP JUMP JUMPDEST PUSH32 0x4E487B7100000000000000000000000000000000000000000000000000000000 PUSH0 MSTORE PUSH1 0x22 PUSH1 0x4 MSTORE PUSH1 0x24 PUSH0 REVERT JUMPDEST PUSH0 PUSH1 0x2 DUP3 DIV SWAP1 POP PUSH1 0x1 DUP3 AND DUP1 PUSH2 0xC1A JUMPI PUSH1 0x7F DUP3 AND SWAP2 POP JUMPDEST PUSH1 0x20 DUP3 LT DUP2 SUB PUSH2 0xC2D JUMPI PUSH2 0xC2C PUSH2 0xBD6 JUMP JUMPDEST JUMPDEST POP SWAP2 SWAP1 POP JUMP JUMPDEST PUSH0 DUP2 SWAP1 POP SWAP3 SWAP2 POP POP JUMP JUMPDEST PUSH32 0x19457468657265756D205369676E6564204D6573736167653A0A333200000000 PUSH0 DUP3 ADD MSTORE POP JUMP JUMPDEST PUSH0 PUSH2 0xC71 PUSH1 0x1C DUP4 PUSH2 0xC33 JUMP JUMPDEST SWAP2 POP PUSH2 0xC7C DUP3 PUSH2 0xC3D JUMP JUMPDEST PUSH1 0x1C DUP3 ADD SWAP1 POP SWAP2 SWAP1 POP JUMP JUMPDEST PUSH0 DUP2 SWAP1 POP SWAP2 SWAP1 POP JUMP JUMPDEST PUSH2 0xCA1 PUSH2 0xC9C DUP3 PUSH2 0x666 JUMP JUMPDEST PUSH2 0xC87 JUMP JUMPDEST DUP3 MSTORE POP POP JUMP JUMPDEST PUSH0 PUSH2 0xCB1 DUP3 PUSH2 0xC65 JUMP JUMPDEST SWAP2 POP PUSH2 0xCBD DUP3 DUP5 PUSH2 0xC90 JUMP JUMPDEST PUSH1 0x20 DUP3 ADD SWAP2 POP DUP2 SWAP1 POP SWAP3 SWAP2 POP POP JUMP JUMPDEST PUSH32 0x4E487B7100000000000000000000000000000000000000000000000000000000 PUSH0 MSTORE PUSH1 0x11 PUSH1 0x4 MSTORE PUSH1 0x24 PUSH0 REVERT JUMPDEST PUSH0 PUSH2 0xD03 DUP3 PUSH2 0x94E JUMP JUMPDEST SWAP2 POP PUSH2 0xD0E DUP4 PUSH2 0x94E JUMP JUMPDEST SWAP3 POP DUP3 DUP3 ADD SWAP1 POP PUSH1 0xFF DUP2 GT ISZERO PUSH2 0xD27 JUMPI PUSH2 0xD26 PUSH2 0xCCC JUMP JUMPDEST JUMPDEST SWAP3 SWAP2 POP POP JUMP JUMPDEST PUSH32 0x496E76616C696420762076616C75650000000000000000000000000000000000 PUSH0 DUP3 ADD MSTORE POP JUMP JUMPDEST PUSH0 PUSH2 0xD61 PUSH1 0xF DUP4 PUSH2 0x9D3 JUMP JUMPDEST SWAP2 POP PUSH2 0xD6C DUP3 PUSH2 0xD2D JUMP JUMPDEST PUSH1 0x20 DUP3 ADD SWAP1 POP SWAP2 SWAP1 POP JUMP JUMPDEST PUSH0 PUSH1 0x20 DUP3 ADD SWAP1 POP DUP2 DUP2 SUB PUSH0 DUP4 ADD MSTORE PUSH2 0xD8E DUP2 PUSH2 0xD55 JUMP JUMPDEST SWAP1 POP SWAP2 SWAP1 POP JUMP JUMPDEST PUSH0 PUSH1 0x80 DUP3 ADD SWAP1 POP PUSH2 0xDA8 PUSH0 DUP4 ADD DUP8 PUSH2 0x66F JUMP JUMPDEST PUSH2 0xDB5 PUSH1 0x20 DUP4 ADD DUP7 PUSH2 0x95A JUMP JUMPDEST PUSH2 0xDC2 PUSH1 0x40 DUP4 ADD DUP6 PUSH2 0x66F JUMP JUMPDEST PUSH2 0xDCF PUSH1 0x60 DUP4 ADD DUP5 PUSH2 0x66F JUMP JUMPDEST SWAP6 SWAP5 POP POP POP POP POP JUMP INVALID LOG2 PUSH5 0x6970667358 0x22 SLT KECCAK256 0xB7 CALL LOG3 PUSH24 0x221DF4D84AD14F6711CE04BA9CD58A07B0C709DAA1BFFB3B 0xE6 SWAP6 0xBF 0xEA PUSH5 0x736F6C6343 STOP ADDMOD BYTE STOP CALLER "
				},
				"gasEstimates": {
					"creation": {
						"codeDepositCost": "719600",
						"executionCost": "infinite",
						"totalCost": "infinite"
					},
					"external": {
						"expectedProofHash()": "2426",
						"getEthSignedMessageHash(bytes32)": "infinite",
						"isVerified(address)": "2877",
						"publicKeyHash()": "2470",
						"splitSignature(bytes)": "infinite",
						"users(address)": "infinite",
						"verifySignature(bytes32,bytes,address)": "infinite"
					}
				},
				"methodIdentifiers": {
					"expectedProofHash()": "1478acbb",
					"getEthSignedMessageHash(bytes32)": "fa540801",
					"isVerified(address)": "b9209e33",
					"publicKeyHash()": "5e7e3416",
					"splitSignature(bytes)": "a7bb5803",
					"users(address)": "a87430ba",
					"verifySignature(bytes32,bytes,address)": "31cd4199"
				}
			},
			"storageLayout": {
				"storage": [
					{
						"astId": 104,
						"contract": "contracts/zkp/stark-verifier.sol:VerificationProofStark",
						"label": "users",
						"offset": 0,
						"slot": "0",
						"type": "t_mapping(t_address,t_struct(User)99_storage)"
					},
					{
						"astId": 108,
						"contract": "contracts/zkp/stark-verifier.sol:VerificationProofStark",
						"label": "isVerified",
						"offset": 0,
						"slot": "1",
						"type": "t_mapping(t_address,t_bool)"
					},
					{
						"astId": 110,
						"contract": "contracts/zkp/stark-verifier.sol:VerificationProofStark",
						"label": "expectedProofHash",
						"offset": 0,
						"slot": "2",
						"type": "t_bytes32"
					},
					{
						"astId": 112,
						"contract": "contracts/zkp/stark-verifier.sol:VerificationProofStark",
						"label": "publicKeyHash",
						"offset": 0,
						"slot": "3",
						"type": "t_bytes32"
					}
				],
				"types": {
					"t_address": {
						"encoding": "inplace",
						"label": "address",
						"numberOfBytes": "20"
					},
					"t_bool": {
						"encoding": "inplace",
						"label": "bool",
						"numberOfBytes": "1"
					},
					"t_bytes32": {
						"encoding": "inplace",
						"label": "bytes32",
						"numberOfBytes": "32"
					},
					"t_mapping(t_address,t_bool)": {
						"encoding": "mapping",
						"key": "t_address",
						"label": "mapping(address => bool)",
						"numberOfBytes": "32",
						"value": "t_bool"
					},
					"t_mapping(t_address,t_struct(User)99_storage)": {
						"encoding": "mapping",
						"key": "t_address",
						"label": "mapping(address => struct VerificationProofStark.User)",
						"numberOfBytes": "32",
						"value": "t_struct(User)99_storage"
					},
					"t_string_storage": {
						"encoding": "bytes",
						"label": "string",
						"numberOfBytes": "32"
					},
					"t_struct(User)99_storage": {
						"encoding": "inplace",
						"label": "struct VerificationProofStark.User",
						"members": [
							{
								"astId": 94,
								"contract": "contracts/zkp/stark-verifier.sol:VerificationProofStark",
								"label": "name",
								"offset": 0,
								"slot": "0",
								"type": "t_string_storage"
							},
							{
								"astId": 96,
								"contract": "contracts/zkp/stark-verifier.sol:VerificationProofStark",
								"label": "email",
								"offset": 0,
								"slot": "1",
								"type": "t_string_storage"
							},
							{
								"astId": 98,
								"contract": "contracts/zkp/stark-verifier.sol:VerificationProofStark",
								"label": "country",
								"offset": 0,
								"slot": "2",
								"type": "t_string_storage"
							}
						],
						"numberOfBytes": "96"
					}
				}
			},
			"userdoc": {
				"kind": "user",
				"methods": {},
				"version": 1
			}
		}
	}
}