{
	"data": {
		"bytecode": {
			"linkReferences": {},
			"object": "608060405234801561000f575f80fd5b506040516111f53803806111f5833981810160405281019061003191906100d5565b8060025f6101000a81548173ffffffffffffffffffffffffffffffffffffffff021916908373ffffffffffffffffffffffffffffffffffffffff16021790555050610100565b5f80fd5b5f73ffffffffffffffffffffffffffffffffffffffff82169050919050565b5f6100a48261007b565b9050919050565b6100b48161009a565b81146100be575f80fd5b50565b5f815190506100cf816100ab565b92915050565b5f602082840312156100ea576100e9610077565b5b5f6100f7848285016100c1565b91505092915050565b6110e88061010d5f395ff3fe608060405234801561000f575f80fd5b506004361061004a575f3560e01c80630f2f7ee11461004e578063a87430ba1461006a578063b9209e331461009c578063d637dcfa146100cc575b5f80fd5b61006860048036038101906100639190610820565b6100e8565b005b610084600480360381019061007f91906108a6565b6102a1565b60405161009393929190610931565b60405180910390f35b6100b660048036038101906100b191906108a6565b610458565b6040516100c39190610995565b60405180910390f35b6100e660048036038101906100e19190610a5e565b610475565b005b60015f3373ffffffffffffffffffffffffffffffffffffffff1673ffffffffffffffffffffffffffffffffffffffff1681526020019081526020015f205f9054906101000a900460ff1615610172576040517f08c379a000000000000000000000000000000000000000000000000000000000815260040161016990610b4c565b60405180910390fd5b60025f9054906101000a900473ffffffffffffffffffffffffffffffffffffffff1673ffffffffffffffffffffffffffffffffffffffff1663f6af0311826040518263ffffffff1660e01b81526004016101cc9190610caa565b602060405180830381865afa1580156101e7573d5f803e3d5ffd5b505050506040513d601f19601f8201168201806040525081019061020b9190610cee565b61024a576040517f08c379a000000000000000000000000000000000000000000000000000000000815260040161024190610d63565b60405180910390fd5b6001805f3373ffffffffffffffffffffffffffffffffffffffff1673ffffffffffffffffffffffffffffffffffffffff1681526020019081526020015f205f6101000a81548160ff02191690831515021790555050565b5f602052805f5260405f205f91509050805f0180546102bf90610dae565b80601f01602080910402602001604051908101604052809291908181526020018280546102eb90610dae565b80156103365780601f1061030d57610100808354040283529160200191610336565b820191905f5260205f20905b81548152906001019060200180831161031957829003601f168201915b50505050509080600101805461034b90610dae565b80601f016020809104026020016040519081016040528092919081815260200182805461037790610dae565b80156103c25780601f10610399576101008083540402835291602001916103c2565b820191905f5260205f20905b8154815290600101906020018083116103a557829003601f168201915b5050505050908060020180546103d790610dae565b80601f016020809104026020016040519081016040528092919081815260200182805461040390610dae565b801561044e5780601f106104255761010080835404028352916020019161044e565b820191905f5260205f20905b81548152906001019060200180831161043157829003601f168201915b5050505050905083565b6001602052805f5260405f205f915054906101000a900460ff1681565b60015f3373ffffffffffffffffffffffffffffffffffffffff1673ffffffffffffffffffffffffffffffffffffffff1681526020019081526020015f205f9054906101000a900460ff16156104ff576040517f08c379a00000000000000000000000000000000000000000000000000000000081526004016104f690610e28565b60405180910390fd5b6040518060600160405280848152602001838152602001828152505f803373ffffffffffffffffffffffffffffffffffffffff1673ffffffffffffffffffffffffffffffffffffffff1681526020019081526020015f205f820151815f0190816105699190610fe3565b50602082015181600101908161057f9190610fe3565b5060408201518160020190816105959190610fe3565b50905050505050565b5f604051905090565b5f80fd5b5f80fd5b5f80fd5b5f601f19601f8301169050919050565b7f4e487b71000000000000000000000000000000000000000000000000000000005f52604160045260245ffd5b6105f9826105b3565b810181811067ffffffffffffffff82111715610618576106176105c3565b5b80604052505050565b5f61062a61059e565b905061063682826105f0565b919050565b5f819050919050565b61064d8161063b565b8114610657575f80fd5b50565b5f8135905061066881610644565b92915050565b5f60408284031215610683576106826105af565b5b61068d6040610621565b90505f61069c8482850161065a565b5f8301525060206106af8482850161065a565b60208301525092915050565b5f80fd5b5f67ffffffffffffffff8211156106d9576106d86105c3565b5b602082029050919050565b5f80fd5b5f6106fa6106f5846106bf565b610621565b90508060208402830185811115610714576107136106e4565b5b835b8181101561073d5780610729888261065a565b845260208401935050602081019050610716565b5050509392505050565b5f82601f83011261075b5761075a6106bb565b5b60026107688482856106e8565b91505092915050565b5f60808284031215610786576107856105af565b5b6107906040610621565b90505f61079f84828501610747565b5f8301525060406107b284828501610747565b60208301525092915050565b5f61010082840312156107d4576107d36105af565b5b6107de6060610621565b90505f6107ed8482850161066e565b5f83015250604061080084828501610771565b60208301525060c06108148482850161066e565b60408301525092915050565b5f6101008284031215610836576108356105a7565b5b5f610843848285016107be565b91505092915050565b5f73ffffffffffffffffffffffffffffffffffffffff82169050919050565b5f6108758261084c565b9050919050565b6108858161086b565b811461088f575f80fd5b50565b5f813590506108a08161087c565b92915050565b5f602082840312156108bb576108ba6105a7565b5b5f6108c884828501610892565b91505092915050565b5f81519050919050565b5f82825260208201905092915050565b8281835e5f83830152505050565b5f610903826108d1565b61090d81856108db565b935061091d8185602086016108eb565b610926816105b3565b840191505092915050565b5f6060820190508181035f83015261094981866108f9565b9050818103602083015261095d81856108f9565b9050818103604083015261097181846108f9565b9050949350505050565b5f8115159050919050565b61098f8161097b565b82525050565b5f6020820190506109a85f830184610986565b92915050565b5f80fd5b5f67ffffffffffffffff8211156109cc576109cb6105c3565b5b6109d5826105b3565b9050602081019050919050565b828183375f83830152505050565b5f610a026109fd846109b2565b610621565b905082815260208101848484011115610a1e57610a1d6109ae565b5b610a298482856109e2565b509392505050565b5f82601f830112610a4557610a446106bb565b5b8135610a558482602086016109f0565b91505092915050565b5f805f60608486031215610a7557610a746105a7565b5b5f84013567ffffffffffffffff811115610a9257610a916105ab565b5b610a9e86828701610a31565b935050602084013567ffffffffffffffff811115610abf57610abe6105ab565b5b610acb86828701610a31565b925050604084013567ffffffffffffffff811115610aec57610aeb6105ab565b5b610af886828701610a31565b9150509250925092565b7f416c7265616479207665726966696564000000000000000000000000000000005f82015250565b5f610b366010836108db565b9150610b4182610b02565b602082019050919050565b5f6020820190508181035f830152610b6381610b2a565b9050919050565b610b738161063b565b82525050565b604082015f820151610b8d5f850182610b6a565b506020820151610ba06020850182610b6a565b50505050565b5f60029050919050565b5f81905092915050565b5f819050919050565b5f610bce8383610b6a565b60208301905092915050565b5f602082019050919050565b610bef81610ba6565b610bf98184610bb0565b9250610c0482610bba565b805f5b83811015610c34578151610c1b8782610bc3565b9650610c2683610bda565b925050600181019050610c07565b505050505050565b608082015f820151610c505f850182610be6565b506020820151610c636040850182610be6565b50505050565b61010082015f820151610c7e5f850182610b79565b506020820151610c916040850182610c3c565b506040820151610ca460c0850182610b79565b50505050565b5f61010082019050610cbe5f830184610c69565b92915050565b610ccd8161097b565b8114610cd7575f80fd5b50565b5f81519050610ce881610cc4565b92915050565b5f60208284031215610d0357610d026105a7565b5b5f610d1084828501610cda565b91505092915050565b7f496e76616c69642070726f6f66000000000000000000000000000000000000005f82015250565b5f610d4d600d836108db565b9150610d5882610d19565b602082019050919050565b5f6020820190508181035f830152610d7a81610d41565b9050919050565b7f4e487b71000000000000000000000000000000000000000000000000000000005f52602260045260245ffd5b5f6002820490506001821680610dc557607f821691505b602082108103610dd857610dd7610d81565b5b50919050565b7f5573657220616c726561647920766572696669656400000000000000000000005f82015250565b5f610e126015836108db565b9150610e1d82610dde565b602082019050919050565b5f6020820190508181035f830152610e3f81610e06565b9050919050565b5f819050815f5260205f209050919050565b5f6020601f8301049050919050565b5f82821b905092915050565b5f60088302610ea27fffffffffffffffffffffffffffffffffffffffffffffffffffffffffffffffff82610e67565b610eac8683610e67565b95508019841693508086168417925050509392505050565b5f819050919050565b5f610ee7610ee2610edd8461063b565b610ec4565b61063b565b9050919050565b5f819050919050565b610f0083610ecd565b610f14610f0c82610eee565b848454610e73565b825550505050565b5f90565b610f28610f1c565b610f33818484610ef7565b505050565b5b81811015610f5657610f4b5f82610f20565b600181019050610f39565b5050565b601f821115610f9b57610f6c81610e46565b610f7584610e58565b81016020851015610f84578190505b610f98610f9085610e58565b830182610f38565b50505b505050565b5f82821c905092915050565b5f610fbb5f1984600802610fa0565b1980831691505092915050565b5f610fd38383610fac565b9150826002028217905092915050565b610fec826108d1565b67ffffffffffffffff811115611005576110046105c3565b5b61100f8254610dae565b61101a828285610f5a565b5f60209050601f83116001811461104b575f8415611039578287015190505b6110438582610fc8565b8655506110aa565b601f19841661105986610e46565b5f5b828110156110805784890151825560018201915060208501945060208101905061105b565b8683101561109d5784890151611099601f891682610fac565b8355505b6001600288020188555050505b50505050505056fea2646970667358221220f8a2cbd25b84a59f7c23d1c2ad1677d0ed410b6ae92633fa78b67efaa9f4d6fc64736f6c63430008190033",
			"opcodes": "PUSH1 0x80 PUSH1 0x40 MSTORE CALLVALUE DUP1 ISZERO PUSH2 0xF JUMPI PUSH0 DUP1 REVERT JUMPDEST POP PUSH1 0x40 MLOAD PUSH2 0x11F5 CODESIZE SUB DUP1 PUSH2 0x11F5 DUP4 CODECOPY DUP2 DUP2 ADD PUSH1 0x40 MSTORE DUP2 ADD SWAP1 PUSH2 0x31 SWAP2 SWAP1 PUSH2 0xD5 JUMP JUMPDEST DUP1 PUSH1 0x2 PUSH0 PUSH2 0x100 EXP DUP2 SLOAD DUP2 PUSH20 0xFFFFFFFFFFFFFFFFFFFFFFFFFFFFFFFFFFFFFFFF MUL NOT AND SWAP1 DUP4 PUSH20 0xFFFFFFFFFFFFFFFFFFFFFFFFFFFFFFFFFFFFFFFF AND MUL OR SWAP1 SSTORE POP POP PUSH2 0x100 JUMP JUMPDEST PUSH0 DUP1 REVERT JUMPDEST PUSH0 PUSH20 0xFFFFFFFFFFFFFFFFFFFFFFFFFFFFFFFFFFFFFFFF DUP3 AND SWAP1 POP SWAP2 SWAP1 POP JUMP JUMPDEST PUSH0 PUSH2 0xA4 DUP3 PUSH2 0x7B JUMP JUMPDEST SWAP1 POP SWAP2 SWAP1 POP JUMP JUMPDEST PUSH2 0xB4 DUP2 PUSH2 0x9A JUMP JUMPDEST DUP2 EQ PUSH2 0xBE JUMPI PUSH0 DUP1 REVERT JUMPDEST POP JUMP JUMPDEST PUSH0 DUP2 MLOAD SWAP1 POP PUSH2 0xCF DUP2 PUSH2 0xAB JUMP JUMPDEST SWAP3 SWAP2 POP POP JUMP JUMPDEST PUSH0 PUSH1 0x20 DUP3 DUP5 SUB SLT ISZERO PUSH2 0xEA JUMPI PUSH2 0xE9 PUSH2 0x77 JUMP JUMPDEST JUMPDEST PUSH0 PUSH2 0xF7 DUP5 DUP3 DUP6 ADD PUSH2 0xC1 JUMP JUMPDEST SWAP2 POP POP SWAP3 SWAP2 POP POP JUMP JUMPDEST PUSH2 0x10E8 DUP1 PUSH2 0x10D PUSH0 CODECOPY PUSH0 RETURN INVALID PUSH1 0x80 PUSH1 0x40 MSTORE CALLVALUE DUP1 ISZERO PUSH2 0xF JUMPI PUSH0 DUP1 REVERT JUMPDEST POP PUSH1 0x4 CALLDATASIZE LT PUSH2 0x4A JUMPI PUSH0 CALLDATALOAD PUSH1 0xE0 SHR DUP1 PUSH4 0xF2F7EE1 EQ PUSH2 0x4E JUMPI DUP1 PUSH4 0xA87430BA EQ PUSH2 0x6A JUMPI DUP1 PUSH4 0xB9209E33 EQ PUSH2 0x9C JUMPI DUP1 PUSH4 0xD637DCFA EQ PUSH2 0xCC JUMPI JUMPDEST PUSH0 DUP1 REVERT JUMPDEST PUSH2 0x68 PUSH1 0x4 DUP1 CALLDATASIZE SUB DUP2 ADD SWAP1 PUSH2 0x63 SWAP2 SWAP1 PUSH2 0x820 JUMP JUMPDEST PUSH2 0xE8 JUMP JUMPDEST STOP JUMPDEST PUSH2 0x84 PUSH1 0x4 DUP1 CALLDATASIZE SUB DUP2 ADD SWAP1 PUSH2 0x7F SWAP2 SWAP1 PUSH2 0x8A6 JUMP JUMPDEST PUSH2 0x2A1 JUMP JUMPDEST PUSH1 0x40 MLOAD PUSH2 0x93 SWAP4 SWAP3 SWAP2 SWAP1 PUSH2 0x931 JUMP JUMPDEST PUSH1 0x40 MLOAD DUP1 SWAP2 SUB SWAP1 RETURN JUMPDEST PUSH2 0xB6 PUSH1 0x4 DUP1 CALLDATASIZE SUB DUP2 ADD SWAP1 PUSH2 0xB1 SWAP2 SWAP1 PUSH2 0x8A6 JUMP JUMPDEST PUSH2 0x458 JUMP JUMPDEST PUSH1 0x40 MLOAD PUSH2 0xC3 SWAP2 SWAP1 PUSH2 0x995 JUMP JUMPDEST PUSH1 0x40 MLOAD DUP1 SWAP2 SUB SWAP1 RETURN JUMPDEST PUSH2 0xE6 PUSH1 0x4 DUP1 CALLDATASIZE SUB DUP2 ADD SWAP1 PUSH2 0xE1 SWAP2 SWAP1 PUSH2 0xA5E JUMP JUMPDEST PUSH2 0x475 JUMP JUMPDEST STOP JUMPDEST PUSH1 0x1 PUSH0 CALLER PUSH20 0xFFFFFFFFFFFFFFFFFFFFFFFFFFFFFFFFFFFFFFFF AND PUSH20 0xFFFFFFFFFFFFFFFFFFFFFFFFFFFFFFFFFFFFFFFF AND DUP2 MSTORE PUSH1 0x20 ADD SWAP1 DUP2 MSTORE PUSH1 0x20 ADD PUSH0 KECCAK256 PUSH0 SWAP1 SLOAD SWAP1 PUSH2 0x100 EXP SWAP1 DIV PUSH1 0xFF AND ISZERO PUSH2 0x172 JUMPI PUSH1 0x40 MLOAD PUSH32 0x8C379A000000000000000000000000000000000000000000000000000000000 DUP2 MSTORE PUSH1 0x4 ADD PUSH2 0x169 SWAP1 PUSH2 0xB4C JUMP JUMPDEST PUSH1 0x40 MLOAD DUP1 SWAP2 SUB SWAP1 REVERT JUMPDEST PUSH1 0x2 PUSH0 SWAP1 SLOAD SWAP1 PUSH2 0x100 EXP SWAP1 DIV PUSH20 0xFFFFFFFFFFFFFFFFFFFFFFFFFFFFFFFFFFFFFFFF AND PUSH20 0xFFFFFFFFFFFFFFFFFFFFFFFFFFFFFFFFFFFFFFFF AND PUSH4 0xF6AF0311 DUP3 PUSH1 0x40 MLOAD DUP3 PUSH4 0xFFFFFFFF AND PUSH1 0xE0 SHL DUP2 MSTORE PUSH1 0x4 ADD PUSH2 0x1CC SWAP2 SWAP1 PUSH2 0xCAA JUMP JUMPDEST PUSH1 0x20 PUSH1 0x40 MLOAD DUP1 DUP4 SUB DUP2 DUP7 GAS STATICCALL ISZERO DUP1 ISZERO PUSH2 0x1E7 JUMPI RETURNDATASIZE PUSH0 DUP1 RETURNDATACOPY RETURNDATASIZE PUSH0 REVERT JUMPDEST POP POP POP POP PUSH1 0x40 MLOAD RETURNDATASIZE PUSH1 0x1F NOT PUSH1 0x1F DUP3 ADD AND DUP3 ADD DUP1 PUSH1 0x40 MSTORE POP DUP2 ADD SWAP1 PUSH2 0x20B SWAP2 SWAP1 PUSH2 0xCEE JUMP JUMPDEST PUSH2 0x24A JUMPI PUSH1 0x40 MLOAD PUSH32 0x8C379A000000000000000000000000000000000000000000000000000000000 DUP2 MSTORE PUSH1 0x4 ADD PUSH2 0x241 SWAP1 PUSH2 0xD63 JUMP JUMPDEST PUSH1 0x40 MLOAD DUP1 SWAP2 SUB SWAP1 REVERT JUMPDEST PUSH1 0x1 DUP1 PUSH0 CALLER PUSH20 0xFFFFFFFFFFFFFFFFFFFFFFFFFFFFFFFFFFFFFFFF AND PUSH20 0xFFFFFFFFFFFFFFFFFFFFFFFFFFFFFFFFFFFFFFFF AND DUP2 MSTORE PUSH1 0x20 ADD SWAP1 DUP2 MSTORE PUSH1 0x20 ADD PUSH0 KECCAK256 PUSH0 PUSH2 0x100 EXP DUP2 SLOAD DUP2 PUSH1 0xFF MUL NOT AND SWAP1 DUP4 ISZERO ISZERO MUL OR SWAP1 SSTORE POP POP JUMP JUMPDEST PUSH0 PUSH1 0x20 MSTORE DUP1 PUSH0 MSTORE PUSH1 0x40 PUSH0 KECCAK256 PUSH0 SWAP2 POP SWAP1 POP DUP1 PUSH0 ADD DUP1 SLOAD PUSH2 0x2BF SWAP1 PUSH2 0xDAE JUMP JUMPDEST DUP1 PUSH1 0x1F ADD PUSH1 0x20 DUP1 SWAP2 DIV MUL PUSH1 0x20 ADD PUSH1 0x40 MLOAD SWAP1 DUP2 ADD PUSH1 0x40 MSTORE DUP1 SWAP3 SWAP2 SWAP1 DUP2 DUP2 MSTORE PUSH1 0x20 ADD DUP3 DUP1 SLOAD PUSH2 0x2EB SWAP1 PUSH2 0xDAE JUMP JUMPDEST DUP1 ISZERO PUSH2 0x336 JUMPI DUP1 PUSH1 0x1F LT PUSH2 0x30D JUMPI PUSH2 0x100 DUP1 DUP4 SLOAD DIV MUL DUP4 MSTORE SWAP2 PUSH1 0x20 ADD SWAP2 PUSH2 0x336 JUMP JUMPDEST DUP3 ADD SWAP2 SWAP1 PUSH0 MSTORE PUSH1 0x20 PUSH0 KECCAK256 SWAP1 JUMPDEST DUP2 SLOAD DUP2 MSTORE SWAP1 PUSH1 0x1 ADD SWAP1 PUSH1 0x20 ADD DUP1 DUP4 GT PUSH2 0x319 JUMPI DUP3 SWAP1 SUB PUSH1 0x1F AND DUP3 ADD SWAP2 JUMPDEST POP POP POP POP POP SWAP1 DUP1 PUSH1 0x1 ADD DUP1 SLOAD PUSH2 0x34B SWAP1 PUSH2 0xDAE JUMP JUMPDEST DUP1 PUSH1 0x1F ADD PUSH1 0x20 DUP1 SWAP2 DIV MUL PUSH1 0x20 ADD PUSH1 0x40 MLOAD SWAP1 DUP2 ADD PUSH1 0x40 MSTORE DUP1 SWAP3 SWAP2 SWAP1 DUP2 DUP2 MSTORE PUSH1 0x20 ADD DUP3 DUP1 SLOAD PUSH2 0x377 SWAP1 PUSH2 0xDAE JUMP JUMPDEST DUP1 ISZERO PUSH2 0x3C2 JUMPI DUP1 PUSH1 0x1F LT PUSH2 0x399 JUMPI PUSH2 0x100 DUP1 DUP4 SLOAD DIV MUL DUP4 MSTORE SWAP2 PUSH1 0x20 ADD SWAP2 PUSH2 0x3C2 JUMP JUMPDEST DUP3 ADD SWAP2 SWAP1 PUSH0 MSTORE PUSH1 0x20 PUSH0 KECCAK256 SWAP1 JUMPDEST DUP2 SLOAD DUP2 MSTORE SWAP1 PUSH1 0x1 ADD SWAP1 PUSH1 0x20 ADD DUP1 DUP4 GT PUSH2 0x3A5 JUMPI DUP3 SWAP1 SUB PUSH1 0x1F AND DUP3 ADD SWAP2 JUMPDEST POP POP POP POP POP SWAP1 DUP1 PUSH1 0x2 ADD DUP1 SLOAD PUSH2 0x3D7 SWAP1 PUSH2 0xDAE JUMP JUMPDEST DUP1 PUSH1 0x1F ADD PUSH1 0x20 DUP1 SWAP2 DIV MUL PUSH1 0x20 ADD PUSH1 0x40 MLOAD SWAP1 DUP2 ADD PUSH1 0x40 MSTORE DUP1 SWAP3 SWAP2 SWAP1 DUP2 DUP2 MSTORE PUSH1 0x20 ADD DUP3 DUP1 SLOAD PUSH2 0x403 SWAP1 PUSH2 0xDAE JUMP JUMPDEST DUP1 ISZERO PUSH2 0x44E JUMPI DUP1 PUSH1 0x1F LT PUSH2 0x425 JUMPI PUSH2 0x100 DUP1 DUP4 SLOAD DIV MUL DUP4 MSTORE SWAP2 PUSH1 0x20 ADD SWAP2 PUSH2 0x44E JUMP JUMPDEST DUP3 ADD SWAP2 SWAP1 PUSH0 MSTORE PUSH1 0x20 PUSH0 KECCAK256 SWAP1 JUMPDEST DUP2 SLOAD DUP2 MSTORE SWAP1 PUSH1 0x1 ADD SWAP1 PUSH1 0x20 ADD DUP1 DUP4 GT PUSH2 0x431 JUMPI DUP3 SWAP1 SUB PUSH1 0x1F AND DUP3 ADD SWAP2 JUMPDEST POP POP POP POP POP SWAP1 POP DUP4 JUMP JUMPDEST PUSH1 0x1 PUSH1 0x20 MSTORE DUP1 PUSH0 MSTORE PUSH1 0x40 PUSH0 KECCAK256 PUSH0 SWAP2 POP SLOAD SWAP1 PUSH2 0x100 EXP SWAP1 DIV PUSH1 0xFF AND DUP2 JUMP JUMPDEST PUSH1 0x1 PUSH0 CALLER PUSH20 0xFFFFFFFFFFFFFFFFFFFFFFFFFFFFFFFFFFFFFFFF AND PUSH20 0xFFFFFFFFFFFFFFFFFFFFFFFFFFFFFFFFFFFFFFFF AND DUP2 MSTORE PUSH1 0x20 ADD SWAP1 DUP2 MSTORE PUSH1 0x20 ADD PUSH0 KECCAK256 PUSH0 SWAP1 SLOAD SWAP1 PUSH2 0x100 EXP SWAP1 DIV PUSH1 0xFF AND ISZERO PUSH2 0x4FF JUMPI PUSH1 0x40 MLOAD PUSH32 0x8C379A000000000000000000000000000000000000000000000000000000000 DUP2 MSTORE PUSH1 0x4 ADD PUSH2 0x4F6 SWAP1 PUSH2 0xE28 JUMP JUMPDEST PUSH1 0x40 MLOAD DUP1 SWAP2 SUB SWAP1 REVERT JUMPDEST PUSH1 0x40 MLOAD DUP1 PUSH1 0x60 ADD PUSH1 0x40 MSTORE DUP1 DUP5 DUP2 MSTORE PUSH1 0x20 ADD DUP4 DUP2 MSTORE PUSH1 0x20 ADD DUP3 DUP2 MSTORE POP PUSH0 DUP1 CALLER PUSH20 0xFFFFFFFFFFFFFFFFFFFFFFFFFFFFFFFFFFFFFFFF AND PUSH20 0xFFFFFFFFFFFFFFFFFFFFFFFFFFFFFFFFFFFFFFFF AND DUP2 MSTORE PUSH1 0x20 ADD SWAP1 DUP2 MSTORE PUSH1 0x20 ADD PUSH0 KECCAK256 PUSH0 DUP3 ADD MLOAD DUP2 PUSH0 ADD SWAP1 DUP2 PUSH2 0x569 SWAP2 SWAP1 PUSH2 0xFE3 JUMP JUMPDEST POP PUSH1 0x20 DUP3 ADD MLOAD DUP2 PUSH1 0x1 ADD SWAP1 DUP2 PUSH2 0x57F SWAP2 SWAP1 PUSH2 0xFE3 JUMP JUMPDEST POP PUSH1 0x40 DUP3 ADD MLOAD DUP2 PUSH1 0x2 ADD SWAP1 DUP2 PUSH2 0x595 SWAP2 SWAP1 PUSH2 0xFE3 JUMP JUMPDEST POP SWAP1 POP POP POP POP POP JUMP JUMPDEST PUSH0 PUSH1 0x40 MLOAD SWAP1 POP SWAP1 JUMP JUMPDEST PUSH0 DUP1 REVERT JUMPDEST PUSH0 DUP1 REVERT JUMPDEST PUSH0 DUP1 REVERT JUMPDEST PUSH0 PUSH1 0x1F NOT PUSH1 0x1F DUP4 ADD AND SWAP1 POP SWAP2 SWAP1 POP JUMP JUMPDEST PUSH32 0x4E487B7100000000000000000000000000000000000000000000000000000000 PUSH0 MSTORE PUSH1 0x41 PUSH1 0x4 MSTORE PUSH1 0x24 PUSH0 REVERT JUMPDEST PUSH2 0x5F9 DUP3 PUSH2 0x5B3 JUMP JUMPDEST DUP2 ADD DUP2 DUP2 LT PUSH8 0xFFFFFFFFFFFFFFFF DUP3 GT OR ISZERO PUSH2 0x618 JUMPI PUSH2 0x617 PUSH2 0x5C3 JUMP JUMPDEST JUMPDEST DUP1 PUSH1 0x40 MSTORE POP POP POP JUMP JUMPDEST PUSH0 PUSH2 0x62A PUSH2 0x59E JUMP JUMPDEST SWAP1 POP PUSH2 0x636 DUP3 DUP3 PUSH2 0x5F0 JUMP JUMPDEST SWAP2 SWAP1 POP JUMP JUMPDEST PUSH0 DUP2 SWAP1 POP SWAP2 SWAP1 POP JUMP JUMPDEST PUSH2 0x64D DUP2 PUSH2 0x63B JUMP JUMPDEST DUP2 EQ PUSH2 0x657 JUMPI PUSH0 DUP1 REVERT JUMPDEST POP JUMP JUMPDEST PUSH0 DUP2 CALLDATALOAD SWAP1 POP PUSH2 0x668 DUP2 PUSH2 0x644 JUMP JUMPDEST SWAP3 SWAP2 POP POP JUMP JUMPDEST PUSH0 PUSH1 0x40 DUP3 DUP5 SUB SLT ISZERO PUSH2 0x683 JUMPI PUSH2 0x682 PUSH2 0x5AF JUMP JUMPDEST JUMPDEST PUSH2 0x68D PUSH1 0x40 PUSH2 0x621 JUMP JUMPDEST SWAP1 POP PUSH0 PUSH2 0x69C DUP5 DUP3 DUP6 ADD PUSH2 0x65A JUMP JUMPDEST PUSH0 DUP4 ADD MSTORE POP PUSH1 0x20 PUSH2 0x6AF DUP5 DUP3 DUP6 ADD PUSH2 0x65A JUMP JUMPDEST PUSH1 0x20 DUP4 ADD MSTORE POP SWAP3 SWAP2 POP POP JUMP JUMPDEST PUSH0 DUP1 REVERT JUMPDEST PUSH0 PUSH8 0xFFFFFFFFFFFFFFFF DUP3 GT ISZERO PUSH2 0x6D9 JUMPI PUSH2 0x6D8 PUSH2 0x5C3 JUMP JUMPDEST JUMPDEST PUSH1 0x20 DUP3 MUL SWAP1 POP SWAP2 SWAP1 POP JUMP JUMPDEST PUSH0 DUP1 REVERT JUMPDEST PUSH0 PUSH2 0x6FA PUSH2 0x6F5 DUP5 PUSH2 0x6BF JUMP JUMPDEST PUSH2 0x621 JUMP JUMPDEST SWAP1 POP DUP1 PUSH1 0x20 DUP5 MUL DUP4 ADD DUP6 DUP2 GT ISZERO PUSH2 0x714 JUMPI PUSH2 0x713 PUSH2 0x6E4 JUMP JUMPDEST JUMPDEST DUP4 JUMPDEST DUP2 DUP2 LT ISZERO PUSH2 0x73D JUMPI DUP1 PUSH2 0x729 DUP9 DUP3 PUSH2 0x65A JUMP JUMPDEST DUP5 MSTORE PUSH1 0x20 DUP5 ADD SWAP4 POP POP PUSH1 0x20 DUP2 ADD SWAP1 POP PUSH2 0x716 JUMP JUMPDEST POP POP POP SWAP4 SWAP3 POP POP POP JUMP JUMPDEST PUSH0 DUP3 PUSH1 0x1F DUP4 ADD SLT PUSH2 0x75B JUMPI PUSH2 0x75A PUSH2 0x6BB JUMP JUMPDEST JUMPDEST PUSH1 0x2 PUSH2 0x768 DUP5 DUP3 DUP6 PUSH2 0x6E8 JUMP JUMPDEST SWAP2 POP POP SWAP3 SWAP2 POP POP JUMP JUMPDEST PUSH0 PUSH1 0x80 DUP3 DUP5 SUB SLT ISZERO PUSH2 0x786 JUMPI PUSH2 0x785 PUSH2 0x5AF JUMP JUMPDEST JUMPDEST PUSH2 0x790 PUSH1 0x40 PUSH2 0x621 JUMP JUMPDEST SWAP1 POP PUSH0 PUSH2 0x79F DUP5 DUP3 DUP6 ADD PUSH2 0x747 JUMP JUMPDEST PUSH0 DUP4 ADD MSTORE POP PUSH1 0x40 PUSH2 0x7B2 DUP5 DUP3 DUP6 ADD PUSH2 0x747 JUMP JUMPDEST PUSH1 0x20 DUP4 ADD MSTORE POP SWAP3 SWAP2 POP POP JUMP JUMPDEST PUSH0 PUSH2 0x100 DUP3 DUP5 SUB SLT ISZERO PUSH2 0x7D4 JUMPI PUSH2 0x7D3 PUSH2 0x5AF JUMP JUMPDEST JUMPDEST PUSH2 0x7DE PUSH1 0x60 PUSH2 0x621 JUMP JUMPDEST SWAP1 POP PUSH0 PUSH2 0x7ED DUP5 DUP3 DUP6 ADD PUSH2 0x66E JUMP JUMPDEST PUSH0 DUP4 ADD MSTORE POP PUSH1 0x40 PUSH2 0x800 DUP5 DUP3 DUP6 ADD PUSH2 0x771 JUMP JUMPDEST PUSH1 0x20 DUP4 ADD MSTORE POP PUSH1 0xC0 PUSH2 0x814 DUP5 DUP3 DUP6 ADD PUSH2 0x66E JUMP JUMPDEST PUSH1 0x40 DUP4 ADD MSTORE POP SWAP3 SWAP2 POP POP JUMP JUMPDEST PUSH0 PUSH2 0x100 DUP3 DUP5 SUB SLT ISZERO PUSH2 0x836 JUMPI PUSH2 0x835 PUSH2 0x5A7 JUMP JUMPDEST JUMPDEST PUSH0 PUSH2 0x843 DUP5 DUP3 DUP6 ADD PUSH2 0x7BE JUMP JUMPDEST SWAP2 POP POP SWAP3 SWAP2 POP POP JUMP JUMPDEST PUSH0 PUSH20 0xFFFFFFFFFFFFFFFFFFFFFFFFFFFFFFFFFFFFFFFF DUP3 AND SWAP1 POP SWAP2 SWAP1 POP JUMP JUMPDEST PUSH0 PUSH2 0x875 DUP3 PUSH2 0x84C JUMP JUMPDEST SWAP1 POP SWAP2 SWAP1 POP JUMP JUMPDEST PUSH2 0x885 DUP2 PUSH2 0x86B JUMP JUMPDEST DUP2 EQ PUSH2 0x88F JUMPI PUSH0 DUP1 REVERT JUMPDEST POP JUMP JUMPDEST PUSH0 DUP2 CALLDATALOAD SWAP1 POP PUSH2 0x8A0 DUP2 PUSH2 0x87C JUMP JUMPDEST SWAP3 SWAP2 POP POP JUMP JUMPDEST PUSH0 PUSH1 0x20 DUP3 DUP5 SUB SLT ISZERO PUSH2 0x8BB JUMPI PUSH2 0x8BA PUSH2 0x5A7 JUMP JUMPDEST JUMPDEST PUSH0 PUSH2 0x8C8 DUP5 DUP3 DUP6 ADD PUSH2 0x892 JUMP JUMPDEST SWAP2 POP POP SWAP3 SWAP2 POP POP JUMP JUMPDEST PUSH0 DUP2 MLOAD SWAP1 POP SWAP2 SWAP1 POP JUMP JUMPDEST PUSH0 DUP3 DUP3 MSTORE PUSH1 0x20 DUP3 ADD SWAP1 POP SWAP3 SWAP2 POP POP JUMP JUMPDEST DUP3 DUP2 DUP4 MCOPY PUSH0 DUP4 DUP4 ADD MSTORE POP POP POP JUMP JUMPDEST PUSH0 PUSH2 0x903 DUP3 PUSH2 0x8D1 JUMP JUMPDEST PUSH2 0x90D DUP2 DUP6 PUSH2 0x8DB JUMP JUMPDEST SWAP4 POP PUSH2 0x91D DUP2 DUP6 PUSH1 0x20 DUP7 ADD PUSH2 0x8EB JUMP JUMPDEST PUSH2 0x926 DUP2 PUSH2 0x5B3 JUMP JUMPDEST DUP5 ADD SWAP2 POP POP SWAP3 SWAP2 POP POP JUMP JUMPDEST PUSH0 PUSH1 0x60 DUP3 ADD SWAP1 POP DUP2 DUP2 SUB PUSH0 DUP4 ADD MSTORE PUSH2 0x949 DUP2 DUP7 PUSH2 0x8F9 JUMP JUMPDEST SWAP1 POP DUP2 DUP2 SUB PUSH1 0x20 DUP4 ADD MSTORE PUSH2 0x95D DUP2 DUP6 PUSH2 0x8F9 JUMP JUMPDEST SWAP1 POP DUP2 DUP2 SUB PUSH1 0x40 DUP4 ADD MSTORE PUSH2 0x971 DUP2 DUP5 PUSH2 0x8F9 JUMP JUMPDEST SWAP1 POP SWAP5 SWAP4 POP POP POP POP JUMP JUMPDEST PUSH0 DUP2 ISZERO ISZERO SWAP1 POP SWAP2 SWAP1 POP JUMP JUMPDEST PUSH2 0x98F DUP2 PUSH2 0x97B JUMP JUMPDEST DUP3 MSTORE POP POP JUMP JUMPDEST PUSH0 PUSH1 0x20 DUP3 ADD SWAP1 POP PUSH2 0x9A8 PUSH0 DUP4 ADD DUP5 PUSH2 0x986 JUMP JUMPDEST SWAP3 SWAP2 POP POP JUMP JUMPDEST PUSH0 DUP1 REVERT JUMPDEST PUSH0 PUSH8 0xFFFFFFFFFFFFFFFF DUP3 GT ISZERO PUSH2 0x9CC JUMPI PUSH2 0x9CB PUSH2 0x5C3 JUMP JUMPDEST JUMPDEST PUSH2 0x9D5 DUP3 PUSH2 0x5B3 JUMP JUMPDEST SWAP1 POP PUSH1 0x20 DUP2 ADD SWAP1 POP SWAP2 SWAP1 POP JUMP JUMPDEST DUP3 DUP2 DUP4 CALLDATACOPY PUSH0 DUP4 DUP4 ADD MSTORE POP POP POP JUMP JUMPDEST PUSH0 PUSH2 0xA02 PUSH2 0x9FD DUP5 PUSH2 0x9B2 JUMP JUMPDEST PUSH2 0x621 JUMP JUMPDEST SWAP1 POP DUP3 DUP2 MSTORE PUSH1 0x20 DUP2 ADD DUP5 DUP5 DUP5 ADD GT ISZERO PUSH2 0xA1E JUMPI PUSH2 0xA1D PUSH2 0x9AE JUMP JUMPDEST JUMPDEST PUSH2 0xA29 DUP5 DUP3 DUP6 PUSH2 0x9E2 JUMP JUMPDEST POP SWAP4 SWAP3 POP POP POP JUMP JUMPDEST PUSH0 DUP3 PUSH1 0x1F DUP4 ADD SLT PUSH2 0xA45 JUMPI PUSH2 0xA44 PUSH2 0x6BB JUMP JUMPDEST JUMPDEST DUP2 CALLDATALOAD PUSH2 0xA55 DUP5 DUP3 PUSH1 0x20 DUP7 ADD PUSH2 0x9F0 JUMP JUMPDEST SWAP2 POP POP SWAP3 SWAP2 POP POP JUMP JUMPDEST PUSH0 DUP1 PUSH0 PUSH1 0x60 DUP5 DUP7 SUB SLT ISZERO PUSH2 0xA75 JUMPI PUSH2 0xA74 PUSH2 0x5A7 JUMP JUMPDEST JUMPDEST PUSH0 DUP5 ADD CALLDATALOAD PUSH8 0xFFFFFFFFFFFFFFFF DUP2 GT ISZERO PUSH2 0xA92 JUMPI PUSH2 0xA91 PUSH2 0x5AB JUMP JUMPDEST JUMPDEST PUSH2 0xA9E DUP7 DUP3 DUP8 ADD PUSH2 0xA31 JUMP JUMPDEST SWAP4 POP POP PUSH1 0x20 DUP5 ADD CALLDATALOAD PUSH8 0xFFFFFFFFFFFFFFFF DUP2 GT ISZERO PUSH2 0xABF JUMPI PUSH2 0xABE PUSH2 0x5AB JUMP JUMPDEST JUMPDEST PUSH2 0xACB DUP7 DUP3 DUP8 ADD PUSH2 0xA31 JUMP JUMPDEST SWAP3 POP POP PUSH1 0x40 DUP5 ADD CALLDATALOAD PUSH8 0xFFFFFFFFFFFFFFFF DUP2 GT ISZERO PUSH2 0xAEC JUMPI PUSH2 0xAEB PUSH2 0x5AB JUMP JUMPDEST JUMPDEST PUSH2 0xAF8 DUP7 DUP3 DUP8 ADD PUSH2 0xA31 JUMP JUMPDEST SWAP2 POP POP SWAP3 POP SWAP3 POP SWAP3 JUMP JUMPDEST PUSH32 0x416C726561647920766572696669656400000000000000000000000000000000 PUSH0 DUP3 ADD MSTORE POP JUMP JUMPDEST PUSH0 PUSH2 0xB36 PUSH1 0x10 DUP4 PUSH2 0x8DB JUMP JUMPDEST SWAP2 POP PUSH2 0xB41 DUP3 PUSH2 0xB02 JUMP JUMPDEST PUSH1 0x20 DUP3 ADD SWAP1 POP SWAP2 SWAP1 POP JUMP JUMPDEST PUSH0 PUSH1 0x20 DUP3 ADD SWAP1 POP DUP2 DUP2 SUB PUSH0 DUP4 ADD MSTORE PUSH2 0xB63 DUP2 PUSH2 0xB2A JUMP JUMPDEST SWAP1 POP SWAP2 SWAP1 POP JUMP JUMPDEST PUSH2 0xB73 DUP2 PUSH2 0x63B JUMP JUMPDEST DUP3 MSTORE POP POP JUMP JUMPDEST PUSH1 0x40 DUP3 ADD PUSH0 DUP3 ADD MLOAD PUSH2 0xB8D PUSH0 DUP6 ADD DUP3 PUSH2 0xB6A JUMP JUMPDEST POP PUSH1 0x20 DUP3 ADD MLOAD PUSH2 0xBA0 PUSH1 0x20 DUP6 ADD DUP3 PUSH2 0xB6A JUMP JUMPDEST POP POP POP POP JUMP JUMPDEST PUSH0 PUSH1 0x2 SWAP1 POP SWAP2 SWAP1 POP JUMP JUMPDEST PUSH0 DUP2 SWAP1 POP SWAP3 SWAP2 POP POP JUMP JUMPDEST PUSH0 DUP2 SWAP1 POP SWAP2 SWAP1 POP JUMP JUMPDEST PUSH0 PUSH2 0xBCE DUP4 DUP4 PUSH2 0xB6A JUMP JUMPDEST PUSH1 0x20 DUP4 ADD SWAP1 POP SWAP3 SWAP2 POP POP JUMP JUMPDEST PUSH0 PUSH1 0x20 DUP3 ADD SWAP1 POP SWAP2 SWAP1 POP JUMP JUMPDEST PUSH2 0xBEF DUP2 PUSH2 0xBA6 JUMP JUMPDEST PUSH2 0xBF9 DUP2 DUP5 PUSH2 0xBB0 JUMP JUMPDEST SWAP3 POP PUSH2 0xC04 DUP3 PUSH2 0xBBA JUMP JUMPDEST DUP1 PUSH0 JUMPDEST DUP4 DUP2 LT ISZERO PUSH2 0xC34 JUMPI DUP2 MLOAD PUSH2 0xC1B DUP8 DUP3 PUSH2 0xBC3 JUMP JUMPDEST SWAP7 POP PUSH2 0xC26 DUP4 PUSH2 0xBDA JUMP JUMPDEST SWAP3 POP POP PUSH1 0x1 DUP2 ADD SWAP1 POP PUSH2 0xC07 JUMP JUMPDEST POP POP POP POP POP POP JUMP JUMPDEST PUSH1 0x80 DUP3 ADD PUSH0 DUP3 ADD MLOAD PUSH2 0xC50 PUSH0 DUP6 ADD DUP3 PUSH2 0xBE6 JUMP JUMPDEST POP PUSH1 0x20 DUP3 ADD MLOAD PUSH2 0xC63 PUSH1 0x40 DUP6 ADD DUP3 PUSH2 0xBE6 JUMP JUMPDEST POP POP POP POP JUMP JUMPDEST PUSH2 0x100 DUP3 ADD PUSH0 DUP3 ADD MLOAD PUSH2 0xC7E PUSH0 DUP6 ADD DUP3 PUSH2 0xB79 JUMP JUMPDEST POP PUSH1 0x20 DUP3 ADD MLOAD PUSH2 0xC91 PUSH1 0x40 DUP6 ADD DUP3 PUSH2 0xC3C JUMP JUMPDEST POP PUSH1 0x40 DUP3 ADD MLOAD PUSH2 0xCA4 PUSH1 0xC0 DUP6 ADD DUP3 PUSH2 0xB79 JUMP JUMPDEST POP POP POP POP JUMP JUMPDEST PUSH0 PUSH2 0x100 DUP3 ADD SWAP1 POP PUSH2 0xCBE PUSH0 DUP4 ADD DUP5 PUSH2 0xC69 JUMP JUMPDEST SWAP3 SWAP2 POP POP JUMP JUMPDEST PUSH2 0xCCD DUP2 PUSH2 0x97B JUMP JUMPDEST DUP2 EQ PUSH2 0xCD7 JUMPI PUSH0 DUP1 REVERT JUMPDEST POP JUMP JUMPDEST PUSH0 DUP2 MLOAD SWAP1 POP PUSH2 0xCE8 DUP2 PUSH2 0xCC4 JUMP JUMPDEST SWAP3 SWAP2 POP POP JUMP JUMPDEST PUSH0 PUSH1 0x20 DUP3 DUP5 SUB SLT ISZERO PUSH2 0xD03 JUMPI PUSH2 0xD02 PUSH2 0x5A7 JUMP JUMPDEST JUMPDEST PUSH0 PUSH2 0xD10 DUP5 DUP3 DUP6 ADD PUSH2 0xCDA JUMP JUMPDEST SWAP2 POP POP SWAP3 SWAP2 POP POP JUMP JUMPDEST PUSH32 0x496E76616C69642070726F6F6600000000000000000000000000000000000000 PUSH0 DUP3 ADD MSTORE POP JUMP JUMPDEST PUSH0 PUSH2 0xD4D PUSH1 0xD DUP4 PUSH2 0x8DB JUMP JUMPDEST SWAP2 POP PUSH2 0xD58 DUP3 PUSH2 0xD19 JUMP JUMPDEST PUSH1 0x20 DUP3 ADD SWAP1 POP SWAP2 SWAP1 POP JUMP JUMPDEST PUSH0 PUSH1 0x20 DUP3 ADD SWAP1 POP DUP2 DUP2 SUB PUSH0 DUP4 ADD MSTORE PUSH2 0xD7A DUP2 PUSH2 0xD41 JUMP JUMPDEST SWAP1 POP SWAP2 SWAP1 POP JUMP JUMPDEST PUSH32 0x4E487B7100000000000000000000000000000000000000000000000000000000 PUSH0 MSTORE PUSH1 0x22 PUSH1 0x4 MSTORE PUSH1 0x24 PUSH0 REVERT JUMPDEST PUSH0 PUSH1 0x2 DUP3 DIV SWAP1 POP PUSH1 0x1 DUP3 AND DUP1 PUSH2 0xDC5 JUMPI PUSH1 0x7F DUP3 AND SWAP2 POP JUMPDEST PUSH1 0x20 DUP3 LT DUP2 SUB PUSH2 0xDD8 JUMPI PUSH2 0xDD7 PUSH2 0xD81 JUMP JUMPDEST JUMPDEST POP SWAP2 SWAP1 POP JUMP JUMPDEST PUSH32 0x5573657220616C72656164792076657269666965640000000000000000000000 PUSH0 DUP3 ADD MSTORE POP JUMP JUMPDEST PUSH0 PUSH2 0xE12 PUSH1 0x15 DUP4 PUSH2 0x8DB JUMP JUMPDEST SWAP2 POP PUSH2 0xE1D DUP3 PUSH2 0xDDE JUMP JUMPDEST PUSH1 0x20 DUP3 ADD SWAP1 POP SWAP2 SWAP1 POP JUMP JUMPDEST PUSH0 PUSH1 0x20 DUP3 ADD SWAP1 POP DUP2 DUP2 SUB PUSH0 DUP4 ADD MSTORE PUSH2 0xE3F DUP2 PUSH2 0xE06 JUMP JUMPDEST SWAP1 POP SWAP2 SWAP1 POP JUMP JUMPDEST PUSH0 DUP2 SWAP1 POP DUP2 PUSH0 MSTORE PUSH1 0x20 PUSH0 KECCAK256 SWAP1 POP SWAP2 SWAP1 POP JUMP JUMPDEST PUSH0 PUSH1 0x20 PUSH1 0x1F DUP4 ADD DIV SWAP1 POP SWAP2 SWAP1 POP JUMP JUMPDEST PUSH0 DUP3 DUP3 SHL SWAP1 POP SWAP3 SWAP2 POP POP JUMP JUMPDEST PUSH0 PUSH1 0x8 DUP4 MUL PUSH2 0xEA2 PUSH32 0xFFFFFFFFFFFFFFFFFFFFFFFFFFFFFFFFFFFFFFFFFFFFFFFFFFFFFFFFFFFFFFFF DUP3 PUSH2 0xE67 JUMP JUMPDEST PUSH2 0xEAC DUP7 DUP4 PUSH2 0xE67 JUMP JUMPDEST SWAP6 POP DUP1 NOT DUP5 AND SWAP4 POP DUP1 DUP7 AND DUP5 OR SWAP3 POP POP POP SWAP4 SWAP3 POP POP POP JUMP JUMPDEST PUSH0 DUP2 SWAP1 POP SWAP2 SWAP1 POP JUMP JUMPDEST PUSH0 PUSH2 0xEE7 PUSH2 0xEE2 PUSH2 0xEDD DUP5 PUSH2 0x63B JUMP JUMPDEST PUSH2 0xEC4 JUMP JUMPDEST PUSH2 0x63B JUMP JUMPDEST SWAP1 POP SWAP2 SWAP1 POP JUMP JUMPDEST PUSH0 DUP2 SWAP1 POP SWAP2 SWAP1 POP JUMP JUMPDEST PUSH2 0xF00 DUP4 PUSH2 0xECD JUMP JUMPDEST PUSH2 0xF14 PUSH2 0xF0C DUP3 PUSH2 0xEEE JUMP JUMPDEST DUP5 DUP5 SLOAD PUSH2 0xE73 JUMP JUMPDEST DUP3 SSTORE POP POP POP POP JUMP JUMPDEST PUSH0 SWAP1 JUMP JUMPDEST PUSH2 0xF28 PUSH2 0xF1C JUMP JUMPDEST PUSH2 0xF33 DUP2 DUP5 DUP5 PUSH2 0xEF7 JUMP JUMPDEST POP POP POP JUMP JUMPDEST JUMPDEST DUP2 DUP2 LT ISZERO PUSH2 0xF56 JUMPI PUSH2 0xF4B PUSH0 DUP3 PUSH2 0xF20 JUMP JUMPDEST PUSH1 0x1 DUP2 ADD SWAP1 POP PUSH2 0xF39 JUMP JUMPDEST POP POP JUMP JUMPDEST PUSH1 0x1F DUP3 GT ISZERO PUSH2 0xF9B JUMPI PUSH2 0xF6C DUP2 PUSH2 0xE46 JUMP JUMPDEST PUSH2 0xF75 DUP5 PUSH2 0xE58 JUMP JUMPDEST DUP2 ADD PUSH1 0x20 DUP6 LT ISZERO PUSH2 0xF84 JUMPI DUP2 SWAP1 POP JUMPDEST PUSH2 0xF98 PUSH2 0xF90 DUP6 PUSH2 0xE58 JUMP JUMPDEST DUP4 ADD DUP3 PUSH2 0xF38 JUMP JUMPDEST POP POP JUMPDEST POP POP POP JUMP JUMPDEST PUSH0 DUP3 DUP3 SHR SWAP1 POP SWAP3 SWAP2 POP POP JUMP JUMPDEST PUSH0 PUSH2 0xFBB PUSH0 NOT DUP5 PUSH1 0x8 MUL PUSH2 0xFA0 JUMP JUMPDEST NOT DUP1 DUP4 AND SWAP2 POP POP SWAP3 SWAP2 POP POP JUMP JUMPDEST PUSH0 PUSH2 0xFD3 DUP4 DUP4 PUSH2 0xFAC JUMP JUMPDEST SWAP2 POP DUP3 PUSH1 0x2 MUL DUP3 OR SWAP1 POP SWAP3 SWAP2 POP POP JUMP JUMPDEST PUSH2 0xFEC DUP3 PUSH2 0x8D1 JUMP JUMPDEST PUSH8 0xFFFFFFFFFFFFFFFF DUP2 GT ISZERO PUSH2 0x1005 JUMPI PUSH2 0x1004 PUSH2 0x5C3 JUMP JUMPDEST JUMPDEST PUSH2 0x100F DUP3 SLOAD PUSH2 0xDAE JUMP JUMPDEST PUSH2 0x101A DUP3 DUP3 DUP6 PUSH2 0xF5A JUMP JUMPDEST PUSH0 PUSH1 0x20 SWAP1 POP PUSH1 0x1F DUP4 GT PUSH1 0x1 DUP2 EQ PUSH2 0x104B JUMPI PUSH0 DUP5 ISZERO PUSH2 0x1039 JUMPI DUP3 DUP8 ADD MLOAD SWAP1 POP JUMPDEST PUSH2 0x1043 DUP6 DUP3 PUSH2 0xFC8 JUMP JUMPDEST DUP7 SSTORE POP PUSH2 0x10AA JUMP JUMPDEST PUSH1 0x1F NOT DUP5 AND PUSH2 0x1059 DUP7 PUSH2 0xE46 JUMP JUMPDEST PUSH0 JUMPDEST DUP3 DUP2 LT ISZERO PUSH2 0x1080 JUMPI DUP5 DUP10 ADD MLOAD DUP3 SSTORE PUSH1 0x1 DUP3 ADD SWAP2 POP PUSH1 0x20 DUP6 ADD SWAP5 POP PUSH1 0x20 DUP2 ADD SWAP1 POP PUSH2 0x105B JUMP JUMPDEST DUP7 DUP4 LT ISZERO PUSH2 0x109D JUMPI DUP5 DUP10 ADD MLOAD PUSH2 0x1099 PUSH1 0x1F DUP10 AND DUP3 PUSH2 0xFAC JUMP JUMPDEST DUP4 SSTORE POP JUMPDEST PUSH1 0x1 PUSH1 0x2 DUP9 MUL ADD DUP9 SSTORE POP POP POP JUMPDEST POP POP POP POP POP POP JUMP INVALID LOG2 PUSH5 0x6970667358 0x22 SLT KECCAK256 0xF8 LOG2 0xCB 0xD2 JUMPDEST DUP5 0xA5 SWAP16 PUSH29 0x23D1C2AD1677D0ED410B6AE92633FA78B67EFAA9F4D6FC64736F6C6343 STOP ADDMOD NOT STOP CALLER "
		},
		"gasEstimates": {
			"creation": {
				"codeDepositCost": "865600",
				"executionCost": "infinite",
				"totalCost": "infinite"
			},
			"external": {
				"isVerified(address)": "2855",
				"registerUser(string,string,string)": "infinite",
				"users(address)": "infinite",
				"verifyIdentity(((uint256,uint256),(uint256[2],uint256[2]),(uint256,uint256)))": "infinite"
			}
		},
		"methodIdentifiers": {
			"isVerified(address)": "b9209e33",
			"registerUser(string,string,string)": "d637dcfa",
			"users(address)": "a87430ba",
			"verifyIdentity(((uint256,uint256),(uint256[2],uint256[2]),(uint256,uint256)))": "0f2f7ee1"
		}
	},
	"abi": [
		{
			"inputs": [
				{
					"internalType": "address",
					"name": "verifierAddress",
					"type": "address"
				}
			],
			"stateMutability": "nonpayable",
			"type": "constructor"
		},
		{
			"inputs": [
				{
					"internalType": "address",
					"name": "",
					"type": "address"
				}
			],
			"name": "isVerified",
			"outputs": [
				{
					"internalType": "bool",
					"name": "",
					"type": "bool"
				}
			],
			"stateMutability": "view",
			"type": "function"
		},
		{
			"inputs": [
				{
					"internalType": "string",
					"name": "name",
					"type": "string"
				},
				{
					"internalType": "string",
					"name": "email",
					"type": "string"
				},
				{
					"internalType": "string",
					"name": "country",
					"type": "string"
				}
			],
			"name": "registerUser",
			"outputs": [],
			"stateMutability": "nonpayable",
			"type": "function"
		},
		{
			"inputs": [
				{
					"internalType": "address",
					"name": "",
					"type": "address"
				}
			],
			"name": "users",
			"outputs": [
				{
					"internalType": "string",
					"name": "name",
					"type": "string"
				},
				{
					"internalType": "string",
					"name": "email",
					"type": "string"
				},
				{
					"internalType": "string",
					"name": "country",
					"type": "string"
				}
			],
			"stateMutability": "view",
			"type": "function"
		},
		{
			"inputs": [
				{
					"components": [
						{
							"components": [
								{
									"internalType": "uint256",
									"name": "X",
									"type": "uint256"
								},
								{
									"internalType": "uint256",
									"name": "Y",
									"type": "uint256"
								}
							],
							"internalType": "struct Pairing.G1Point",
							"name": "a",
							"type": "tuple"
						},
						{
							"components": [
								{
									"internalType": "uint256[2]",
									"name": "X",
									"type": "uint256[2]"
								},
								{
									"internalType": "uint256[2]",
									"name": "Y",
									"type": "uint256[2]"
								}
							],
							"internalType": "struct Pairing.G2Point",
							"name": "b",
							"type": "tuple"
						},
						{
							"components": [
								{
									"internalType": "uint256",
									"name": "X",
									"type": "uint256"
								},
								{
									"internalType": "uint256",
									"name": "Y",
									"type": "uint256"
								}
							],
							"internalType": "struct Pairing.G1Point",
							"name": "c",
							"type": "tuple"
						}
					],
					"internalType": "struct Verifier.Proof",
					"name": "proof",
					"type": "tuple"
				}
			],
			"name": "verifyIdentity",
			"outputs": [],
			"stateMutability": "nonpayable",
			"type": "function"
		}
	]
}