{
	"data": {
		"bytecode": {
			"linkReferences": {},
			"object": "608060405234801561000f575f80fd5b50604051610c8f380380610c8f833981810160405281019061003191906100d5565b8060025f6101000a81548173ffffffffffffffffffffffffffffffffffffffff021916908373ffffffffffffffffffffffffffffffffffffffff16021790555050610100565b5f80fd5b5f73ffffffffffffffffffffffffffffffffffffffff82169050919050565b5f6100a48261007b565b9050919050565b6100b48161009a565b81146100be575f80fd5b50565b5f815190506100cf816100ab565b92915050565b5f602082840312156100ea576100e9610077565b5b5f6100f7848285016100c1565b91505092915050565b610b828061010d5f395ff3fe608060405234801561000f575f80fd5b506004361061003f575f3560e01c80630f2f7ee114610043578063a87430ba1461005f578063b9209e3314610091575b5f80fd5b61005d600480360381019061005891906106e2565b6100c1565b005b61007960048036038101906100749190610768565b6101ef565b604051610088939291906107f3565b60405180910390f35b6100ab60048036038101906100a69190610768565b6103a6565b6040516100b89190610857565b60405180910390f35b60015f3373ffffffffffffffffffffffffffffffffffffffff1673ffffffffffffffffffffffffffffffffffffffff1681526020019081526020015f205f9054906101000a900460ff161561014b576040517f08c379a0000000000000000000000000000000000000000000000000000000008152600401610142906108ba565b60405180910390fd5b5f610155826103c3565b905080610197576040517f08c379a000000000000000000000000000000000000000000000000000000000815260040161018e90610922565b60405180910390fd5b6001805f3373ffffffffffffffffffffffffffffffffffffffff1673ffffffffffffffffffffffffffffffffffffffff1681526020019081526020015f205f6101000a81548160ff0219169083151502179055505050565b5f602052805f5260405f205f91509050805f01805461020d9061096d565b80601f01602080910402602001604051908101604052809291908181526020018280546102399061096d565b80156102845780601f1061025b57610100808354040283529160200191610284565b820191905f5260205f20905b81548152906001019060200180831161026757829003601f168201915b5050505050908060010180546102999061096d565b80601f01602080910402602001604051908101604052809291908181526020018280546102c59061096d565b80156103105780601f106102e757610100808354040283529160200191610310565b820191905f5260205f20905b8154815290600101906020018083116102f357829003601f168201915b5050505050908060020180546103259061096d565b80601f01602080910402602001604051908101604052809291908181526020018280546103519061096d565b801561039c5780601f106103735761010080835404028352916020019161039c565b820191905f5260205f20905b81548152906001019060200180831161037f57829003601f168201915b5050505050905083565b6001602052805f5260405f205f915054906101000a900460ff1681565b5f60025f9054906101000a900473ffffffffffffffffffffffffffffffffffffffff1673ffffffffffffffffffffffffffffffffffffffff1663f6af0311836040518263ffffffff1660e01b815260040161041e9190610add565b602060405180830381865afa158015610439573d5f803e3d5ffd5b505050506040513d601f19601f8201168201806040525081019061045d9190610b21565b9050919050565b5f604051905090565b5f80fd5b5f80fd5b5f601f19601f8301169050919050565b7f4e487b71000000000000000000000000000000000000000000000000000000005f52604160045260245ffd5b6104bb82610475565b810181811067ffffffffffffffff821117156104da576104d9610485565b5b80604052505050565b5f6104ec610464565b90506104f882826104b2565b919050565b5f819050919050565b61050f816104fd565b8114610519575f80fd5b50565b5f8135905061052a81610506565b92915050565b5f6040828403121561054557610544610471565b5b61054f60406104e3565b90505f61055e8482850161051c565b5f8301525060206105718482850161051c565b60208301525092915050565b5f80fd5b5f67ffffffffffffffff82111561059b5761059a610485565b5b602082029050919050565b5f80fd5b5f6105bc6105b784610581565b6104e3565b905080602084028301858111156105d6576105d56105a6565b5b835b818110156105ff57806105eb888261051c565b8452602084019350506020810190506105d8565b5050509392505050565b5f82601f83011261061d5761061c61057d565b5b600261062a8482856105aa565b91505092915050565b5f6080828403121561064857610647610471565b5b61065260406104e3565b90505f61066184828501610609565b5f83015250604061067484828501610609565b60208301525092915050565b5f610100828403121561069657610695610471565b5b6106a060606104e3565b90505f6106af84828501610530565b5f8301525060406106c284828501610633565b60208301525060c06106d684828501610530565b60408301525092915050565b5f61010082840312156106f8576106f761046d565b5b5f61070584828501610680565b91505092915050565b5f73ffffffffffffffffffffffffffffffffffffffff82169050919050565b5f6107378261070e565b9050919050565b6107478161072d565b8114610751575f80fd5b50565b5f813590506107628161073e565b92915050565b5f6020828403121561077d5761077c61046d565b5b5f61078a84828501610754565b91505092915050565b5f81519050919050565b5f82825260208201905092915050565b8281835e5f83830152505050565b5f6107c582610793565b6107cf818561079d565b93506107df8185602086016107ad565b6107e881610475565b840191505092915050565b5f6060820190508181035f83015261080b81866107bb565b9050818103602083015261081f81856107bb565b9050818103604083015261083381846107bb565b9050949350505050565b5f8115159050919050565b6108518161083d565b82525050565b5f60208201905061086a5f830184610848565b92915050565b7f4164647265737320616c726561647920766572696669656400000000000000005f82015250565b5f6108a460188361079d565b91506108af82610870565b602082019050919050565b5f6020820190508181035f8301526108d181610898565b9050919050565b7f5468652070726f76696465642070726f6f6620697320696e76616c69640000005f82015250565b5f61090c601d8361079d565b9150610917826108d8565b602082019050919050565b5f6020820190508181035f83015261093981610900565b9050919050565b7f4e487b71000000000000000000000000000000000000000000000000000000005f52602260045260245ffd5b5f600282049050600182168061098457607f821691505b60208210810361099757610996610940565b5b50919050565b6109a6816104fd565b82525050565b604082015f8201516109c05f85018261099d565b5060208201516109d3602085018261099d565b50505050565b5f60029050919050565b5f81905092915050565b5f819050919050565b5f610a01838361099d565b60208301905092915050565b5f602082019050919050565b610a22816109d9565b610a2c81846109e3565b9250610a37826109ed565b805f5b83811015610a67578151610a4e87826109f6565b9650610a5983610a0d565b925050600181019050610a3a565b505050505050565b608082015f820151610a835f850182610a19565b506020820151610a966040850182610a19565b50505050565b61010082015f820151610ab15f8501826109ac565b506020820151610ac46040850182610a6f565b506040820151610ad760c08501826109ac565b50505050565b5f61010082019050610af15f830184610a9c565b92915050565b610b008161083d565b8114610b0a575f80fd5b50565b5f81519050610b1b81610af7565b92915050565b5f60208284031215610b3657610b3561046d565b5b5f610b4384828501610b0d565b9150509291505056fea26469706673582212208fc70bd9e31c3f4ee1ed96cbeaedcf0adf6b7ed4f4fed07f882f44bc71fe2d0664736f6c634300081a0033",
			"opcodes": "PUSH1 0x80 PUSH1 0x40 MSTORE CALLVALUE DUP1 ISZERO PUSH2 0xF JUMPI PUSH0 DUP1 REVERT JUMPDEST POP PUSH1 0x40 MLOAD PUSH2 0xC8F CODESIZE SUB DUP1 PUSH2 0xC8F DUP4 CODECOPY DUP2 DUP2 ADD PUSH1 0x40 MSTORE DUP2 ADD SWAP1 PUSH2 0x31 SWAP2 SWAP1 PUSH2 0xD5 JUMP JUMPDEST DUP1 PUSH1 0x2 PUSH0 PUSH2 0x100 EXP DUP2 SLOAD DUP2 PUSH20 0xFFFFFFFFFFFFFFFFFFFFFFFFFFFFFFFFFFFFFFFF MUL NOT AND SWAP1 DUP4 PUSH20 0xFFFFFFFFFFFFFFFFFFFFFFFFFFFFFFFFFFFFFFFF AND MUL OR SWAP1 SSTORE POP POP PUSH2 0x100 JUMP JUMPDEST PUSH0 DUP1 REVERT JUMPDEST PUSH0 PUSH20 0xFFFFFFFFFFFFFFFFFFFFFFFFFFFFFFFFFFFFFFFF DUP3 AND SWAP1 POP SWAP2 SWAP1 POP JUMP JUMPDEST PUSH0 PUSH2 0xA4 DUP3 PUSH2 0x7B JUMP JUMPDEST SWAP1 POP SWAP2 SWAP1 POP JUMP JUMPDEST PUSH2 0xB4 DUP2 PUSH2 0x9A JUMP JUMPDEST DUP2 EQ PUSH2 0xBE JUMPI PUSH0 DUP1 REVERT JUMPDEST POP JUMP JUMPDEST PUSH0 DUP2 MLOAD SWAP1 POP PUSH2 0xCF DUP2 PUSH2 0xAB JUMP JUMPDEST SWAP3 SWAP2 POP POP JUMP JUMPDEST PUSH0 PUSH1 0x20 DUP3 DUP5 SUB SLT ISZERO PUSH2 0xEA JUMPI PUSH2 0xE9 PUSH2 0x77 JUMP JUMPDEST JUMPDEST PUSH0 PUSH2 0xF7 DUP5 DUP3 DUP6 ADD PUSH2 0xC1 JUMP JUMPDEST SWAP2 POP POP SWAP3 SWAP2 POP POP JUMP JUMPDEST PUSH2 0xB82 DUP1 PUSH2 0x10D PUSH0 CODECOPY PUSH0 RETURN INVALID PUSH1 0x80 PUSH1 0x40 MSTORE CALLVALUE DUP1 ISZERO PUSH2 0xF JUMPI PUSH0 DUP1 REVERT JUMPDEST POP PUSH1 0x4 CALLDATASIZE LT PUSH2 0x3F JUMPI PUSH0 CALLDATALOAD PUSH1 0xE0 SHR DUP1 PUSH4 0xF2F7EE1 EQ PUSH2 0x43 JUMPI DUP1 PUSH4 0xA87430BA EQ PUSH2 0x5F JUMPI DUP1 PUSH4 0xB9209E33 EQ PUSH2 0x91 JUMPI JUMPDEST PUSH0 DUP1 REVERT JUMPDEST PUSH2 0x5D PUSH1 0x4 DUP1 CALLDATASIZE SUB DUP2 ADD SWAP1 PUSH2 0x58 SWAP2 SWAP1 PUSH2 0x6E2 JUMP JUMPDEST PUSH2 0xC1 JUMP JUMPDEST STOP JUMPDEST PUSH2 0x79 PUSH1 0x4 DUP1 CALLDATASIZE SUB DUP2 ADD SWAP1 PUSH2 0x74 SWAP2 SWAP1 PUSH2 0x768 JUMP JUMPDEST PUSH2 0x1EF JUMP JUMPDEST PUSH1 0x40 MLOAD PUSH2 0x88 SWAP4 SWAP3 SWAP2 SWAP1 PUSH2 0x7F3 JUMP JUMPDEST PUSH1 0x40 MLOAD DUP1 SWAP2 SUB SWAP1 RETURN JUMPDEST PUSH2 0xAB PUSH1 0x4 DUP1 CALLDATASIZE SUB DUP2 ADD SWAP1 PUSH2 0xA6 SWAP2 SWAP1 PUSH2 0x768 JUMP JUMPDEST PUSH2 0x3A6 JUMP JUMPDEST PUSH1 0x40 MLOAD PUSH2 0xB8 SWAP2 SWAP1 PUSH2 0x857 JUMP JUMPDEST PUSH1 0x40 MLOAD DUP1 SWAP2 SUB SWAP1 RETURN JUMPDEST PUSH1 0x1 PUSH0 CALLER PUSH20 0xFFFFFFFFFFFFFFFFFFFFFFFFFFFFFFFFFFFFFFFF AND PUSH20 0xFFFFFFFFFFFFFFFFFFFFFFFFFFFFFFFFFFFFFFFF AND DUP2 MSTORE PUSH1 0x20 ADD SWAP1 DUP2 MSTORE PUSH1 0x20 ADD PUSH0 KECCAK256 PUSH0 SWAP1 SLOAD SWAP1 PUSH2 0x100 EXP SWAP1 DIV PUSH1 0xFF AND ISZERO PUSH2 0x14B JUMPI PUSH1 0x40 MLOAD PUSH32 0x8C379A000000000000000000000000000000000000000000000000000000000 DUP2 MSTORE PUSH1 0x4 ADD PUSH2 0x142 SWAP1 PUSH2 0x8BA JUMP JUMPDEST PUSH1 0x40 MLOAD DUP1 SWAP2 SUB SWAP1 REVERT JUMPDEST PUSH0 PUSH2 0x155 DUP3 PUSH2 0x3C3 JUMP JUMPDEST SWAP1 POP DUP1 PUSH2 0x197 JUMPI PUSH1 0x40 MLOAD PUSH32 0x8C379A000000000000000000000000000000000000000000000000000000000 DUP2 MSTORE PUSH1 0x4 ADD PUSH2 0x18E SWAP1 PUSH2 0x922 JUMP JUMPDEST PUSH1 0x40 MLOAD DUP1 SWAP2 SUB SWAP1 REVERT JUMPDEST PUSH1 0x1 DUP1 PUSH0 CALLER PUSH20 0xFFFFFFFFFFFFFFFFFFFFFFFFFFFFFFFFFFFFFFFF AND PUSH20 0xFFFFFFFFFFFFFFFFFFFFFFFFFFFFFFFFFFFFFFFF AND DUP2 MSTORE PUSH1 0x20 ADD SWAP1 DUP2 MSTORE PUSH1 0x20 ADD PUSH0 KECCAK256 PUSH0 PUSH2 0x100 EXP DUP2 SLOAD DUP2 PUSH1 0xFF MUL NOT AND SWAP1 DUP4 ISZERO ISZERO MUL OR SWAP1 SSTORE POP POP POP JUMP JUMPDEST PUSH0 PUSH1 0x20 MSTORE DUP1 PUSH0 MSTORE PUSH1 0x40 PUSH0 KECCAK256 PUSH0 SWAP2 POP SWAP1 POP DUP1 PUSH0 ADD DUP1 SLOAD PUSH2 0x20D SWAP1 PUSH2 0x96D JUMP JUMPDEST DUP1 PUSH1 0x1F ADD PUSH1 0x20 DUP1 SWAP2 DIV MUL PUSH1 0x20 ADD PUSH1 0x40 MLOAD SWAP1 DUP2 ADD PUSH1 0x40 MSTORE DUP1 SWAP3 SWAP2 SWAP1 DUP2 DUP2 MSTORE PUSH1 0x20 ADD DUP3 DUP1 SLOAD PUSH2 0x239 SWAP1 PUSH2 0x96D JUMP JUMPDEST DUP1 ISZERO PUSH2 0x284 JUMPI DUP1 PUSH1 0x1F LT PUSH2 0x25B JUMPI PUSH2 0x100 DUP1 DUP4 SLOAD DIV MUL DUP4 MSTORE SWAP2 PUSH1 0x20 ADD SWAP2 PUSH2 0x284 JUMP JUMPDEST DUP3 ADD SWAP2 SWAP1 PUSH0 MSTORE PUSH1 0x20 PUSH0 KECCAK256 SWAP1 JUMPDEST DUP2 SLOAD DUP2 MSTORE SWAP1 PUSH1 0x1 ADD SWAP1 PUSH1 0x20 ADD DUP1 DUP4 GT PUSH2 0x267 JUMPI DUP3 SWAP1 SUB PUSH1 0x1F AND DUP3 ADD SWAP2 JUMPDEST POP POP POP POP POP SWAP1 DUP1 PUSH1 0x1 ADD DUP1 SLOAD PUSH2 0x299 SWAP1 PUSH2 0x96D JUMP JUMPDEST DUP1 PUSH1 0x1F ADD PUSH1 0x20 DUP1 SWAP2 DIV MUL PUSH1 0x20 ADD PUSH1 0x40 MLOAD SWAP1 DUP2 ADD PUSH1 0x40 MSTORE DUP1 SWAP3 SWAP2 SWAP1 DUP2 DUP2 MSTORE PUSH1 0x20 ADD DUP3 DUP1 SLOAD PUSH2 0x2C5 SWAP1 PUSH2 0x96D JUMP JUMPDEST DUP1 ISZERO PUSH2 0x310 JUMPI DUP1 PUSH1 0x1F LT PUSH2 0x2E7 JUMPI PUSH2 0x100 DUP1 DUP4 SLOAD DIV MUL DUP4 MSTORE SWAP2 PUSH1 0x20 ADD SWAP2 PUSH2 0x310 JUMP JUMPDEST DUP3 ADD SWAP2 SWAP1 PUSH0 MSTORE PUSH1 0x20 PUSH0 KECCAK256 SWAP1 JUMPDEST DUP2 SLOAD DUP2 MSTORE SWAP1 PUSH1 0x1 ADD SWAP1 PUSH1 0x20 ADD DUP1 DUP4 GT PUSH2 0x2F3 JUMPI DUP3 SWAP1 SUB PUSH1 0x1F AND DUP3 ADD SWAP2 JUMPDEST POP POP POP POP POP SWAP1 DUP1 PUSH1 0x2 ADD DUP1 SLOAD PUSH2 0x325 SWAP1 PUSH2 0x96D JUMP JUMPDEST DUP1 PUSH1 0x1F ADD PUSH1 0x20 DUP1 SWAP2 DIV MUL PUSH1 0x20 ADD PUSH1 0x40 MLOAD SWAP1 DUP2 ADD PUSH1 0x40 MSTORE DUP1 SWAP3 SWAP2 SWAP1 DUP2 DUP2 MSTORE PUSH1 0x20 ADD DUP3 DUP1 SLOAD PUSH2 0x351 SWAP1 PUSH2 0x96D JUMP JUMPDEST DUP1 ISZERO PUSH2 0x39C JUMPI DUP1 PUSH1 0x1F LT PUSH2 0x373 JUMPI PUSH2 0x100 DUP1 DUP4 SLOAD DIV MUL DUP4 MSTORE SWAP2 PUSH1 0x20 ADD SWAP2 PUSH2 0x39C JUMP JUMPDEST DUP3 ADD SWAP2 SWAP1 PUSH0 MSTORE PUSH1 0x20 PUSH0 KECCAK256 SWAP1 JUMPDEST DUP2 SLOAD DUP2 MSTORE SWAP1 PUSH1 0x1 ADD SWAP1 PUSH1 0x20 ADD DUP1 DUP4 GT PUSH2 0x37F JUMPI DUP3 SWAP1 SUB PUSH1 0x1F AND DUP3 ADD SWAP2 JUMPDEST POP POP POP POP POP SWAP1 POP DUP4 JUMP JUMPDEST PUSH1 0x1 PUSH1 0x20 MSTORE DUP1 PUSH0 MSTORE PUSH1 0x40 PUSH0 KECCAK256 PUSH0 SWAP2 POP SLOAD SWAP1 PUSH2 0x100 EXP SWAP1 DIV PUSH1 0xFF AND DUP2 JUMP JUMPDEST PUSH0 PUSH1 0x2 PUSH0 SWAP1 SLOAD SWAP1 PUSH2 0x100 EXP SWAP1 DIV PUSH20 0xFFFFFFFFFFFFFFFFFFFFFFFFFFFFFFFFFFFFFFFF AND PUSH20 0xFFFFFFFFFFFFFFFFFFFFFFFFFFFFFFFFFFFFFFFF AND PUSH4 0xF6AF0311 DUP4 PUSH1 0x40 MLOAD DUP3 PUSH4 0xFFFFFFFF AND PUSH1 0xE0 SHL DUP2 MSTORE PUSH1 0x4 ADD PUSH2 0x41E SWAP2 SWAP1 PUSH2 0xADD JUMP JUMPDEST PUSH1 0x20 PUSH1 0x40 MLOAD DUP1 DUP4 SUB DUP2 DUP7 GAS STATICCALL ISZERO DUP1 ISZERO PUSH2 0x439 JUMPI RETURNDATASIZE PUSH0 DUP1 RETURNDATACOPY RETURNDATASIZE PUSH0 REVERT JUMPDEST POP POP POP POP PUSH1 0x40 MLOAD RETURNDATASIZE PUSH1 0x1F NOT PUSH1 0x1F DUP3 ADD AND DUP3 ADD DUP1 PUSH1 0x40 MSTORE POP DUP2 ADD SWAP1 PUSH2 0x45D SWAP2 SWAP1 PUSH2 0xB21 JUMP JUMPDEST SWAP1 POP SWAP2 SWAP1 POP JUMP JUMPDEST PUSH0 PUSH1 0x40 MLOAD SWAP1 POP SWAP1 JUMP JUMPDEST PUSH0 DUP1 REVERT JUMPDEST PUSH0 DUP1 REVERT JUMPDEST PUSH0 PUSH1 0x1F NOT PUSH1 0x1F DUP4 ADD AND SWAP1 POP SWAP2 SWAP1 POP JUMP JUMPDEST PUSH32 0x4E487B7100000000000000000000000000000000000000000000000000000000 PUSH0 MSTORE PUSH1 0x41 PUSH1 0x4 MSTORE PUSH1 0x24 PUSH0 REVERT JUMPDEST PUSH2 0x4BB DUP3 PUSH2 0x475 JUMP JUMPDEST DUP2 ADD DUP2 DUP2 LT PUSH8 0xFFFFFFFFFFFFFFFF DUP3 GT OR ISZERO PUSH2 0x4DA JUMPI PUSH2 0x4D9 PUSH2 0x485 JUMP JUMPDEST JUMPDEST DUP1 PUSH1 0x40 MSTORE POP POP POP JUMP JUMPDEST PUSH0 PUSH2 0x4EC PUSH2 0x464 JUMP JUMPDEST SWAP1 POP PUSH2 0x4F8 DUP3 DUP3 PUSH2 0x4B2 JUMP JUMPDEST SWAP2 SWAP1 POP JUMP JUMPDEST PUSH0 DUP2 SWAP1 POP SWAP2 SWAP1 POP JUMP JUMPDEST PUSH2 0x50F DUP2 PUSH2 0x4FD JUMP JUMPDEST DUP2 EQ PUSH2 0x519 JUMPI PUSH0 DUP1 REVERT JUMPDEST POP JUMP JUMPDEST PUSH0 DUP2 CALLDATALOAD SWAP1 POP PUSH2 0x52A DUP2 PUSH2 0x506 JUMP JUMPDEST SWAP3 SWAP2 POP POP JUMP JUMPDEST PUSH0 PUSH1 0x40 DUP3 DUP5 SUB SLT ISZERO PUSH2 0x545 JUMPI PUSH2 0x544 PUSH2 0x471 JUMP JUMPDEST JUMPDEST PUSH2 0x54F PUSH1 0x40 PUSH2 0x4E3 JUMP JUMPDEST SWAP1 POP PUSH0 PUSH2 0x55E DUP5 DUP3 DUP6 ADD PUSH2 0x51C JUMP JUMPDEST PUSH0 DUP4 ADD MSTORE POP PUSH1 0x20 PUSH2 0x571 DUP5 DUP3 DUP6 ADD PUSH2 0x51C JUMP JUMPDEST PUSH1 0x20 DUP4 ADD MSTORE POP SWAP3 SWAP2 POP POP JUMP JUMPDEST PUSH0 DUP1 REVERT JUMPDEST PUSH0 PUSH8 0xFFFFFFFFFFFFFFFF DUP3 GT ISZERO PUSH2 0x59B JUMPI PUSH2 0x59A PUSH2 0x485 JUMP JUMPDEST JUMPDEST PUSH1 0x20 DUP3 MUL SWAP1 POP SWAP2 SWAP1 POP JUMP JUMPDEST PUSH0 DUP1 REVERT JUMPDEST PUSH0 PUSH2 0x5BC PUSH2 0x5B7 DUP5 PUSH2 0x581 JUMP JUMPDEST PUSH2 0x4E3 JUMP JUMPDEST SWAP1 POP DUP1 PUSH1 0x20 DUP5 MUL DUP4 ADD DUP6 DUP2 GT ISZERO PUSH2 0x5D6 JUMPI PUSH2 0x5D5 PUSH2 0x5A6 JUMP JUMPDEST JUMPDEST DUP4 JUMPDEST DUP2 DUP2 LT ISZERO PUSH2 0x5FF JUMPI DUP1 PUSH2 0x5EB DUP9 DUP3 PUSH2 0x51C JUMP JUMPDEST DUP5 MSTORE PUSH1 0x20 DUP5 ADD SWAP4 POP POP PUSH1 0x20 DUP2 ADD SWAP1 POP PUSH2 0x5D8 JUMP JUMPDEST POP POP POP SWAP4 SWAP3 POP POP POP JUMP JUMPDEST PUSH0 DUP3 PUSH1 0x1F DUP4 ADD SLT PUSH2 0x61D JUMPI PUSH2 0x61C PUSH2 0x57D JUMP JUMPDEST JUMPDEST PUSH1 0x2 PUSH2 0x62A DUP5 DUP3 DUP6 PUSH2 0x5AA JUMP JUMPDEST SWAP2 POP POP SWAP3 SWAP2 POP POP JUMP JUMPDEST PUSH0 PUSH1 0x80 DUP3 DUP5 SUB SLT ISZERO PUSH2 0x648 JUMPI PUSH2 0x647 PUSH2 0x471 JUMP JUMPDEST JUMPDEST PUSH2 0x652 PUSH1 0x40 PUSH2 0x4E3 JUMP JUMPDEST SWAP1 POP PUSH0 PUSH2 0x661 DUP5 DUP3 DUP6 ADD PUSH2 0x609 JUMP JUMPDEST PUSH0 DUP4 ADD MSTORE POP PUSH1 0x40 PUSH2 0x674 DUP5 DUP3 DUP6 ADD PUSH2 0x609 JUMP JUMPDEST PUSH1 0x20 DUP4 ADD MSTORE POP SWAP3 SWAP2 POP POP JUMP JUMPDEST PUSH0 PUSH2 0x100 DUP3 DUP5 SUB SLT ISZERO PUSH2 0x696 JUMPI PUSH2 0x695 PUSH2 0x471 JUMP JUMPDEST JUMPDEST PUSH2 0x6A0 PUSH1 0x60 PUSH2 0x4E3 JUMP JUMPDEST SWAP1 POP PUSH0 PUSH2 0x6AF DUP5 DUP3 DUP6 ADD PUSH2 0x530 JUMP JUMPDEST PUSH0 DUP4 ADD MSTORE POP PUSH1 0x40 PUSH2 0x6C2 DUP5 DUP3 DUP6 ADD PUSH2 0x633 JUMP JUMPDEST PUSH1 0x20 DUP4 ADD MSTORE POP PUSH1 0xC0 PUSH2 0x6D6 DUP5 DUP3 DUP6 ADD PUSH2 0x530 JUMP JUMPDEST PUSH1 0x40 DUP4 ADD MSTORE POP SWAP3 SWAP2 POP POP JUMP JUMPDEST PUSH0 PUSH2 0x100 DUP3 DUP5 SUB SLT ISZERO PUSH2 0x6F8 JUMPI PUSH2 0x6F7 PUSH2 0x46D JUMP JUMPDEST JUMPDEST PUSH0 PUSH2 0x705 DUP5 DUP3 DUP6 ADD PUSH2 0x680 JUMP JUMPDEST SWAP2 POP POP SWAP3 SWAP2 POP POP JUMP JUMPDEST PUSH0 PUSH20 0xFFFFFFFFFFFFFFFFFFFFFFFFFFFFFFFFFFFFFFFF DUP3 AND SWAP1 POP SWAP2 SWAP1 POP JUMP JUMPDEST PUSH0 PUSH2 0x737 DUP3 PUSH2 0x70E JUMP JUMPDEST SWAP1 POP SWAP2 SWAP1 POP JUMP JUMPDEST PUSH2 0x747 DUP2 PUSH2 0x72D JUMP JUMPDEST DUP2 EQ PUSH2 0x751 JUMPI PUSH0 DUP1 REVERT JUMPDEST POP JUMP JUMPDEST PUSH0 DUP2 CALLDATALOAD SWAP1 POP PUSH2 0x762 DUP2 PUSH2 0x73E JUMP JUMPDEST SWAP3 SWAP2 POP POP JUMP JUMPDEST PUSH0 PUSH1 0x20 DUP3 DUP5 SUB SLT ISZERO PUSH2 0x77D JUMPI PUSH2 0x77C PUSH2 0x46D JUMP JUMPDEST JUMPDEST PUSH0 PUSH2 0x78A DUP5 DUP3 DUP6 ADD PUSH2 0x754 JUMP JUMPDEST SWAP2 POP POP SWAP3 SWAP2 POP POP JUMP JUMPDEST PUSH0 DUP2 MLOAD SWAP1 POP SWAP2 SWAP1 POP JUMP JUMPDEST PUSH0 DUP3 DUP3 MSTORE PUSH1 0x20 DUP3 ADD SWAP1 POP SWAP3 SWAP2 POP POP JUMP JUMPDEST DUP3 DUP2 DUP4 MCOPY PUSH0 DUP4 DUP4 ADD MSTORE POP POP POP JUMP JUMPDEST PUSH0 PUSH2 0x7C5 DUP3 PUSH2 0x793 JUMP JUMPDEST PUSH2 0x7CF DUP2 DUP6 PUSH2 0x79D JUMP JUMPDEST SWAP4 POP PUSH2 0x7DF DUP2 DUP6 PUSH1 0x20 DUP7 ADD PUSH2 0x7AD JUMP JUMPDEST PUSH2 0x7E8 DUP2 PUSH2 0x475 JUMP JUMPDEST DUP5 ADD SWAP2 POP POP SWAP3 SWAP2 POP POP JUMP JUMPDEST PUSH0 PUSH1 0x60 DUP3 ADD SWAP1 POP DUP2 DUP2 SUB PUSH0 DUP4 ADD MSTORE PUSH2 0x80B DUP2 DUP7 PUSH2 0x7BB JUMP JUMPDEST SWAP1 POP DUP2 DUP2 SUB PUSH1 0x20 DUP4 ADD MSTORE PUSH2 0x81F DUP2 DUP6 PUSH2 0x7BB JUMP JUMPDEST SWAP1 POP DUP2 DUP2 SUB PUSH1 0x40 DUP4 ADD MSTORE PUSH2 0x833 DUP2 DUP5 PUSH2 0x7BB JUMP JUMPDEST SWAP1 POP SWAP5 SWAP4 POP POP POP POP JUMP JUMPDEST PUSH0 DUP2 ISZERO ISZERO SWAP1 POP SWAP2 SWAP1 POP JUMP JUMPDEST PUSH2 0x851 DUP2 PUSH2 0x83D JUMP JUMPDEST DUP3 MSTORE POP POP JUMP JUMPDEST PUSH0 PUSH1 0x20 DUP3 ADD SWAP1 POP PUSH2 0x86A PUSH0 DUP4 ADD DUP5 PUSH2 0x848 JUMP JUMPDEST SWAP3 SWAP2 POP POP JUMP JUMPDEST PUSH32 0x4164647265737320616C72656164792076657269666965640000000000000000 PUSH0 DUP3 ADD MSTORE POP JUMP JUMPDEST PUSH0 PUSH2 0x8A4 PUSH1 0x18 DUP4 PUSH2 0x79D JUMP JUMPDEST SWAP2 POP PUSH2 0x8AF DUP3 PUSH2 0x870 JUMP JUMPDEST PUSH1 0x20 DUP3 ADD SWAP1 POP SWAP2 SWAP1 POP JUMP JUMPDEST PUSH0 PUSH1 0x20 DUP3 ADD SWAP1 POP DUP2 DUP2 SUB PUSH0 DUP4 ADD MSTORE PUSH2 0x8D1 DUP2 PUSH2 0x898 JUMP JUMPDEST SWAP1 POP SWAP2 SWAP1 POP JUMP JUMPDEST PUSH32 0x5468652070726F76696465642070726F6F6620697320696E76616C6964000000 PUSH0 DUP3 ADD MSTORE POP JUMP JUMPDEST PUSH0 PUSH2 0x90C PUSH1 0x1D DUP4 PUSH2 0x79D JUMP JUMPDEST SWAP2 POP PUSH2 0x917 DUP3 PUSH2 0x8D8 JUMP JUMPDEST PUSH1 0x20 DUP3 ADD SWAP1 POP SWAP2 SWAP1 POP JUMP JUMPDEST PUSH0 PUSH1 0x20 DUP3 ADD SWAP1 POP DUP2 DUP2 SUB PUSH0 DUP4 ADD MSTORE PUSH2 0x939 DUP2 PUSH2 0x900 JUMP JUMPDEST SWAP1 POP SWAP2 SWAP1 POP JUMP JUMPDEST PUSH32 0x4E487B7100000000000000000000000000000000000000000000000000000000 PUSH0 MSTORE PUSH1 0x22 PUSH1 0x4 MSTORE PUSH1 0x24 PUSH0 REVERT JUMPDEST PUSH0 PUSH1 0x2 DUP3 DIV SWAP1 POP PUSH1 0x1 DUP3 AND DUP1 PUSH2 0x984 JUMPI PUSH1 0x7F DUP3 AND SWAP2 POP JUMPDEST PUSH1 0x20 DUP3 LT DUP2 SUB PUSH2 0x997 JUMPI PUSH2 0x996 PUSH2 0x940 JUMP JUMPDEST JUMPDEST POP SWAP2 SWAP1 POP JUMP JUMPDEST PUSH2 0x9A6 DUP2 PUSH2 0x4FD JUMP JUMPDEST DUP3 MSTORE POP POP JUMP JUMPDEST PUSH1 0x40 DUP3 ADD PUSH0 DUP3 ADD MLOAD PUSH2 0x9C0 PUSH0 DUP6 ADD DUP3 PUSH2 0x99D JUMP JUMPDEST POP PUSH1 0x20 DUP3 ADD MLOAD PUSH2 0x9D3 PUSH1 0x20 DUP6 ADD DUP3 PUSH2 0x99D JUMP JUMPDEST POP POP POP POP JUMP JUMPDEST PUSH0 PUSH1 0x2 SWAP1 POP SWAP2 SWAP1 POP JUMP JUMPDEST PUSH0 DUP2 SWAP1 POP SWAP3 SWAP2 POP POP JUMP JUMPDEST PUSH0 DUP2 SWAP1 POP SWAP2 SWAP1 POP JUMP JUMPDEST PUSH0 PUSH2 0xA01 DUP4 DUP4 PUSH2 0x99D JUMP JUMPDEST PUSH1 0x20 DUP4 ADD SWAP1 POP SWAP3 SWAP2 POP POP JUMP JUMPDEST PUSH0 PUSH1 0x20 DUP3 ADD SWAP1 POP SWAP2 SWAP1 POP JUMP JUMPDEST PUSH2 0xA22 DUP2 PUSH2 0x9D9 JUMP JUMPDEST PUSH2 0xA2C DUP2 DUP5 PUSH2 0x9E3 JUMP JUMPDEST SWAP3 POP PUSH2 0xA37 DUP3 PUSH2 0x9ED JUMP JUMPDEST DUP1 PUSH0 JUMPDEST DUP4 DUP2 LT ISZERO PUSH2 0xA67 JUMPI DUP2 MLOAD PUSH2 0xA4E DUP8 DUP3 PUSH2 0x9F6 JUMP JUMPDEST SWAP7 POP PUSH2 0xA59 DUP4 PUSH2 0xA0D JUMP JUMPDEST SWAP3 POP POP PUSH1 0x1 DUP2 ADD SWAP1 POP PUSH2 0xA3A JUMP JUMPDEST POP POP POP POP POP POP JUMP JUMPDEST PUSH1 0x80 DUP3 ADD PUSH0 DUP3 ADD MLOAD PUSH2 0xA83 PUSH0 DUP6 ADD DUP3 PUSH2 0xA19 JUMP JUMPDEST POP PUSH1 0x20 DUP3 ADD MLOAD PUSH2 0xA96 PUSH1 0x40 DUP6 ADD DUP3 PUSH2 0xA19 JUMP JUMPDEST POP POP POP POP JUMP JUMPDEST PUSH2 0x100 DUP3 ADD PUSH0 DUP3 ADD MLOAD PUSH2 0xAB1 PUSH0 DUP6 ADD DUP3 PUSH2 0x9AC JUMP JUMPDEST POP PUSH1 0x20 DUP3 ADD MLOAD PUSH2 0xAC4 PUSH1 0x40 DUP6 ADD DUP3 PUSH2 0xA6F JUMP JUMPDEST POP PUSH1 0x40 DUP3 ADD MLOAD PUSH2 0xAD7 PUSH1 0xC0 DUP6 ADD DUP3 PUSH2 0x9AC JUMP JUMPDEST POP POP POP POP JUMP JUMPDEST PUSH0 PUSH2 0x100 DUP3 ADD SWAP1 POP PUSH2 0xAF1 PUSH0 DUP4 ADD DUP5 PUSH2 0xA9C JUMP JUMPDEST SWAP3 SWAP2 POP POP JUMP JUMPDEST PUSH2 0xB00 DUP2 PUSH2 0x83D JUMP JUMPDEST DUP2 EQ PUSH2 0xB0A JUMPI PUSH0 DUP1 REVERT JUMPDEST POP JUMP JUMPDEST PUSH0 DUP2 MLOAD SWAP1 POP PUSH2 0xB1B DUP2 PUSH2 0xAF7 JUMP JUMPDEST SWAP3 SWAP2 POP POP JUMP JUMPDEST PUSH0 PUSH1 0x20 DUP3 DUP5 SUB SLT ISZERO PUSH2 0xB36 JUMPI PUSH2 0xB35 PUSH2 0x46D JUMP JUMPDEST JUMPDEST PUSH0 PUSH2 0xB43 DUP5 DUP3 DUP6 ADD PUSH2 0xB0D JUMP JUMPDEST SWAP2 POP POP SWAP3 SWAP2 POP POP JUMP INVALID LOG2 PUSH5 0x6970667358 0x22 SLT KECCAK256 DUP16 0xC7 SIGNEXTEND 0xD9 0xE3 SHR EXTCODEHASH 0x4E 0xE1 0xED SWAP7 0xCB 0xEA 0xED 0xCF EXP 0xDF PUSH12 0x7ED4F4FED07F882F44BC71FE 0x2D MOD PUSH5 0x736F6C6343 STOP ADDMOD BYTE STOP CALLER "
		},
		"gasEstimates": {
			"creation": {
				"codeDepositCost": "589200",
				"executionCost": "infinite",
				"totalCost": "infinite"
			},
			"external": {
				"isVerified(address)": "2855",
				"users(address)": "infinite",
				"verifyIdentity(((uint256,uint256),(uint256[2],uint256[2]),(uint256,uint256)))": "infinite"
			},
			"internal": {
				"verifyProof(struct Verifier.Proof memory)": "infinite"
			}
		},
		"methodIdentifiers": {
			"isVerified(address)": "b9209e33",
			"users(address)": "a87430ba",
			"verifyIdentity(((uint256,uint256),(uint256[2],uint256[2]),(uint256,uint256)))": "0f2f7ee1"
		}
	},
	"abi": [
		{
			"inputs": [
				{
					"internalType": "address",
					"name": "verifierAddress",
					"type": "address"
				}
			],
			"stateMutability": "nonpayable",
			"type": "constructor"
		},
		{
			"inputs": [
				{
					"internalType": "address",
					"name": "",
					"type": "address"
				}
			],
			"name": "isVerified",
			"outputs": [
				{
					"internalType": "bool",
					"name": "",
					"type": "bool"
				}
			],
			"stateMutability": "view",
			"type": "function"
		},
		{
			"inputs": [
				{
					"internalType": "address",
					"name": "",
					"type": "address"
				}
			],
			"name": "users",
			"outputs": [
				{
					"internalType": "string",
					"name": "name",
					"type": "string"
				},
				{
					"internalType": "string",
					"name": "email",
					"type": "string"
				},
				{
					"internalType": "string",
					"name": "country",
					"type": "string"
				}
			],
			"stateMutability": "view",
			"type": "function"
		},
		{
			"inputs": [
				{
					"components": [
						{
							"components": [
								{
									"internalType": "uint256",
									"name": "X",
									"type": "uint256"
								},
								{
									"internalType": "uint256",
									"name": "Y",
									"type": "uint256"
								}
							],
							"internalType": "struct Pairing.G1Point",
							"name": "a",
							"type": "tuple"
						},
						{
							"components": [
								{
									"internalType": "uint256[2]",
									"name": "X",
									"type": "uint256[2]"
								},
								{
									"internalType": "uint256[2]",
									"name": "Y",
									"type": "uint256[2]"
								}
							],
							"internalType": "struct Pairing.G2Point",
							"name": "b",
							"type": "tuple"
						},
						{
							"components": [
								{
									"internalType": "uint256",
									"name": "X",
									"type": "uint256"
								},
								{
									"internalType": "uint256",
									"name": "Y",
									"type": "uint256"
								}
							],
							"internalType": "struct Pairing.G1Point",
							"name": "c",
							"type": "tuple"
						}
					],
					"internalType": "struct Verifier.Proof",
					"name": "proof",
					"type": "tuple"
				}
			],
			"name": "verifyIdentity",
			"outputs": [],
			"stateMutability": "nonpayable",
			"type": "function"
		}
	]
}