{
	"data": {
		"bytecode": {
			"linkReferences": {},
			"object": "6115cb61004d600b8282823980515f1a6073146041577f4e487b71000000000000000000000000000000000000000000000000000000005f525f60045260245ffd5b305f52607381538281f3fe730000000000000000000000000000000000000000301460806040526004361061004a575f3560e01c806355a3e90f1461004e57806361a931ec1461006c578063b73ab75d1461009f575b5f80fd5b6100566100d2565b60405161006391906112cc565b60405180910390f35b61008660048036038101906100819190611313565b6100f9565b60405161009694939291906113c4565b60405180910390f35b6100b960048036038101906100b49190611407565b6102cd565b6040516100c994939291906113c4565b60405180910390f35b5f7f30644e72e131a029b85045b68181585d97816a916871ca8d3c208c16d87cfd47905090565b5f805f805f8c14801561010b57505f8b145b801561011657505f8a145b801561012157505f89145b15610179575f8814801561013457505f87145b801561013f57505f86145b801561014a57505f85145b6101685761015a888888886103ee565b6101675761016661147e565b5b5b8787878793509350935093506102be565b5f8814801561018757505f87145b801561019257505f86145b801561019d57505f85145b156101cc576101ae8c8c8c8c6103ee565b6101bb576101ba61147e565b5b8b8b8b8b93509350935093506102be565b6101d88c8c8c8c6103ee565b6101e5576101e461147e565b5b6101f1888888886103ee565b6101fe576101fd61147e565b5b5f6102158d8d8d8d60015f8f8f8f8f60015f6104b2565b90506102b4815f6006811061022d5761022c6114ab565b5b602002015182600160068110610246576102456114ab565b5b60200201518360026006811061025f5761025e6114ab565b5b602002015184600360068110610278576102776114ab565b5b602002015185600460068110610291576102906114ab565b5b6020020151866005600681106102aa576102a96114ab565b5b6020020151610bbe565b9450945094509450505b98509850985098945050505050565b5f805f805f600190505f891480156102e457505f88145b80156102ef57505f87145b80156102fa57505f86145b1561030f5760019850600196505f9050610329565b61031b898989896103ee565b6103285761032761147e565b5b5b5f6103398b8b8b8b8b875f610c0d565b90506103d8815f60068110610351576103506114ab565b5b60200201518260016006811061036a576103696114ab565b5b602002015183600260068110610383576103826114ab565b5b60200201518460036006811061039c5761039b6114ab565b5b6020020151856004600681106103b5576103b46114ab565b5b6020020151866005600681106103ce576103cd6114ab565b5b6020020151610bbe565b9550955095509550505095509550955095915050565b5f805f805f6103ff87878989610d12565b809450819550505061041389898b8b610d12565b809250819350505061042782828b8b610d12565b809250819350505061043b84848484610e42565b809450819550505061048e84847f2b149d40ceb8aaae81be18991be06ac3b5b4c5e559dbefa33267e6dc24a138e57e9713b03af0fed4cd2cafadeed8fdf4a74fa084e52d1852e4a2bd0685c315d2610e42565b80945081955050505f841480156104a457505f83145b945050505050949350505050565b6104ba611292565b5f891480156104c857505f88145b1561058557868686868686865f600681106104e6576104e56114ab565b5b60200201876001600681106104fe576104fd6114ab565b5b6020020188600260068110610516576105156114ab565b5b602002018960036006811061052e5761052d6114ab565b5b602002018a600460068110610546576105456114ab565b5b602002018b60056006811061055e5761055d6114ab565b5b60200201868152508681525086815250868152508681525086815250505050505050610bae565b5f8314801561059357505f82145b15610650578c8c8c8c8c8c865f600681106105b1576105b06114ab565b5b60200201876001600681106105c9576105c86114ab565b5b60200201886002600681106105e1576105e06114ab565b5b60200201896003600681106105f9576105f86114ab565b5b602002018a600460068110610611576106106114ab565b5b602002018b600560068110610629576106286114ab565b5b60200201868152508681525086815250868152508681525086815250505050505050610bae565b61065c85858b8b610d12565b80955081965050506106708b8b8585610d12565b82600260068110610684576106836114ab565b5b602002018360036006811061069c5761069b6114ab565b5b60200201828152508281525050506106b687878b8b610d12565b80975081985050506106ca8d8d8585610d12565b826004600681106106de576106dd6114ab565b5b60200201836005600681106106f6576106f56114ab565b5b602002018281525082815250505080600460068110610718576107176114ab565b5b60200201518714801561074257508060056006811061073a576107396114ab565b5b602002015186145b15610904578060026006811061075b5761075a6114ab565b5b60200201518514801561078557508060036006811061077d5761077c6114ab565b5b602002015184145b1561084a576107988d8d8d8d8d8d610ea7565b865f600681106107ab576107aa6114ab565b5b60200201876001600681106107c3576107c26114ab565b5b60200201886002600681106107db576107da6114ab565b5b60200201896003600681106107f3576107f26114ab565b5b602002018a60046006811061080b5761080a6114ab565b5b602002018b600560068110610823576108226114ab565b5b60200201868152508681525086815250868152508681525086815250505050505050610bae565b60015f60015f805f865f60068110610865576108646114ab565b5b602002018760016006811061087d5761087c6114ab565b5b6020020188600260068110610895576108946114ab565b5b60200201896003600681106108ad576108ac6114ab565b5b602002018a6004600681106108c5576108c46114ab565b5b602002018b6005600681106108dd576108dc6114ab565b5b60200201868152508681525086815250868152508681525086815250505050505050610bae565b61091089898585610d12565b8093508194505050610954858583600260068110610931576109306114ab565b5b60200201518460036006811061094a576109496114ab565b5b6020020151610e42565b809d50819e505050610998878783600460068110610975576109746114ab565b5b60200201518460056006811061098e5761098d6114ab565b5b6020020151610e42565b809b50819c5050506109ac8b8b8d8d610d12565b809950819a5050506109f08989836004600681106109cd576109cc6114ab565b5b6020020151846005600681106109e6576109e56114ab565b5b6020020151610d12565b8095508196505050610a0489898d8d610d12565b809950819a505050610a1889898585610d12565b82600460068110610a2c57610a2b6114ab565b5b6020020183600560068110610a4457610a436114ab565b5b6020020182815250828152505050610a5e8d8d8f8f610d12565b8097508198505050610a7287878585610d12565b8097508198505050610a8687878b8b610e42565b8097508198505050610a9a8585600261104c565b8093508194505050610aae87878585610e42565b8097508198505050610ac28b8b8989610d12565b825f60068110610ad557610ad46114ab565b5b6020020183600160068110610aed57610aec6114ab565b5b6020020182815250828152505050610b0785858989610e42565b809b50819c505050610b1b8d8d8d8d610d12565b809b50819c505050610b5f898983600260068110610b3c57610b3b6114ab565b5b602002015184600360068110610b5557610b546114ab565b5b6020020151610d12565b809d50819e505050610b738b8b8f8f610e42565b82600260068110610b8757610b866114ab565b5b6020020183600360068110610b9f57610b9e6114ab565b5b60200201828152508281525050505b9c9b505050505050505050505050565b5f805f805f80610bce88886110be565b8092508193505050610be28c8c8484610d12565b8096508197505050610bf68a8a8484610d12565b809450819550505050509650965096509692505050565b610c15611292565b5b5f8814610d07575f6001891614610ccd57610cca815f60068110610c3d57610c3c6114ab565b5b602002015182600160068110610c5657610c556114ab565b5b602002015183600260068110610c6f57610c6e6114ab565b5b602002015184600360068110610c8857610c876114ab565b5b602002015185600460068110610ca157610ca06114ab565b5b602002015186600560068110610cba57610cb96114ab565b5b60200201518d8d8d8d8d8d6104b2565b90505b610cdb878787878787610ea7565b809750819850829950839a50849b50859c50505050505050600288610d009190611532565b9750610c16565b979650505050505050565b5f80610da17f30644e72e131a029b85045b68181585d97816a916871ca8d3c208c16d87cfd4780610d4657610d456114d8565b5b8588097f30644e72e131a029b85045b68181585d97816a916871ca8d3c208c16d87cfd4780610d7857610d776114d8565b5b8588097f30644e72e131a029b85045b68181585d97816a916871ca8d3c208c16d87cfd4761121b565b7f30644e72e131a029b85045b68181585d97816a916871ca8d3c208c16d87cfd4780610dd057610dcf6114d8565b5b7f30644e72e131a029b85045b68181585d97816a916871ca8d3c208c16d87cfd4780610dff57610dfe6114d8565b5b8688097f30644e72e131a029b85045b68181585d97816a916871ca8d3c208c16d87cfd4780610e3157610e306114d8565b5b868a09089150915094509492505050565b5f80610e6f86857f30644e72e131a029b85045b68181585d97816a916871ca8d3c208c16d87cfd4761121b565b610e9a86857f30644e72e131a029b85045b68181585d97816a916871ca8d3c208c16d87cfd4761121b565b9150915094509492505050565b5f805f805f80610eb98c8c600361104c565b8096508197505050610ecd86868e8e610d12565b8096508197505050610ee18a8a8a8a610d12565b8098508199505050610ef58c8c8c8c610d12565b8094508195505050610f0984848a8a610d12565b8094508195505050610f1d86868888610d12565b809c50819d505050610f318484600861104c565b8092508193505050610f458c8c8484610e42565b809c50819d505050610f5988888a8a610d12565b8092508193505050610f6d8484600461104c565b8094508195505050610f8184848e8e610e42565b8094508195505050610f9584848888610d12565b8094508195505050610fa98a8a600861104c565b8096508197505050610fbd86868c8c610d12565b8096508197505050610fd186868484610d12565b8096508197505050610fe584848888610e42565b8094508195505050610ff98c8c600261104c565b809650819750505061100d86868a8a610d12565b809650819750505061102188888484610d12565b80925081935050506110358282600861104c565b809250819350505096509650965096509650969050565b5f807f30644e72e131a029b85045b68181585d97816a916871ca8d3c208c16d87cfd478061107d5761107c6114d8565b5b8386097f30644e72e131a029b85045b68181585d97816a916871ca8d3c208c16d87cfd47806110af576110ae6114d8565b5b84860991509150935093915050565b5f805f61117e7f30644e72e131a029b85045b68181585d97816a916871ca8d3c208c16d87cfd47806110f3576110f26114d8565b5b7f30644e72e131a029b85045b68181585d97816a916871ca8d3c208c16d87cfd4780611122576111216114d8565b5b8788097f30644e72e131a029b85045b68181585d97816a916871ca8d3c208c16d87cfd4780611154576111536114d8565b5b878809087f30644e72e131a029b85045b68181585d97816a916871ca8d3c208c16d87cfd47611242565b90507f30644e72e131a029b85045b68181585d97816a916871ca8d3c208c16d87cfd47806111af576111ae6114d8565b5b8186097f30644e72e131a029b85045b68181585d97816a916871ca8d3c208c16d87cfd47806111e1576111e06114d8565b5b8286097f30644e72e131a029b85045b68181585d97816a916871ca8d3c208c16d87cfd4761120f9190611562565b92509250509250929050565b5f818061122b5761122a6114d8565b5b83836112379190611562565b850890509392505050565b5f8060405160208152602080820152602060408201528460608201526002840360808201528360a082015260208160c08360056107d05a03fa915080519250508061128b575f80fd5b5092915050565b6040518060c00160405280600690602082028036833780820191505090505090565b5f819050919050565b6112c6816112b4565b82525050565b5f6020820190506112df5f8301846112bd565b92915050565b5f80fd5b6112f2816112b4565b81146112fc575f80fd5b50565b5f8135905061130d816112e9565b92915050565b5f805f805f805f80610100898b0312156113305761132f6112e5565b5b5f61133d8b828c016112ff565b985050602061134e8b828c016112ff565b975050604061135f8b828c016112ff565b96505060606113708b828c016112ff565b95505060806113818b828c016112ff565b94505060a06113928b828c016112ff565b93505060c06113a38b828c016112ff565b92505060e06113b48b828c016112ff565b9150509295985092959890939650565b5f6080820190506113d75f8301876112bd565b6113e460208301866112bd565b6113f160408301856112bd565b6113fe60608301846112bd565b95945050505050565b5f805f805f60a086880312156114205761141f6112e5565b5b5f61142d888289016112ff565b955050602061143e888289016112ff565b945050604061144f888289016112ff565b9350506060611460888289016112ff565b9250506080611471888289016112ff565b9150509295509295909350565b7f4e487b71000000000000000000000000000000000000000000000000000000005f52600160045260245ffd5b7f4e487b71000000000000000000000000000000000000000000000000000000005f52603260045260245ffd5b7f4e487b71000000000000000000000000000000000000000000000000000000005f52601260045260245ffd5b7f4e487b71000000000000000000000000000000000000000000000000000000005f52601160045260245ffd5b5f61153c826112b4565b9150611547836112b4565b925082611557576115566114d8565b5b828204905092915050565b5f61156c826112b4565b9150611577836112b4565b925082820390508181111561158f5761158e611505565b5b9291505056fea26469706673582212209dd319fb8a4517ee152bf731538ec6abaf20e3cfe2a0ac89d4106663e9c3014e64736f6c63430008190033",
			"opcodes": "PUSH2 0x15CB PUSH2 0x4D PUSH1 0xB DUP3 DUP3 DUP3 CODECOPY DUP1 MLOAD PUSH0 BYTE PUSH1 0x73 EQ PUSH1 0x41 JUMPI PUSH32 0x4E487B7100000000000000000000000000000000000000000000000000000000 PUSH0 MSTORE PUSH0 PUSH1 0x4 MSTORE PUSH1 0x24 PUSH0 REVERT JUMPDEST ADDRESS PUSH0 MSTORE PUSH1 0x73 DUP2 MSTORE8 DUP3 DUP2 RETURN INVALID PUSH20 0x0 ADDRESS EQ PUSH1 0x80 PUSH1 0x40 MSTORE PUSH1 0x4 CALLDATASIZE LT PUSH2 0x4A JUMPI PUSH0 CALLDATALOAD PUSH1 0xE0 SHR DUP1 PUSH4 0x55A3E90F EQ PUSH2 0x4E JUMPI DUP1 PUSH4 0x61A931EC EQ PUSH2 0x6C JUMPI DUP1 PUSH4 0xB73AB75D EQ PUSH2 0x9F JUMPI JUMPDEST PUSH0 DUP1 REVERT JUMPDEST PUSH2 0x56 PUSH2 0xD2 JUMP JUMPDEST PUSH1 0x40 MLOAD PUSH2 0x63 SWAP2 SWAP1 PUSH2 0x12CC JUMP JUMPDEST PUSH1 0x40 MLOAD DUP1 SWAP2 SUB SWAP1 RETURN JUMPDEST PUSH2 0x86 PUSH1 0x4 DUP1 CALLDATASIZE SUB DUP2 ADD SWAP1 PUSH2 0x81 SWAP2 SWAP1 PUSH2 0x1313 JUMP JUMPDEST PUSH2 0xF9 JUMP JUMPDEST PUSH1 0x40 MLOAD PUSH2 0x96 SWAP5 SWAP4 SWAP3 SWAP2 SWAP1 PUSH2 0x13C4 JUMP JUMPDEST PUSH1 0x40 MLOAD DUP1 SWAP2 SUB SWAP1 RETURN JUMPDEST PUSH2 0xB9 PUSH1 0x4 DUP1 CALLDATASIZE SUB DUP2 ADD SWAP1 PUSH2 0xB4 SWAP2 SWAP1 PUSH2 0x1407 JUMP JUMPDEST PUSH2 0x2CD JUMP JUMPDEST PUSH1 0x40 MLOAD PUSH2 0xC9 SWAP5 SWAP4 SWAP3 SWAP2 SWAP1 PUSH2 0x13C4 JUMP JUMPDEST PUSH1 0x40 MLOAD DUP1 SWAP2 SUB SWAP1 RETURN JUMPDEST PUSH0 PUSH32 0x30644E72E131A029B85045B68181585D97816A916871CA8D3C208C16D87CFD47 SWAP1 POP SWAP1 JUMP JUMPDEST PUSH0 DUP1 PUSH0 DUP1 PUSH0 DUP13 EQ DUP1 ISZERO PUSH2 0x10B JUMPI POP PUSH0 DUP12 EQ JUMPDEST DUP1 ISZERO PUSH2 0x116 JUMPI POP PUSH0 DUP11 EQ JUMPDEST DUP1 ISZERO PUSH2 0x121 JUMPI POP PUSH0 DUP10 EQ JUMPDEST ISZERO PUSH2 0x179 JUMPI PUSH0 DUP9 EQ DUP1 ISZERO PUSH2 0x134 JUMPI POP PUSH0 DUP8 EQ JUMPDEST DUP1 ISZERO PUSH2 0x13F JUMPI POP PUSH0 DUP7 EQ JUMPDEST DUP1 ISZERO PUSH2 0x14A JUMPI POP PUSH0 DUP6 EQ JUMPDEST PUSH2 0x168 JUMPI PUSH2 0x15A DUP9 DUP9 DUP9 DUP9 PUSH2 0x3EE JUMP JUMPDEST PUSH2 0x167 JUMPI PUSH2 0x166 PUSH2 0x147E JUMP JUMPDEST JUMPDEST JUMPDEST DUP8 DUP8 DUP8 DUP8 SWAP4 POP SWAP4 POP SWAP4 POP SWAP4 POP PUSH2 0x2BE JUMP JUMPDEST PUSH0 DUP9 EQ DUP1 ISZERO PUSH2 0x187 JUMPI POP PUSH0 DUP8 EQ JUMPDEST DUP1 ISZERO PUSH2 0x192 JUMPI POP PUSH0 DUP7 EQ JUMPDEST DUP1 ISZERO PUSH2 0x19D JUMPI POP PUSH0 DUP6 EQ JUMPDEST ISZERO PUSH2 0x1CC JUMPI PUSH2 0x1AE DUP13 DUP13 DUP13 DUP13 PUSH2 0x3EE JUMP JUMPDEST PUSH2 0x1BB JUMPI PUSH2 0x1BA PUSH2 0x147E JUMP JUMPDEST JUMPDEST DUP12 DUP12 DUP12 DUP12 SWAP4 POP SWAP4 POP SWAP4 POP SWAP4 POP PUSH2 0x2BE JUMP JUMPDEST PUSH2 0x1D8 DUP13 DUP13 DUP13 DUP13 PUSH2 0x3EE JUMP JUMPDEST PUSH2 0x1E5 JUMPI PUSH2 0x1E4 PUSH2 0x147E JUMP JUMPDEST JUMPDEST PUSH2 0x1F1 DUP9 DUP9 DUP9 DUP9 PUSH2 0x3EE JUMP JUMPDEST PUSH2 0x1FE JUMPI PUSH2 0x1FD PUSH2 0x147E JUMP JUMPDEST JUMPDEST PUSH0 PUSH2 0x215 DUP14 DUP14 DUP14 DUP14 PUSH1 0x1 PUSH0 DUP16 DUP16 DUP16 DUP16 PUSH1 0x1 PUSH0 PUSH2 0x4B2 JUMP JUMPDEST SWAP1 POP PUSH2 0x2B4 DUP2 PUSH0 PUSH1 0x6 DUP2 LT PUSH2 0x22D JUMPI PUSH2 0x22C PUSH2 0x14AB JUMP JUMPDEST JUMPDEST PUSH1 0x20 MUL ADD MLOAD DUP3 PUSH1 0x1 PUSH1 0x6 DUP2 LT PUSH2 0x246 JUMPI PUSH2 0x245 PUSH2 0x14AB JUMP JUMPDEST JUMPDEST PUSH1 0x20 MUL ADD MLOAD DUP4 PUSH1 0x2 PUSH1 0x6 DUP2 LT PUSH2 0x25F JUMPI PUSH2 0x25E PUSH2 0x14AB JUMP JUMPDEST JUMPDEST PUSH1 0x20 MUL ADD MLOAD DUP5 PUSH1 0x3 PUSH1 0x6 DUP2 LT PUSH2 0x278 JUMPI PUSH2 0x277 PUSH2 0x14AB JUMP JUMPDEST JUMPDEST PUSH1 0x20 MUL ADD MLOAD DUP6 PUSH1 0x4 PUSH1 0x6 DUP2 LT PUSH2 0x291 JUMPI PUSH2 0x290 PUSH2 0x14AB JUMP JUMPDEST JUMPDEST PUSH1 0x20 MUL ADD MLOAD DUP7 PUSH1 0x5 PUSH1 0x6 DUP2 LT PUSH2 0x2AA JUMPI PUSH2 0x2A9 PUSH2 0x14AB JUMP JUMPDEST JUMPDEST PUSH1 0x20 MUL ADD MLOAD PUSH2 0xBBE JUMP JUMPDEST SWAP5 POP SWAP5 POP SWAP5 POP SWAP5 POP POP JUMPDEST SWAP9 POP SWAP9 POP SWAP9 POP SWAP9 SWAP5 POP POP POP POP POP JUMP JUMPDEST PUSH0 DUP1 PUSH0 DUP1 PUSH0 PUSH1 0x1 SWAP1 POP PUSH0 DUP10 EQ DUP1 ISZERO PUSH2 0x2E4 JUMPI POP PUSH0 DUP9 EQ JUMPDEST DUP1 ISZERO PUSH2 0x2EF JUMPI POP PUSH0 DUP8 EQ JUMPDEST DUP1 ISZERO PUSH2 0x2FA JUMPI POP PUSH0 DUP7 EQ JUMPDEST ISZERO PUSH2 0x30F JUMPI PUSH1 0x1 SWAP9 POP PUSH1 0x1 SWAP7 POP PUSH0 SWAP1 POP PUSH2 0x329 JUMP JUMPDEST PUSH2 0x31B DUP10 DUP10 DUP10 DUP10 PUSH2 0x3EE JUMP JUMPDEST PUSH2 0x328 JUMPI PUSH2 0x327 PUSH2 0x147E JUMP JUMPDEST JUMPDEST JUMPDEST PUSH0 PUSH2 0x339 DUP12 DUP12 DUP12 DUP12 DUP12 DUP8 PUSH0 PUSH2 0xC0D JUMP JUMPDEST SWAP1 POP PUSH2 0x3D8 DUP2 PUSH0 PUSH1 0x6 DUP2 LT PUSH2 0x351 JUMPI PUSH2 0x350 PUSH2 0x14AB JUMP JUMPDEST JUMPDEST PUSH1 0x20 MUL ADD MLOAD DUP3 PUSH1 0x1 PUSH1 0x6 DUP2 LT PUSH2 0x36A JUMPI PUSH2 0x369 PUSH2 0x14AB JUMP JUMPDEST JUMPDEST PUSH1 0x20 MUL ADD MLOAD DUP4 PUSH1 0x2 PUSH1 0x6 DUP2 LT PUSH2 0x383 JUMPI PUSH2 0x382 PUSH2 0x14AB JUMP JUMPDEST JUMPDEST PUSH1 0x20 MUL ADD MLOAD DUP5 PUSH1 0x3 PUSH1 0x6 DUP2 LT PUSH2 0x39C JUMPI PUSH2 0x39B PUSH2 0x14AB JUMP JUMPDEST JUMPDEST PUSH1 0x20 MUL ADD MLOAD DUP6 PUSH1 0x4 PUSH1 0x6 DUP2 LT PUSH2 0x3B5 JUMPI PUSH2 0x3B4 PUSH2 0x14AB JUMP JUMPDEST JUMPDEST PUSH1 0x20 MUL ADD MLOAD DUP7 PUSH1 0x5 PUSH1 0x6 DUP2 LT PUSH2 0x3CE JUMPI PUSH2 0x3CD PUSH2 0x14AB JUMP JUMPDEST JUMPDEST PUSH1 0x20 MUL ADD MLOAD PUSH2 0xBBE JUMP JUMPDEST SWAP6 POP SWAP6 POP SWAP6 POP SWAP6 POP POP POP SWAP6 POP SWAP6 POP SWAP6 POP SWAP6 SWAP2 POP POP JUMP JUMPDEST PUSH0 DUP1 PUSH0 DUP1 PUSH0 PUSH2 0x3FF DUP8 DUP8 DUP10 DUP10 PUSH2 0xD12 JUMP JUMPDEST DUP1 SWAP5 POP DUP2 SWAP6 POP POP POP PUSH2 0x413 DUP10 DUP10 DUP12 DUP12 PUSH2 0xD12 JUMP JUMPDEST DUP1 SWAP3 POP DUP2 SWAP4 POP POP POP PUSH2 0x427 DUP3 DUP3 DUP12 DUP12 PUSH2 0xD12 JUMP JUMPDEST DUP1 SWAP3 POP DUP2 SWAP4 POP POP POP PUSH2 0x43B DUP5 DUP5 DUP5 DUP5 PUSH2 0xE42 JUMP JUMPDEST DUP1 SWAP5 POP DUP2 SWAP6 POP POP POP PUSH2 0x48E DUP5 DUP5 PUSH32 0x2B149D40CEB8AAAE81BE18991BE06AC3B5B4C5E559DBEFA33267E6DC24A138E5 PUSH31 0x9713B03AF0FED4CD2CAFADEED8FDF4A74FA084E52D1852E4A2BD0685C315D2 PUSH2 0xE42 JUMP JUMPDEST DUP1 SWAP5 POP DUP2 SWAP6 POP POP POP PUSH0 DUP5 EQ DUP1 ISZERO PUSH2 0x4A4 JUMPI POP PUSH0 DUP4 EQ JUMPDEST SWAP5 POP POP POP POP POP SWAP5 SWAP4 POP POP POP POP JUMP JUMPDEST PUSH2 0x4BA PUSH2 0x1292 JUMP JUMPDEST PUSH0 DUP10 EQ DUP1 ISZERO PUSH2 0x4C8 JUMPI POP PUSH0 DUP9 EQ JUMPDEST ISZERO PUSH2 0x585 JUMPI DUP7 DUP7 DUP7 DUP7 DUP7 DUP7 DUP7 PUSH0 PUSH1 0x6 DUP2 LT PUSH2 0x4E6 JUMPI PUSH2 0x4E5 PUSH2 0x14AB JUMP JUMPDEST JUMPDEST PUSH1 0x20 MUL ADD DUP8 PUSH1 0x1 PUSH1 0x6 DUP2 LT PUSH2 0x4FE JUMPI PUSH2 0x4FD PUSH2 0x14AB JUMP JUMPDEST JUMPDEST PUSH1 0x20 MUL ADD DUP9 PUSH1 0x2 PUSH1 0x6 DUP2 LT PUSH2 0x516 JUMPI PUSH2 0x515 PUSH2 0x14AB JUMP JUMPDEST JUMPDEST PUSH1 0x20 MUL ADD DUP10 PUSH1 0x3 PUSH1 0x6 DUP2 LT PUSH2 0x52E JUMPI PUSH2 0x52D PUSH2 0x14AB JUMP JUMPDEST JUMPDEST PUSH1 0x20 MUL ADD DUP11 PUSH1 0x4 PUSH1 0x6 DUP2 LT PUSH2 0x546 JUMPI PUSH2 0x545 PUSH2 0x14AB JUMP JUMPDEST JUMPDEST PUSH1 0x20 MUL ADD DUP12 PUSH1 0x5 PUSH1 0x6 DUP2 LT PUSH2 0x55E JUMPI PUSH2 0x55D PUSH2 0x14AB JUMP JUMPDEST JUMPDEST PUSH1 0x20 MUL ADD DUP7 DUP2 MSTORE POP DUP7 DUP2 MSTORE POP DUP7 DUP2 MSTORE POP DUP7 DUP2 MSTORE POP DUP7 DUP2 MSTORE POP DUP7 DUP2 MSTORE POP POP POP POP POP POP POP PUSH2 0xBAE JUMP JUMPDEST PUSH0 DUP4 EQ DUP1 ISZERO PUSH2 0x593 JUMPI POP PUSH0 DUP3 EQ JUMPDEST ISZERO PUSH2 0x650 JUMPI DUP13 DUP13 DUP13 DUP13 DUP13 DUP13 DUP7 PUSH0 PUSH1 0x6 DUP2 LT PUSH2 0x5B1 JUMPI PUSH2 0x5B0 PUSH2 0x14AB JUMP JUMPDEST JUMPDEST PUSH1 0x20 MUL ADD DUP8 PUSH1 0x1 PUSH1 0x6 DUP2 LT PUSH2 0x5C9 JUMPI PUSH2 0x5C8 PUSH2 0x14AB JUMP JUMPDEST JUMPDEST PUSH1 0x20 MUL ADD DUP9 PUSH1 0x2 PUSH1 0x6 DUP2 LT PUSH2 0x5E1 JUMPI PUSH2 0x5E0 PUSH2 0x14AB JUMP JUMPDEST JUMPDEST PUSH1 0x20 MUL ADD DUP10 PUSH1 0x3 PUSH1 0x6 DUP2 LT PUSH2 0x5F9 JUMPI PUSH2 0x5F8 PUSH2 0x14AB JUMP JUMPDEST JUMPDEST PUSH1 0x20 MUL ADD DUP11 PUSH1 0x4 PUSH1 0x6 DUP2 LT PUSH2 0x611 JUMPI PUSH2 0x610 PUSH2 0x14AB JUMP JUMPDEST JUMPDEST PUSH1 0x20 MUL ADD DUP12 PUSH1 0x5 PUSH1 0x6 DUP2 LT PUSH2 0x629 JUMPI PUSH2 0x628 PUSH2 0x14AB JUMP JUMPDEST JUMPDEST PUSH1 0x20 MUL ADD DUP7 DUP2 MSTORE POP DUP7 DUP2 MSTORE POP DUP7 DUP2 MSTORE POP DUP7 DUP2 MSTORE POP DUP7 DUP2 MSTORE POP DUP7 DUP2 MSTORE POP POP POP POP POP POP POP PUSH2 0xBAE JUMP JUMPDEST PUSH2 0x65C DUP6 DUP6 DUP12 DUP12 PUSH2 0xD12 JUMP JUMPDEST DUP1 SWAP6 POP DUP2 SWAP7 POP POP POP PUSH2 0x670 DUP12 DUP12 DUP6 DUP6 PUSH2 0xD12 JUMP JUMPDEST DUP3 PUSH1 0x2 PUSH1 0x6 DUP2 LT PUSH2 0x684 JUMPI PUSH2 0x683 PUSH2 0x14AB JUMP JUMPDEST JUMPDEST PUSH1 0x20 MUL ADD DUP4 PUSH1 0x3 PUSH1 0x6 DUP2 LT PUSH2 0x69C JUMPI PUSH2 0x69B PUSH2 0x14AB JUMP JUMPDEST JUMPDEST PUSH1 0x20 MUL ADD DUP3 DUP2 MSTORE POP DUP3 DUP2 MSTORE POP POP POP PUSH2 0x6B6 DUP8 DUP8 DUP12 DUP12 PUSH2 0xD12 JUMP JUMPDEST DUP1 SWAP8 POP DUP2 SWAP9 POP POP POP PUSH2 0x6CA DUP14 DUP14 DUP6 DUP6 PUSH2 0xD12 JUMP JUMPDEST DUP3 PUSH1 0x4 PUSH1 0x6 DUP2 LT PUSH2 0x6DE JUMPI PUSH2 0x6DD PUSH2 0x14AB JUMP JUMPDEST JUMPDEST PUSH1 0x20 MUL ADD DUP4 PUSH1 0x5 PUSH1 0x6 DUP2 LT PUSH2 0x6F6 JUMPI PUSH2 0x6F5 PUSH2 0x14AB JUMP JUMPDEST JUMPDEST PUSH1 0x20 MUL ADD DUP3 DUP2 MSTORE POP DUP3 DUP2 MSTORE POP POP POP DUP1 PUSH1 0x4 PUSH1 0x6 DUP2 LT PUSH2 0x718 JUMPI PUSH2 0x717 PUSH2 0x14AB JUMP JUMPDEST JUMPDEST PUSH1 0x20 MUL ADD MLOAD DUP8 EQ DUP1 ISZERO PUSH2 0x742 JUMPI POP DUP1 PUSH1 0x5 PUSH1 0x6 DUP2 LT PUSH2 0x73A JUMPI PUSH2 0x739 PUSH2 0x14AB JUMP JUMPDEST JUMPDEST PUSH1 0x20 MUL ADD MLOAD DUP7 EQ JUMPDEST ISZERO PUSH2 0x904 JUMPI DUP1 PUSH1 0x2 PUSH1 0x6 DUP2 LT PUSH2 0x75B JUMPI PUSH2 0x75A PUSH2 0x14AB JUMP JUMPDEST JUMPDEST PUSH1 0x20 MUL ADD MLOAD DUP6 EQ DUP1 ISZERO PUSH2 0x785 JUMPI POP DUP1 PUSH1 0x3 PUSH1 0x6 DUP2 LT PUSH2 0x77D JUMPI PUSH2 0x77C PUSH2 0x14AB JUMP JUMPDEST JUMPDEST PUSH1 0x20 MUL ADD MLOAD DUP5 EQ JUMPDEST ISZERO PUSH2 0x84A JUMPI PUSH2 0x798 DUP14 DUP14 DUP14 DUP14 DUP14 DUP14 PUSH2 0xEA7 JUMP JUMPDEST DUP7 PUSH0 PUSH1 0x6 DUP2 LT PUSH2 0x7AB JUMPI PUSH2 0x7AA PUSH2 0x14AB JUMP JUMPDEST JUMPDEST PUSH1 0x20 MUL ADD DUP8 PUSH1 0x1 PUSH1 0x6 DUP2 LT PUSH2 0x7C3 JUMPI PUSH2 0x7C2 PUSH2 0x14AB JUMP JUMPDEST JUMPDEST PUSH1 0x20 MUL ADD DUP9 PUSH1 0x2 PUSH1 0x6 DUP2 LT PUSH2 0x7DB JUMPI PUSH2 0x7DA PUSH2 0x14AB JUMP JUMPDEST JUMPDEST PUSH1 0x20 MUL ADD DUP10 PUSH1 0x3 PUSH1 0x6 DUP2 LT PUSH2 0x7F3 JUMPI PUSH2 0x7F2 PUSH2 0x14AB JUMP JUMPDEST JUMPDEST PUSH1 0x20 MUL ADD DUP11 PUSH1 0x4 PUSH1 0x6 DUP2 LT PUSH2 0x80B JUMPI PUSH2 0x80A PUSH2 0x14AB JUMP JUMPDEST JUMPDEST PUSH1 0x20 MUL ADD DUP12 PUSH1 0x5 PUSH1 0x6 DUP2 LT PUSH2 0x823 JUMPI PUSH2 0x822 PUSH2 0x14AB JUMP JUMPDEST JUMPDEST PUSH1 0x20 MUL ADD DUP7 DUP2 MSTORE POP DUP7 DUP2 MSTORE POP DUP7 DUP2 MSTORE POP DUP7 DUP2 MSTORE POP DUP7 DUP2 MSTORE POP DUP7 DUP2 MSTORE POP POP POP POP POP POP POP PUSH2 0xBAE JUMP JUMPDEST PUSH1 0x1 PUSH0 PUSH1 0x1 PUSH0 DUP1 PUSH0 DUP7 PUSH0 PUSH1 0x6 DUP2 LT PUSH2 0x865 JUMPI PUSH2 0x864 PUSH2 0x14AB JUMP JUMPDEST JUMPDEST PUSH1 0x20 MUL ADD DUP8 PUSH1 0x1 PUSH1 0x6 DUP2 LT PUSH2 0x87D JUMPI PUSH2 0x87C PUSH2 0x14AB JUMP JUMPDEST JUMPDEST PUSH1 0x20 MUL ADD DUP9 PUSH1 0x2 PUSH1 0x6 DUP2 LT PUSH2 0x895 JUMPI PUSH2 0x894 PUSH2 0x14AB JUMP JUMPDEST JUMPDEST PUSH1 0x20 MUL ADD DUP10 PUSH1 0x3 PUSH1 0x6 DUP2 LT PUSH2 0x8AD JUMPI PUSH2 0x8AC PUSH2 0x14AB JUMP JUMPDEST JUMPDEST PUSH1 0x20 MUL ADD DUP11 PUSH1 0x4 PUSH1 0x6 DUP2 LT PUSH2 0x8C5 JUMPI PUSH2 0x8C4 PUSH2 0x14AB JUMP JUMPDEST JUMPDEST PUSH1 0x20 MUL ADD DUP12 PUSH1 0x5 PUSH1 0x6 DUP2 LT PUSH2 0x8DD JUMPI PUSH2 0x8DC PUSH2 0x14AB JUMP JUMPDEST JUMPDEST PUSH1 0x20 MUL ADD DUP7 DUP2 MSTORE POP DUP7 DUP2 MSTORE POP DUP7 DUP2 MSTORE POP DUP7 DUP2 MSTORE POP DUP7 DUP2 MSTORE POP DUP7 DUP2 MSTORE POP POP POP POP POP POP POP PUSH2 0xBAE JUMP JUMPDEST PUSH2 0x910 DUP10 DUP10 DUP6 DUP6 PUSH2 0xD12 JUMP JUMPDEST DUP1 SWAP4 POP DUP2 SWAP5 POP POP POP PUSH2 0x954 DUP6 DUP6 DUP4 PUSH1 0x2 PUSH1 0x6 DUP2 LT PUSH2 0x931 JUMPI PUSH2 0x930 PUSH2 0x14AB JUMP JUMPDEST JUMPDEST PUSH1 0x20 MUL ADD MLOAD DUP5 PUSH1 0x3 PUSH1 0x6 DUP2 LT PUSH2 0x94A JUMPI PUSH2 0x949 PUSH2 0x14AB JUMP JUMPDEST JUMPDEST PUSH1 0x20 MUL ADD MLOAD PUSH2 0xE42 JUMP JUMPDEST DUP1 SWAP14 POP DUP2 SWAP15 POP POP POP PUSH2 0x998 DUP8 DUP8 DUP4 PUSH1 0x4 PUSH1 0x6 DUP2 LT PUSH2 0x975 JUMPI PUSH2 0x974 PUSH2 0x14AB JUMP JUMPDEST JUMPDEST PUSH1 0x20 MUL ADD MLOAD DUP5 PUSH1 0x5 PUSH1 0x6 DUP2 LT PUSH2 0x98E JUMPI PUSH2 0x98D PUSH2 0x14AB JUMP JUMPDEST JUMPDEST PUSH1 0x20 MUL ADD MLOAD PUSH2 0xE42 JUMP JUMPDEST DUP1 SWAP12 POP DUP2 SWAP13 POP POP POP PUSH2 0x9AC DUP12 DUP12 DUP14 DUP14 PUSH2 0xD12 JUMP JUMPDEST DUP1 SWAP10 POP DUP2 SWAP11 POP POP POP PUSH2 0x9F0 DUP10 DUP10 DUP4 PUSH1 0x4 PUSH1 0x6 DUP2 LT PUSH2 0x9CD JUMPI PUSH2 0x9CC PUSH2 0x14AB JUMP JUMPDEST JUMPDEST PUSH1 0x20 MUL ADD MLOAD DUP5 PUSH1 0x5 PUSH1 0x6 DUP2 LT PUSH2 0x9E6 JUMPI PUSH2 0x9E5 PUSH2 0x14AB JUMP JUMPDEST JUMPDEST PUSH1 0x20 MUL ADD MLOAD PUSH2 0xD12 JUMP JUMPDEST DUP1 SWAP6 POP DUP2 SWAP7 POP POP POP PUSH2 0xA04 DUP10 DUP10 DUP14 DUP14 PUSH2 0xD12 JUMP JUMPDEST DUP1 SWAP10 POP DUP2 SWAP11 POP POP POP PUSH2 0xA18 DUP10 DUP10 DUP6 DUP6 PUSH2 0xD12 JUMP JUMPDEST DUP3 PUSH1 0x4 PUSH1 0x6 DUP2 LT PUSH2 0xA2C JUMPI PUSH2 0xA2B PUSH2 0x14AB JUMP JUMPDEST JUMPDEST PUSH1 0x20 MUL ADD DUP4 PUSH1 0x5 PUSH1 0x6 DUP2 LT PUSH2 0xA44 JUMPI PUSH2 0xA43 PUSH2 0x14AB JUMP JUMPDEST JUMPDEST PUSH1 0x20 MUL ADD DUP3 DUP2 MSTORE POP DUP3 DUP2 MSTORE POP POP POP PUSH2 0xA5E DUP14 DUP14 DUP16 DUP16 PUSH2 0xD12 JUMP JUMPDEST DUP1 SWAP8 POP DUP2 SWAP9 POP POP POP PUSH2 0xA72 DUP8 DUP8 DUP6 DUP6 PUSH2 0xD12 JUMP JUMPDEST DUP1 SWAP8 POP DUP2 SWAP9 POP POP POP PUSH2 0xA86 DUP8 DUP8 DUP12 DUP12 PUSH2 0xE42 JUMP JUMPDEST DUP1 SWAP8 POP DUP2 SWAP9 POP POP POP PUSH2 0xA9A DUP6 DUP6 PUSH1 0x2 PUSH2 0x104C JUMP JUMPDEST DUP1 SWAP4 POP DUP2 SWAP5 POP POP POP PUSH2 0xAAE DUP8 DUP8 DUP6 DUP6 PUSH2 0xE42 JUMP JUMPDEST DUP1 SWAP8 POP DUP2 SWAP9 POP POP POP PUSH2 0xAC2 DUP12 DUP12 DUP10 DUP10 PUSH2 0xD12 JUMP JUMPDEST DUP3 PUSH0 PUSH1 0x6 DUP2 LT PUSH2 0xAD5 JUMPI PUSH2 0xAD4 PUSH2 0x14AB JUMP JUMPDEST JUMPDEST PUSH1 0x20 MUL ADD DUP4 PUSH1 0x1 PUSH1 0x6 DUP2 LT PUSH2 0xAED JUMPI PUSH2 0xAEC PUSH2 0x14AB JUMP JUMPDEST JUMPDEST PUSH1 0x20 MUL ADD DUP3 DUP2 MSTORE POP DUP3 DUP2 MSTORE POP POP POP PUSH2 0xB07 DUP6 DUP6 DUP10 DUP10 PUSH2 0xE42 JUMP JUMPDEST DUP1 SWAP12 POP DUP2 SWAP13 POP POP POP PUSH2 0xB1B DUP14 DUP14 DUP14 DUP14 PUSH2 0xD12 JUMP JUMPDEST DUP1 SWAP12 POP DUP2 SWAP13 POP POP POP PUSH2 0xB5F DUP10 DUP10 DUP4 PUSH1 0x2 PUSH1 0x6 DUP2 LT PUSH2 0xB3C JUMPI PUSH2 0xB3B PUSH2 0x14AB JUMP JUMPDEST JUMPDEST PUSH1 0x20 MUL ADD MLOAD DUP5 PUSH1 0x3 PUSH1 0x6 DUP2 LT PUSH2 0xB55 JUMPI PUSH2 0xB54 PUSH2 0x14AB JUMP JUMPDEST JUMPDEST PUSH1 0x20 MUL ADD MLOAD PUSH2 0xD12 JUMP JUMPDEST DUP1 SWAP14 POP DUP2 SWAP15 POP POP POP PUSH2 0xB73 DUP12 DUP12 DUP16 DUP16 PUSH2 0xE42 JUMP JUMPDEST DUP3 PUSH1 0x2 PUSH1 0x6 DUP2 LT PUSH2 0xB87 JUMPI PUSH2 0xB86 PUSH2 0x14AB JUMP JUMPDEST JUMPDEST PUSH1 0x20 MUL ADD DUP4 PUSH1 0x3 PUSH1 0x6 DUP2 LT PUSH2 0xB9F JUMPI PUSH2 0xB9E PUSH2 0x14AB JUMP JUMPDEST JUMPDEST PUSH1 0x20 MUL ADD DUP3 DUP2 MSTORE POP DUP3 DUP2 MSTORE POP POP POP JUMPDEST SWAP13 SWAP12 POP POP POP POP POP POP POP POP POP POP POP POP JUMP JUMPDEST PUSH0 DUP1 PUSH0 DUP1 PUSH0 DUP1 PUSH2 0xBCE DUP9 DUP9 PUSH2 0x10BE JUMP JUMPDEST DUP1 SWAP3 POP DUP2 SWAP4 POP POP POP PUSH2 0xBE2 DUP13 DUP13 DUP5 DUP5 PUSH2 0xD12 JUMP JUMPDEST DUP1 SWAP7 POP DUP2 SWAP8 POP POP POP PUSH2 0xBF6 DUP11 DUP11 DUP5 DUP5 PUSH2 0xD12 JUMP JUMPDEST DUP1 SWAP5 POP DUP2 SWAP6 POP POP POP POP POP SWAP7 POP SWAP7 POP SWAP7 POP SWAP7 SWAP3 POP POP POP JUMP JUMPDEST PUSH2 0xC15 PUSH2 0x1292 JUMP JUMPDEST JUMPDEST PUSH0 DUP9 EQ PUSH2 0xD07 JUMPI PUSH0 PUSH1 0x1 DUP10 AND EQ PUSH2 0xCCD JUMPI PUSH2 0xCCA DUP2 PUSH0 PUSH1 0x6 DUP2 LT PUSH2 0xC3D JUMPI PUSH2 0xC3C PUSH2 0x14AB JUMP JUMPDEST JUMPDEST PUSH1 0x20 MUL ADD MLOAD DUP3 PUSH1 0x1 PUSH1 0x6 DUP2 LT PUSH2 0xC56 JUMPI PUSH2 0xC55 PUSH2 0x14AB JUMP JUMPDEST JUMPDEST PUSH1 0x20 MUL ADD MLOAD DUP4 PUSH1 0x2 PUSH1 0x6 DUP2 LT PUSH2 0xC6F JUMPI PUSH2 0xC6E PUSH2 0x14AB JUMP JUMPDEST JUMPDEST PUSH1 0x20 MUL ADD MLOAD DUP5 PUSH1 0x3 PUSH1 0x6 DUP2 LT PUSH2 0xC88 JUMPI PUSH2 0xC87 PUSH2 0x14AB JUMP JUMPDEST JUMPDEST PUSH1 0x20 MUL ADD MLOAD DUP6 PUSH1 0x4 PUSH1 0x6 DUP2 LT PUSH2 0xCA1 JUMPI PUSH2 0xCA0 PUSH2 0x14AB JUMP JUMPDEST JUMPDEST PUSH1 0x20 MUL ADD MLOAD DUP7 PUSH1 0x5 PUSH1 0x6 DUP2 LT PUSH2 0xCBA JUMPI PUSH2 0xCB9 PUSH2 0x14AB JUMP JUMPDEST JUMPDEST PUSH1 0x20 MUL ADD MLOAD DUP14 DUP14 DUP14 DUP14 DUP14 DUP14 PUSH2 0x4B2 JUMP JUMPDEST SWAP1 POP JUMPDEST PUSH2 0xCDB DUP8 DUP8 DUP8 DUP8 DUP8 DUP8 PUSH2 0xEA7 JUMP JUMPDEST DUP1 SWAP8 POP DUP2 SWAP9 POP DUP3 SWAP10 POP DUP4 SWAP11 POP DUP5 SWAP12 POP DUP6 SWAP13 POP POP POP POP POP POP POP PUSH1 0x2 DUP9 PUSH2 0xD00 SWAP2 SWAP1 PUSH2 0x1532 JUMP JUMPDEST SWAP8 POP PUSH2 0xC16 JUMP JUMPDEST SWAP8 SWAP7 POP POP POP POP POP POP POP JUMP JUMPDEST PUSH0 DUP1 PUSH2 0xDA1 PUSH32 0x30644E72E131A029B85045B68181585D97816A916871CA8D3C208C16D87CFD47 DUP1 PUSH2 0xD46 JUMPI PUSH2 0xD45 PUSH2 0x14D8 JUMP JUMPDEST JUMPDEST DUP6 DUP9 MULMOD PUSH32 0x30644E72E131A029B85045B68181585D97816A916871CA8D3C208C16D87CFD47 DUP1 PUSH2 0xD78 JUMPI PUSH2 0xD77 PUSH2 0x14D8 JUMP JUMPDEST JUMPDEST DUP6 DUP9 MULMOD PUSH32 0x30644E72E131A029B85045B68181585D97816A916871CA8D3C208C16D87CFD47 PUSH2 0x121B JUMP JUMPDEST PUSH32 0x30644E72E131A029B85045B68181585D97816A916871CA8D3C208C16D87CFD47 DUP1 PUSH2 0xDD0 JUMPI PUSH2 0xDCF PUSH2 0x14D8 JUMP JUMPDEST JUMPDEST PUSH32 0x30644E72E131A029B85045B68181585D97816A916871CA8D3C208C16D87CFD47 DUP1 PUSH2 0xDFF JUMPI PUSH2 0xDFE PUSH2 0x14D8 JUMP JUMPDEST JUMPDEST DUP7 DUP9 MULMOD PUSH32 0x30644E72E131A029B85045B68181585D97816A916871CA8D3C208C16D87CFD47 DUP1 PUSH2 0xE31 JUMPI PUSH2 0xE30 PUSH2 0x14D8 JUMP JUMPDEST JUMPDEST DUP7 DUP11 MULMOD ADDMOD SWAP2 POP SWAP2 POP SWAP5 POP SWAP5 SWAP3 POP POP POP JUMP JUMPDEST PUSH0 DUP1 PUSH2 0xE6F DUP7 DUP6 PUSH32 0x30644E72E131A029B85045B68181585D97816A916871CA8D3C208C16D87CFD47 PUSH2 0x121B JUMP JUMPDEST PUSH2 0xE9A DUP7 DUP6 PUSH32 0x30644E72E131A029B85045B68181585D97816A916871CA8D3C208C16D87CFD47 PUSH2 0x121B JUMP JUMPDEST SWAP2 POP SWAP2 POP SWAP5 POP SWAP5 SWAP3 POP POP POP JUMP JUMPDEST PUSH0 DUP1 PUSH0 DUP1 PUSH0 DUP1 PUSH2 0xEB9 DUP13 DUP13 PUSH1 0x3 PUSH2 0x104C JUMP JUMPDEST DUP1 SWAP7 POP DUP2 SWAP8 POP POP POP PUSH2 0xECD DUP7 DUP7 DUP15 DUP15 PUSH2 0xD12 JUMP JUMPDEST DUP1 SWAP7 POP DUP2 SWAP8 POP POP POP PUSH2 0xEE1 DUP11 DUP11 DUP11 DUP11 PUSH2 0xD12 JUMP JUMPDEST DUP1 SWAP9 POP DUP2 SWAP10 POP POP POP PUSH2 0xEF5 DUP13 DUP13 DUP13 DUP13 PUSH2 0xD12 JUMP JUMPDEST DUP1 SWAP5 POP DUP2 SWAP6 POP POP POP PUSH2 0xF09 DUP5 DUP5 DUP11 DUP11 PUSH2 0xD12 JUMP JUMPDEST DUP1 SWAP5 POP DUP2 SWAP6 POP POP POP PUSH2 0xF1D DUP7 DUP7 DUP9 DUP9 PUSH2 0xD12 JUMP JUMPDEST DUP1 SWAP13 POP DUP2 SWAP14 POP POP POP PUSH2 0xF31 DUP5 DUP5 PUSH1 0x8 PUSH2 0x104C JUMP JUMPDEST DUP1 SWAP3 POP DUP2 SWAP4 POP POP POP PUSH2 0xF45 DUP13 DUP13 DUP5 DUP5 PUSH2 0xE42 JUMP JUMPDEST DUP1 SWAP13 POP DUP2 SWAP14 POP POP POP PUSH2 0xF59 DUP9 DUP9 DUP11 DUP11 PUSH2 0xD12 JUMP JUMPDEST DUP1 SWAP3 POP DUP2 SWAP4 POP POP POP PUSH2 0xF6D DUP5 DUP5 PUSH1 0x4 PUSH2 0x104C JUMP JUMPDEST DUP1 SWAP5 POP DUP2 SWAP6 POP POP POP PUSH2 0xF81 DUP5 DUP5 DUP15 DUP15 PUSH2 0xE42 JUMP JUMPDEST DUP1 SWAP5 POP DUP2 SWAP6 POP POP POP PUSH2 0xF95 DUP5 DUP5 DUP9 DUP9 PUSH2 0xD12 JUMP JUMPDEST DUP1 SWAP5 POP DUP2 SWAP6 POP POP POP PUSH2 0xFA9 DUP11 DUP11 PUSH1 0x8 PUSH2 0x104C JUMP JUMPDEST DUP1 SWAP7 POP DUP2 SWAP8 POP POP POP PUSH2 0xFBD DUP7 DUP7 DUP13 DUP13 PUSH2 0xD12 JUMP JUMPDEST DUP1 SWAP7 POP DUP2 SWAP8 POP POP POP PUSH2 0xFD1 DUP7 DUP7 DUP5 DUP5 PUSH2 0xD12 JUMP JUMPDEST DUP1 SWAP7 POP DUP2 SWAP8 POP POP POP PUSH2 0xFE5 DUP5 DUP5 DUP9 DUP9 PUSH2 0xE42 JUMP JUMPDEST DUP1 SWAP5 POP DUP2 SWAP6 POP POP POP PUSH2 0xFF9 DUP13 DUP13 PUSH1 0x2 PUSH2 0x104C JUMP JUMPDEST DUP1 SWAP7 POP DUP2 SWAP8 POP POP POP PUSH2 0x100D DUP7 DUP7 DUP11 DUP11 PUSH2 0xD12 JUMP JUMPDEST DUP1 SWAP7 POP DUP2 SWAP8 POP POP POP PUSH2 0x1021 DUP9 DUP9 DUP5 DUP5 PUSH2 0xD12 JUMP JUMPDEST DUP1 SWAP3 POP DUP2 SWAP4 POP POP POP PUSH2 0x1035 DUP3 DUP3 PUSH1 0x8 PUSH2 0x104C JUMP JUMPDEST DUP1 SWAP3 POP DUP2 SWAP4 POP POP POP SWAP7 POP SWAP7 POP SWAP7 POP SWAP7 POP SWAP7 POP SWAP7 SWAP1 POP JUMP JUMPDEST PUSH0 DUP1 PUSH32 0x30644E72E131A029B85045B68181585D97816A916871CA8D3C208C16D87CFD47 DUP1 PUSH2 0x107D JUMPI PUSH2 0x107C PUSH2 0x14D8 JUMP JUMPDEST JUMPDEST DUP4 DUP7 MULMOD PUSH32 0x30644E72E131A029B85045B68181585D97816A916871CA8D3C208C16D87CFD47 DUP1 PUSH2 0x10AF JUMPI PUSH2 0x10AE PUSH2 0x14D8 JUMP JUMPDEST JUMPDEST DUP5 DUP7 MULMOD SWAP2 POP SWAP2 POP SWAP4 POP SWAP4 SWAP2 POP POP JUMP JUMPDEST PUSH0 DUP1 PUSH0 PUSH2 0x117E PUSH32 0x30644E72E131A029B85045B68181585D97816A916871CA8D3C208C16D87CFD47 DUP1 PUSH2 0x10F3 JUMPI PUSH2 0x10F2 PUSH2 0x14D8 JUMP JUMPDEST JUMPDEST PUSH32 0x30644E72E131A029B85045B68181585D97816A916871CA8D3C208C16D87CFD47 DUP1 PUSH2 0x1122 JUMPI PUSH2 0x1121 PUSH2 0x14D8 JUMP JUMPDEST JUMPDEST DUP8 DUP9 MULMOD PUSH32 0x30644E72E131A029B85045B68181585D97816A916871CA8D3C208C16D87CFD47 DUP1 PUSH2 0x1154 JUMPI PUSH2 0x1153 PUSH2 0x14D8 JUMP JUMPDEST JUMPDEST DUP8 DUP9 MULMOD ADDMOD PUSH32 0x30644E72E131A029B85045B68181585D97816A916871CA8D3C208C16D87CFD47 PUSH2 0x1242 JUMP JUMPDEST SWAP1 POP PUSH32 0x30644E72E131A029B85045B68181585D97816A916871CA8D3C208C16D87CFD47 DUP1 PUSH2 0x11AF JUMPI PUSH2 0x11AE PUSH2 0x14D8 JUMP JUMPDEST JUMPDEST DUP2 DUP7 MULMOD PUSH32 0x30644E72E131A029B85045B68181585D97816A916871CA8D3C208C16D87CFD47 DUP1 PUSH2 0x11E1 JUMPI PUSH2 0x11E0 PUSH2 0x14D8 JUMP JUMPDEST JUMPDEST DUP3 DUP7 MULMOD PUSH32 0x30644E72E131A029B85045B68181585D97816A916871CA8D3C208C16D87CFD47 PUSH2 0x120F SWAP2 SWAP1 PUSH2 0x1562 JUMP JUMPDEST SWAP3 POP SWAP3 POP POP SWAP3 POP SWAP3 SWAP1 POP JUMP JUMPDEST PUSH0 DUP2 DUP1 PUSH2 0x122B JUMPI PUSH2 0x122A PUSH2 0x14D8 JUMP JUMPDEST JUMPDEST DUP4 DUP4 PUSH2 0x1237 SWAP2 SWAP1 PUSH2 0x1562 JUMP JUMPDEST DUP6 ADDMOD SWAP1 POP SWAP4 SWAP3 POP POP POP JUMP JUMPDEST PUSH0 DUP1 PUSH1 0x40 MLOAD PUSH1 0x20 DUP2 MSTORE PUSH1 0x20 DUP1 DUP3 ADD MSTORE PUSH1 0x20 PUSH1 0x40 DUP3 ADD MSTORE DUP5 PUSH1 0x60 DUP3 ADD MSTORE PUSH1 0x2 DUP5 SUB PUSH1 0x80 DUP3 ADD MSTORE DUP4 PUSH1 0xA0 DUP3 ADD MSTORE PUSH1 0x20 DUP2 PUSH1 0xC0 DUP4 PUSH1 0x5 PUSH2 0x7D0 GAS SUB STATICCALL SWAP2 POP DUP1 MLOAD SWAP3 POP POP DUP1 PUSH2 0x128B JUMPI PUSH0 DUP1 REVERT JUMPDEST POP SWAP3 SWAP2 POP POP JUMP JUMPDEST PUSH1 0x40 MLOAD DUP1 PUSH1 0xC0 ADD PUSH1 0x40 MSTORE DUP1 PUSH1 0x6 SWAP1 PUSH1 0x20 DUP3 MUL DUP1 CALLDATASIZE DUP4 CALLDATACOPY DUP1 DUP3 ADD SWAP2 POP POP SWAP1 POP POP SWAP1 JUMP JUMPDEST PUSH0 DUP2 SWAP1 POP SWAP2 SWAP1 POP JUMP JUMPDEST PUSH2 0x12C6 DUP2 PUSH2 0x12B4 JUMP JUMPDEST DUP3 MSTORE POP POP JUMP JUMPDEST PUSH0 PUSH1 0x20 DUP3 ADD SWAP1 POP PUSH2 0x12DF PUSH0 DUP4 ADD DUP5 PUSH2 0x12BD JUMP JUMPDEST SWAP3 SWAP2 POP POP JUMP JUMPDEST PUSH0 DUP1 REVERT JUMPDEST PUSH2 0x12F2 DUP2 PUSH2 0x12B4 JUMP JUMPDEST DUP2 EQ PUSH2 0x12FC JUMPI PUSH0 DUP1 REVERT JUMPDEST POP JUMP JUMPDEST PUSH0 DUP2 CALLDATALOAD SWAP1 POP PUSH2 0x130D DUP2 PUSH2 0x12E9 JUMP JUMPDEST SWAP3 SWAP2 POP POP JUMP JUMPDEST PUSH0 DUP1 PUSH0 DUP1 PUSH0 DUP1 PUSH0 DUP1 PUSH2 0x100 DUP10 DUP12 SUB SLT ISZERO PUSH2 0x1330 JUMPI PUSH2 0x132F PUSH2 0x12E5 JUMP JUMPDEST JUMPDEST PUSH0 PUSH2 0x133D DUP12 DUP3 DUP13 ADD PUSH2 0x12FF JUMP JUMPDEST SWAP9 POP POP PUSH1 0x20 PUSH2 0x134E DUP12 DUP3 DUP13 ADD PUSH2 0x12FF JUMP JUMPDEST SWAP8 POP POP PUSH1 0x40 PUSH2 0x135F DUP12 DUP3 DUP13 ADD PUSH2 0x12FF JUMP JUMPDEST SWAP7 POP POP PUSH1 0x60 PUSH2 0x1370 DUP12 DUP3 DUP13 ADD PUSH2 0x12FF JUMP JUMPDEST SWAP6 POP POP PUSH1 0x80 PUSH2 0x1381 DUP12 DUP3 DUP13 ADD PUSH2 0x12FF JUMP JUMPDEST SWAP5 POP POP PUSH1 0xA0 PUSH2 0x1392 DUP12 DUP3 DUP13 ADD PUSH2 0x12FF JUMP JUMPDEST SWAP4 POP POP PUSH1 0xC0 PUSH2 0x13A3 DUP12 DUP3 DUP13 ADD PUSH2 0x12FF JUMP JUMPDEST SWAP3 POP POP PUSH1 0xE0 PUSH2 0x13B4 DUP12 DUP3 DUP13 ADD PUSH2 0x12FF JUMP JUMPDEST SWAP2 POP POP SWAP3 SWAP6 SWAP9 POP SWAP3 SWAP6 SWAP9 SWAP1 SWAP4 SWAP7 POP JUMP JUMPDEST PUSH0 PUSH1 0x80 DUP3 ADD SWAP1 POP PUSH2 0x13D7 PUSH0 DUP4 ADD DUP8 PUSH2 0x12BD JUMP JUMPDEST PUSH2 0x13E4 PUSH1 0x20 DUP4 ADD DUP7 PUSH2 0x12BD JUMP JUMPDEST PUSH2 0x13F1 PUSH1 0x40 DUP4 ADD DUP6 PUSH2 0x12BD JUMP JUMPDEST PUSH2 0x13FE PUSH1 0x60 DUP4 ADD DUP5 PUSH2 0x12BD JUMP JUMPDEST SWAP6 SWAP5 POP POP POP POP POP JUMP JUMPDEST PUSH0 DUP1 PUSH0 DUP1 PUSH0 PUSH1 0xA0 DUP7 DUP9 SUB SLT ISZERO PUSH2 0x1420 JUMPI PUSH2 0x141F PUSH2 0x12E5 JUMP JUMPDEST JUMPDEST PUSH0 PUSH2 0x142D DUP9 DUP3 DUP10 ADD PUSH2 0x12FF JUMP JUMPDEST SWAP6 POP POP PUSH1 0x20 PUSH2 0x143E DUP9 DUP3 DUP10 ADD PUSH2 0x12FF JUMP JUMPDEST SWAP5 POP POP PUSH1 0x40 PUSH2 0x144F DUP9 DUP3 DUP10 ADD PUSH2 0x12FF JUMP JUMPDEST SWAP4 POP POP PUSH1 0x60 PUSH2 0x1460 DUP9 DUP3 DUP10 ADD PUSH2 0x12FF JUMP JUMPDEST SWAP3 POP POP PUSH1 0x80 PUSH2 0x1471 DUP9 DUP3 DUP10 ADD PUSH2 0x12FF JUMP JUMPDEST SWAP2 POP POP SWAP3 SWAP6 POP SWAP3 SWAP6 SWAP1 SWAP4 POP JUMP JUMPDEST PUSH32 0x4E487B7100000000000000000000000000000000000000000000000000000000 PUSH0 MSTORE PUSH1 0x1 PUSH1 0x4 MSTORE PUSH1 0x24 PUSH0 REVERT JUMPDEST PUSH32 0x4E487B7100000000000000000000000000000000000000000000000000000000 PUSH0 MSTORE PUSH1 0x32 PUSH1 0x4 MSTORE PUSH1 0x24 PUSH0 REVERT JUMPDEST PUSH32 0x4E487B7100000000000000000000000000000000000000000000000000000000 PUSH0 MSTORE PUSH1 0x12 PUSH1 0x4 MSTORE PUSH1 0x24 PUSH0 REVERT JUMPDEST PUSH32 0x4E487B7100000000000000000000000000000000000000000000000000000000 PUSH0 MSTORE PUSH1 0x11 PUSH1 0x4 MSTORE PUSH1 0x24 PUSH0 REVERT JUMPDEST PUSH0 PUSH2 0x153C DUP3 PUSH2 0x12B4 JUMP JUMPDEST SWAP2 POP PUSH2 0x1547 DUP4 PUSH2 0x12B4 JUMP JUMPDEST SWAP3 POP DUP3 PUSH2 0x1557 JUMPI PUSH2 0x1556 PUSH2 0x14D8 JUMP JUMPDEST JUMPDEST DUP3 DUP3 DIV SWAP1 POP SWAP3 SWAP2 POP POP JUMP JUMPDEST PUSH0 PUSH2 0x156C DUP3 PUSH2 0x12B4 JUMP JUMPDEST SWAP2 POP PUSH2 0x1577 DUP4 PUSH2 0x12B4 JUMP JUMPDEST SWAP3 POP DUP3 DUP3 SUB SWAP1 POP DUP2 DUP2 GT ISZERO PUSH2 0x158F JUMPI PUSH2 0x158E PUSH2 0x1505 JUMP JUMPDEST JUMPDEST SWAP3 SWAP2 POP POP JUMP INVALID LOG2 PUSH5 0x6970667358 0x22 SLT KECCAK256 SWAP14 0xD3 NOT 0xFB DUP11 GASLIMIT OR 0xEE ISZERO 0x2B 0xF7 BALANCE MSTORE8 DUP15 0xC6 0xAB 0xAF KECCAK256 0xE3 0xCF 0xE2 LOG0 0xAC DUP10 0xD4 LT PUSH7 0x63E9C3014E6473 PUSH16 0x6C634300081900330000000000000000 "
		},
		"gasEstimates": {
			"creation": {
				"codeDepositCost": "1115800",
				"executionCost": "1183",
				"totalCost": "1116983"
			},
			"external": {
				"ECTwistAdd(uint256,uint256,uint256,uint256,uint256,uint256,uint256,uint256)": "infinite",
				"ECTwistMul(uint256,uint256,uint256,uint256,uint256)": "infinite",
				"GetFieldModulus()": "294"
			},
			"internal": {
				"_ECTwistAddJacobian(uint256,uint256,uint256,uint256,uint256,uint256,uint256,uint256,uint256,uint256,uint256,uint256)": "infinite",
				"_ECTwistDoubleJacobian(uint256,uint256,uint256,uint256,uint256,uint256)": "infinite",
				"_ECTwistMulJacobian(uint256,uint256,uint256,uint256,uint256,uint256,uint256)": "infinite",
				"_FQ2Add(uint256,uint256,uint256,uint256)": "infinite",
				"_FQ2Div(uint256,uint256,uint256,uint256)": "infinite",
				"_FQ2Inv(uint256,uint256)": "infinite",
				"_FQ2Muc(uint256,uint256,uint256)": "107",
				"_FQ2Mul(uint256,uint256,uint256,uint256)": "infinite",
				"_FQ2Sub(uint256,uint256,uint256,uint256)": "infinite",
				"_fromJacobian(uint256,uint256,uint256,uint256,uint256,uint256)": "infinite",
				"_isOnCurve(uint256,uint256,uint256,uint256)": "infinite",
				"_modInv(uint256,uint256)": "infinite",
				"submod(uint256,uint256,uint256)": "infinite"
			}
		},
		"methodIdentifiers": {
			"ECTwistAdd(uint256,uint256,uint256,uint256,uint256,uint256,uint256,uint256)": "61a931ec",
			"ECTwistMul(uint256,uint256,uint256,uint256,uint256)": "b73ab75d",
			"GetFieldModulus()": "55a3e90f"
		}
	},
	"abi": [
		{
			"inputs": [
				{
					"internalType": "uint256",
					"name": "pt1xx",
					"type": "uint256"
				},
				{
					"internalType": "uint256",
					"name": "pt1xy",
					"type": "uint256"
				},
				{
					"internalType": "uint256",
					"name": "pt1yx",
					"type": "uint256"
				},
				{
					"internalType": "uint256",
					"name": "pt1yy",
					"type": "uint256"
				},
				{
					"internalType": "uint256",
					"name": "pt2xx",
					"type": "uint256"
				},
				{
					"internalType": "uint256",
					"name": "pt2xy",
					"type": "uint256"
				},
				{
					"internalType": "uint256",
					"name": "pt2yx",
					"type": "uint256"
				},
				{
					"internalType": "uint256",
					"name": "pt2yy",
					"type": "uint256"
				}
			],
			"name": "ECTwistAdd",
			"outputs": [
				{
					"internalType": "uint256",
					"name": "",
					"type": "uint256"
				},
				{
					"internalType": "uint256",
					"name": "",
					"type": "uint256"
				},
				{
					"internalType": "uint256",
					"name": "",
					"type": "uint256"
				},
				{
					"internalType": "uint256",
					"name": "",
					"type": "uint256"
				}
			],
			"stateMutability": "view",
			"type": "function"
		},
		{
			"inputs": [
				{
					"internalType": "uint256",
					"name": "s",
					"type": "uint256"
				},
				{
					"internalType": "uint256",
					"name": "pt1xx",
					"type": "uint256"
				},
				{
					"internalType": "uint256",
					"name": "pt1xy",
					"type": "uint256"
				},
				{
					"internalType": "uint256",
					"name": "pt1yx",
					"type": "uint256"
				},
				{
					"internalType": "uint256",
					"name": "pt1yy",
					"type": "uint256"
				}
			],
			"name": "ECTwistMul",
			"outputs": [
				{
					"internalType": "uint256",
					"name": "",
					"type": "uint256"
				},
				{
					"internalType": "uint256",
					"name": "",
					"type": "uint256"
				},
				{
					"internalType": "uint256",
					"name": "",
					"type": "uint256"
				},
				{
					"internalType": "uint256",
					"name": "",
					"type": "uint256"
				}
			],
			"stateMutability": "view",
			"type": "function"
		},
		{
			"inputs": [],
			"name": "GetFieldModulus",
			"outputs": [
				{
					"internalType": "uint256",
					"name": "",
					"type": "uint256"
				}
			],
			"stateMutability": "pure",
			"type": "function"
		}
	]
}